{
  "contractName": "AdFraudPBFT",
  "abi": [
    {
      "inputs": [
        {
          "internalType": "address",
          "name": "_treasury",
          "type": "address"
        }
      ],
      "stateMutability": "nonpayable",
      "type": "constructor"
    },
    {
      "anonymous": false,
      "inputs": [
        {
          "indexed": true,
          "internalType": "address",
          "name": "account",
          "type": "address"
        }
      ],
      "name": "AdminAssigned",
      "type": "event"
    },
    {
      "anonymous": false,
      "inputs": [
        {
          "indexed": true,
          "internalType": "address",
          "name": "account",
          "type": "address"
        }
      ],
      "name": "AdminRevoked",
      "type": "event"
    },
    {
      "anonymous": false,
      "inputs": [
        {
          "indexed": true,
          "internalType": "address",
          "name": "account",
          "type": "address"
        }
      ],
      "name": "AuditorAssigned",
      "type": "event"
    },
    {
      "anonymous": false,
      "inputs": [
        {
          "indexed": true,
          "internalType": "address",
          "name": "account",
          "type": "address"
        }
      ],
      "name": "AuditorRevoked",
      "type": "event"
    },
    {
      "anonymous": false,
      "inputs": [
        {
          "indexed": true,
          "internalType": "uint256",
          "name": "campaignId",
          "type": "uint256"
        },
        {
          "indexed": true,
          "internalType": "address",
          "name": "advertiser",
          "type": "address"
        },
        {
          "indexed": false,
          "internalType": "uint256",
          "name": "cpcWei",
          "type": "uint256"
        },
        {
          "indexed": false,
          "internalType": "uint256",
          "name": "initialBudget",
          "type": "uint256"
        },
        {
          "indexed": false,
          "internalType": "string",
          "name": "meta",
          "type": "string"
        }
      ],
      "name": "CampaignCreated",
      "type": "event"
    },
    {
      "anonymous": false,
      "inputs": [
        {
          "indexed": true,
          "internalType": "uint256",
          "name": "campaignId",
          "type": "uint256"
        },
        {
          "indexed": false,
          "internalType": "uint256",
          "name": "amount",
          "type": "uint256"
        },
        {
          "indexed": false,
          "internalType": "uint256",
          "name": "newBudget",
          "type": "uint256"
        }
      ],
      "name": "CampaignFunded",
      "type": "event"
    },
    {
      "anonymous": false,
      "inputs": [
        {
          "indexed": true,
          "internalType": "uint256",
          "name": "campaignId",
          "type": "uint256"
        },
        {
          "indexed": false,
          "internalType": "bool",
          "name": "paused",
          "type": "bool"
        }
      ],
      "name": "CampaignPaused",
      "type": "event"
    },
    {
      "anonymous": false,
      "inputs": [
        {
          "indexed": true,
          "internalType": "bytes32",
          "name": "clickHash",
          "type": "bytes32"
        },
        {
          "indexed": true,
          "internalType": "uint256",
          "name": "campaignId",
          "type": "uint256"
        },
        {
          "indexed": true,
          "internalType": "address",
          "name": "publisher",
          "type": "address"
        },
        {
          "indexed": false,
          "internalType": "address",
          "name": "gateway",
          "type": "address"
        },
        {
          "indexed": false,
          "internalType": "uint256",
          "name": "cpcWei",
          "type": "uint256"
        },
        {
          "indexed": false,
          "internalType": "uint256",
          "name": "timestamp",
          "type": "uint256"
        },
        {
          "indexed": false,
          "internalType": "bytes32",
          "name": "metadataCIDHash",
          "type": "bytes32"
        }
      ],
      "name": "ClickRecorded",
      "type": "event"
    },
    {
      "anonymous": false,
      "inputs": [
        {
          "indexed": true,
          "internalType": "bytes32",
          "name": "txHash",
          "type": "bytes32"
        },
        {
          "indexed": false,
          "internalType": "bool",
          "name": "approved",
          "type": "bool"
        },
        {
          "indexed": false,
          "internalType": "uint256",
          "name": "voteCount",
          "type": "uint256"
        }
      ],
      "name": "ConsensusReached",
      "type": "event"
    },
    {
      "anonymous": false,
      "inputs": [
        {
          "indexed": true,
          "internalType": "bytes32",
          "name": "txHash",
          "type": "bytes32"
        },
        {
          "indexed": true,
          "internalType": "address",
          "name": "node",
          "type": "address"
        },
        {
          "indexed": false,
          "internalType": "bool",
          "name": "vote",
          "type": "bool"
        }
      ],
      "name": "ConsensusVote",
      "type": "event"
    },
    {
      "anonymous": false,
      "inputs": [
        {
          "indexed": true,
          "internalType": "address",
          "name": "account",
          "type": "address"
        }
      ],
      "name": "GatewayAssigned",
      "type": "event"
    },
    {
      "anonymous": false,
      "inputs": [
        {
          "indexed": true,
          "internalType": "address",
          "name": "account",
          "type": "address"
        }
      ],
      "name": "GatewayRevoked",
      "type": "event"
    },
    {
      "anonymous": false,
      "inputs": [
        {
          "indexed": true,
          "internalType": "address",
          "name": "gateway",
          "type": "address"
        },
        {
          "indexed": false,
          "internalType": "uint256",
          "name": "slashAmount",
          "type": "uint256"
        },
        {
          "indexed": false,
          "internalType": "bytes32",
          "name": "evidenceCIDHash",
          "type": "bytes32"
        }
      ],
      "name": "GatewaySlashed",
      "type": "event"
    },
    {
      "anonymous": false,
      "inputs": [
        {
          "indexed": true,
          "internalType": "address",
          "name": "gateway",
          "type": "address"
        },
        {
          "indexed": false,
          "internalType": "uint256",
          "name": "amount",
          "type": "uint256"
        },
        {
          "indexed": false,
          "internalType": "uint256",
          "name": "totalStake",
          "type": "uint256"
        }
      ],
      "name": "GatewayStaked",
      "type": "event"
    },
    {
      "anonymous": false,
      "inputs": [
        {
          "indexed": true,
          "internalType": "address",
          "name": "gateway",
          "type": "address"
        },
        {
          "indexed": false,
          "internalType": "uint256",
          "name": "amount",
          "type": "uint256"
        },
        {
          "indexed": false,
          "internalType": "uint256",
          "name": "totalStake",
          "type": "uint256"
        }
      ],
      "name": "GatewayUnstaked",
      "type": "event"
    },
    {
      "anonymous": false,
      "inputs": [
        {
          "indexed": true,
          "internalType": "address",
          "name": "node",
          "type": "address"
        },
        {
          "indexed": false,
          "internalType": "uint256",
          "name": "stake",
          "type": "uint256"
        }
      ],
      "name": "PBFTNodeAdded",
      "type": "event"
    },
    {
      "anonymous": false,
      "inputs": [
        {
          "indexed": true,
          "internalType": "address",
          "name": "node",
          "type": "address"
        }
      ],
      "name": "PBFTNodeRemoved",
      "type": "event"
    },
    {
      "anonymous": false,
      "inputs": [
        {
          "indexed": true,
          "internalType": "address",
          "name": "account",
          "type": "address"
        }
      ],
      "name": "PbftNodeAssigned",
      "type": "event"
    },
    {
      "anonymous": false,
      "inputs": [
        {
          "indexed": true,
          "internalType": "address",
          "name": "account",
          "type": "address"
        }
      ],
      "name": "PbftNodeRevoked",
      "type": "event"
    },
    {
      "anonymous": false,
      "inputs": [
        {
          "indexed": true,
          "internalType": "address",
          "name": "publisher",
          "type": "address"
        },
        {
          "indexed": false,
          "internalType": "uint256",
          "name": "amount",
          "type": "uint256"
        }
      ],
      "name": "PublisherWithdrawal",
      "type": "event"
    },
    {
      "anonymous": false,
      "inputs": [
        {
          "indexed": true,
          "internalType": "bytes32",
          "name": "txHash",
          "type": "bytes32"
        },
        {
          "indexed": true,
          "internalType": "uint256",
          "name": "campaignId",
          "type": "uint256"
        },
        {
          "indexed": true,
          "internalType": "address",
          "name": "publisher",
          "type": "address"
        }
      ],
      "name": "TransactionExecuted",
      "type": "event"
    },
    {
      "anonymous": false,
      "inputs": [
        {
          "indexed": true,
          "internalType": "bytes32",
          "name": "txHash",
          "type": "bytes32"
        },
        {
          "indexed": true,
          "internalType": "uint256",
          "name": "campaignId",
          "type": "uint256"
        },
        {
          "indexed": true,
          "internalType": "address",
          "name": "publisher",
          "type": "address"
        }
      ],
      "name": "TransactionProposed",
      "type": "event"
    },
    {
      "anonymous": false,
      "inputs": [
        {
          "indexed": true,
          "internalType": "address",
          "name": "oldTreasury",
          "type": "address"
        },
        {
          "indexed": true,
          "internalType": "address",
          "name": "newTreasury",
          "type": "address"
        }
      ],
      "name": "TreasuryChanged",
      "type": "event"
    },
    {
      "stateMutability": "payable",
      "type": "fallback"
    },
    {
      "inputs": [
        {
          "internalType": "uint256",
          "name": "",
          "type": "uint256"
        }
      ],
      "name": "activeNodes",
      "outputs": [
        {
          "internalType": "address",
          "name": "",
          "type": "address"
        }
      ],
      "stateMutability": "view",
      "type": "function"
    },
    {
      "inputs": [],
      "name": "admin",
      "outputs": [
        {
          "internalType": "address",
          "name": "",
          "type": "address"
        }
      ],
      "stateMutability": "view",
      "type": "function"
    },
    {
      "inputs": [
        {
          "internalType": "uint256",
          "name": "",
          "type": "uint256"
        }
      ],
      "name": "campaignIds",
      "outputs": [
        {
          "internalType": "uint256",
          "name": "",
          "type": "uint256"
        }
      ],
      "stateMutability": "view",
      "type": "function"
    },
    {
      "inputs": [
        {
          "internalType": "uint256",
          "name": "",
          "type": "uint256"
        }
      ],
      "name": "campaigns",
      "outputs": [
        {
          "internalType": "address",
          "name": "advertiser",
          "type": "address"
        },
        {
          "internalType": "uint256",
          "name": "cpcWei",
          "type": "uint256"
        },
        {
          "internalType": "uint256",
          "name": "budgetWei",
          "type": "uint256"
        },
        {
          "internalType": "bool",
          "name": "paused",
          "type": "bool"
        },
        {
          "internalType": "string",
          "name": "meta",
          "type": "string"
        }
      ],
      "stateMutability": "view",
      "type": "function"
    },
    {
      "inputs": [],
      "name": "consensusTimeoutSeconds",
      "outputs": [
        {
          "internalType": "uint256",
          "name": "",
          "type": "uint256"
        }
      ],
      "stateMutability": "view",
      "type": "function"
    },
    {
      "inputs": [
        {
          "internalType": "address",
          "name": "",
          "type": "address"
        }
      ],
      "name": "isAdmin",
      "outputs": [
        {
          "internalType": "bool",
          "name": "",
          "type": "bool"
        }
      ],
      "stateMutability": "view",
      "type": "function"
    },
    {
      "inputs": [
        {
          "internalType": "address",
          "name": "",
          "type": "address"
        }
      ],
      "name": "isAuditor",
      "outputs": [
        {
          "internalType": "bool",
          "name": "",
          "type": "bool"
        }
      ],
      "stateMutability": "view",
      "type": "function"
    },
    {
      "inputs": [
        {
          "internalType": "address",
          "name": "",
          "type": "address"
        }
      ],
      "name": "isGateway",
      "outputs": [
        {
          "internalType": "bool",
          "name": "",
          "type": "bool"
        }
      ],
      "stateMutability": "view",
      "type": "function"
    },
    {
      "inputs": [
        {
          "internalType": "address",
          "name": "",
          "type": "address"
        }
      ],
      "name": "isPbftNode",
      "outputs": [
        {
          "internalType": "bool",
          "name": "",
          "type": "bool"
        }
      ],
      "stateMutability": "view",
      "type": "function"
    },
    {
      "inputs": [],
      "name": "maxClickAgeSeconds",
      "outputs": [
        {
          "internalType": "uint256",
          "name": "",
          "type": "uint256"
        }
      ],
      "stateMutability": "view",
      "type": "function"
    },
    {
      "inputs": [],
      "name": "maxClickFutureSeconds",
      "outputs": [
        {
          "internalType": "uint256",
          "name": "",
          "type": "uint256"
        }
      ],
      "stateMutability": "view",
      "type": "function"
    },
    {
      "inputs": [],
      "name": "minGatewayStakeWei",
      "outputs": [
        {
          "internalType": "uint256",
          "name": "",
          "type": "uint256"
        }
      ],
      "stateMutability": "view",
      "type": "function"
    },
    {
      "inputs": [],
      "name": "minPBFTStake",
      "outputs": [
        {
          "internalType": "uint256",
          "name": "",
          "type": "uint256"
        }
      ],
      "stateMutability": "view",
      "type": "function"
    },
    {
      "inputs": [
        {
          "internalType": "address",
          "name": "",
          "type": "address"
        }
      ],
      "name": "pbftNodes",
      "outputs": [
        {
          "internalType": "address",
          "name": "nodeAddress",
          "type": "address"
        },
        {
          "internalType": "bool",
          "name": "isActive",
          "type": "bool"
        },
        {
          "internalType": "uint256",
          "name": "stake",
          "type": "uint256"
        },
        {
          "internalType": "uint256",
          "name": "votesParticipated",
          "type": "uint256"
        },
        {
          "internalType": "uint256",
          "name": "correctVotes",
          "type": "uint256"
        }
      ],
      "stateMutability": "view",
      "type": "function"
    },
    {
      "inputs": [
        {
          "internalType": "bytes32",
          "name": "",
          "type": "bytes32"
        }
      ],
      "name": "pendingTransactions",
      "outputs": [
        {
          "internalType": "bytes32",
          "name": "txHash",
          "type": "bytes32"
        },
        {
          "internalType": "uint256",
          "name": "campaignId",
          "type": "uint256"
        },
        {
          "internalType": "address",
          "name": "publisher",
          "type": "address"
        },
        {
          "internalType": "address",
          "name": "gateway",
          "type": "address"
        },
        {
          "internalType": "uint256",
          "name": "timestamp",
          "type": "uint256"
        },
        {
          "internalType": "bytes32",
          "name": "metadataCIDHash",
          "type": "bytes32"
        },
        {
          "internalType": "uint256",
          "name": "approveVotes",
          "type": "uint256"
        },
        {
          "internalType": "uint256",
          "name": "rejectVotes",
          "type": "uint256"
        },
        {
          "internalType": "uint256",
          "name": "totalVotes",
          "type": "uint256"
        },
        {
          "internalType": "uint256",
          "name": "requiredVotes",
          "type": "uint256"
        },
        {
          "internalType": "bool",
          "name": "executed",
          "type": "bool"
        },
        {
          "internalType": "bool",
          "name": "consensusReached",
          "type": "bool"
        },
        {
          "internalType": "uint256",
          "name": "proposalTime",
          "type": "uint256"
        }
      ],
      "stateMutability": "view",
      "type": "function"
    },
    {
      "inputs": [
        {
          "internalType": "uint256",
          "name": "",
          "type": "uint256"
        }
      ],
      "name": "pendingTxHashes",
      "outputs": [
        {
          "internalType": "bytes32",
          "name": "",
          "type": "bytes32"
        }
      ],
      "stateMutability": "view",
      "type": "function"
    },
    {
      "inputs": [
        {
          "internalType": "address",
          "name": "",
          "type": "address"
        }
      ],
      "name": "publisherBalance",
      "outputs": [
        {
          "internalType": "uint256",
          "name": "",
          "type": "uint256"
        }
      ],
      "stateMutability": "view",
      "type": "function"
    },
    {
      "inputs": [],
      "name": "requiredConsensusPercentage",
      "outputs": [
        {
          "internalType": "uint256",
          "name": "",
          "type": "uint256"
        }
      ],
      "stateMutability": "view",
      "type": "function"
    },
    {
      "inputs": [
        {
          "internalType": "address",
          "name": "",
          "type": "address"
        }
      ],
      "name": "stakeOf",
      "outputs": [
        {
          "internalType": "uint256",
          "name": "",
          "type": "uint256"
        }
      ],
      "stateMutability": "view",
      "type": "function"
    },
    {
      "inputs": [],
      "name": "treasury",
      "outputs": [
        {
          "internalType": "address",
          "name": "",
          "type": "address"
        }
      ],
      "stateMutability": "view",
      "type": "function"
    },
    {
      "inputs": [
        {
          "internalType": "bytes32",
          "name": "",
          "type": "bytes32"
        }
      ],
      "name": "usedClickHash",
      "outputs": [
        {
          "internalType": "bool",
          "name": "",
          "type": "bool"
        }
      ],
      "stateMutability": "view",
      "type": "function"
    },
    {
      "stateMutability": "payable",
      "type": "receive"
    },
    {
      "inputs": [
        {
          "internalType": "address",
          "name": "account",
          "type": "address"
        }
      ],
      "name": "assignAdmin",
      "outputs": [],
      "stateMutability": "nonpayable",
      "type": "function"
    },
    {
      "inputs": [
        {
          "internalType": "address",
          "name": "account",
          "type": "address"
        }
      ],
      "name": "revokeAdmin",
      "outputs": [],
      "stateMutability": "nonpayable",
      "type": "function"
    },
    {
      "inputs": [
        {
          "internalType": "address",
          "name": "account",
          "type": "address"
        }
      ],
      "name": "assignGateway",
      "outputs": [],
      "stateMutability": "nonpayable",
      "type": "function"
    },
    {
      "inputs": [
        {
          "internalType": "address",
          "name": "account",
          "type": "address"
        }
      ],
      "name": "revokeGateway",
      "outputs": [],
      "stateMutability": "nonpayable",
      "type": "function"
    },
    {
      "inputs": [
        {
          "internalType": "address",
          "name": "account",
          "type": "address"
        }
      ],
      "name": "assignAuditor",
      "outputs": [],
      "stateMutability": "nonpayable",
      "type": "function"
    },
    {
      "inputs": [
        {
          "internalType": "address",
          "name": "account",
          "type": "address"
        }
      ],
      "name": "revokeAuditor",
      "outputs": [],
      "stateMutability": "nonpayable",
      "type": "function"
    },
    {
      "inputs": [
        {
          "internalType": "address",
          "name": "account",
          "type": "address"
        }
      ],
      "name": "assignPbftNode",
      "outputs": [],
      "stateMutability": "nonpayable",
      "type": "function"
    },
    {
      "inputs": [
        {
          "internalType": "address",
          "name": "account",
          "type": "address"
        }
      ],
      "name": "revokePbftNode",
      "outputs": [],
      "stateMutability": "nonpayable",
      "type": "function"
    },
    {
      "inputs": [
        {
          "internalType": "uint256",
          "name": "newMin",
          "type": "uint256"
        }
      ],
      "name": "setMinGatewayStake",
      "outputs": [],
      "stateMutability": "nonpayable",
      "type": "function"
    },
    {
      "inputs": [
        {
          "internalType": "address",
          "name": "newTreasury",
          "type": "address"
        }
      ],
      "name": "setTreasury",
      "outputs": [],
      "stateMutability": "nonpayable",
      "type": "function"
    },
    {
      "inputs": [
        {
          "internalType": "uint256",
          "name": "secs",
          "type": "uint256"
        }
      ],
      "name": "setMaxClickAgeSeconds",
      "outputs": [],
      "stateMutability": "nonpayable",
      "type": "function"
    },
    {
      "inputs": [
        {
          "internalType": "uint256",
          "name": "secs",
          "type": "uint256"
        }
      ],
      "name": "setMaxClickFutureSeconds",
      "outputs": [],
      "stateMutability": "nonpayable",
      "type": "function"
    },
    {
      "inputs": [
        {
          "internalType": "uint256",
          "name": "percentage",
          "type": "uint256"
        }
      ],
      "name": "setRequiredConsensusPercentage",
      "outputs": [],
      "stateMutability": "nonpayable",
      "type": "function"
    },
    {
      "inputs": [
        {
          "internalType": "uint256",
          "name": "timeoutSeconds",
          "type": "uint256"
        }
      ],
      "name": "setConsensusTimeout",
      "outputs": [],
      "stateMutability": "nonpayable",
      "type": "function"
    },
    {
      "inputs": [
        {
          "internalType": "uint256",
          "name": "minStake",
          "type": "uint256"
        }
      ],
      "name": "setMinPBFTStake",
      "outputs": [],
      "stateMutability": "nonpayable",
      "type": "function"
    },
    {
      "inputs": [
        {
          "internalType": "address",
          "name": "node",
          "type": "address"
        }
      ],
      "name": "addPBFTNode",
      "outputs": [],
      "stateMutability": "payable",
      "type": "function"
    },
    {
      "inputs": [
        {
          "internalType": "address",
          "name": "node",
          "type": "address"
        }
      ],
      "name": "removePBFTNode",
      "outputs": [],
      "stateMutability": "nonpayable",
      "type": "function"
    },
    {
      "inputs": [],
      "name": "stakePBFTNode",
      "outputs": [],
      "stateMutability": "payable",
      "type": "function"
    },
    {
      "inputs": [],
      "name": "stakeGateway",
      "outputs": [],
      "stateMutability": "payable",
      "type": "function"
    },
    {
      "inputs": [
        {
          "internalType": "uint256",
          "name": "amount",
          "type": "uint256"
        }
      ],
      "name": "unstakeGateway",
      "outputs": [],
      "stateMutability": "nonpayable",
      "type": "function"
    },
    {
      "inputs": [
        {
          "internalType": "address",
          "name": "gateway",
          "type": "address"
        },
        {
          "internalType": "uint16",
          "name": "pctBps",
          "type": "uint16"
        },
        {
          "internalType": "bytes32",
          "name": "evidenceCIDHash",
          "type": "bytes32"
        }
      ],
      "name": "slashGateway",
      "outputs": [],
      "stateMutability": "nonpayable",
      "type": "function"
    },
    {
      "inputs": [
        {
          "internalType": "uint256",
          "name": "campaignId",
          "type": "uint256"
        },
        {
          "internalType": "uint256",
          "name": "cpcWei",
          "type": "uint256"
        },
        {
          "internalType": "string",
          "name": "meta",
          "type": "string"
        }
      ],
      "name": "createCampaign",
      "outputs": [
        {
          "internalType": "uint256",
          "name": "id",
          "type": "uint256"
        }
      ],
      "stateMutability": "payable",
      "type": "function"
    },
    {
      "inputs": [
        {
          "internalType": "uint256",
          "name": "campaignId",
          "type": "uint256"
        }
      ],
      "name": "fundCampaign",
      "outputs": [],
      "stateMutability": "payable",
      "type": "function"
    },
    {
      "inputs": [
        {
          "internalType": "uint256",
          "name": "campaignId",
          "type": "uint256"
        },
        {
          "internalType": "bool",
          "name": "paused",
          "type": "bool"
        }
      ],
      "name": "setCampaignPaused",
      "outputs": [],
      "stateMutability": "nonpayable",
      "type": "function"
    },
    {
      "inputs": [
        {
          "internalType": "bytes32",
          "name": "clickHash",
          "type": "bytes32"
        },
        {
          "internalType": "uint256",
          "name": "campaignId",
          "type": "uint256"
        },
        {
          "internalType": "address",
          "name": "publisher",
          "type": "address"
        },
        {
          "internalType": "uint256",
          "name": "timestamp",
          "type": "uint256"
        },
        {
          "internalType": "bytes32",
          "name": "metadataCIDHash",
          "type": "bytes32"
        }
      ],
      "name": "proposeTransaction",
      "outputs": [
        {
          "internalType": "bytes32",
          "name": "",
          "type": "bytes32"
        }
      ],
      "stateMutability": "nonpayable",
      "type": "function"
    },
    {
      "inputs": [
        {
          "internalType": "bytes32",
          "name": "txHash",
          "type": "bytes32"
        },
        {
          "internalType": "bool",
          "name": "approve",
          "type": "bool"
        }
      ],
      "name": "voteOnTransaction",
      "outputs": [],
      "stateMutability": "nonpayable",
      "type": "function"
    },
    {
      "inputs": [
        {
          "internalType": "bytes32",
          "name": "txHash",
          "type": "bytes32"
        }
      ],
      "name": "cleanupExpiredTransaction",
      "outputs": [],
      "stateMutability": "nonpayable",
      "type": "function"
    },
    {
      "inputs": [
        {
          "internalType": "bytes32",
          "name": "clickHash",
          "type": "bytes32"
        },
        {
          "internalType": "uint256",
          "name": "campaignId",
          "type": "uint256"
        },
        {
          "internalType": "address",
          "name": "publisher",
          "type": "address"
        },
        {
          "internalType": "address",
          "name": "gateway",
          "type": "address"
        },
        {
          "internalType": "uint256",
          "name": "timestamp",
          "type": "uint256"
        },
        {
          "internalType": "bytes32",
          "name": "metadataCIDHash",
          "type": "bytes32"
        }
      ],
      "name": "computeClickMessageHash",
      "outputs": [
        {
          "internalType": "bytes32",
          "name": "",
          "type": "bytes32"
        }
      ],
      "stateMutability": "view",
      "type": "function"
    },
    {
      "inputs": [
        {
          "internalType": "bytes32",
          "name": "clickHash",
          "type": "bytes32"
        },
        {
          "internalType": "uint256",
          "name": "campaignId",
          "type": "uint256"
        },
        {
          "internalType": "address",
          "name": "publisher",
          "type": "address"
        },
        {
          "internalType": "uint256",
          "name": "timestamp",
          "type": "uint256"
        },
        {
          "internalType": "bytes32",
          "name": "metadataCIDHash",
          "type": "bytes32"
        }
      ],
      "name": "submitClickGatewayDirect",
      "outputs": [],
      "stateMutability": "nonpayable",
      "type": "function"
    },
    {
      "inputs": [
        {
          "internalType": "bytes32",
          "name": "clickHash",
          "type": "bytes32"
        },
        {
          "internalType": "uint256",
          "name": "campaignId",
          "type": "uint256"
        },
        {
          "internalType": "address",
          "name": "publisher",
          "type": "address"
        },
        {
          "internalType": "address",
          "name": "gateway",
          "type": "address"
        },
        {
          "internalType": "uint256",
          "name": "timestamp",
          "type": "uint256"
        },
        {
          "internalType": "bytes32",
          "name": "metadataCIDHash",
          "type": "bytes32"
        },
        {
          "internalType": "bytes",
          "name": "signature",
          "type": "bytes"
        }
      ],
      "name": "submitClickWithSig",
      "outputs": [],
      "stateMutability": "nonpayable",
      "type": "function"
    },
    {
      "inputs": [
        {
          "internalType": "uint256",
          "name": "amount",
          "type": "uint256"
        }
      ],
      "name": "withdrawPublisher",
      "outputs": [],
      "stateMutability": "nonpayable",
      "type": "function"
    },
    {
      "inputs": [
        {
          "internalType": "uint256",
          "name": "campaignId",
          "type": "uint256"
        }
      ],
      "name": "getCampaign",
      "outputs": [
        {
          "internalType": "address",
          "name": "advertiser",
          "type": "address"
        },
        {
          "internalType": "uint256",
          "name": "cpcWei",
          "type": "uint256"
        },
        {
          "internalType": "uint256",
          "name": "budgetWei",
          "type": "uint256"
        },
        {
          "internalType": "bool",
          "name": "paused",
          "type": "bool"
        },
        {
          "internalType": "string",
          "name": "meta",
          "type": "string"
        }
      ],
      "stateMutability": "view",
      "type": "function"
    },
    {
      "inputs": [],
      "name": "getCampaignIds",
      "outputs": [
        {
          "internalType": "uint256[]",
          "name": "",
          "type": "uint256[]"
        }
      ],
      "stateMutability": "view",
      "type": "function"
    },
    {
      "inputs": [],
      "name": "getActiveNodes",
      "outputs": [
        {
          "internalType": "address[]",
          "name": "",
          "type": "address[]"
        }
      ],
      "stateMutability": "view",
      "type": "function"
    },
    {
      "inputs": [],
      "name": "getPendingTransactionHashes",
      "outputs": [
        {
          "internalType": "bytes32[]",
          "name": "",
          "type": "bytes32[]"
        }
      ],
      "stateMutability": "view",
      "type": "function"
    },
    {
      "inputs": [
        {
          "internalType": "bytes32",
          "name": "txHash",
          "type": "bytes32"
        }
      ],
      "name": "getPendingTransactionDetails",
      "outputs": [
        {
          "internalType": "uint256",
          "name": "campaignId",
          "type": "uint256"
        },
        {
          "internalType": "address",
          "name": "publisher",
          "type": "address"
        },
        {
          "internalType": "address",
          "name": "gateway",
          "type": "address"
        },
        {
          "internalType": "uint256",
          "name": "approveVotes",
          "type": "uint256"
        },
        {
          "internalType": "uint256",
          "name": "rejectVotes",
          "type": "uint256"
        },
        {
          "internalType": "uint256",
          "name": "totalVotes",
          "type": "uint256"
        },
        {
          "internalType": "uint256",
          "name": "requiredVotes",
          "type": "uint256"
        },
        {
          "internalType": "bool",
          "name": "executed",
          "type": "bool"
        },
        {
          "internalType": "bool",
          "name": "consensusReached",
          "type": "bool"
        },
        {
          "internalType": "uint256",
          "name": "proposalTime",
          "type": "uint256"
        }
      ],
      "stateMutability": "view",
      "type": "function"
    },
    {
      "inputs": [
        {
          "internalType": "bytes32",
          "name": "txHash",
          "type": "bytes32"
        },
        {
          "internalType": "address",
          "name": "node",
          "type": "address"
        }
      ],
      "name": "hasNodeVoted",
      "outputs": [
        {
          "internalType": "bool",
          "name": "",
          "type": "bool"
        }
      ],
      "stateMutability": "view",
      "type": "function"
    },
    {
      "inputs": [
        {
          "internalType": "bytes32",
          "name": "txHash",
          "type": "bytes32"
        },
        {
          "internalType": "address",
          "name": "node",
          "type": "address"
        }
      ],
      "name": "getNodeVote",
      "outputs": [
        {
          "internalType": "bool",
          "name": "",
          "type": "bool"
        }
      ],
      "stateMutability": "view",
      "type": "function"
    },
    {
      "inputs": [
        {
          "internalType": "address",
          "name": "node",
          "type": "address"
        }
      ],
      "name": "getNodeStats",
      "outputs": [
        {
          "internalType": "bool",
          "name": "isActive",
          "type": "bool"
        },
        {
          "internalType": "uint256",
          "name": "stake",
          "type": "uint256"
        },
        {
          "internalType": "uint256",
          "name": "votesParticipated",
          "type": "uint256"
        },
        {
          "internalType": "uint256",
          "name": "correctVotes",
          "type": "uint256"
        },
        {
          "internalType": "uint256",
          "name": "accuracyPercentage",
          "type": "uint256"
        }
      ],
      "stateMutability": "view",
      "type": "function"
    }
  ],
  "bytecode": "0x6080346200012f57601f62003a5438819003918201601f19168301916001600160401b0383118484101762000134578084926020946040528339810103126200012f57516001600160a01b038116908190036200012f576043600e55610258600f55670de0b6b3a76400006010556706f05b59d3b200006011556201518060135560786014558015620000f65760018060a01b03199033826004541617600455806000923384528360205260408420600160ff198254161790556012541617601255604051917f8c3aa5f43a388513435861bf27dfad7829cd248696fed367c62d441f629544968180a361390990816200014b8239f35b60405162461bcd60e51b8152602060048201526011602482015270151c99585cdd5c9e481c995c5d5a5c9959607a1b6044820152606490fd5b600080fd5b634e487b7160e01b600052604160045260246000fdfe60806040526004361015610018575b361561001657005b005b60003560e01c8063022a91d4146103d35780630faef430146103ce578063141961bc146103925780631634b3e7146103c95780631b4160d7146103c457806324d7806c146103bf5780632d345670146103ba5780633213d179146103b55780633da7d2ed146103b057806342623360146103ab57806347c9e8f6146103a6578063480d1dd3146103a157806349b905571461039c57806352b391b2146103975780635598f8cc146103925780635e5344941461038d5780636031df0a14610388578063605663621461038357806361a32d181461037e57806361d027b31461037957806362b4a3cf14610374578063656123d81461036f5780636962cecc1461036a5780636b51e919146103655780636d89b3311461036057806372abdce41461035b5780637dca77a11461035657806385134bc614610351578063852f522e1461034c57806389eb494f146103475780638a339029146103425780638dbb25f71461033d57806391cbf44e1461033857806392bd38bc1461033357806392d59fc11461032e57806396f9d9831461032957806399d5185e146103245780639b5477ed1461031f578063a38ad9861461031a578063a435a35714610315578063a698195414610310578063b057253c1461030b578063b0f0a7f414610306578063b369359d14610301578063b38f949b146102fc578063b402980b146102f7578063b51eb903146102f2578063b9800c59146102ed578063bfe69d9a146102e8578063c11be1b8146102e3578063c14af162146102de578063cf173b90146102d9578063dc17027d146102d4578063de45db4f146102cf578063eba41f6b146102ca578063eeed60b3146102c5578063f0f44260146102c0578063f6c0169c146102bb578063f851a440146102b65763f94c3f230361000e5761224d565b612224565b6121b9565b6120f2565b6120d4565b6120a1565b612067565b612049565b61201a565b611dd5565b611d92565b611d53565b611d20565b611c98565b611c21565b611b6e565b611b2f565b611b11565b611ad2565b611a93565b611a0c565b6119a7565b611930565b6118fd565b6118b4565b61173d565b61168c565b611551565b6114b3565b611480565b611446565b611422565b6113d2565b6112e3565b6112b0565b611194565b6110eb565b61106f565b610fae565b610f37565b610f0e565b610ef0565b610ed2565b610e68565b610dc4565b610690565b610d1a565b610cdb565b610c61565b610bca565b610b90565b610b16565b610a32565b6109bb565b61097c565b6107de565b610780565b6104d6565b3461046d5760008060031936011261046a576040518091600d549081835260208093018092600d835284832090835b81811061045657505050846104189103856105fc565b60405193838594850191818652518092526040850193925b82811061043f57505050500390f35b835185528695509381019392810192600101610430565b825484529286019260019283019201610402565b80fd5b600080fd5b6001600160a01b031690565b602435906001600160a01b038216820361046d57565b604435906001600160a01b038216820361046d57565b606435906001600160a01b038216820361046d57565b600435906001600160a01b038216820361046d57565b3461046d57604036600319011261046d576004356104f261047e565b81600052600c60205260ff61050e82600c604060002001610965565b5416156105525761053561053c9161054e93600052600c602052600d604060002001610965565b5460ff1690565b60405190151581529081906020820190565b0390f35b60405162461bcd60e51b8152602060048201526012602482015271139bd919481a185cc81b9bdd081d9bdd195960721b6044820152606490fd5b6000526006602052604060002090565b600052600c602052604060002090565b90600182811c921680156105dc575b60208310146105c657565b634e487b7160e01b600052602260045260246000fd5b91607f16916105bb565b634e487b7160e01b600052604160045260246000fd5b601f909101601f19168101906001600160401b0382119082101761061f57604052565b6105e6565b93919594929060018060a01b031684526020958685015260408401521515606083015260a060808301528051908160a084015260005b82811061067c57505060c09293506000838284010152601f8019910116010190565b81810186015184820160c00152850161065a565b3461046d5760208060031936011261046d576000906004358252600681526040822060018060a01b03815416906001908181015493600282015490600460ff600385015416930160405194888254926106e8846105ac565b8089529383811690811561075c5750600114610721575b50505050506107158361054e95969703846105fc565b60405195869586610624565b9080949a50528883205b828410610749575050508301909501946107158361054e38806106ff565b80548785018b015292890192810161072b565b60ff19168987015250505050151560051b84010195506107158361054e38806106ff565b3461046d57602036600319011261046d576004356000526008602052602060ff604060002054166040519015158152f35b9181601f8401121561046d578235916001600160401b03831161046d576020838186019501011161046d57565b3461046d5760e036600319011261046d576024356004356107fd610494565b916108066104aa565b9260a43592608435929060c4356001600160401b03811161046d576108d7610535886108bd6108aa876108a4886108586100169f8f908f908f6108506108dc9e36906004016107b1565b989096613533565b6040517b0ca2ba3432b932bab69029b4b3b732b21026b2b9b9b0b3b29d05199960211b60208201908152603c80830193909352918152610899605c826105fc565b519020923691612b3c565b90613728565b6001600160a01b038381169116146135b5565b6001600160a01b0316600090815260016020526040902090565b6135f5565b42841115610900576108fb6108f1428661262f565b6014541015613676565b612d7f565b6108fb61090d854261262f565b6013541015613636565b6001600160a01b0316600090815260056020526040902090565b6001600160a01b03166000908152600a6020526040902090565b6001600160a01b0316600090815260036020526040902090565b9060018060a01b0316600052602052604060002090565b3461046d57602036600319011261046d576001600160a01b0361099d6104c0565b166000526000602052602060ff604060002054166040519015158152f35b3461046d57602036600319011261046d576109d46104c0565b600090338252816020526109ee60ff6040842054166123e0565b6001600160a01b0316808252602082905260408220805460ff191690557f631ff1c4e1a02c54b480a34b810e03bcee61fe38efcb243930a7f820914923e28280a280f35b3461046d57602036600319011261046d576004356000903382526001602052610a6160ff6040842054166127a9565b80151580610b00575b610a73906127f4565b7f5a234eb1aa7640e15f81f6a544d81e5df683782173bdc5edeeeed061c42f3040610aee610aaa83610aa433610917565b5461262f565b80158015610af4575b610abc90612831565b80610ac633610917565b55610ae08580808088335af1610ada6126b4565b5061286f565b6040519182913395836127e3565b0390a280f35b50601154811015610ab3565b5033825260056020526040822054811115610a6a565b3461046d57602036600319011261046d57610b2f6104c0565b60009033825281602052610b4960ff6040842054166123e0565b6001600160a01b0316808252602082905260408220805460ff191660011790557fdb33970bd9bc1a413c7dac3b21e061709de094761c9396ef6d49b9ebdb7939338280a280f35b3461046d57602036600319011261046d576001600160a01b03610bb16104c0565b1660005260056020526020604060002054604051908152f35b3461046d5760008060031936011261046a57604051809160075490818352602080930180926007835284832090835b818110610c4d5750505084610c0f9103856105fc565b60405193838594850191818652518092526040850193925b828110610c3657505050500390f35b835185528695509381019392810192600101610c27565b825484529286019260019283019201610bf9565b3461046d57602036600319011261046d57610c7a6104c0565b60009033825281602052610c9460ff6040842054166123e0565b6001600160a01b0316808252600260205260408220805460ff191660011790557fd23bcfb31a1acf9b499949b0e6f2a060f57d2b3a445d13cc8c296a5050833a6f8280a280f35b3461046d57602036600319011261046d576001600160a01b03610cfc6104c0565b166000526002602052602060ff604060002054166040519015158152f35b3461046d57602036600319011261046d576001600160a01b03610d3b6104c0565b16600052600a6020526040600020600060028201549081610d92575b825460018401546003909401546040805160ff60a094851c161515815260208101969096528501939093526060840192909252608083015290f35b506003820154606481029080820460641490151715610dbf57610db88261054e9261293a565b9050610d57565b6125fb565b3461046d57606036600319011261046d57610ddd6104c0565b60243561ffff8116810361046d576000913383528260205260ff6040842054168015610e55575b15610e1957610e16916044359161299e565b80f35b60405162461bcd60e51b81526020600482015260146024820152732737ba1030b236b4b71037b91030bab234ba37b960611b6044820152606490fd5b50600260205260ff604084205416610e04565b3461046d57602036600319011261046d5760a06001600160a01b0380610e8c6104c0565b16600052600a6020526040600020805490600181015460ff60036002840154930154936040519581168652861c1615156020850152604084015260608301526080820152f35b3461046d57600036600319011261046d576020601154604051908152f35b3461046d57600036600319011261046d576020601054604051908152f35b3461046d57600036600319011261046d576012546040516001600160a01b039091168152602090f35b3461046d57602036600319011261046d57610f506104c0565b60009033825281602052610f6a60ff6040842054166123e0565b6001600160a01b0316808252600360205260408220805460ff191660011790556000805160206138948339815191528280a280f35b60243590811515820361046d57565b3461046d57604036600319011261046d57600435610fca610f9f565b9060009181835260066020526040832060018060a01b038154163314801561105a575b15611024578161053c7feb034104a3d72bdb4a17b6628fc9eaa19a0e4523003d2698e0fd72a430e2eb2f936003610aee9401612418565b60405162461bcd60e51b815260206004820152600e60248201526d139bdd08185d5d1a1bdc9a5e995960921b6044820152606490fd5b503384528360205260ff604085205416610fed565b3461046d57602036600319011261046d576110886104c0565b600090338252816020526110a260ff6040842054166123e0565b6001600160a01b03168082526001602081905260408320805460ff191690911790557f995f88a2fc5c12a9db3dd89063dbd465ba15e8363af32c086c6da4487248ab0d8280a280f35b3461046d5760008060031936011261046a576040518091600b549081835260208093018092600b835284832090835b81811061117757505050846111309103856105fc565b60405193838594850191818652518092526040850193925b82811061115757505050500390f35b83516001600160a01b031685528695509381019392810192600101611148565b82546001600160a01b03168452928601926001928301920161111a565b602036600319011261046d576111a86104c0565b600090338252816020526111c260ff6040842054166123e0565b6001600160a01b0381169061126c9061125f906111e0841515612448565b6111ee60105434101561248b565b61121361120e61120a61120084610931565b5460a01c60ff1690565b1590565b6124cc565b61125161121e61250e565b6001600160a01b03831681526001602082015234604082015286606082015286608082015261124c83610931565b61252d565b61125a8161257e565b61094b565b805460ff19166001179055565b7f7444d3411da8fe6fd4d0229de8e98c716472e2c384ed5a55e36a960a575859d4604051826000805160206138948339815191528580a23481528060208101610aee565b3461046d57602036600319011261046d573360005260006020526112db60ff604060002054166123e0565b600435601055005b3461046d57602036600319011261046d57600435600052600c6020526040600020805461054e60018301549160018060a01b036002850154169361132a6003820154610472565b91600482015460058301546006840154600785015490600886015492600987015494600b600a890154980154986040519c8d9c8d9960ff808d60081c169c169a9996936101809b9895929e9d9c999693919e6101a08c019f8c5260208c015260018060a01b0380921660408c01521660608a0152608089015260a088015260c087015260e0860152610100850152610120840152151561014083015215156101608201520152565b3461046d57600036600319011261046d576020601454604051908152f35b60a090600319011261046d5760043590602435906044356001600160a01b038116810361046d57906064359060843590565b3461046d57602061143e611435366113f0565b93929092612d7f565b604051908152f35b3461046d5760c036600319011261046d57602061143e611464610494565b61146c6104aa565b9060a4359160843591602435600435613533565b3461046d57602036600319011261046d573360005260006020526114ab60ff604060002054166123e0565b600435600f55005b3461046d57602036600319011261046d576004356000903382526009602052604082205481151580611547575b6114e9906127f4565b818103908111610dbf57338352600960205260408320556115138280808085335af1610ada6126b4565b60405190815233907f61136c8a797391fcd52c5552ea96089e2814d10eb84c76d221f58761125c4382908060208101610aee565b50808211156114e0565b606036600319011261046d576024356004356044356001600160401b03811161046d576115829036906004016107b1565b83919315611655577f2e64da7e06e88ccd84d69eccb21119ca81e40e5648611e89edfe888c8fa62597839161054e956115bc341515612aad565b6115e76001600160a01b036115e06115d38761058c565b546001600160a01b031690565b1615612af3565b6116266115f261250e565b33815286602082015234604082015260006060820152611613368585612b3c565b60808201526116218661058c565b612bc7565b61162f84612cd7565b6116426040519283923397349085612d0d565b0390a36040519081529081906020820190565b60405162461bcd60e51b815260206004820152600f60248201526e0435043206d757374206265203e203608c1b6044820152606490fd5b602036600319011261046d57600435600081815260066020526040902080546116bf906001600160a01b03161515612d40565b341561170d5761170860027f42a74499fc8265a526ec8ab4b3e4a4a06e50ef92c084b2634b356f72a5ee44af92016116f834825461279c565b80915560405191829134836127e3565b0390a2005b60405162461bcd60e51b81526020600482015260086024820152674e6f2066756e647360c01b6044820152606490fd5b3461046d57602036600319011261046d576004358061175b8161059c565b611767815415156130a5565b600a81019060ff825461177c828216156130e9565b611797611790600b850154600f549061279c565b42116134c1565b60081c1615611820575b50505060005b600d548082101561001657826117c96117bf84611879565b90549060031b1c90565b146117dd57506117d890612611565b6117a7565b61181892506117f96117bf6117f46117ff93612620565b611879565b91611879565b90919082549060031b91821b91600019901b1916179055565b610016613507565b60066118589161183e600080516020613834833981519152946131fc565b015460405191829182919060206040840193600081520152565b0390a28038806117a1565b634e487b7160e01b600052603260045260246000fd5b600d5481101561189457600d60005260206000200190600090565b611863565b600b5481101561189457600b60005260206000200190600090565b3461046d57602036600319011261046d57600435600b5481101561046d57600b6000526000805160206138b483398151915201546040516001600160a01b039091168152602090f35b3461046d57602036600319011261046d5733600052600060205261192860ff604060002054166123e0565b600435601455005b3461046d57602036600319011261046d576119496104c0565b6000903382528160205261196360ff6040842054166123e0565b6001600160a01b0316808252600160205260408220805460ff191690557f3ab01fe5356cd9e5f966e94c7294a3a850b8e1c1b8f62e7293c3ea6a402309ca8280a280f35b3461046d57602036600319011261046d576119c06104c0565b600090338252816020526119da60ff6040842054166123e0565b6001600160a01b0316808252600360205260408220805460ff191690556000805160206138148339815191528280a280f35b3461046d57602036600319011261046d57600435336000526000602052611a3a60ff604060002054166123e0565b6032811180611a88575b15611a4e57600e55005b60405162461bcd60e51b8152602060048201526012602482015271496e76616c69642070657263656e7461676560701b6044820152606490fd5b506064811115611a44565b3461046d57602036600319011261046d57600435600d5481101561046d57600d6000526000805160206138548339815191520154604051908152602090f35b3461046d57602036600319011261046d576001600160a01b03611af36104c0565b166000526003602052602060ff604060002054166040519015158152f35b3461046d57600036600319011261046d576020600f54604051908152f35b3461046d57602036600319011261046d5760043560075481101561046d5760076000526000805160206138748339815191520154604051908152602090f35b3461046d57602036600319011261046d576004356000908152600c6020908152604091829020600181015460028201546003830154600684015460078501546008808701546009880154600a890154600b909901548b519889526001600160a01b039788169a89019a909a5295909416988601989098526060850191909152608084015260a083015260c082015260ff808316151560e08301529190931c16151561010083015261012082015261014090f35b3461046d57602036600319011261046d57611c3a6104c0565b60009033825281602052611c5460ff6040842054166123e0565b6001600160a01b0316808252600260205260408220805460ff191690557feb2a2eb059f7ce22cdb9ce6710a0df23c2e8d5ca169ee77629faa99f8c788a018280a280f35b60008060031936011261046a573381526001602052611cbd60ff6040832054166127a9565b611cc8341515612762565b338152600560205260408120805490348201809211610dbf5755338152600560205260408120547f2a0a18dbee476b481250f5d3f9111f59cc104ea823d038e3ec86007e250e142960405180610aee339434836127e3565b3461046d57602036600319011261046d57336000526000602052611d4b60ff604060002054166123e0565b600435601155005b3461046d57602036600319011261046d576001600160a01b03611d746104c0565b166000526001602052602060ff604060002054166040519015158152f35b3461046d57604036600319011261046d57602060ff611dc9611db261047e565b600435600052600c8452600c604060002001610965565b54166040519015158152f35b3461046d5760408060031936011261046d57600435611df2610f9f565b916000923384526003602052611e0d60ff8386205416612726565b338452600a602052611e2760ff8386205460a01c166125bd565b611e308361059c565b611e3c815415156130a5565b600a810190611e5e60ff8354611e54828216156130e9565b60081c1615613134565b611ea361125f600c8301611e80611e7b61120a6105353385610965565b61317c565b611e9c611e94600b860154600f549061279c565b4211156131b8565b3390610965565b611eb983611eb433600d8501610965565b612418565b6008810192611ec88454612611565b845580156120055760068201611ede8154612611565b90555b6002611eec33610931565b01611ef78154612611565b905584519015158152339086907fa8934b5de653d266c6e8c00e5f0c2944c8272eb5ec79ad1e248784378f290ef690602090a36006810192835491600981015480931015600014611f835750505091610aee91611f62600080516020613834833981519152946131fc565b611f6b856132d8565b54905191829182919060206040840193600181520152565b600701805490949211611fc757505091610aee91611faf600080516020613834833981519152946131fc565b54905191829182919060206040840193600081520152565b909391925054600b5414611fdd575b5050505080f35b60008051602061383483398151915292611faf611ff9936131fc565b0390a238808080611fd6565b600782016120138154612611565b9055611ee1565b3461046d5761001661202b366113f0565b939290923360005260016020526108fb60ff604060002054166127a9565b3461046d57600036600319011261046d576020601354604051908152f35b3461046d57602036600319011261046d576001600160a01b036120886104c0565b1660005260096020526020604060002054604051908152f35b3461046d57602036600319011261046d573360005260006020526120cc60ff604060002054166123e0565b600435601355005b3461046d57600036600319011261046d576020600e54604051908152f35b3461046d57602036600319011261046d5761210b6104c0565b6000903382528160205261212560ff6040842054166123e0565b6001600160a01b0390808216801561218557610e1692601254167f8c3aa5f43a388513435861bf27dfad7829cd248696fed367c62d441f629544968580a3601280546001600160a01b0319166001600160a01b0392909216919091179055565b60405162461bcd60e51b815260206004820152600c60248201526b5a65726f206164647265737360a01b6044820152606490fd5b60008060031936011261046a5733815260036020526121de60ff604083205416612726565b6121e9341515612762565b338152600a60205261220460ff604083205460a01c166125bd565b338152600a60205260016040822001805490348201809211610dbf575580f35b3461046d57600036600319011261046d576004546040516001600160a01b039091168152602090f35b3461046d57602036600319011261046d576122666104c0565b6000903382528160205261228060ff6040842054166123e0565b61229461228f61120083610931565b6125bd565b6122ad6122a082610931565b805460ff60a01b19169055565b6122c36122b98261094b565b805460ff19169055565b6001600160a01b039080821690816000805160206138148339815191528580a2835b84600b54808310156123ce5784866123146122ff86611899565b905460039190911b1c6001600160a01b031690565b161461232a57505061232590612611565b6122e5565b6123a79495508193612374839461235561234f6122ff61234a8897612620565b611899565b91611899565b90919082549060031b9160018060a01b03809116831b921b1916179055565b61237c612652565b8160016123948161238c85610931565b015493610931565b0155865af16123a16126b4565b506126e4565b7f4c936f1d6ad9be801a3669e17d6a45930396095f4a955fc4264641dfa559dd318280a280f35b506123a793945080809381935061237c565b156123e757565b60405162461bcd60e51b81526020600482015260096024820152682737ba1030b236b4b760b91b6044820152606490fd5b9060ff801983541691151516179055565b80546001600160a01b0319166001600160a01b03909216919091179055565b1561244f57565b60405162461bcd60e51b8152602060048201526014602482015273496e76616c6964206e6f6465206164647265737360601b6044820152606490fd5b1561249257565b60405162461bcd60e51b8152602060048201526012602482015271496e73756666696369656e74207374616b6560701b6044820152606490fd5b156124d357565b60405162461bcd60e51b81526020600482015260136024820152724e6f646520616c72656164792061637469766560681b6044820152606490fd5b6040519060a082016001600160401b0381118382101761061f57604052565b90608060039161254660018060a01b0382511685612429565b6020810151845460ff60a01b191690151560a01b60ff60a01b1617845560408101516001850155606081015160028501550151910155565b600b5490600160401b82101561061f576001820180600b5582101561189457600b6000526125bb916000805160206138b483398151915201612429565b565b156125c457565b60405162461bcd60e51b815260206004820152600f60248201526e4e6f6465206e6f742061637469766560881b6044820152606490fd5b634e487b7160e01b600052601160045260246000fd5b6000198114610dbf5760010190565b600019810191908211610dbf57565b91908203918211610dbf57565b634e487b7160e01b600052603160045260246000fd5b600b54801561269457600019818101918083101561189457600b600081905291016000805160206138b48339815191520180546001600160a01b031916905555565b61263c565b6001600160401b03811161061f57601f01601f191660200190565b3d156126df573d906126c582612699565b916126d360405193846105fc565b82523d6000602084013e565b606090565b156126eb57565b60405162461bcd60e51b815260206004820152601360248201527214dd185ad9481c99599d5b990819985a5b1959606a1b6044820152606490fd5b1561272d57565b60405162461bcd60e51b815260206004820152600d60248201526c4e6f742050424654206e6f646560981b6044820152606490fd5b1561276957565b60405162461bcd60e51b815260206004820152600b60248201526a139bc8115512081cd95b9d60aa1b6044820152606490fd5b91908201809211610dbf57565b156127b057565b60405162461bcd60e51b815260206004820152600b60248201526a4e6f74206761746577617960a81b6044820152606490fd5b908152602081019190915260400190565b156127fb57565b60405162461bcd60e51b815260206004820152600e60248201526d125b9d985b1a5908185b5bdd5b9d60921b6044820152606490fd5b1561283857565b60405162461bcd60e51b815260206004820152600f60248201526e42656c6f77206d696e207374616b6560881b6044820152606490fd5b1561287657565b60405162461bcd60e51b8152602060048201526013602482015272115512081d1c985b9cd9995c8819985a5b1959606a1b6044820152606490fd5b156128b857565b60405162461bcd60e51b815260206004820152601060248201526f427073206f7574206f662072616e676560801b6044820152606490fd5b156128f757565b60405162461bcd60e51b81526020600482015260086024820152674e6f207374616b6560c01b6044820152606490fd5b81810292918115918404141715610dbf57565b8115612944570490565b634e487b7160e01b600052601260045260246000fd5b1561296157565b60405162461bcd60e51b815260206004820152601560248201527414db185cda081d1c985b9cd9995c8819985a5b1959605a1b6044820152606490fd5b6001600160a01b03811692908315612a765761ffff7f12ca20a179e8472ecdc6a3b0c7081673a1d8f6008d5e76f92d788936ac8fed1d93169081151580612a6a575b6129e9906128b1565b612a26612a20612a19612a116129fe85610917565b5495612a0b8715156128f0565b86612927565b612710900490565b809461262f565b91610917565b55612a56600080808085612a46612a41612a41601254610472565b610472565b5af1612a506126b4565b5061295a565b612a65604051928392836127e3565b0390a2565b506127108211156129e0565b60405162461bcd60e51b815260206004820152600f60248201526e496e76616c6964206761746577617960881b6044820152606490fd5b15612ab457565b60405162461bcd60e51b8152602060048201526017602482015276125b9a5d1a585b08189d5919d95d081c995c5d5a5c9959604a1b6044820152606490fd5b15612afa57565b60405162461bcd60e51b815260206004820152601a60248201527943616d706169676e20494420616c72656164792065786973747360301b6044820152606490fd5b929192612b4882612699565b91612b5660405193846105fc565b82948184528183011161046d578281602093846000960137010152565b90601f8111612b8157505050565b600091825260208220906020601f850160051c83019410612bbd575b601f0160051c01915b828110612bb257505050565b818155600101612ba6565b9092508290612b9d565b8151612bdc906001600160a01b031682612429565b60206080600482850151936001948582015560408601516002820155612c0b6060870151151560038301612418565b019301519081519160018060401b03831161061f57612c3483612c2e87546105ac565b87612b73565b81601f8411600114612c6d5750928293918392600094612c62575b50501b916000199060031b1c1916179055565b015192503880612c4f565b919083601f198116612c8488600052602060002090565b946000905b88838310612cbd5750505010612ca4575b505050811b019055565b015160001960f88460031b161c19169055388080612c9a565b858701518855909601959485019487935090810190612c89565b600754600160401b81101561061f5760018101806007558110156118945760076000526000805160206138748339815191520155565b928492608095928552602085015260606040850152816060850152848401376000828201840152601f01601f1916010190565b15612d4757565b60405162461bcd60e51b815260206004820152601060248201526f43616d706169676e206d697373696e6760801b6044820152606490fd5b9392919091336000526001602052612d9e60ff604060002054166127a9565b600b5493612daf6003861015612ee3565b612dc2612dbb8761059c565b5415612f29565b6001600160a01b03831694612e5f90612e5890612de0881515612f74565b612e02612dfd61120a6105358c6000526008602052604060002090565b612fb1565b612e4f612e0e8861058c565b612e25612e1e612a418354610472565b1515612d40565b612e3e612e3961120a600384015460ff1690565b612fef565b60016002820154910154111561302d565b600e5490612927565b6064900490565b918215612eda575b612e86612e738861059c565b9488865586600187015560028601612429565b612e933360038601612429565b600484015560058301556009820155600b42910155612eb18361306f565b827fe4eea94acf96bbf92835e94f170c7693795cf71a25eeb3b9252df6f47beadd53600080a490565b60019250612e67565b15612eea57565b60405162461bcd60e51b8152602060048201526017602482015276496e73756666696369656e742050424654206e6f64657360481b6044820152606490fd5b15612f3057565b60405162461bcd60e51b815260206004820152601c60248201527b151c985b9cd858dd1a5bdb88185b1c9958591e481c1c9bdc1bdcd95960221b6044820152606490fd5b15612f7b57565b60405162461bcd60e51b815260206004820152600e60248201526d2d32b93790383ab13634b9b432b960911b6044820152606490fd5b15612fb857565b60405162461bcd60e51b815260206004820152600f60248201526e4475706c696361746520636c69636b60881b6044820152606490fd5b15612ff657565b60405162461bcd60e51b815260206004820152600f60248201526e10d85b5c185a59db881c185d5cd959608a1b6044820152606490fd5b1561303457565b60405162461bcd60e51b8152602060048201526013602482015272125b9cdd59999a58da595b9d08189d5919d95d606a1b6044820152606490fd5b600d54600160401b81101561061f576001810180600d5581101561189457600d6000526000805160206138548339815191520155565b156130ac57565b60405162461bcd60e51b8152602060048201526015602482015274151c985b9cd858dd1a5bdb881b9bdd08199bdd5b99605a1b6044820152606490fd5b156130f057565b60405162461bcd60e51b815260206004820152601c60248201527b151c985b9cd858dd1a5bdb88185b1c9958591e48195e1958dd5d195960221b6044820152606490fd5b1561313b57565b60405162461bcd60e51b815260206004820152601960248201527810dbdb9cd95b9cdd5cc8185b1c9958591e481c995858da1959603a1b6044820152606490fd5b1561318357565b60405162461bcd60e51b815260206004820152600d60248201526c105b1c9958591e481d9bdd1959609a1b6044820152606490fd5b156131bf57565b60405162461bcd60e51b8152602060048201526015602482015274159bdd1a5b99c81c195c9a5bd908195e1c1a5c9959605a1b6044820152606490fd5b805461ff001916610100179055565b1561321257565b60405162461bcd60e51b815260206004820152601060248201526f105b1c9958591e48195e1958dd5d195960821b6044820152606490fd5b1561325157565b60405162461bcd60e51b815260206004820152601560248201527410dbdb9cd95b9cdd5cc81b9bdd081c995858da1959605a1b6044820152606490fd5b1561329557565b60405162461bcd60e51b815260206004820152601b60248201527a496e73756666696369656e7420617070726f76616c20766f74657360281b6044820152606490fd5b906132e28261059c565b613319600a820161330560ff82546132fc8282161561320b565b60081c1661324a565b61125f60068401546009850154111561328e565b61333161125f82546000526008602052604060002090565b60019283820191613342835461058c565b8581019360028554920161335783825461262f565b9055600283019161339061338861336e8554610472565b6001600160a01b0316600090815260096020526040902090565b91825461279c565b9055600c83016000885b61344a575b50506133d6949596507f15bd2785d9e0f1a4f550fd9a407c568547cef52bdfc00b65e71608b09a3fccbc8354915495869354610472565b966133e46003860154610472565b90546004860154600590960154604080516001600160a01b0394851681526020810193909352820196909652606081019590955296909616958693608090a47fb1501502bdf1db3ae6ec83dc18980edaa17e48334465830f6a95023754830502600080a4565b600b548110156134bc57806134646122ff61348293611899565b6134716105358286610965565b806134a6575b613488575b50612611565b8861339a565b613493600391610931565b0161349e8154612611565b90553861347c565b506134b761053582600d8a01610965565b613477565b61339f565b156134c857565b60405162461bcd60e51b8152602060048201526017602482015276151c985b9cd858dd1a5bdb881b9bdd08195e1c1a5c9959604a1b6044820152606490fd5b600d5480156126945760001981810191908183101561189457600091600d835260208320010155600d55565b9492939190936040519460208601964688523060601b60408801526a41445f434c49434b5f563160a81b6054880152605f870152607f86015260018060601b0319809260601b16609f86015260601b1660b384015260c783015260e782015260e78152610120810181811060018060401b0382111761061f5760405251902090565b156135bc57565b60405162461bcd60e51b8152602060048201526011602482015270496e76616c6964207369676e617475726560781b6044820152606490fd5b156135fc57565b60405162461bcd60e51b81526020600482015260126024820152715369676e6572206e6f74206761746577617960701b6044820152606490fd5b1561363d57565b60405162461bcd60e51b8152602060048201526011602482015270151a5b595cdd185b5c081d1bdbc81bdb19607a1b6044820152606490fd5b1561367d57565b60405162461bcd60e51b815260206004820152601b60248201527a54696d657374616d7020746f6f2066617220696e2066757475726560281b6044820152606490fd5b60ff601b9116019060ff8211610dbf57565b156136d957565b60405162461bcd60e51b815260206004820152601b60248201527a496e76616c6964207369676e6174757265202776272076616c756560281b6044820152606490fd5b6040513d6000823e3d90fd5b60418251036137d3576020916000918291848101519260606040830151920151901a92601b84106137bc575b906137989161377260ff8616601b81149081156137b1575b506136d2565b604051948594859094939260ff6060936080840197845216602083015260408201520152565b838052039060015afa156137ac5760005190565b61371c565b601c9150143861376c565b92906137ca613798926136c0565b93909150613754565b60405162461bcd60e51b8152602060048201526018602482015277092dcecc2d8d2c840e6d2cedcc2e8eae4ca40d8cadccee8d60431b6044820152606490fdfec455eb35701ebc072df0edc37e290f52a605e8e9cfe5c5a56e5c1cecff608a1cf82d4ada24984256df3d568e911e67d66779debd1002ec9e94f076101d791756d7b6990105719101dabeb77144f2a3385c8033acd3af97e9423a695e81ad1eb5a66cc928b5edb82af9bd49922954155ab7b0942694bea4ce44661d9a8736c6885464aa01119cb5a611744609bddebc20728bb18c65935f2ec97bc49238a6d7320175b7a638427703f0dbe7bb9bbf987a2551717b34e79f33b5b1008d1fa01db9a26469706673582212208dc040d011c8fac7fe1571f45c95f38bcdc1eaf7b8212934dc4dc013515ee7bb64736f6c63430008130033",
  "immutableReferences": {},
  "source": "// SPDX-License-Identifier: MIT\r\npragma solidity ^0.8.19;\r\n\r\ncontract AdFraudPBFT {\r\n    // Custom ECDSA signature recovery function\r\n    function recoverSigner(bytes32 ethSignedMessageHash, bytes memory signature) internal pure returns (address) {\r\n        require(signature.length == 65, \"Invalid signature length\");\r\n\r\n        bytes32 r;\r\n        bytes32 s;\r\n        uint8 v;\r\n\r\n        // solhint-disable-next-line no-inline-assembly\r\n        assembly {\r\n            r := mload(add(signature, 32))\r\n            s := mload(add(signature, 64))\r\n            v := byte(0, mload(add(signature, 96)))\r\n        }\r\n\r\n        if (v < 27) v += 27;\r\n\r\n        require(v == 27 || v == 28, \"Invalid signature 'v' value\");\r\n\r\n        return ecrecover(ethSignedMessageHash, v, r, s);\r\n    }\r\n\r\n    // Role mappings\r\n    mapping(address => bool) public isAdmin;\r\n    mapping(address => bool) public isGateway;\r\n    mapping(address => bool) public isAuditor;\r\n    mapping(address => bool) public isPbftNode;\r\n\r\n    address public admin;\r\n\r\n    // Role management events\r\n    event AdminAssigned(address indexed account);\r\n    event AdminRevoked(address indexed account);\r\n    event GatewayAssigned(address indexed account);\r\n    event GatewayRevoked(address indexed account);\r\n    event AuditorAssigned(address indexed account);\r\n    event AuditorRevoked(address indexed account);\r\n    event PbftNodeAssigned(address indexed account);\r\n    event PbftNodeRevoked(address indexed account);\r\n\r\n    // Original Events\r\n    event TreasuryChanged(address indexed oldTreasury, address indexed newTreasury);\r\n    event GatewayStaked(address indexed gateway, uint256 amount, uint256 totalStake);\r\n    event GatewayUnstaked(address indexed gateway, uint256 amount, uint256 totalStake);\r\n    event GatewaySlashed(address indexed gateway, uint256 slashAmount, bytes32 evidenceCIDHash);\r\n\r\n    event CampaignCreated(uint256 indexed campaignId, address indexed advertiser, uint256 cpcWei, uint256 initialBudget, string meta);\r\n    event CampaignFunded(uint256 indexed campaignId, uint256 amount, uint256 newBudget);\r\n    event CampaignPaused(uint256 indexed campaignId, bool paused);\r\n\r\n    event ClickRecorded(\r\n        bytes32 indexed clickHash,\r\n        uint256 indexed campaignId,\r\n        address indexed publisher,\r\n        address gateway,\r\n        uint256 cpcWei,\r\n        uint256 timestamp,\r\n        bytes32 metadataCIDHash\r\n    );\r\n\r\n    event PublisherWithdrawal(address indexed publisher, uint256 amount);\r\n\r\n    // PBFT Events\r\n    event PBFTNodeAdded(address indexed node, uint256 stake);\r\n    event PBFTNodeRemoved(address indexed node);\r\n    event TransactionProposed(bytes32 indexed txHash, uint256 indexed campaignId, address indexed publisher);\r\n    event ConsensusVote(bytes32 indexed txHash, address indexed node, bool vote);\r\n    event ConsensusReached(bytes32 indexed txHash, bool approved, uint256 voteCount);\r\n    event TransactionExecuted(bytes32 indexed txHash, uint256 indexed campaignId, address indexed publisher);\r\n\r\n    // Original Data Structures\r\n    struct Campaign {\r\n        address advertiser;\r\n        uint256 cpcWei;\r\n        uint256 budgetWei;\r\n        bool paused;\r\n        string meta;\r\n    }\r\n\r\n    // PBFT Data Structures\r\n    struct PBFTNode {\r\n        address nodeAddress;\r\n        bool isActive;\r\n        uint256 stake;\r\n        uint256 votesParticipated;\r\n        uint256 correctVotes;\r\n    }\r\n\r\n    struct PendingTransaction {\r\n        bytes32 txHash;\r\n        uint256 campaignId;\r\n        address publisher;\r\n        address gateway;\r\n        uint256 timestamp;\r\n        bytes32 metadataCIDHash;\r\n        uint256 approveVotes;\r\n        uint256 rejectVotes;\r\n        uint256 totalVotes;\r\n        uint256 requiredVotes;\r\n        bool executed;\r\n        bool consensusReached;\r\n        uint256 proposalTime;\r\n        mapping(address => bool) hasVoted;\r\n        mapping(address => bool) voteValue; // true = approve, false = reject\r\n    }\r\n\r\n    // Original Storage\r\n    mapping(address => uint256) public stakeOf;\r\n    mapping(uint256 => Campaign) public campaigns;\r\n    uint256[] public campaignIds;\r\n    mapping(bytes32 => bool) public usedClickHash;\r\n    mapping(address => uint256) public publisherBalance;\r\n\r\n    // PBFT Storage\r\n    mapping(address => PBFTNode) public pbftNodes;\r\n    address[] public activeNodes;\r\n    mapping(bytes32 => PendingTransaction) public pendingTransactions;\r\n    bytes32[] public pendingTxHashes;\r\n    uint256 public requiredConsensusPercentage = 67; // 67% required for consensus\r\n    uint256 public consensusTimeoutSeconds = 600; // 10 minutes timeout\r\n    uint256 public minPBFTStake = 1 ether;\r\n\r\n    // Original Configuration\r\n    uint256 public minGatewayStakeWei = 0.5 ether;\r\n    address public treasury;\r\n    uint256 public maxClickAgeSeconds = 86400; // 1 day\r\n    uint256 public maxClickFutureSeconds = 120; // 2 minutes\r\n\r\n    // Modifiers for role access control\r\n    modifier onlyAdmin() {\r\n        require(isAdmin[msg.sender], \"Not admin\");\r\n        _;\r\n    }\r\n\r\n    modifier onlyGateway() {\r\n        require(isGateway[msg.sender], \"Not gateway\");\r\n        _;\r\n    }\r\n\r\n    modifier onlyAuditor() {\r\n        require(isAuditor[msg.sender], \"Not auditor\");\r\n        _;\r\n    }\r\n\r\n    modifier onlyPbftNode() {\r\n        require(isPbftNode[msg.sender], \"Not PBFT node\");\r\n        _;\r\n    }\r\n\r\n    modifier onlyAdminOrAuditor() {\r\n        require(isAdmin[msg.sender] || isAuditor[msg.sender], \"Not admin or auditor\");\r\n        _;\r\n    }\r\n\r\n    modifier onlyActivePbftNode() {\r\n        require(isPbftNode[msg.sender], \"Not PBFT node\");\r\n        require(pbftNodes[msg.sender].isActive, \"Node not active\");\r\n        _;\r\n    }\r\n\r\n    constructor(address _treasury) {\r\n        require(_treasury != address(0), \"Treasury required\");\r\n        admin = msg.sender;\r\n        isAdmin[admin] = true;\r\n        treasury = _treasury;\r\n        emit TreasuryChanged(address(0), _treasury);\r\n    }\r\n\r\n    // Role management functions\r\n    function assignAdmin(address account) external onlyAdmin {\r\n        isAdmin[account] = true;\r\n        emit AdminAssigned(account);\r\n    }\r\n\r\n    function revokeAdmin(address account) external onlyAdmin {\r\n        isAdmin[account] = false;\r\n        emit AdminRevoked(account);\r\n    }\r\n\r\n    function assignGateway(address account) external onlyAdmin {\r\n        isGateway[account] = true;\r\n        emit GatewayAssigned(account);\r\n    }\r\n\r\n    function revokeGateway(address account) external onlyAdmin {\r\n        isGateway[account] = false;\r\n        emit GatewayRevoked(account);\r\n    }\r\n\r\n    function assignAuditor(address account) external onlyAdmin {\r\n        isAuditor[account] = true;\r\n        emit AuditorAssigned(account);\r\n    }\r\n\r\n    function revokeAuditor(address account) external onlyAdmin {\r\n        isAuditor[account] = false;\r\n        emit AuditorRevoked(account);\r\n    }\r\n\r\n    function assignPbftNode(address account) external onlyAdmin {\r\n        isPbftNode[account] = true;\r\n        emit PbftNodeAssigned(account);\r\n    }\r\n\r\n    function revokePbftNode(address account) external onlyAdmin {\r\n        isPbftNode[account] = false;\r\n        emit PbftNodeRevoked(account);\r\n    }\r\n\r\n    // --- Original Admin Functions ---\r\n    function setMinGatewayStake(uint256 newMin) external onlyAdmin {\r\n        minGatewayStakeWei = newMin;\r\n    }\r\n\r\n    function setTreasury(address newTreasury) external onlyAdmin {\r\n        require(newTreasury != address(0), \"Zero address\");\r\n        emit TreasuryChanged(treasury, newTreasury);\r\n        treasury = newTreasury;\r\n    }\r\n\r\n    function setMaxClickAgeSeconds(uint256 secs) external onlyAdmin {\r\n        maxClickAgeSeconds = secs;\r\n    }\r\n\r\n    function setMaxClickFutureSeconds(uint256 secs) external onlyAdmin {\r\n        maxClickFutureSeconds = secs;\r\n    }\r\n\r\n    // --- PBFT Configuration Functions ---\r\n    function setRequiredConsensusPercentage(uint256 percentage) external onlyAdmin {\r\n        require(percentage > 50 && percentage <= 100, \"Invalid percentage\");\r\n        requiredConsensusPercentage = percentage;\r\n    }\r\n\r\n    function setConsensusTimeout(uint256 timeoutSeconds) external onlyAdmin {\r\n        consensusTimeoutSeconds = timeoutSeconds;\r\n    }\r\n\r\n    function setMinPBFTStake(uint256 minStake) external onlyAdmin {\r\n        minPBFTStake = minStake;\r\n    }\r\n\r\n    // --- PBFT Node Management ---\r\n    function addPBFTNode(address node)\r\n        external\r\n        payable\r\n        onlyAdmin\r\n    {\r\n        require(node != address(0), \"Invalid node address\");\r\n        require(msg.value >= minPBFTStake, \"Insufficient stake\");\r\n        require(!pbftNodes[node].isActive, \"Node already active\");\r\n\r\n        pbftNodes[node] = PBFTNode({\r\n            nodeAddress: node,\r\n            isActive: true,\r\n            stake: msg.value,\r\n            votesParticipated: 0,\r\n            correctVotes: 0\r\n        });\r\n\r\n        activeNodes.push(node);\r\n\r\n        isPbftNode[node] = true;\r\n        emit PbftNodeAssigned(node);\r\n\r\n        emit PBFTNodeAdded(node, msg.value);\r\n    }\r\n\r\n    function removePBFTNode(address node) external onlyAdmin {\r\n        require(pbftNodes[node].isActive, \"Node not active\");\r\n\r\n        pbftNodes[node].isActive = false;\r\n        isPbftNode[node] = false;\r\n        emit PbftNodeRevoked(node);\r\n\r\n        // Remove from active nodes array\r\n        for (uint256 i = 0; i < activeNodes.length; i++) {\r\n            if (activeNodes[i] == node) {\r\n                activeNodes[i] = activeNodes[activeNodes.length - 1];\r\n                activeNodes.pop();\r\n                break;\r\n            }\r\n        }\r\n\r\n        // Refund stake\r\n        uint256 stake = pbftNodes[node].stake;\r\n        pbftNodes[node].stake = 0;\r\n        (bool ok, ) = payable(node).call{value: stake}(\"\");\r\n        require(ok, \"Stake refund failed\");\r\n\r\n        emit PBFTNodeRemoved(node);\r\n    }\r\n\r\n    function stakePBFTNode() external payable onlyPbftNode {\r\n        require(msg.value > 0, \"No ETH sent\");\r\n        require(pbftNodes[msg.sender].isActive, \"Node not active\");\r\n        pbftNodes[msg.sender].stake += msg.value;\r\n    }\r\n\r\n    // --- Original Gateway Functions ---\r\n    function stakeGateway() external payable onlyGateway {\r\n        require(msg.value > 0, \"No ETH sent\");\r\n        stakeOf[msg.sender] += msg.value;\r\n        emit GatewayStaked(msg.sender, msg.value, stakeOf[msg.sender]);\r\n    }\r\n\r\n    function unstakeGateway(uint256 amount) external onlyGateway {\r\n        require(amount > 0 && amount <= stakeOf[msg.sender], \"Invalid amount\");\r\n        uint256 remaining = stakeOf[msg.sender] - amount;\r\n        require(remaining == 0 || remaining >= minGatewayStakeWei, \"Below min stake\");\r\n        stakeOf[msg.sender] = remaining;\r\n        (bool ok, ) = payable(msg.sender).call{value: amount}(\"\");\r\n        require(ok, \"ETH transfer failed\");\r\n        emit GatewayUnstaked(msg.sender, amount, remaining);\r\n    }\r\n\r\n    function slashGateway(address gateway, uint16 pctBps, bytes32 evidenceCIDHash) external onlyAdminOrAuditor {\r\n        require(gateway != address(0), \"Invalid gateway\");\r\n        require(pctBps > 0 && pctBps <= 10000, \"Bps out of range\");\r\n        uint256 stake = stakeOf[gateway];\r\n        require(stake > 0, \"No stake\");\r\n        uint256 slashAmt = (stake * pctBps) / 10000;\r\n        stakeOf[gateway] = stake - slashAmt;\r\n        (bool ok, ) = payable(treasury).call{value: slashAmt}(\"\");\r\n        require(ok, \"Slash transfer failed\");\r\n        emit GatewaySlashed(gateway, slashAmt, evidenceCIDHash);\r\n    }\r\n\r\n    // --- Original Campaign Functions ---\r\n    function createCampaign(\r\n        uint256 campaignId,\r\n        uint256 cpcWei,\r\n        string calldata meta\r\n    ) external payable returns (uint256 id) {\r\n        require(cpcWei > 0, \"CPC must be > 0\");\r\n        require(msg.value > 0, \"Initial budget required\");\r\n        require(campaigns[campaignId].advertiser == address(0), \"Campaign ID already exists\");\r\n\r\n        campaigns[campaignId] = Campaign({\r\n            advertiser: msg.sender,\r\n            cpcWei: cpcWei,\r\n            budgetWei: msg.value,\r\n            paused: false,\r\n            meta: meta\r\n        });\r\n\r\n        campaignIds.push(campaignId);\r\n        emit CampaignCreated(campaignId, msg.sender, cpcWei, msg.value, meta);\r\n        return campaignId;\r\n    }\r\n\r\n    function fundCampaign(uint256 campaignId) external payable {\r\n        Campaign storage c = campaigns[campaignId];\r\n        require(c.advertiser != address(0), \"Campaign missing\");\r\n        require(msg.value > 0, \"No funds\");\r\n        c.budgetWei += msg.value;\r\n        emit CampaignFunded(campaignId, msg.value, c.budgetWei);\r\n    }\r\n\r\n    function setCampaignPaused(uint256 campaignId, bool paused) external {\r\n        Campaign storage c = campaigns[campaignId];\r\n        require(\r\n            c.advertiser == msg.sender || isAdmin[msg.sender],\r\n            \"Not authorized\"\r\n        );\r\n        c.paused = paused;\r\n        emit CampaignPaused(campaignId, paused);\r\n    }\r\n\r\n    // --- PBFT Transaction Processing ---\r\n    function proposeTransaction(\r\n        bytes32 clickHash,\r\n        uint256 campaignId,\r\n        address publisher,\r\n        uint256 timestamp,\r\n        bytes32 metadataCIDHash\r\n    ) public onlyGateway returns (bytes32) {\r\n        require(activeNodes.length >= 3, \"Insufficient PBFT nodes\");\r\n        require(pendingTransactions[clickHash].txHash == bytes32(0), \"Transaction already proposed\");\r\n\r\n        // Validate transaction basics\r\n        require(publisher != address(0), \"Zero publisher\");\r\n        require(!usedClickHash[clickHash], \"Duplicate click\");\r\n        Campaign storage c = campaigns[campaignId];\r\n        require(c.advertiser != address(0), \"Campaign missing\");\r\n        require(!c.paused, \"Campaign paused\");\r\n        require(c.budgetWei >= c.cpcWei, \"Insufficient budget\");\r\n\r\n        // Calculate required votes (percentage of active nodes)\r\n        uint256 requiredVotes = (activeNodes.length * requiredConsensusPercentage) / 100;\r\n        if (requiredVotes == 0) requiredVotes = 1;\r\n\r\n        // Create pending transaction\r\n        PendingTransaction storage pendingTx = pendingTransactions[clickHash];\r\n        pendingTx.txHash = clickHash;\r\n        pendingTx.campaignId = campaignId;\r\n        pendingTx.publisher = publisher;\r\n        pendingTx.gateway = msg.sender;\r\n        pendingTx.timestamp = timestamp;\r\n        pendingTx.metadataCIDHash = metadataCIDHash;\r\n        pendingTx.requiredVotes = requiredVotes;\r\n        pendingTx.proposalTime = block.timestamp;\r\n\r\n        pendingTxHashes.push(clickHash);\r\n\r\n        emit TransactionProposed(clickHash, campaignId, publisher);\r\n        return clickHash;\r\n    }\r\n\r\n    function voteOnTransaction(bytes32 txHash, bool approve)\r\n        external\r\n        onlyActivePbftNode\r\n    {\r\n        PendingTransaction storage pendingTx = pendingTransactions[txHash];\r\n        require(pendingTx.txHash != bytes32(0), \"Transaction not found\");\r\n        require(!pendingTx.executed, \"Transaction already executed\");\r\n        require(!pendingTx.consensusReached, \"Consensus already reached\");\r\n        require(!pendingTx.hasVoted[msg.sender], \"Already voted\");\r\n        require(\r\n            block.timestamp <= pendingTx.proposalTime + consensusTimeoutSeconds,\r\n            \"Voting period expired\"\r\n        );\r\n\r\n        pendingTx.hasVoted[msg.sender] = true;\r\n        pendingTx.voteValue[msg.sender] = approve;\r\n        pendingTx.totalVotes++;\r\n\r\n        if (approve) {\r\n            pendingTx.approveVotes++;\r\n        } else {\r\n            pendingTx.rejectVotes++;\r\n        }\r\n\r\n        // Update node statistics\r\n        pbftNodes[msg.sender].votesParticipated++;\r\n\r\n        emit ConsensusVote(txHash, msg.sender, approve);\r\n\r\n        // Check if consensus reached\r\n        if (pendingTx.approveVotes >= pendingTx.requiredVotes) {\r\n            pendingTx.consensusReached = true;\r\n            _executeTransaction(txHash);\r\n            emit ConsensusReached(txHash, true, pendingTx.approveVotes);\r\n        } else if (pendingTx.rejectVotes >= pendingTx.requiredVotes) {\r\n            pendingTx.consensusReached = true;\r\n            emit ConsensusReached(txHash, false, pendingTx.rejectVotes);\r\n        } else if (pendingTx.totalVotes == activeNodes.length) {\r\n            // All nodes voted but no consensus reached\r\n            pendingTx.consensusReached = true;\r\n            emit ConsensusReached(txHash, false, pendingTx.approveVotes);\r\n        }\r\n    }\r\n\r\n    function _executeTransaction(bytes32 txHash) internal {\r\n        PendingTransaction storage pendingTx = pendingTransactions[txHash];\r\n        require(!pendingTx.executed, \"Already executed\");\r\n        require(pendingTx.consensusReached, \"Consensus not reached\");\r\n        require(pendingTx.approveVotes >= pendingTx.requiredVotes, \"Insufficient approval votes\");\r\n\r\n        pendingTx.executed = true;\r\n\r\n        // Execute the click transaction\r\n        usedClickHash[pendingTx.txHash] = true;\r\n        Campaign storage c = campaigns[pendingTx.campaignId];\r\n        c.budgetWei -= c.cpcWei;\r\n        publisherBalance[pendingTx.publisher] += c.cpcWei;\r\n\r\n        // Update correct vote statistics for nodes that voted to approve\r\n        for (uint256 i = 0; i < activeNodes.length; i++) {\r\n            address node = activeNodes[i];\r\n            if (pendingTx.hasVoted[node] && pendingTx.voteValue[node]) {\r\n                pbftNodes[node].correctVotes++;\r\n            }\r\n        }\r\n\r\n        emit ClickRecorded(\r\n            pendingTx.txHash,\r\n            pendingTx.campaignId,\r\n            pendingTx.publisher,\r\n            pendingTx.gateway,\r\n            c.cpcWei,\r\n            pendingTx.timestamp,\r\n            pendingTx.metadataCIDHash\r\n        );\r\n\r\n        emit TransactionExecuted(txHash, pendingTx.campaignId, pendingTx.publisher);\r\n    }\r\n\r\n    // --- Timeout and Cleanup Functions ---\r\n    function cleanupExpiredTransaction(bytes32 txHash) external {\r\n        PendingTransaction storage pendingTx = pendingTransactions[txHash];\r\n        require(pendingTx.txHash != bytes32(0), \"Transaction not found\");\r\n        require(!pendingTx.executed, \"Transaction already executed\");\r\n        require(\r\n            block.timestamp > pendingTx.proposalTime + consensusTimeoutSeconds,\r\n            \"Transaction not expired\"\r\n        );\r\n\r\n        if (!pendingTx.consensusReached) {\r\n            pendingTx.consensusReached = true;\r\n            emit ConsensusReached(txHash, false, pendingTx.approveVotes);\r\n        }\r\n\r\n        // Remove from pending array\r\n        for (uint256 i = 0; i < pendingTxHashes.length; i++) {\r\n            if (pendingTxHashes[i] == txHash) {\r\n                pendingTxHashes[i] = pendingTxHashes[pendingTxHashes.length - 1];\r\n                pendingTxHashes.pop();\r\n                break;\r\n            }\r\n        }\r\n    }\r\n\r\n    // --- Original Helper Functions ---\r\n    function computeClickMessageHash(\r\n        bytes32 clickHash,\r\n        uint256 campaignId,\r\n        address publisher,\r\n        address gateway,\r\n        uint256 timestamp,\r\n        bytes32 metadataCIDHash\r\n    ) public view returns (bytes32) {\r\n        return keccak256(\r\n            abi.encodePacked(\r\n                block.chainid,\r\n                address(this),\r\n                \"AD_CLICK_V1\",\r\n                clickHash,\r\n                campaignId,\r\n                publisher,\r\n                gateway,\r\n                timestamp,\r\n                metadataCIDHash\r\n            )\r\n        );\r\n    }\r\n\r\n    // --- Legacy Direct Submission (for backwards compatibility) ---\r\n    function submitClickGatewayDirect(\r\n        bytes32 clickHash,\r\n        uint256 campaignId,\r\n        address publisher,\r\n        uint256 timestamp,\r\n        bytes32 metadataCIDHash\r\n    ) external onlyGateway {\r\n        // For backwards compatibility, directly propose to PBFT\r\n        proposeTransaction(clickHash, campaignId, publisher, timestamp, metadataCIDHash);\r\n    }\r\n\r\n    function submitClickWithSig(\r\n        bytes32 clickHash,\r\n        uint256 campaignId,\r\n        address publisher,\r\n        address gateway,\r\n        uint256 timestamp,\r\n        bytes32 metadataCIDHash,\r\n        bytes calldata signature\r\n    ) external {\r\n        bytes32 rawHash = computeClickMessageHash(\r\n            clickHash,\r\n            campaignId,\r\n            publisher,\r\n            gateway,\r\n            timestamp,\r\n            metadataCIDHash\r\n        );\r\n        bytes32 ethSignedMessageHash = keccak256(\r\n            abi.encodePacked(\"\\x19Ethereum Signed Message:\\n32\", rawHash)\r\n        );\r\n        address recovered = recoverSigner(ethSignedMessageHash, signature);\r\n        require(recovered == gateway, \"Invalid signature\");\r\n        require(isGateway[gateway], \"Signer not gateway\");\r\n\r\n        if (timestamp > block.timestamp) {\r\n            require(timestamp - block.timestamp <= maxClickFutureSeconds, \"Timestamp too far in future\");\r\n        } else {\r\n            require(block.timestamp - timestamp <= maxClickAgeSeconds, \"Timestamp too old\");\r\n        }\r\n\r\n        // Propose to PBFT instead of direct execution\r\n        proposeTransaction(clickHash, campaignId, publisher, timestamp, metadataCIDHash);\r\n    }\r\n\r\n    // --- Publisher Functions ---\r\n    function withdrawPublisher(uint256 amount) external {\r\n        uint256 balance = publisherBalance[msg.sender];\r\n        require(amount > 0 && amount <= balance, \"Invalid amount\");\r\n        publisherBalance[msg.sender] = balance - amount;\r\n\r\n        (bool ok, ) = payable(msg.sender).call{value: amount}(\"\");\r\n        require(ok, \"ETH transfer failed\");\r\n        emit PublisherWithdrawal(msg.sender, amount);\r\n    }\r\n\r\n    // --- View Functions ---\r\n    function getCampaign(uint256 campaignId)\r\n        external\r\n        view\r\n        returns (\r\n            address advertiser,\r\n            uint256 cpcWei,\r\n            uint256 budgetWei,\r\n            bool paused,\r\n            string memory meta\r\n        )\r\n    {\r\n        Campaign storage c = campaigns[campaignId];\r\n        return (c.advertiser, c.cpcWei, c.budgetWei, c.paused, c.meta);\r\n    }\r\n\r\n    function getCampaignIds() external view returns (uint256[] memory) {\r\n        return campaignIds;\r\n    }\r\n\r\n    function getActiveNodes() external view returns (address[] memory) {\r\n        return activeNodes;\r\n    }\r\n\r\n    function getPendingTransactionHashes() external view returns (bytes32[] memory) {\r\n        return pendingTxHashes;\r\n    }\r\n\r\n    function getPendingTransactionDetails(bytes32 txHash)\r\n        external\r\n        view\r\n        returns (\r\n            uint256 campaignId,\r\n            address publisher,\r\n            address gateway,\r\n            uint256 approveVotes,\r\n            uint256 rejectVotes,\r\n            uint256 totalVotes,\r\n            uint256 requiredVotes,\r\n            bool executed,\r\n            bool consensusReached,\r\n            uint256 proposalTime\r\n        )\r\n    {\r\n        PendingTransaction storage pendingTx = pendingTransactions[txHash];\r\n        return (\r\n            pendingTx.campaignId,\r\n            pendingTx.publisher,\r\n            pendingTx.gateway,\r\n            pendingTx.approveVotes,\r\n            pendingTx.rejectVotes,\r\n            pendingTx.totalVotes,\r\n            pendingTx.requiredVotes,\r\n            pendingTx.executed,\r\n            pendingTx.consensusReached,\r\n            pendingTx.proposalTime\r\n        );\r\n    }\r\n\r\n    function hasNodeVoted(bytes32 txHash, address node) external view returns (bool) {\r\n        return pendingTransactions[txHash].hasVoted[node];\r\n    }\r\n\r\n    function getNodeVote(bytes32 txHash, address node) external view returns (bool) {\r\n        require(pendingTransactions[txHash].hasVoted[node], \"Node has not voted\");\r\n        return pendingTransactions[txHash].voteValue[node];\r\n    }\r\n\r\n    function getNodeStats(address node)\r\n        external\r\n        view\r\n        returns (\r\n            bool isActive,\r\n            uint256 stake,\r\n            uint256 votesParticipated,\r\n            uint256 correctVotes,\r\n            uint256 accuracyPercentage\r\n        )\r\n    {\r\n        PBFTNode storage pbftNode = pbftNodes[node];\r\n        uint256 accuracy = 0;\r\n        if (pbftNode.votesParticipated > 0) {\r\n            accuracy = (pbftNode.correctVotes * 100) / pbftNode.votesParticipated;\r\n        }\r\n\r\n        return (\r\n            pbftNode.isActive,\r\n            pbftNode.stake,\r\n            pbftNode.votesParticipated,\r\n            pbftNode.correctVotes,\r\n            accuracy\r\n        );\r\n    }\r\n\r\n    // Fallback functions to receive ETH\r\n    receive() external payable {}\r\n\r\n    fallback() external payable {}\r\n}\r\n",
  "sourcePath": "C:\\Users\\ABHINAV\\OneDrive\\Desktop\\BlockchainBased_AdFrud_Prevention\\contracts\\AdFraudPBFT.sol",
  "compiler": {
    "name": "solc",
    "version": "0.8.19+commit.7dd6d404.Emscripten.clang"
  },
  "schemaVersion": "3.4.16",
  "updatedAt": "2025-11-02T14:37:44.251Z",
  "devdoc": {
    "kind": "dev",
    "methods": {},
    "version": 1
  },
  "userdoc": {
    "kind": "user",
    "methods": {},
    "version": 1
  }
}