{
  "contractName": "AdFraudPBFT",
  "abi": [
    {
      "inputs": [
        {
          "internalType": "address",
          "name": "_treasury",
          "type": "address"
        }
      ],
      "stateMutability": "nonpayable",
      "type": "constructor"
    },
    {
      "anonymous": false,
      "inputs": [
        {
          "indexed": true,
          "internalType": "uint256",
          "name": "campaignId",
          "type": "uint256"
        },
        {
          "indexed": true,
          "internalType": "address",
          "name": "advertiser",
          "type": "address"
        },
        {
          "indexed": false,
          "internalType": "uint256",
          "name": "cpcWei",
          "type": "uint256"
        },
        {
          "indexed": false,
          "internalType": "uint256",
          "name": "initialBudget",
          "type": "uint256"
        },
        {
          "indexed": false,
          "internalType": "string",
          "name": "meta",
          "type": "string"
        }
      ],
      "name": "CampaignCreated",
      "type": "event"
    },
    {
      "anonymous": false,
      "inputs": [
        {
          "indexed": true,
          "internalType": "uint256",
          "name": "campaignId",
          "type": "uint256"
        },
        {
          "indexed": false,
          "internalType": "uint256",
          "name": "amount",
          "type": "uint256"
        },
        {
          "indexed": false,
          "internalType": "uint256",
          "name": "newBudget",
          "type": "uint256"
        }
      ],
      "name": "CampaignFunded",
      "type": "event"
    },
    {
      "anonymous": false,
      "inputs": [
        {
          "indexed": true,
          "internalType": "uint256",
          "name": "campaignId",
          "type": "uint256"
        },
        {
          "indexed": false,
          "internalType": "bool",
          "name": "paused",
          "type": "bool"
        }
      ],
      "name": "CampaignPaused",
      "type": "event"
    },
    {
      "anonymous": false,
      "inputs": [
        {
          "indexed": true,
          "internalType": "bytes32",
          "name": "clickHash",
          "type": "bytes32"
        },
        {
          "indexed": true,
          "internalType": "uint256",
          "name": "campaignId",
          "type": "uint256"
        },
        {
          "indexed": true,
          "internalType": "address",
          "name": "publisher",
          "type": "address"
        },
        {
          "indexed": false,
          "internalType": "address",
          "name": "gateway",
          "type": "address"
        },
        {
          "indexed": false,
          "internalType": "uint256",
          "name": "cpcWei",
          "type": "uint256"
        },
        {
          "indexed": false,
          "internalType": "uint256",
          "name": "timestamp",
          "type": "uint256"
        },
        {
          "indexed": false,
          "internalType": "bytes32",
          "name": "metadataCIDHash",
          "type": "bytes32"
        }
      ],
      "name": "ClickRecorded",
      "type": "event"
    },
    {
      "anonymous": false,
      "inputs": [
        {
          "indexed": true,
          "internalType": "address",
          "name": "gateway",
          "type": "address"
        },
        {
          "indexed": false,
          "internalType": "uint256",
          "name": "slashAmount",
          "type": "uint256"
        },
        {
          "indexed": false,
          "internalType": "bytes32",
          "name": "evidenceCIDHash",
          "type": "bytes32"
        }
      ],
      "name": "GatewaySlashed",
      "type": "event"
    },
    {
      "anonymous": false,
      "inputs": [
        {
          "indexed": true,
          "internalType": "address",
          "name": "gateway",
          "type": "address"
        },
        {
          "indexed": false,
          "internalType": "uint256",
          "name": "amount",
          "type": "uint256"
        },
        {
          "indexed": false,
          "internalType": "uint256",
          "name": "totalStake",
          "type": "uint256"
        }
      ],
      "name": "GatewayStaked",
      "type": "event"
    },
    {
      "anonymous": false,
      "inputs": [
        {
          "indexed": true,
          "internalType": "address",
          "name": "gateway",
          "type": "address"
        },
        {
          "indexed": false,
          "internalType": "uint256",
          "name": "amount",
          "type": "uint256"
        },
        {
          "indexed": false,
          "internalType": "uint256",
          "name": "totalStake",
          "type": "uint256"
        }
      ],
      "name": "GatewayUnstaked",
      "type": "event"
    },
    {
      "anonymous": false,
      "inputs": [
        {
          "indexed": true,
          "internalType": "address",
          "name": "publisher",
          "type": "address"
        },
        {
          "indexed": false,
          "internalType": "uint256",
          "name": "amount",
          "type": "uint256"
        }
      ],
      "name": "PublisherWithdrawal",
      "type": "event"
    },
    {
      "anonymous": false,
      "inputs": [
        {
          "indexed": true,
          "internalType": "bytes32",
          "name": "role",
          "type": "bytes32"
        },
        {
          "indexed": true,
          "internalType": "bytes32",
          "name": "previousAdminRole",
          "type": "bytes32"
        },
        {
          "indexed": true,
          "internalType": "bytes32",
          "name": "newAdminRole",
          "type": "bytes32"
        }
      ],
      "name": "RoleAdminChanged",
      "type": "event"
    },
    {
      "anonymous": false,
      "inputs": [
        {
          "indexed": true,
          "internalType": "bytes32",
          "name": "role",
          "type": "bytes32"
        },
        {
          "indexed": true,
          "internalType": "address",
          "name": "account",
          "type": "address"
        },
        {
          "indexed": true,
          "internalType": "address",
          "name": "sender",
          "type": "address"
        }
      ],
      "name": "RoleGranted",
      "type": "event"
    },
    {
      "anonymous": false,
      "inputs": [
        {
          "indexed": true,
          "internalType": "bytes32",
          "name": "role",
          "type": "bytes32"
        },
        {
          "indexed": true,
          "internalType": "address",
          "name": "account",
          "type": "address"
        },
        {
          "indexed": true,
          "internalType": "address",
          "name": "sender",
          "type": "address"
        }
      ],
      "name": "RoleRevoked",
      "type": "event"
    },
    {
      "anonymous": false,
      "inputs": [
        {
          "indexed": true,
          "internalType": "address",
          "name": "oldTreasury",
          "type": "address"
        },
        {
          "indexed": true,
          "internalType": "address",
          "name": "newTreasury",
          "type": "address"
        }
      ],
      "name": "TreasuryChanged",
      "type": "event"
    },
    {
      "stateMutability": "payable",
      "type": "fallback",
      "payable": true
    },
    {
      "inputs": [],
      "name": "AUDITOR_ROLE",
      "outputs": [
        {
          "internalType": "bytes32",
          "name": "",
          "type": "bytes32"
        }
      ],
      "stateMutability": "view",
      "type": "function",
      "constant": true
    },
    {
      "inputs": [],
      "name": "DEFAULT_ADMIN_ROLE",
      "outputs": [
        {
          "internalType": "bytes32",
          "name": "",
          "type": "bytes32"
        }
      ],
      "stateMutability": "view",
      "type": "function",
      "constant": true
    },
    {
      "inputs": [],
      "name": "GATEWAY_ROLE",
      "outputs": [
        {
          "internalType": "bytes32",
          "name": "",
          "type": "bytes32"
        }
      ],
      "stateMutability": "view",
      "type": "function",
      "constant": true
    },
    {
      "inputs": [
        {
          "internalType": "uint256",
          "name": "",
          "type": "uint256"
        }
      ],
      "name": "campaignIds",
      "outputs": [
        {
          "internalType": "uint256",
          "name": "",
          "type": "uint256"
        }
      ],
      "stateMutability": "view",
      "type": "function",
      "constant": true
    },
    {
      "inputs": [
        {
          "internalType": "uint256",
          "name": "",
          "type": "uint256"
        }
      ],
      "name": "campaigns",
      "outputs": [
        {
          "internalType": "address",
          "name": "advertiser",
          "type": "address"
        },
        {
          "internalType": "uint256",
          "name": "cpcWei",
          "type": "uint256"
        },
        {
          "internalType": "uint256",
          "name": "budgetWei",
          "type": "uint256"
        },
        {
          "internalType": "bool",
          "name": "paused",
          "type": "bool"
        },
        {
          "internalType": "string",
          "name": "meta",
          "type": "string"
        }
      ],
      "stateMutability": "view",
      "type": "function",
      "constant": true
    },
    {
      "inputs": [
        {
          "internalType": "bytes32",
          "name": "role",
          "type": "bytes32"
        }
      ],
      "name": "getRoleAdmin",
      "outputs": [
        {
          "internalType": "bytes32",
          "name": "",
          "type": "bytes32"
        }
      ],
      "stateMutability": "view",
      "type": "function",
      "constant": true
    },
    {
      "inputs": [
        {
          "internalType": "bytes32",
          "name": "role",
          "type": "bytes32"
        },
        {
          "internalType": "address",
          "name": "account",
          "type": "address"
        }
      ],
      "name": "grantRole",
      "outputs": [],
      "stateMutability": "nonpayable",
      "type": "function"
    },
    {
      "inputs": [
        {
          "internalType": "bytes32",
          "name": "role",
          "type": "bytes32"
        },
        {
          "internalType": "address",
          "name": "account",
          "type": "address"
        }
      ],
      "name": "hasRole",
      "outputs": [
        {
          "internalType": "bool",
          "name": "",
          "type": "bool"
        }
      ],
      "stateMutability": "view",
      "type": "function",
      "constant": true
    },
    {
      "inputs": [],
      "name": "maxClickAgeSeconds",
      "outputs": [
        {
          "internalType": "uint256",
          "name": "",
          "type": "uint256"
        }
      ],
      "stateMutability": "view",
      "type": "function",
      "constant": true
    },
    {
      "inputs": [],
      "name": "maxClickFutureSeconds",
      "outputs": [
        {
          "internalType": "uint256",
          "name": "",
          "type": "uint256"
        }
      ],
      "stateMutability": "view",
      "type": "function",
      "constant": true
    },
    {
      "inputs": [],
      "name": "minGatewayStakeWei",
      "outputs": [
        {
          "internalType": "uint256",
          "name": "",
          "type": "uint256"
        }
      ],
      "stateMutability": "view",
      "type": "function",
      "constant": true
    },
    {
      "inputs": [
        {
          "internalType": "address",
          "name": "",
          "type": "address"
        }
      ],
      "name": "publisherBalance",
      "outputs": [
        {
          "internalType": "uint256",
          "name": "",
          "type": "uint256"
        }
      ],
      "stateMutability": "view",
      "type": "function",
      "constant": true
    },
    {
      "inputs": [
        {
          "internalType": "bytes32",
          "name": "role",
          "type": "bytes32"
        },
        {
          "internalType": "address",
          "name": "account",
          "type": "address"
        }
      ],
      "name": "renounceRole",
      "outputs": [],
      "stateMutability": "nonpayable",
      "type": "function"
    },
    {
      "inputs": [
        {
          "internalType": "bytes32",
          "name": "role",
          "type": "bytes32"
        },
        {
          "internalType": "address",
          "name": "account",
          "type": "address"
        }
      ],
      "name": "revokeRole",
      "outputs": [],
      "stateMutability": "nonpayable",
      "type": "function"
    },
    {
      "inputs": [
        {
          "internalType": "address",
          "name": "",
          "type": "address"
        }
      ],
      "name": "stakeOf",
      "outputs": [
        {
          "internalType": "uint256",
          "name": "",
          "type": "uint256"
        }
      ],
      "stateMutability": "view",
      "type": "function",
      "constant": true
    },
    {
      "inputs": [
        {
          "internalType": "bytes4",
          "name": "interfaceId",
          "type": "bytes4"
        }
      ],
      "name": "supportsInterface",
      "outputs": [
        {
          "internalType": "bool",
          "name": "",
          "type": "bool"
        }
      ],
      "stateMutability": "view",
      "type": "function",
      "constant": true
    },
    {
      "inputs": [],
      "name": "treasury",
      "outputs": [
        {
          "internalType": "address",
          "name": "",
          "type": "address"
        }
      ],
      "stateMutability": "view",
      "type": "function",
      "constant": true
    },
    {
      "inputs": [
        {
          "internalType": "bytes32",
          "name": "",
          "type": "bytes32"
        }
      ],
      "name": "usedClickHash",
      "outputs": [
        {
          "internalType": "bool",
          "name": "",
          "type": "bool"
        }
      ],
      "stateMutability": "view",
      "type": "function",
      "constant": true
    },
    {
      "stateMutability": "payable",
      "type": "receive",
      "payable": true
    },
    {
      "inputs": [
        {
          "internalType": "uint256",
          "name": "newMin",
          "type": "uint256"
        }
      ],
      "name": "setMinGatewayStake",
      "outputs": [],
      "stateMutability": "nonpayable",
      "type": "function"
    },
    {
      "inputs": [
        {
          "internalType": "address",
          "name": "newTreasury",
          "type": "address"
        }
      ],
      "name": "setTreasury",
      "outputs": [],
      "stateMutability": "nonpayable",
      "type": "function"
    },
    {
      "inputs": [
        {
          "internalType": "uint256",
          "name": "secs",
          "type": "uint256"
        }
      ],
      "name": "setMaxClickAgeSeconds",
      "outputs": [],
      "stateMutability": "nonpayable",
      "type": "function"
    },
    {
      "inputs": [
        {
          "internalType": "uint256",
          "name": "secs",
          "type": "uint256"
        }
      ],
      "name": "setMaxClickFutureSeconds",
      "outputs": [],
      "stateMutability": "nonpayable",
      "type": "function"
    },
    {
      "inputs": [],
      "name": "stakeGateway",
      "outputs": [],
      "stateMutability": "payable",
      "type": "function",
      "payable": true
    },
    {
      "inputs": [
        {
          "internalType": "uint256",
          "name": "amount",
          "type": "uint256"
        }
      ],
      "name": "unstakeGateway",
      "outputs": [],
      "stateMutability": "nonpayable",
      "type": "function"
    },
    {
      "inputs": [
        {
          "internalType": "address",
          "name": "gateway",
          "type": "address"
        },
        {
          "internalType": "uint16",
          "name": "pctBps",
          "type": "uint16"
        },
        {
          "internalType": "bytes32",
          "name": "evidenceCIDHash",
          "type": "bytes32"
        }
      ],
      "name": "slashGateway",
      "outputs": [],
      "stateMutability": "nonpayable",
      "type": "function"
    },
    {
      "inputs": [
        {
          "internalType": "uint256",
          "name": "campaignId",
          "type": "uint256"
        },
        {
          "internalType": "uint256",
          "name": "cpcWei",
          "type": "uint256"
        },
        {
          "internalType": "string",
          "name": "meta",
          "type": "string"
        }
      ],
      "name": "createCampaign",
      "outputs": [
        {
          "internalType": "uint256",
          "name": "id",
          "type": "uint256"
        }
      ],
      "stateMutability": "payable",
      "type": "function",
      "payable": true
    },
    {
      "inputs": [
        {
          "internalType": "uint256",
          "name": "campaignId",
          "type": "uint256"
        }
      ],
      "name": "fundCampaign",
      "outputs": [],
      "stateMutability": "payable",
      "type": "function",
      "payable": true
    },
    {
      "inputs": [
        {
          "internalType": "uint256",
          "name": "campaignId",
          "type": "uint256"
        },
        {
          "internalType": "bool",
          "name": "paused",
          "type": "bool"
        }
      ],
      "name": "setCampaignPaused",
      "outputs": [],
      "stateMutability": "nonpayable",
      "type": "function"
    },
    {
      "inputs": [],
      "name": "getCampaignIds",
      "outputs": [
        {
          "internalType": "uint256[]",
          "name": "",
          "type": "uint256[]"
        }
      ],
      "stateMutability": "view",
      "type": "function",
      "constant": true
    },
    {
      "inputs": [
        {
          "internalType": "bytes32",
          "name": "clickHash",
          "type": "bytes32"
        },
        {
          "internalType": "uint256",
          "name": "campaignId",
          "type": "uint256"
        },
        {
          "internalType": "address",
          "name": "publisher",
          "type": "address"
        },
        {
          "internalType": "address",
          "name": "gateway",
          "type": "address"
        },
        {
          "internalType": "uint256",
          "name": "timestamp",
          "type": "uint256"
        },
        {
          "internalType": "bytes32",
          "name": "metadataCIDHash",
          "type": "bytes32"
        }
      ],
      "name": "computeClickMessageHash",
      "outputs": [
        {
          "internalType": "bytes32",
          "name": "",
          "type": "bytes32"
        }
      ],
      "stateMutability": "view",
      "type": "function",
      "constant": true
    },
    {
      "inputs": [
        {
          "internalType": "bytes32",
          "name": "clickHash",
          "type": "bytes32"
        },
        {
          "internalType": "uint256",
          "name": "campaignId",
          "type": "uint256"
        },
        {
          "internalType": "address",
          "name": "publisher",
          "type": "address"
        },
        {
          "internalType": "uint256",
          "name": "timestamp",
          "type": "uint256"
        },
        {
          "internalType": "bytes32",
          "name": "metadataCIDHash",
          "type": "bytes32"
        }
      ],
      "name": "submitClickGatewayDirect",
      "outputs": [],
      "stateMutability": "nonpayable",
      "type": "function"
    },
    {
      "inputs": [
        {
          "internalType": "bytes32",
          "name": "clickHash",
          "type": "bytes32"
        },
        {
          "internalType": "uint256",
          "name": "campaignId",
          "type": "uint256"
        },
        {
          "internalType": "address",
          "name": "publisher",
          "type": "address"
        },
        {
          "internalType": "address",
          "name": "gateway",
          "type": "address"
        },
        {
          "internalType": "uint256",
          "name": "timestamp",
          "type": "uint256"
        },
        {
          "internalType": "bytes32",
          "name": "metadataCIDHash",
          "type": "bytes32"
        },
        {
          "internalType": "bytes",
          "name": "signature",
          "type": "bytes"
        }
      ],
      "name": "submitClickWithSig",
      "outputs": [],
      "stateMutability": "nonpayable",
      "type": "function"
    },
    {
      "inputs": [
        {
          "internalType": "uint256",
          "name": "amount",
          "type": "uint256"
        }
      ],
      "name": "withdrawPublisher",
      "outputs": [],
      "stateMutability": "nonpayable",
      "type": "function"
    },
    {
      "inputs": [
        {
          "internalType": "uint256",
          "name": "campaignId",
          "type": "uint256"
        }
      ],
      "name": "getCampaign",
      "outputs": [
        {
          "internalType": "address",
          "name": "advertiser",
          "type": "address"
        },
        {
          "internalType": "uint256",
          "name": "cpcWei",
          "type": "uint256"
        },
        {
          "internalType": "uint256",
          "name": "budgetWei",
          "type": "uint256"
        },
        {
          "internalType": "bool",
          "name": "paused",
          "type": "bool"
        },
        {
          "internalType": "string",
          "name": "meta",
          "type": "string"
        }
      ],
      "stateMutability": "view",
      "type": "function",
      "constant": true
    }
  ],
  "bytecode": "0x60806040526706f05b59d3b20000600755620151806009556078600a553480156200002957600080fd5b50604051620028c3380380620028c38339810160408190526200004c916200019d565b600180556001600160a01b0381166200009f5760405162461bcd60e51b8152602060048201526011602482015270151c99585cdd5c9e481c995c5d5a5c9959607a1b604482015260640160405180910390fd5b620000ac600033620000fc565b600880546001600160a01b0319166001600160a01b0383169081179091556040516000907f8c3aa5f43a388513435861bf27dfad7829cd248696fed367c62d441f62954496908290a350620001cf565b6000828152602081815260408083206001600160a01b038516845290915290205460ff1662000199576000828152602081815260408083206001600160a01b03851684529091529020805460ff19166001179055620001583390565b6001600160a01b0316816001600160a01b0316837f2f8788117e7eff1d82e926ec794901d17c78024a50270940304540a733656f0d60405160405180910390a45b5050565b600060208284031215620001b057600080fd5b81516001600160a01b0381168114620001c857600080fd5b9392505050565b6126e480620001df6000396000f3fe6080604052600436106101e55760003560e01c806389eb494f11610101578063b51eb9031161009a578063d547741f1161006c578063d547741f146105ce578063dc17027d146105ee578063de45db4f14610604578063eba41f6b14610631578063f0f442601461065157005b8063b51eb90314610564578063b9800c591461056c578063c50d6dd91461058c578063cf173b90146105ae57005b806392bd38bc116100d357806392bd38bc146104fc57806399d5185e1461050f578063a217fddf1461052f578063b369359d1461054457005b806389eb494f146104895780638dbb25f7146104a957806391cbf44e146104c957806391d14854146104dc57005b8063426233601161017e578063605663621161015057806360566362146103d157806361d027b3146103e7578063656123d81461041f5780636e1d616e1461043f57806385134bc61461047357005b8063426233601461034257806347c9e8f61461036f5780635598f8cc146103915780635e534494146103b157005b8063248a9ca3116101b7578063248a9ca3146102a45780632f2ff15d146102e25780633213d1791461030257806336568abe1461032257005b806301ffc9a7146101ee578063141961bc146102235780631634b3e7146102545780631b4160d71461028457005b366101ec57005b005b3480156101fa57600080fd5b5061020e610209366004612007565b610671565b60405190151581526020015b60405180910390f35b34801561022f57600080fd5b5061024361023e366004612031565b6106a8565b60405161021a95949392919061209a565b34801561026057600080fd5b5061020e61026f366004612031565b60056020526000908152604090205460ff1681565b34801561029057600080fd5b506101ec61029f366004612138565b610772565b3480156102b057600080fd5b506102d46102bf366004612031565b60009081526020819052604090206001015490565b60405190815260200161021a565b3480156102ee57600080fd5b506101ec6102fd3660046121c3565b61097e565b34801561030e57600080fd5b506101ec61031d366004612031565b6109a8565b34801561032e57600080fd5b506101ec61033d3660046121c3565b610b75565b34801561034e57600080fd5b506102d461035d3660046121ef565b60026020526000908152604090205481565b34801561037b57600080fd5b50610384610bf3565b60405161021a919061220a565b34801561039d57600080fd5b506102436103ac366004612031565b610c4b565b3480156103bd57600080fd5b506101ec6103cc36600461224e565b610d30565b3480156103dd57600080fd5b506102d460075481565b3480156103f357600080fd5b50600854610407906001600160a01b031681565b6040516001600160a01b03909116815260200161021a565b34801561042b57600080fd5b506101ec61043a366004612294565b610fc3565b34801561044b57600080fd5b506102d47f59a1c48e5837ad7a7f3dcedcbe129bf3249ec4fbf651fd4f5e2600ead39fe2f581565b34801561047f57600080fd5b506102d4600a5481565b34801561049557600080fd5b506102d46104a43660046122c9565b611079565b3480156104b557600080fd5b506101ec6104c4366004612031565b611102565b6102d46104d7366004612321565b611257565b3480156104e857600080fd5b5061020e6104f73660046121c3565b6114a5565b6101ec61050a366004612031565b6114ce565b34801561051b57600080fd5b506101ec61052a366004612031565b6115c4565b34801561053b57600080fd5b506102d4600081565b34801561055057600080fd5b506102d461055f366004612031565b6115d5565b6101ec6115f6565b34801561057857600080fd5b506101ec610587366004612031565b6116bb565b34801561059857600080fd5b506102d460008051602061268f83398151915281565b3480156105ba57600080fd5b506101ec6105c9366004612374565b6116cc565b3480156105da57600080fd5b506101ec6105e93660046121c3565b6116fa565b3480156105fa57600080fd5b506102d460095481565b34801561061057600080fd5b506102d461061f3660046121ef565b60066020526000908152604090205481565b34801561063d57600080fd5b506101ec61064c366004612031565b61171f565b34801561065d57600080fd5b506101ec61066c3660046121ef565b611730565b60006001600160e01b03198216637965db0b60e01b14806106a257506301ffc9a760e01b6001600160e01b03198316145b92915050565b6003602081905260009182526040909120805460018201546002830154938301546004840180546001600160a01b03909416959294929360ff90921692916106ef906123bb565b80601f016020809104026020016040519081016040528092919081815260200182805461071b906123bb565b80156107685780601f1061073d57610100808354040283529160200191610768565b820191906000526020600020905b81548152906001019060200180831161074b57829003601f168201915b5050505050905085565b6000610782898989898989611079565b7f19457468657265756d205369676e6564204d6573736167653a0a3332000000006000908152601c829052603c81209192505060006107f78286868080601f0160208091040260200160405190810160405280939291908181526020018383808284376000920191909152506117dd92505050565b9050876001600160a01b0316816001600160a01b0316146108535760405162461bcd60e51b8152602060048201526011602482015270496e76616c6964207369676e617475726560781b60448201526064015b60405180910390fd5b61086b60008051602061268f833981519152896114a5565b6108ac5760405162461bcd60e51b81526020600482015260126024820152715369676e6572206e6f74206761746577617960701b604482015260640161084a565b4287111561091457600a546108c1428961240b565b111561090f5760405162461bcd60e51b815260206004820152601b60248201527f54696d657374616d7020746f6f2066617220696e206675747572650000000000604482015260640161084a565b610963565b600954610921884261240b565b11156109635760405162461bcd60e51b8152602060048201526011602482015270151a5b595cdd185b5c081d1bdbc81bdb19607a1b604482015260640161084a565b6109718b8b8b8b8b8b611801565b5050505050505050505050565b60008281526020819052604090206001015461099981611a5a565b6109a38383611a64565b505050565b6109b0611ae8565b60008051602061268f8339815191526109c881611a5a565b6000821180156109e75750336000908152600260205260409020548211155b610a245760405162461bcd60e51b815260206004820152600e60248201526d125b9d985b1a5908185b5bdd5b9d60921b604482015260640161084a565b33600090815260026020526040812054610a3f90849061240b565b9050801580610a5057506007548110155b610a8e5760405162461bcd60e51b815260206004820152600f60248201526e42656c6f77206d696e207374616b6560881b604482015260640161084a565b336000818152600260205260408082208490555190919085908381818185875af1925050503d8060008114610adf576040519150601f19603f3d011682016040523d82523d6000602084013e610ae4565b606091505b5050905080610b2b5760405162461bcd60e51b8152602060048201526013602482015272115512081d1c985b9cd9995c8819985a5b1959606a1b604482015260640161084a565b604080518581526020810184905233917f5a234eb1aa7640e15f81f6a544d81e5df683782173bdc5edeeeed061c42f3040910160405180910390a2505050610b7260018055565b50565b6001600160a01b0381163314610be55760405162461bcd60e51b815260206004820152602f60248201527f416363657373436f6e74726f6c3a2063616e206f6e6c792072656e6f756e636560448201526e103937b632b9903337b91039b2b63360891b606482015260840161084a565b610bef8282611b41565b5050565b60606004805480602002602001604051908101604052809291908181526020018280548015610c4157602002820191906000526020600020905b815481526020019060010190808311610c2d575b5050505050905090565b600081815260036020819052604082208054600182015460028301549383015460048401805487968796879660609691956001600160a01b0390911694919360ff90911691908190610c9c906123bb565b80601f0160208091040260200160405190810160405280929190818152602001828054610cc8906123bb565b8015610d155780601f10610cea57610100808354040283529160200191610d15565b820191906000526020600020905b815481529060010190602001808311610cf857829003601f168201915b50505050509050955095509550955095505091939590929450565b610d3b6000336114a5565b80610d6b5750610d6b7f59a1c48e5837ad7a7f3dcedcbe129bf3249ec4fbf651fd4f5e2600ead39fe2f5336114a5565b610dab5760405162461bcd60e51b81526020600482015260116024820152702737ba1030b236b4b717b0bab234ba37b960791b604482015260640161084a565b6001600160a01b038316610df35760405162461bcd60e51b815260206004820152600f60248201526e496e76616c6964206761746577617960881b604482015260640161084a565b60008261ffff16118015610e0d57506127108261ffff1611155b610e4c5760405162461bcd60e51b815260206004820152601060248201526f427073206f7574206f662072616e676560801b604482015260640161084a565b6001600160a01b03831660009081526002602052604090205480610e9d5760405162461bcd60e51b81526020600482015260086024820152674e6f207374616b6560c01b604482015260640161084a565b6000612710610eb061ffff86168461241e565b610eba9190612435565b9050610ec6818361240b565b6001600160a01b0386811660009081526002602052604080822093909355600854925190929091169083908381818185875af1925050503d8060008114610f29576040519150601f19603f3d011682016040523d82523d6000602084013e610f2e565b606091505b5050905080610f775760405162461bcd60e51b815260206004820152601560248201527414db185cda081d1c985b9cd9995c8819985a5b1959605a1b604482015260640161084a565b60408051838152602081018690526001600160a01b038816917f12ca20a179e8472ecdc6a3b0c7081673a1d8f6008d5e76f92d788936ac8fed1d910160405180910390a2505050505050565b600082815260036020526040902080546001600160a01b0316331480610fef5750610fef6000336114a5565b61102c5760405162461bcd60e51b815260206004820152600e60248201526d139bdd08185d5d1a1bdc9a5e995960921b604482015260640161084a565b60038101805460ff191683151590811790915560405190815283907feb034104a3d72bdb4a17b6628fc9eaa19a0e4523003d2698e0fd72a430e2eb2f9060200160405180910390a2505050565b60408051466020808301919091526bffffffffffffffffffffffff1930606090811b8216848601526a41445f434c49434b5f563160a81b6054850152605f84019a909a52607f83019890985295881b8716609f8201529390961b90941660b383015260c782015260e7808201939093528351808203909301835261010701909252805191012090565b61110a611ae8565b6000811180156111295750336000908152600660205260409020548111155b6111665760405162461bcd60e51b815260206004820152600e60248201526d125b9d985b1a5908185b5bdd5b9d60921b604482015260640161084a565b336000908152600660205260408120805483929061118590849061240b565b9091555050604051600090339083908381818185875af1925050503d80600081146111cc576040519150601f19603f3d011682016040523d82523d6000602084013e6111d1565b606091505b50509050806112185760405162461bcd60e51b8152602060048201526013602482015272115512081d1c985b9cd9995c8819985a5b1959606a1b604482015260640161084a565b60405182815233907f61136c8a797391fcd52c5552ea96089e2814d10eb84c76d221f58761125c43829060200160405180910390a250610b7260018055565b600080841161129a5760405162461bcd60e51b815260206004820152600f60248201526e0435043206d757374206265203e203608c1b604482015260640161084a565b600034116112ea5760405162461bcd60e51b815260206004820152601760248201527f496e697469616c20627564676574207265717569726564000000000000000000604482015260640161084a565b6000858152600360205260409020546001600160a01b03161561134f5760405162461bcd60e51b815260206004820152601a60248201527f43616d706169676e20494420616c726561647920657869737473000000000000604482015260640161084a565b6040518060a00160405280336001600160a01b0316815260200185815260200134815260200160001515815260200184848080601f016020809104026020016040519081016040528093929190818152602001838380828437600092018290525093909452505087815260036020818152604092839020855181546001600160a01b0319166001600160a01b039091161781559085015160018201559184015160028301556060840151908201805460ff19169115159190911790556080830151909150600482019061142290826124b3565b5050600480546001810182556000919091527f8a35acfbc15ff81a39ae7d344fd709f28e8600b4aa8c65c6b64bfe7fe36bd19b0186905550604051339086907f2e64da7e06e88ccd84d69eccb21119ca81e40e5648611e89edfe888c8fa6259790611494908890349089908990612573565b60405180910390a350929392505050565b6000918252602082815260408084206001600160a01b0393909316845291905290205460ff1690565b600081815260036020526040902080546001600160a01b03166115265760405162461bcd60e51b815260206004820152601060248201526f43616d706169676e206d697373696e6760801b604482015260640161084a565b600034116115615760405162461bcd60e51b81526020600482015260086024820152674e6f2066756e647360c01b604482015260640161084a565b3481600201600082825461157591906125b0565b9091555050600281015460405183917f42a74499fc8265a526ec8ab4b3e4a4a06e50ef92c084b2634b356f72a5ee44af916115b891348252602082015260400190565b60405180910390a25050565b60006115cf81611a5a565b50600a55565b600481815481106115e557600080fd5b600091825260209091200154905081565b60008051602061268f83398151915261160e81611a5a565b6000341161164c5760405162461bcd60e51b815260206004820152600b60248201526a139bc8115512081cd95b9d60aa1b604482015260640161084a565b336000908152600260205260408120805434929061166b9084906125b0565b909155505033600081815260026020908152604091829020548251348152918201527f2a0a18dbee476b481250f5d3f9111f59cc104ea823d038e3ec86007e250e1429910160405180910390a250565b60006116c681611a5a565b50600755565b60008051602061268f8339815191526116e481611a5a565b6116f2868686338787611801565b505050505050565b60008281526020819052604090206001015461171581611a5a565b6109a38383611b41565b600061172a81611a5a565b50600955565b600061173b81611a5a565b6001600160a01b0382166117805760405162461bcd60e51b815260206004820152600c60248201526b5a65726f206164647265737360a01b604482015260640161084a565b6008546040516001600160a01b038085169216907f8c3aa5f43a388513435861bf27dfad7829cd248696fed367c62d441f6295449690600090a350600880546001600160a01b0319166001600160a01b0392909216919091179055565b60008060006117ec8585611ba6565b915091506117f981611beb565b509392505050565b6001600160a01b0384166118485760405162461bcd60e51b815260206004820152600e60248201526d2d32b93790383ab13634b9b432b960911b604482015260640161084a565b60008681526005602052604090205460ff16156118995760405162461bcd60e51b815260206004820152600f60248201526e4475706c696361746520636c69636b60881b604482015260640161084a565b600085815260036020526040902080546001600160a01b03166118f15760405162461bcd60e51b815260206004820152601060248201526f43616d706169676e206d697373696e6760801b604482015260640161084a565b600381015460ff16156119385760405162461bcd60e51b815260206004820152600f60248201526e10d85b5c185a59db881c185d5cd959608a1b604482015260640161084a565b8060010154816002015410156119865760405162461bcd60e51b8152602060048201526013602482015272125b9cdd59999a58da595b9d08189d5919d95d606a1b604482015260640161084a565b6000878152600560205260408120805460ff19166001908117909155820154600283018054919290916119ba90849061240b565b909155505060018101546001600160a01b038616600090815260066020526040812080549091906119ec9084906125b0565b90915550506001810154604080516001600160a01b03878116825260208201939093529081018590526060810184905290861690879089907f15bd2785d9e0f1a4f550fd9a407c568547cef52bdfc00b65e71608b09a3fccbc9060800160405180910390a450505050505050565b610b728133611d35565b611a6e82826114a5565b610bef576000828152602081815260408083206001600160a01b03851684529091529020805460ff19166001179055611aa43390565b6001600160a01b0316816001600160a01b0316837f2f8788117e7eff1d82e926ec794901d17c78024a50270940304540a733656f0d60405160405180910390a45050565b600260015403611b3a5760405162461bcd60e51b815260206004820152601f60248201527f5265656e7472616e637947756172643a207265656e7472616e742063616c6c00604482015260640161084a565b6002600155565b611b4b82826114a5565b15610bef576000828152602081815260408083206001600160a01b0385168085529252808320805460ff1916905551339285917ff6391f5c32d9c69d2a47ea670b442974b53935d1edc7fd64eb21e047a839171b9190a45050565b6000808251604103611bdc5760208301516040840151606085015160001a611bd087828585611d8e565b94509450505050611be4565b506000905060025b9250929050565b6000816004811115611bff57611bff6125c3565b03611c075750565b6001816004811115611c1b57611c1b6125c3565b03611c685760405162461bcd60e51b815260206004820152601860248201527f45434453413a20696e76616c6964207369676e61747572650000000000000000604482015260640161084a565b6002816004811115611c7c57611c7c6125c3565b03611cc95760405162461bcd60e51b815260206004820152601f60248201527f45434453413a20696e76616c6964207369676e6174757265206c656e67746800604482015260640161084a565b6003816004811115611cdd57611cdd6125c3565b03610b725760405162461bcd60e51b815260206004820152602260248201527f45434453413a20696e76616c6964207369676e6174757265202773272076616c604482015261756560f01b606482015260840161084a565b611d3f82826114a5565b610bef57611d4c81611e52565b611d57836020611e64565b604051602001611d689291906125d9565b60408051601f198184030181529082905262461bcd60e51b825261084a9160040161264e565b6000807f7fffffffffffffffffffffffffffffff5d576e7357a4501ddfe92f46681b20a0831115611dc55750600090506003611e49565b6040805160008082526020820180845289905260ff881692820192909252606081018690526080810185905260019060a0016020604051602081039080840390855afa158015611e19573d6000803e3d6000fd5b5050604051601f1901519150506001600160a01b038116611e4257600060019250925050611e49565b9150600090505b94509492505050565b60606106a26001600160a01b03831660145b60606000611e7383600261241e565b611e7e9060026125b0565b67ffffffffffffffff811115611e9657611e96612457565b6040519080825280601f01601f191660200182016040528015611ec0576020820181803683370190505b509050600360fc1b81600081518110611edb57611edb612661565b60200101906001600160f81b031916908160001a905350600f60fb1b81600181518110611f0a57611f0a612661565b60200101906001600160f81b031916908160001a9053506000611f2e84600261241e565b611f399060016125b0565b90505b6001811115611fb1576f181899199a1a9b1b9c1cb0b131b232b360811b85600f1660108110611f6d57611f6d612661565b1a60f81b828281518110611f8357611f83612661565b60200101906001600160f81b031916908160001a90535060049490941c93611faa81612677565b9050611f3c565b5083156120005760405162461bcd60e51b815260206004820181905260248201527f537472696e67733a20686578206c656e67746820696e73756666696369656e74604482015260640161084a565b9392505050565b60006020828403121561201957600080fd5b81356001600160e01b03198116811461200057600080fd5b60006020828403121561204357600080fd5b5035919050565b60005b8381101561206557818101518382015260200161204d565b50506000910152565b6000815180845261208681602086016020860161204a565b601f01601f19169290920160200192915050565b60018060a01b0386168152846020820152836040820152821515606082015260a0608082015260006120cf60a083018461206e565b979650505050505050565b80356001600160a01b03811681146120f157600080fd5b919050565b60008083601f84011261210857600080fd5b50813567ffffffffffffffff81111561212057600080fd5b602083019150836020828501011115611be457600080fd5b60008060008060008060008060e0898b03121561215457600080fd5b883597506020890135965061216b60408a016120da565b955061217960608a016120da565b94506080890135935060a0890135925060c089013567ffffffffffffffff8111156121a357600080fd5b6121af8b828c016120f6565b999c989b5096995094979396929594505050565b600080604083850312156121d657600080fd5b823591506121e6602084016120da565b90509250929050565b60006020828403121561220157600080fd5b612000826120da565b6020808252825182820181905260009190848201906040850190845b8181101561224257835183529284019291840191600101612226565b50909695505050505050565b60008060006060848603121561226357600080fd5b61226c846120da565b9250602084013561ffff8116811461228357600080fd5b929592945050506040919091013590565b600080604083850312156122a757600080fd5b82359150602083013580151581146122be57600080fd5b809150509250929050565b60008060008060008060c087890312156122e257600080fd5b86359550602087013594506122f9604088016120da565b9350612307606088016120da565b92506080870135915060a087013590509295509295509295565b6000806000806060858703121561233757600080fd5b8435935060208501359250604085013567ffffffffffffffff81111561235c57600080fd5b612368878288016120f6565b95989497509550505050565b600080600080600060a0868803121561238c57600080fd5b85359450602086013593506123a3604087016120da565b94979396509394606081013594506080013592915050565b600181811c908216806123cf57607f821691505b6020821081036123ef57634e487b7160e01b600052602260045260246000fd5b50919050565b634e487b7160e01b600052601160045260246000fd5b818103818111156106a2576106a26123f5565b80820281158282048414176106a2576106a26123f5565b60008261245257634e487b7160e01b600052601260045260246000fd5b500490565b634e487b7160e01b600052604160045260246000fd5b601f8211156109a357600081815260208120601f850160051c810160208610156124945750805b601f850160051c820191505b818110156116f2578281556001016124a0565b815167ffffffffffffffff8111156124cd576124cd612457565b6124e1816124db84546123bb565b8461246d565b602080601f83116001811461251657600084156124fe5750858301515b600019600386901b1c1916600185901b1785556116f2565b600085815260208120601f198616915b8281101561254557888601518255948401946001909101908401612526565b50858210156125635787850151600019600388901b60f8161c191681555b5050505050600190811b01905550565b84815283602082015260606040820152816060820152818360808301376000818301608090810191909152601f909201601f191601019392505050565b808201808211156106a2576106a26123f5565b634e487b7160e01b600052602160045260246000fd5b7f416363657373436f6e74726f6c3a206163636f756e742000000000000000000081526000835161261181601785016020880161204a565b7001034b99036b4b9b9b4b733903937b6329607d1b601791840191820152835161264281602884016020880161204a565b01602801949350505050565b602081526000612000602083018461206e565b634e487b7160e01b600052603260045260246000fd5b600081612686576126866123f5565b50600019019056feb90e9995c6170fff8ea03e9ad6919878e483770c237f1a6f330ceaa7112b344aa2646970667358221220fe794398b69dd4c9098f345d798596dce7186328b9441c37ea1b8e10ac582b2164736f6c63430008150033",
  "immutableReferences": {},
  "source": "// SPDX-License-Identifier: MIT\r\npragma solidity ^0.8.19;\r\n\r\nimport \"@openzeppelin/contracts/access/AccessControl.sol\";\r\nimport \"@openzeppelin/contracts/security/ReentrancyGuard.sol\";\r\nimport \"@openzeppelin/contracts/utils/cryptography/ECDSA.sol\";\r\n\r\ncontract AdFraudPBFT is AccessControl, ReentrancyGuard {\r\n    using ECDSA for bytes32;\r\n\r\n    // Roles\r\n    bytes32 public constant GATEWAY_ROLE = keccak256(\"GATEWAY_ROLE\");\r\n    bytes32 public constant AUDITOR_ROLE = keccak256(\"AUDITOR_ROLE\");\r\n\r\n    // Events\r\n    event TreasuryChanged(address indexed oldTreasury, address indexed newTreasury);\r\n    event GatewayStaked(address indexed gateway, uint256 amount, uint256 totalStake);\r\n    event GatewayUnstaked(address indexed gateway, uint256 amount, uint256 totalStake);\r\n    event GatewaySlashed(address indexed gateway, uint256 slashAmount, bytes32 evidenceCIDHash);\r\n\r\n    event CampaignCreated(uint256 indexed campaignId, address indexed advertiser, uint256 cpcWei, uint256 initialBudget, string meta);\r\n    event CampaignFunded(uint256 indexed campaignId, uint256 amount, uint256 newBudget);\r\n    event CampaignPaused(uint256 indexed campaignId, bool paused);\r\n\r\n    event ClickRecorded(\r\n        bytes32 indexed clickHash,\r\n        uint256 indexed campaignId,\r\n        address indexed publisher,\r\n        address gateway,\r\n        uint256 cpcWei,\r\n        uint256 timestamp,\r\n        bytes32 metadataCIDHash\r\n    );\r\n\r\n    event PublisherWithdrawal(address indexed publisher, uint256 amount);\r\n\r\n    // Data\r\n    struct Campaign {\r\n        address advertiser;\r\n        uint256 cpcWei;\r\n        uint256 budgetWei;\r\n        bool paused;\r\n        string meta;\r\n    }\r\n\r\n    mapping(address => uint256) public stakeOf;\r\n    mapping(uint256 => Campaign) public campaigns;\r\n    uint256[] public campaignIds; //  store all campaign IDs\r\n\r\n    mapping(bytes32 => bool) public usedClickHash;\r\n    mapping(address => uint256) public publisherBalance;\r\n\r\n    uint256 public minGatewayStakeWei = 0.5 ether;\r\n    address public treasury;\r\n\r\n    // timestamp replay protection\r\n    uint256 public maxClickAgeSeconds = 86400; // 1 day\r\n    uint256 public maxClickFutureSeconds = 120; // 2 minutes\r\n\r\n    modifier onlyAdminOrAuditor() {\r\n        require(\r\n            hasRole(DEFAULT_ADMIN_ROLE, _msgSender()) || hasRole(AUDITOR_ROLE, _msgSender()),\r\n            \"Not admin/auditor\"\r\n        );\r\n        _;\r\n    }\r\n\r\n    constructor(address _treasury) {\r\n        require(_treasury != address(0), \"Treasury required\");\r\n        _grantRole(DEFAULT_ADMIN_ROLE, msg.sender);\r\n        treasury = _treasury;\r\n        emit TreasuryChanged(address(0), _treasury);\r\n    }\r\n\r\n    // --- Admin setters ---\r\n    function setMinGatewayStake(uint256 newMin) external onlyRole(DEFAULT_ADMIN_ROLE) {\r\n        minGatewayStakeWei = newMin;\r\n    }\r\n\r\n    function setTreasury(address newTreasury) external onlyRole(DEFAULT_ADMIN_ROLE) {\r\n        require(newTreasury != address(0), \"Zero address\");\r\n        emit TreasuryChanged(treasury, newTreasury);\r\n        treasury = newTreasury;\r\n    }\r\n\r\n    function setMaxClickAgeSeconds(uint256 secs) external onlyRole(DEFAULT_ADMIN_ROLE) {\r\n        maxClickAgeSeconds = secs;\r\n    }\r\n\r\n    function setMaxClickFutureSeconds(uint256 secs) external onlyRole(DEFAULT_ADMIN_ROLE) {\r\n        maxClickFutureSeconds = secs;\r\n    }\r\n\r\n    // --- Gateway staking ---\r\n    function stakeGateway() external payable onlyRole(GATEWAY_ROLE) {\r\n        require(msg.value > 0, \"No ETH sent\");\r\n        stakeOf[msg.sender] += msg.value;\r\n        emit GatewayStaked(msg.sender, msg.value, stakeOf[msg.sender]);\r\n    }\r\n\r\n    function unstakeGateway(uint256 amount) external nonReentrant onlyRole(GATEWAY_ROLE) {\r\n        require(amount > 0 && amount <= stakeOf[msg.sender], \"Invalid amount\");\r\n        uint256 remaining = stakeOf[msg.sender] - amount;\r\n        require(remaining == 0 || remaining >= minGatewayStakeWei, \"Below min stake\");\r\n        stakeOf[msg.sender] = remaining;\r\n        (bool ok, ) = payable(msg.sender).call{value: amount}(\"\");\r\n        require(ok, \"ETH transfer failed\");\r\n        emit GatewayUnstaked(msg.sender, amount, remaining);\r\n    }\r\n\r\n    function slashGateway(address gateway, uint16 pctBps, bytes32 evidenceCIDHash) external onlyAdminOrAuditor {\r\n        require(gateway != address(0), \"Invalid gateway\");\r\n        require(pctBps > 0 && pctBps <= 10000, \"Bps out of range\");\r\n        uint256 stake = stakeOf[gateway];\r\n        require(stake > 0, \"No stake\");\r\n        uint256 slashAmt = (stake * pctBps) / 10000;\r\n        stakeOf[gateway] = stake - slashAmt;\r\n        (bool ok, ) = payable(treasury).call{value: slashAmt}(\"\");\r\n        require(ok, \"Slash transfer failed\");\r\n        emit GatewaySlashed(gateway, slashAmt, evidenceCIDHash);\r\n    }\r\n\r\n    // --- Campaigns ---\r\n    function createCampaign(\r\n        uint256 campaignId,\r\n        uint256 cpcWei,\r\n        string calldata meta\r\n    ) external payable returns (uint256 id) {\r\n        require(cpcWei > 0, \"CPC must be > 0\");\r\n        require(msg.value > 0, \"Initial budget required\");\r\n        require(campaigns[campaignId].advertiser == address(0), \"Campaign ID already exists\");\r\n\r\n        campaigns[campaignId] = Campaign({\r\n            advertiser: msg.sender,\r\n            cpcWei: cpcWei,\r\n            budgetWei: msg.value,\r\n            paused: false,\r\n            meta: meta\r\n        });\r\n\r\n        campaignIds.push(campaignId); //  store ID\r\n        emit CampaignCreated(campaignId, msg.sender, cpcWei, msg.value, meta);\r\n        return campaignId;\r\n    }\r\n\r\n    function fundCampaign(uint256 campaignId) external payable {\r\n        Campaign storage c = campaigns[campaignId];\r\n        require(c.advertiser != address(0), \"Campaign missing\");\r\n        require(msg.value > 0, \"No funds\");\r\n        c.budgetWei += msg.value;\r\n        emit CampaignFunded(campaignId, msg.value, c.budgetWei);\r\n    }\r\n\r\n    function setCampaignPaused(uint256 campaignId, bool paused) external {\r\n        Campaign storage c = campaigns[campaignId];\r\n        require(\r\n            c.advertiser == msg.sender || hasRole(DEFAULT_ADMIN_ROLE, msg.sender),\r\n            \"Not authorized\"\r\n        );\r\n        c.paused = paused;\r\n        emit CampaignPaused(campaignId, paused);\r\n    }\r\n\r\n    function getCampaignIds() external view returns (uint256[] memory) {\r\n        return campaignIds;\r\n    }\r\n\r\n    // --- Click submission helpers ---\r\n    function computeClickMessageHash(\r\n        bytes32 clickHash,\r\n        uint256 campaignId,\r\n        address publisher,\r\n        address gateway,\r\n        uint256 timestamp,\r\n        bytes32 metadataCIDHash\r\n    ) public view returns (bytes32) {\r\n        return keccak256(\r\n            abi.encodePacked(\r\n                block.chainid,\r\n                address(this),\r\n                \"AD_CLICK_V1\",\r\n                clickHash,\r\n                campaignId,\r\n                publisher,\r\n                gateway,\r\n                timestamp,\r\n                metadataCIDHash\r\n            )\r\n        );\r\n    }\r\n\r\n    function submitClickGatewayDirect(\r\n        bytes32 clickHash,\r\n        uint256 campaignId,\r\n        address publisher,\r\n        uint256 timestamp,\r\n        bytes32 metadataCIDHash\r\n    ) external onlyRole(GATEWAY_ROLE) {\r\n        _submitClickCore(clickHash, campaignId, publisher, msg.sender, timestamp, metadataCIDHash);\r\n    }\r\n\r\n    function submitClickWithSig(\r\n        bytes32 clickHash,\r\n        uint256 campaignId,\r\n        address publisher,\r\n        address gateway,\r\n        uint256 timestamp,\r\n        bytes32 metadataCIDHash,\r\n        bytes calldata signature\r\n    ) external {\r\n        bytes32 rawHash = computeClickMessageHash(\r\n            clickHash,\r\n            campaignId,\r\n            publisher,\r\n            gateway,\r\n            timestamp,\r\n            metadataCIDHash\r\n        );\r\n        bytes32 ethSigned = ECDSA.toEthSignedMessageHash(rawHash);\r\n        address recovered = ECDSA.recover(ethSigned, signature);\r\n        require(recovered == gateway, \"Invalid signature\");\r\n        require(hasRole(GATEWAY_ROLE, gateway), \"Signer not gateway\");\r\n\r\n        if (timestamp > block.timestamp) {\r\n            require(timestamp - block.timestamp <= maxClickFutureSeconds, \"Timestamp too far in future\");\r\n        } else {\r\n            require(block.timestamp - timestamp <= maxClickAgeSeconds, \"Timestamp too old\");\r\n        }\r\n\r\n        _submitClickCore(clickHash, campaignId, publisher, gateway, timestamp, metadataCIDHash);\r\n    }\r\n\r\n    function _submitClickCore(\r\n        bytes32 clickHash,\r\n        uint256 campaignId,\r\n        address publisher,\r\n        address gateway,\r\n        uint256 timestamp,\r\n        bytes32 metadataCIDHash\r\n    ) internal {\r\n        require(publisher != address(0), \"Zero publisher\");\r\n        require(!usedClickHash[clickHash], \"Duplicate click\");\r\n        Campaign storage c = campaigns[campaignId];\r\n        require(c.advertiser != address(0), \"Campaign missing\");\r\n        require(!c.paused, \"Campaign paused\");\r\n        require(c.budgetWei >= c.cpcWei, \"Insufficient budget\");\r\n\r\n        usedClickHash[clickHash] = true;\r\n        c.budgetWei -= c.cpcWei;\r\n        publisherBalance[publisher] += c.cpcWei;\r\n\r\n        emit ClickRecorded(clickHash, campaignId, publisher, gateway, c.cpcWei, timestamp, metadataCIDHash);\r\n    }\r\n\r\n    function withdrawPublisher(uint256 amount) external nonReentrant {\r\n        require(amount > 0 && amount <= publisherBalance[msg.sender], \"Invalid amount\");\r\n        publisherBalance[msg.sender] -= amount;\r\n        (bool ok, ) = payable(msg.sender).call{value: amount}(\"\");\r\n        require(ok, \"ETH transfer failed\");\r\n        emit PublisherWithdrawal(msg.sender, amount);\r\n    }\r\n\r\n    function getCampaign(uint256 campaignId)\r\n        external\r\n        view\r\n        returns (\r\n            address advertiser,\r\n            uint256 cpcWei,\r\n            uint256 budgetWei,\r\n            bool paused,\r\n            string memory meta\r\n        )\r\n    {\r\n        Campaign storage c = campaigns[campaignId];\r\n        return (c.advertiser, c.cpcWei, c.budgetWei, c.paused, c.meta);\r\n    }\r\n\r\n    receive() external payable {}\r\n    fallback() external payable {}\r\n}\r\n",
  "sourcePath": "C:\\Users\\ABHINAV\\OneDrive\\Desktop\\blockchain\\contracts\\AdFraudPBFT.sol",
  "compiler": {
    "name": "solc",
    "version": "0.8.21+commit.d9974bed.Emscripten.clang"
  },
  "schemaVersion": "3.4.16",
  "updatedAt": "2025-09-20T10:35:49.711Z",
  "networkType": "ethereum",
  "devdoc": {
    "events": {
      "RoleAdminChanged(bytes32,bytes32,bytes32)": {
        "details": "Emitted when `newAdminRole` is set as ``role``'s admin role, replacing `previousAdminRole` `DEFAULT_ADMIN_ROLE` is the starting admin for all roles, despite {RoleAdminChanged} not being emitted signaling this. _Available since v3.1._"
      },
      "RoleGranted(bytes32,address,address)": {
        "details": "Emitted when `account` is granted `role`. `sender` is the account that originated the contract call, an admin role bearer except when using {AccessControl-_setupRole}."
      },
      "RoleRevoked(bytes32,address,address)": {
        "details": "Emitted when `account` is revoked `role`. `sender` is the account that originated the contract call:   - if using `revokeRole`, it is the admin role bearer   - if using `renounceRole`, it is the role bearer (i.e. `account`)"
      }
    },
    "kind": "dev",
    "methods": {
      "getRoleAdmin(bytes32)": {
        "details": "Returns the admin role that controls `role`. See {grantRole} and {revokeRole}. To change a role's admin, use {_setRoleAdmin}."
      },
      "grantRole(bytes32,address)": {
        "details": "Grants `role` to `account`. If `account` had not been already granted `role`, emits a {RoleGranted} event. Requirements: - the caller must have ``role``'s admin role. May emit a {RoleGranted} event."
      },
      "hasRole(bytes32,address)": {
        "details": "Returns `true` if `account` has been granted `role`."
      },
      "renounceRole(bytes32,address)": {
        "details": "Revokes `role` from the calling account. Roles are often managed via {grantRole} and {revokeRole}: this function's purpose is to provide a mechanism for accounts to lose their privileges if they are compromised (such as when a trusted device is misplaced). If the calling account had been revoked `role`, emits a {RoleRevoked} event. Requirements: - the caller must be `account`. May emit a {RoleRevoked} event."
      },
      "revokeRole(bytes32,address)": {
        "details": "Revokes `role` from `account`. If `account` had been granted `role`, emits a {RoleRevoked} event. Requirements: - the caller must have ``role``'s admin role. May emit a {RoleRevoked} event."
      },
      "supportsInterface(bytes4)": {
        "details": "See {IERC165-supportsInterface}."
      }
    },
    "version": 1
  },
  "userdoc": {
    "kind": "user",
    "methods": {},
    "version": 1
  }
}