{
  "contractName": "AdFraudPBFT",
  "abi": [
    {
      "inputs": [
        {
          "internalType": "address",
          "name": "_treasury",
          "type": "address"
        }
      ],
      "stateMutability": "nonpayable",
      "type": "constructor"
    },
    {
      "anonymous": false,
      "inputs": [
        {
          "indexed": true,
          "internalType": "address",
          "name": "account",
          "type": "address"
        }
      ],
      "name": "AdminAssigned",
      "type": "event"
    },
    {
      "anonymous": false,
      "inputs": [
        {
          "indexed": true,
          "internalType": "address",
          "name": "account",
          "type": "address"
        }
      ],
      "name": "AdminRevoked",
      "type": "event"
    },
    {
      "anonymous": false,
      "inputs": [
        {
          "indexed": true,
          "internalType": "address",
          "name": "account",
          "type": "address"
        }
      ],
      "name": "AdvertiserAssigned",
      "type": "event"
    },
    {
      "anonymous": false,
      "inputs": [
        {
          "indexed": true,
          "internalType": "address",
          "name": "account",
          "type": "address"
        }
      ],
      "name": "AdvertiserRevoked",
      "type": "event"
    },
    {
      "anonymous": false,
      "inputs": [
        {
          "indexed": true,
          "internalType": "address",
          "name": "account",
          "type": "address"
        }
      ],
      "name": "AuditorAssigned",
      "type": "event"
    },
    {
      "anonymous": false,
      "inputs": [
        {
          "indexed": true,
          "internalType": "address",
          "name": "account",
          "type": "address"
        }
      ],
      "name": "AuditorRevoked",
      "type": "event"
    },
    {
      "anonymous": false,
      "inputs": [
        {
          "indexed": true,
          "internalType": "uint256",
          "name": "campaignId",
          "type": "uint256"
        },
        {
          "indexed": true,
          "internalType": "address",
          "name": "advertiser",
          "type": "address"
        },
        {
          "indexed": false,
          "internalType": "uint256",
          "name": "cpcWei",
          "type": "uint256"
        },
        {
          "indexed": false,
          "internalType": "uint256",
          "name": "initialBudget",
          "type": "uint256"
        },
        {
          "indexed": false,
          "internalType": "string",
          "name": "meta",
          "type": "string"
        }
      ],
      "name": "CampaignCreated",
      "type": "event"
    },
    {
      "anonymous": false,
      "inputs": [
        {
          "indexed": true,
          "internalType": "uint256",
          "name": "campaignId",
          "type": "uint256"
        },
        {
          "indexed": false,
          "internalType": "uint256",
          "name": "amount",
          "type": "uint256"
        },
        {
          "indexed": false,
          "internalType": "uint256",
          "name": "newBudget",
          "type": "uint256"
        }
      ],
      "name": "CampaignFunded",
      "type": "event"
    },
    {
      "anonymous": false,
      "inputs": [
        {
          "indexed": true,
          "internalType": "uint256",
          "name": "campaignId",
          "type": "uint256"
        },
        {
          "indexed": false,
          "internalType": "bool",
          "name": "paused",
          "type": "bool"
        }
      ],
      "name": "CampaignPaused",
      "type": "event"
    },
    {
      "anonymous": false,
      "inputs": [
        {
          "indexed": true,
          "internalType": "bytes32",
          "name": "clickHash",
          "type": "bytes32"
        },
        {
          "indexed": true,
          "internalType": "uint256",
          "name": "campaignId",
          "type": "uint256"
        },
        {
          "indexed": true,
          "internalType": "address",
          "name": "publisher",
          "type": "address"
        },
        {
          "indexed": false,
          "internalType": "address",
          "name": "gateway",
          "type": "address"
        },
        {
          "indexed": false,
          "internalType": "uint256",
          "name": "cpcWei",
          "type": "uint256"
        },
        {
          "indexed": false,
          "internalType": "uint256",
          "name": "timestamp",
          "type": "uint256"
        },
        {
          "indexed": false,
          "internalType": "bytes32",
          "name": "metadataCIDHash",
          "type": "bytes32"
        }
      ],
      "name": "ClickRecorded",
      "type": "event"
    },
    {
      "anonymous": false,
      "inputs": [
        {
          "indexed": true,
          "internalType": "bytes32",
          "name": "txHash",
          "type": "bytes32"
        },
        {
          "indexed": false,
          "internalType": "bool",
          "name": "approved",
          "type": "bool"
        },
        {
          "indexed": false,
          "internalType": "uint256",
          "name": "voteCount",
          "type": "uint256"
        },
        {
          "indexed": false,
          "internalType": "uint256",
          "name": "blockTime",
          "type": "uint256"
        }
      ],
      "name": "Commit",
      "type": "event"
    },
    {
      "anonymous": false,
      "inputs": [
        {
          "indexed": true,
          "internalType": "bytes32",
          "name": "txHash",
          "type": "bytes32"
        },
        {
          "indexed": false,
          "internalType": "bool",
          "name": "approved",
          "type": "bool"
        },
        {
          "indexed": false,
          "internalType": "uint256",
          "name": "voteCount",
          "type": "uint256"
        }
      ],
      "name": "ConsensusReached",
      "type": "event"
    },
    {
      "anonymous": false,
      "inputs": [
        {
          "indexed": true,
          "internalType": "bytes32",
          "name": "txHash",
          "type": "bytes32"
        },
        {
          "indexed": true,
          "internalType": "address",
          "name": "node",
          "type": "address"
        },
        {
          "indexed": false,
          "internalType": "bool",
          "name": "vote",
          "type": "bool"
        }
      ],
      "name": "ConsensusVote",
      "type": "event"
    },
    {
      "anonymous": false,
      "inputs": [
        {
          "indexed": true,
          "internalType": "address",
          "name": "account",
          "type": "address"
        }
      ],
      "name": "GatewayAssigned",
      "type": "event"
    },
    {
      "anonymous": false,
      "inputs": [
        {
          "indexed": true,
          "internalType": "address",
          "name": "account",
          "type": "address"
        }
      ],
      "name": "GatewayRevoked",
      "type": "event"
    },
    {
      "anonymous": false,
      "inputs": [
        {
          "indexed": true,
          "internalType": "address",
          "name": "gateway",
          "type": "address"
        },
        {
          "indexed": false,
          "internalType": "uint256",
          "name": "slashAmount",
          "type": "uint256"
        },
        {
          "indexed": false,
          "internalType": "bytes32",
          "name": "evidenceCIDHash",
          "type": "bytes32"
        }
      ],
      "name": "GatewaySlashed",
      "type": "event"
    },
    {
      "anonymous": false,
      "inputs": [
        {
          "indexed": true,
          "internalType": "address",
          "name": "gateway",
          "type": "address"
        },
        {
          "indexed": false,
          "internalType": "uint256",
          "name": "amount",
          "type": "uint256"
        },
        {
          "indexed": false,
          "internalType": "uint256",
          "name": "totalStake",
          "type": "uint256"
        }
      ],
      "name": "GatewayStaked",
      "type": "event"
    },
    {
      "anonymous": false,
      "inputs": [
        {
          "indexed": true,
          "internalType": "address",
          "name": "gateway",
          "type": "address"
        },
        {
          "indexed": false,
          "internalType": "uint256",
          "name": "amount",
          "type": "uint256"
        },
        {
          "indexed": false,
          "internalType": "uint256",
          "name": "totalStake",
          "type": "uint256"
        }
      ],
      "name": "GatewayUnstaked",
      "type": "event"
    },
    {
      "anonymous": false,
      "inputs": [
        {
          "indexed": true,
          "internalType": "address",
          "name": "node",
          "type": "address"
        },
        {
          "indexed": false,
          "internalType": "uint256",
          "name": "stake",
          "type": "uint256"
        }
      ],
      "name": "PBFTNodeAdded",
      "type": "event"
    },
    {
      "anonymous": false,
      "inputs": [
        {
          "indexed": true,
          "internalType": "address",
          "name": "node",
          "type": "address"
        }
      ],
      "name": "PBFTNodeRemoved",
      "type": "event"
    },
    {
      "anonymous": false,
      "inputs": [
        {
          "indexed": true,
          "internalType": "address",
          "name": "account",
          "type": "address"
        }
      ],
      "name": "PbftNodeAssigned",
      "type": "event"
    },
    {
      "anonymous": false,
      "inputs": [
        {
          "indexed": true,
          "internalType": "address",
          "name": "account",
          "type": "address"
        }
      ],
      "name": "PbftNodeRevoked",
      "type": "event"
    },
    {
      "anonymous": false,
      "inputs": [
        {
          "indexed": true,
          "internalType": "bytes32",
          "name": "txHash",
          "type": "bytes32"
        },
        {
          "indexed": true,
          "internalType": "uint256",
          "name": "campaignId",
          "type": "uint256"
        },
        {
          "indexed": true,
          "internalType": "address",
          "name": "publisher",
          "type": "address"
        },
        {
          "indexed": false,
          "internalType": "address",
          "name": "leader",
          "type": "address"
        },
        {
          "indexed": false,
          "internalType": "uint256",
          "name": "requiredVotes",
          "type": "uint256"
        },
        {
          "indexed": false,
          "internalType": "uint256",
          "name": "proposalTime",
          "type": "uint256"
        }
      ],
      "name": "PrePrepare",
      "type": "event"
    },
    {
      "anonymous": false,
      "inputs": [
        {
          "indexed": true,
          "internalType": "bytes32",
          "name": "txHash",
          "type": "bytes32"
        },
        {
          "indexed": true,
          "internalType": "address",
          "name": "node",
          "type": "address"
        },
        {
          "indexed": false,
          "internalType": "bool",
          "name": "vote",
          "type": "bool"
        },
        {
          "indexed": false,
          "internalType": "uint256",
          "name": "blockTime",
          "type": "uint256"
        }
      ],
      "name": "Prepare",
      "type": "event"
    },
    {
      "anonymous": false,
      "inputs": [
        {
          "indexed": true,
          "internalType": "address",
          "name": "account",
          "type": "address"
        }
      ],
      "name": "PublisherAssigned",
      "type": "event"
    },
    {
      "anonymous": false,
      "inputs": [
        {
          "indexed": true,
          "internalType": "address",
          "name": "account",
          "type": "address"
        }
      ],
      "name": "PublisherRevoked",
      "type": "event"
    },
    {
      "anonymous": false,
      "inputs": [
        {
          "indexed": true,
          "internalType": "address",
          "name": "publisher",
          "type": "address"
        },
        {
          "indexed": false,
          "internalType": "uint256",
          "name": "amount",
          "type": "uint256"
        }
      ],
      "name": "PublisherWithdrawal",
      "type": "event"
    },
    {
      "anonymous": false,
      "inputs": [
        {
          "indexed": true,
          "internalType": "bytes32",
          "name": "txHash",
          "type": "bytes32"
        },
        {
          "indexed": true,
          "internalType": "uint256",
          "name": "campaignId",
          "type": "uint256"
        },
        {
          "indexed": true,
          "internalType": "address",
          "name": "publisher",
          "type": "address"
        },
        {
          "indexed": false,
          "internalType": "address",
          "name": "gateway",
          "type": "address"
        },
        {
          "indexed": false,
          "internalType": "uint256",
          "name": "cpcWei",
          "type": "uint256"
        },
        {
          "indexed": false,
          "internalType": "uint256",
          "name": "timestamp",
          "type": "uint256"
        }
      ],
      "name": "Reply",
      "type": "event"
    },
    {
      "anonymous": false,
      "inputs": [
        {
          "indexed": true,
          "internalType": "bytes32",
          "name": "txHash",
          "type": "bytes32"
        },
        {
          "indexed": true,
          "internalType": "uint256",
          "name": "campaignId",
          "type": "uint256"
        },
        {
          "indexed": true,
          "internalType": "address",
          "name": "publisher",
          "type": "address"
        }
      ],
      "name": "TransactionExecuted",
      "type": "event"
    },
    {
      "anonymous": false,
      "inputs": [
        {
          "indexed": true,
          "internalType": "bytes32",
          "name": "txHash",
          "type": "bytes32"
        },
        {
          "indexed": true,
          "internalType": "uint256",
          "name": "campaignId",
          "type": "uint256"
        },
        {
          "indexed": true,
          "internalType": "address",
          "name": "publisher",
          "type": "address"
        }
      ],
      "name": "TransactionProposed",
      "type": "event"
    },
    {
      "anonymous": false,
      "inputs": [
        {
          "indexed": true,
          "internalType": "address",
          "name": "oldTreasury",
          "type": "address"
        },
        {
          "indexed": true,
          "internalType": "address",
          "name": "newTreasury",
          "type": "address"
        }
      ],
      "name": "TreasuryChanged",
      "type": "event"
    },
    {
      "stateMutability": "payable",
      "type": "fallback",
      "payable": true
    },
    {
      "inputs": [
        {
          "internalType": "uint256",
          "name": "",
          "type": "uint256"
        }
      ],
      "name": "activeNodes",
      "outputs": [
        {
          "internalType": "address",
          "name": "",
          "type": "address"
        }
      ],
      "stateMutability": "view",
      "type": "function",
      "constant": true
    },
    {
      "inputs": [],
      "name": "admin",
      "outputs": [
        {
          "internalType": "address",
          "name": "",
          "type": "address"
        }
      ],
      "stateMutability": "view",
      "type": "function",
      "constant": true
    },
    {
      "inputs": [
        {
          "internalType": "uint256",
          "name": "",
          "type": "uint256"
        }
      ],
      "name": "campaignIds",
      "outputs": [
        {
          "internalType": "uint256",
          "name": "",
          "type": "uint256"
        }
      ],
      "stateMutability": "view",
      "type": "function",
      "constant": true
    },
    {
      "inputs": [
        {
          "internalType": "uint256",
          "name": "",
          "type": "uint256"
        }
      ],
      "name": "campaigns",
      "outputs": [
        {
          "internalType": "address",
          "name": "advertiser",
          "type": "address"
        },
        {
          "internalType": "uint256",
          "name": "cpcWei",
          "type": "uint256"
        },
        {
          "internalType": "uint256",
          "name": "budgetWei",
          "type": "uint256"
        },
        {
          "internalType": "bool",
          "name": "paused",
          "type": "bool"
        },
        {
          "internalType": "string",
          "name": "meta",
          "type": "string"
        }
      ],
      "stateMutability": "view",
      "type": "function",
      "constant": true
    },
    {
      "inputs": [],
      "name": "consensusTimeoutSeconds",
      "outputs": [
        {
          "internalType": "uint256",
          "name": "",
          "type": "uint256"
        }
      ],
      "stateMutability": "view",
      "type": "function",
      "constant": true
    },
    {
      "inputs": [
        {
          "internalType": "address",
          "name": "",
          "type": "address"
        }
      ],
      "name": "isAdmin",
      "outputs": [
        {
          "internalType": "bool",
          "name": "",
          "type": "bool"
        }
      ],
      "stateMutability": "view",
      "type": "function",
      "constant": true
    },
    {
      "inputs": [
        {
          "internalType": "address",
          "name": "",
          "type": "address"
        }
      ],
      "name": "isAdvertiser",
      "outputs": [
        {
          "internalType": "bool",
          "name": "",
          "type": "bool"
        }
      ],
      "stateMutability": "view",
      "type": "function",
      "constant": true
    },
    {
      "inputs": [
        {
          "internalType": "address",
          "name": "",
          "type": "address"
        }
      ],
      "name": "isAuditor",
      "outputs": [
        {
          "internalType": "bool",
          "name": "",
          "type": "bool"
        }
      ],
      "stateMutability": "view",
      "type": "function",
      "constant": true
    },
    {
      "inputs": [
        {
          "internalType": "address",
          "name": "",
          "type": "address"
        }
      ],
      "name": "isGateway",
      "outputs": [
        {
          "internalType": "bool",
          "name": "",
          "type": "bool"
        }
      ],
      "stateMutability": "view",
      "type": "function",
      "constant": true
    },
    {
      "inputs": [
        {
          "internalType": "address",
          "name": "",
          "type": "address"
        }
      ],
      "name": "isPbftNode",
      "outputs": [
        {
          "internalType": "bool",
          "name": "",
          "type": "bool"
        }
      ],
      "stateMutability": "view",
      "type": "function",
      "constant": true
    },
    {
      "inputs": [
        {
          "internalType": "address",
          "name": "",
          "type": "address"
        }
      ],
      "name": "isPublisher",
      "outputs": [
        {
          "internalType": "bool",
          "name": "",
          "type": "bool"
        }
      ],
      "stateMutability": "view",
      "type": "function",
      "constant": true
    },
    {
      "inputs": [],
      "name": "maxClickAgeSeconds",
      "outputs": [
        {
          "internalType": "uint256",
          "name": "",
          "type": "uint256"
        }
      ],
      "stateMutability": "view",
      "type": "function",
      "constant": true
    },
    {
      "inputs": [],
      "name": "maxClickFutureSeconds",
      "outputs": [
        {
          "internalType": "uint256",
          "name": "",
          "type": "uint256"
        }
      ],
      "stateMutability": "view",
      "type": "function",
      "constant": true
    },
    {
      "inputs": [],
      "name": "minGatewayStakeWei",
      "outputs": [
        {
          "internalType": "uint256",
          "name": "",
          "type": "uint256"
        }
      ],
      "stateMutability": "view",
      "type": "function",
      "constant": true
    },
    {
      "inputs": [],
      "name": "minPBFTStake",
      "outputs": [
        {
          "internalType": "uint256",
          "name": "",
          "type": "uint256"
        }
      ],
      "stateMutability": "view",
      "type": "function",
      "constant": true
    },
    {
      "inputs": [
        {
          "internalType": "address",
          "name": "",
          "type": "address"
        }
      ],
      "name": "pbftNodes",
      "outputs": [
        {
          "internalType": "address",
          "name": "nodeAddress",
          "type": "address"
        },
        {
          "internalType": "bool",
          "name": "isActive",
          "type": "bool"
        },
        {
          "internalType": "uint256",
          "name": "stake",
          "type": "uint256"
        },
        {
          "internalType": "uint256",
          "name": "votesParticipated",
          "type": "uint256"
        },
        {
          "internalType": "uint256",
          "name": "correctVotes",
          "type": "uint256"
        }
      ],
      "stateMutability": "view",
      "type": "function",
      "constant": true
    },
    {
      "inputs": [
        {
          "internalType": "bytes32",
          "name": "",
          "type": "bytes32"
        }
      ],
      "name": "pendingTransactions",
      "outputs": [
        {
          "internalType": "bytes32",
          "name": "txHash",
          "type": "bytes32"
        },
        {
          "internalType": "uint256",
          "name": "campaignId",
          "type": "uint256"
        },
        {
          "internalType": "address",
          "name": "publisher",
          "type": "address"
        },
        {
          "internalType": "address",
          "name": "gateway",
          "type": "address"
        },
        {
          "internalType": "uint256",
          "name": "timestamp",
          "type": "uint256"
        },
        {
          "internalType": "bytes32",
          "name": "metadataCIDHash",
          "type": "bytes32"
        },
        {
          "internalType": "uint256",
          "name": "approveVotes",
          "type": "uint256"
        },
        {
          "internalType": "uint256",
          "name": "rejectVotes",
          "type": "uint256"
        },
        {
          "internalType": "uint256",
          "name": "totalVotes",
          "type": "uint256"
        },
        {
          "internalType": "uint256",
          "name": "requiredVotes",
          "type": "uint256"
        },
        {
          "internalType": "bool",
          "name": "executed",
          "type": "bool"
        },
        {
          "internalType": "bool",
          "name": "consensusReached",
          "type": "bool"
        },
        {
          "internalType": "uint256",
          "name": "proposalTime",
          "type": "uint256"
        }
      ],
      "stateMutability": "view",
      "type": "function",
      "constant": true
    },
    {
      "inputs": [
        {
          "internalType": "uint256",
          "name": "",
          "type": "uint256"
        }
      ],
      "name": "pendingTxHashes",
      "outputs": [
        {
          "internalType": "bytes32",
          "name": "",
          "type": "bytes32"
        }
      ],
      "stateMutability": "view",
      "type": "function",
      "constant": true
    },
    {
      "inputs": [
        {
          "internalType": "address",
          "name": "",
          "type": "address"
        }
      ],
      "name": "publisherBalance",
      "outputs": [
        {
          "internalType": "uint256",
          "name": "",
          "type": "uint256"
        }
      ],
      "stateMutability": "view",
      "type": "function",
      "constant": true
    },
    {
      "inputs": [],
      "name": "requiredConsensusPercentage",
      "outputs": [
        {
          "internalType": "uint256",
          "name": "",
          "type": "uint256"
        }
      ],
      "stateMutability": "view",
      "type": "function",
      "constant": true
    },
    {
      "inputs": [
        {
          "internalType": "address",
          "name": "",
          "type": "address"
        }
      ],
      "name": "stakeOf",
      "outputs": [
        {
          "internalType": "uint256",
          "name": "",
          "type": "uint256"
        }
      ],
      "stateMutability": "view",
      "type": "function",
      "constant": true
    },
    {
      "inputs": [],
      "name": "treasury",
      "outputs": [
        {
          "internalType": "address",
          "name": "",
          "type": "address"
        }
      ],
      "stateMutability": "view",
      "type": "function",
      "constant": true
    },
    {
      "inputs": [
        {
          "internalType": "bytes32",
          "name": "",
          "type": "bytes32"
        }
      ],
      "name": "usedClickHash",
      "outputs": [
        {
          "internalType": "bool",
          "name": "",
          "type": "bool"
        }
      ],
      "stateMutability": "view",
      "type": "function",
      "constant": true
    },
    {
      "stateMutability": "payable",
      "type": "receive",
      "payable": true
    },
    {
      "inputs": [
        {
          "internalType": "address",
          "name": "account",
          "type": "address"
        }
      ],
      "name": "assignAdmin",
      "outputs": [],
      "stateMutability": "nonpayable",
      "type": "function"
    },
    {
      "inputs": [
        {
          "internalType": "address",
          "name": "account",
          "type": "address"
        }
      ],
      "name": "revokeAdmin",
      "outputs": [],
      "stateMutability": "nonpayable",
      "type": "function"
    },
    {
      "inputs": [
        {
          "internalType": "address",
          "name": "account",
          "type": "address"
        }
      ],
      "name": "assignGateway",
      "outputs": [],
      "stateMutability": "nonpayable",
      "type": "function"
    },
    {
      "inputs": [
        {
          "internalType": "address",
          "name": "account",
          "type": "address"
        }
      ],
      "name": "revokeGateway",
      "outputs": [],
      "stateMutability": "nonpayable",
      "type": "function"
    },
    {
      "inputs": [
        {
          "internalType": "address",
          "name": "account",
          "type": "address"
        }
      ],
      "name": "assignAuditor",
      "outputs": [],
      "stateMutability": "nonpayable",
      "type": "function"
    },
    {
      "inputs": [
        {
          "internalType": "address",
          "name": "account",
          "type": "address"
        }
      ],
      "name": "revokeAuditor",
      "outputs": [],
      "stateMutability": "nonpayable",
      "type": "function"
    },
    {
      "inputs": [
        {
          "internalType": "address",
          "name": "account",
          "type": "address"
        }
      ],
      "name": "assignPbftNode",
      "outputs": [],
      "stateMutability": "nonpayable",
      "type": "function"
    },
    {
      "inputs": [
        {
          "internalType": "address",
          "name": "account",
          "type": "address"
        }
      ],
      "name": "revokePbftNode",
      "outputs": [],
      "stateMutability": "nonpayable",
      "type": "function"
    },
    {
      "inputs": [
        {
          "internalType": "address",
          "name": "account",
          "type": "address"
        }
      ],
      "name": "assignAdvertiser",
      "outputs": [],
      "stateMutability": "nonpayable",
      "type": "function"
    },
    {
      "inputs": [
        {
          "internalType": "address",
          "name": "account",
          "type": "address"
        }
      ],
      "name": "revokeAdvertiser",
      "outputs": [],
      "stateMutability": "nonpayable",
      "type": "function"
    },
    {
      "inputs": [
        {
          "internalType": "address",
          "name": "account",
          "type": "address"
        }
      ],
      "name": "assignPublisher",
      "outputs": [],
      "stateMutability": "nonpayable",
      "type": "function"
    },
    {
      "inputs": [
        {
          "internalType": "address",
          "name": "account",
          "type": "address"
        }
      ],
      "name": "revokePublisher",
      "outputs": [],
      "stateMutability": "nonpayable",
      "type": "function"
    },
    {
      "inputs": [
        {
          "internalType": "uint256",
          "name": "newMin",
          "type": "uint256"
        }
      ],
      "name": "setMinGatewayStake",
      "outputs": [],
      "stateMutability": "nonpayable",
      "type": "function"
    },
    {
      "inputs": [
        {
          "internalType": "address",
          "name": "newTreasury",
          "type": "address"
        }
      ],
      "name": "setTreasury",
      "outputs": [],
      "stateMutability": "nonpayable",
      "type": "function"
    },
    {
      "inputs": [
        {
          "internalType": "uint256",
          "name": "secs",
          "type": "uint256"
        }
      ],
      "name": "setMaxClickAgeSeconds",
      "outputs": [],
      "stateMutability": "nonpayable",
      "type": "function"
    },
    {
      "inputs": [
        {
          "internalType": "uint256",
          "name": "secs",
          "type": "uint256"
        }
      ],
      "name": "setMaxClickFutureSeconds",
      "outputs": [],
      "stateMutability": "nonpayable",
      "type": "function"
    },
    {
      "inputs": [
        {
          "internalType": "uint256",
          "name": "percentage",
          "type": "uint256"
        }
      ],
      "name": "setRequiredConsensusPercentage",
      "outputs": [],
      "stateMutability": "nonpayable",
      "type": "function"
    },
    {
      "inputs": [
        {
          "internalType": "uint256",
          "name": "timeoutSeconds",
          "type": "uint256"
        }
      ],
      "name": "setConsensusTimeout",
      "outputs": [],
      "stateMutability": "nonpayable",
      "type": "function"
    },
    {
      "inputs": [
        {
          "internalType": "uint256",
          "name": "minStake",
          "type": "uint256"
        }
      ],
      "name": "setMinPBFTStake",
      "outputs": [],
      "stateMutability": "nonpayable",
      "type": "function"
    },
    {
      "inputs": [
        {
          "internalType": "address",
          "name": "node",
          "type": "address"
        }
      ],
      "name": "addPBFTNode",
      "outputs": [],
      "stateMutability": "payable",
      "type": "function",
      "payable": true
    },
    {
      "inputs": [
        {
          "internalType": "address",
          "name": "node",
          "type": "address"
        }
      ],
      "name": "removePBFTNode",
      "outputs": [],
      "stateMutability": "nonpayable",
      "type": "function"
    },
    {
      "inputs": [],
      "name": "stakePBFTNode",
      "outputs": [],
      "stateMutability": "payable",
      "type": "function",
      "payable": true
    },
    {
      "inputs": [],
      "name": "stakeGateway",
      "outputs": [],
      "stateMutability": "payable",
      "type": "function",
      "payable": true
    },
    {
      "inputs": [
        {
          "internalType": "uint256",
          "name": "amount",
          "type": "uint256"
        }
      ],
      "name": "unstakeGateway",
      "outputs": [],
      "stateMutability": "nonpayable",
      "type": "function"
    },
    {
      "inputs": [
        {
          "internalType": "address",
          "name": "gateway",
          "type": "address"
        },
        {
          "internalType": "uint16",
          "name": "pctBps",
          "type": "uint16"
        },
        {
          "internalType": "bytes32",
          "name": "evidenceCIDHash",
          "type": "bytes32"
        }
      ],
      "name": "slashGateway",
      "outputs": [],
      "stateMutability": "nonpayable",
      "type": "function"
    },
    {
      "inputs": [
        {
          "internalType": "uint256",
          "name": "campaignId",
          "type": "uint256"
        },
        {
          "internalType": "uint256",
          "name": "cpcWei",
          "type": "uint256"
        },
        {
          "internalType": "string",
          "name": "meta",
          "type": "string"
        }
      ],
      "name": "createCampaign",
      "outputs": [
        {
          "internalType": "uint256",
          "name": "id",
          "type": "uint256"
        }
      ],
      "stateMutability": "payable",
      "type": "function",
      "payable": true
    },
    {
      "inputs": [
        {
          "internalType": "uint256",
          "name": "campaignId",
          "type": "uint256"
        }
      ],
      "name": "fundCampaign",
      "outputs": [],
      "stateMutability": "payable",
      "type": "function",
      "payable": true
    },
    {
      "inputs": [
        {
          "internalType": "uint256",
          "name": "campaignId",
          "type": "uint256"
        },
        {
          "internalType": "bool",
          "name": "paused",
          "type": "bool"
        }
      ],
      "name": "setCampaignPaused",
      "outputs": [],
      "stateMutability": "nonpayable",
      "type": "function"
    },
    {
      "inputs": [
        {
          "internalType": "bytes32",
          "name": "clickHash",
          "type": "bytes32"
        },
        {
          "internalType": "uint256",
          "name": "campaignId",
          "type": "uint256"
        },
        {
          "internalType": "address",
          "name": "publisher",
          "type": "address"
        },
        {
          "internalType": "uint256",
          "name": "timestamp",
          "type": "uint256"
        },
        {
          "internalType": "bytes32",
          "name": "metadataCIDHash",
          "type": "bytes32"
        }
      ],
      "name": "proposeTransaction",
      "outputs": [
        {
          "internalType": "bytes32",
          "name": "",
          "type": "bytes32"
        }
      ],
      "stateMutability": "nonpayable",
      "type": "function"
    },
    {
      "inputs": [
        {
          "internalType": "bytes32",
          "name": "txHash",
          "type": "bytes32"
        },
        {
          "internalType": "bool",
          "name": "approve",
          "type": "bool"
        }
      ],
      "name": "voteOnTransaction",
      "outputs": [],
      "stateMutability": "nonpayable",
      "type": "function"
    },
    {
      "inputs": [
        {
          "internalType": "bytes32",
          "name": "txHash",
          "type": "bytes32"
        }
      ],
      "name": "cleanupExpiredTransaction",
      "outputs": [],
      "stateMutability": "nonpayable",
      "type": "function"
    },
    {
      "inputs": [
        {
          "internalType": "bytes32",
          "name": "clickHash",
          "type": "bytes32"
        },
        {
          "internalType": "uint256",
          "name": "campaignId",
          "type": "uint256"
        },
        {
          "internalType": "address",
          "name": "publisher",
          "type": "address"
        },
        {
          "internalType": "address",
          "name": "gateway",
          "type": "address"
        },
        {
          "internalType": "uint256",
          "name": "timestamp",
          "type": "uint256"
        },
        {
          "internalType": "bytes32",
          "name": "metadataCIDHash",
          "type": "bytes32"
        }
      ],
      "name": "computeClickMessageHash",
      "outputs": [
        {
          "internalType": "bytes32",
          "name": "",
          "type": "bytes32"
        }
      ],
      "stateMutability": "view",
      "type": "function",
      "constant": true
    },
    {
      "inputs": [
        {
          "internalType": "bytes32",
          "name": "clickHash",
          "type": "bytes32"
        },
        {
          "internalType": "uint256",
          "name": "campaignId",
          "type": "uint256"
        },
        {
          "internalType": "address",
          "name": "publisher",
          "type": "address"
        },
        {
          "internalType": "uint256",
          "name": "timestamp",
          "type": "uint256"
        },
        {
          "internalType": "bytes32",
          "name": "metadataCIDHash",
          "type": "bytes32"
        }
      ],
      "name": "submitClickGatewayDirect",
      "outputs": [],
      "stateMutability": "nonpayable",
      "type": "function"
    },
    {
      "inputs": [
        {
          "internalType": "bytes32",
          "name": "clickHash",
          "type": "bytes32"
        },
        {
          "internalType": "uint256",
          "name": "campaignId",
          "type": "uint256"
        },
        {
          "internalType": "address",
          "name": "publisher",
          "type": "address"
        },
        {
          "internalType": "address",
          "name": "gateway",
          "type": "address"
        },
        {
          "internalType": "uint256",
          "name": "timestamp",
          "type": "uint256"
        },
        {
          "internalType": "bytes32",
          "name": "metadataCIDHash",
          "type": "bytes32"
        },
        {
          "internalType": "bytes",
          "name": "signature",
          "type": "bytes"
        }
      ],
      "name": "submitClickWithSig",
      "outputs": [],
      "stateMutability": "nonpayable",
      "type": "function"
    },
    {
      "inputs": [
        {
          "internalType": "uint256",
          "name": "amount",
          "type": "uint256"
        }
      ],
      "name": "withdrawPublisher",
      "outputs": [],
      "stateMutability": "nonpayable",
      "type": "function"
    },
    {
      "inputs": [
        {
          "internalType": "uint256",
          "name": "campaignId",
          "type": "uint256"
        }
      ],
      "name": "getCampaign",
      "outputs": [
        {
          "internalType": "address",
          "name": "advertiser",
          "type": "address"
        },
        {
          "internalType": "uint256",
          "name": "cpcWei",
          "type": "uint256"
        },
        {
          "internalType": "uint256",
          "name": "budgetWei",
          "type": "uint256"
        },
        {
          "internalType": "bool",
          "name": "paused",
          "type": "bool"
        },
        {
          "internalType": "string",
          "name": "meta",
          "type": "string"
        }
      ],
      "stateMutability": "view",
      "type": "function",
      "constant": true
    },
    {
      "inputs": [],
      "name": "getCampaignIds",
      "outputs": [
        {
          "internalType": "uint256[]",
          "name": "",
          "type": "uint256[]"
        }
      ],
      "stateMutability": "view",
      "type": "function",
      "constant": true
    },
    {
      "inputs": [],
      "name": "getActiveNodes",
      "outputs": [
        {
          "internalType": "address[]",
          "name": "",
          "type": "address[]"
        }
      ],
      "stateMutability": "view",
      "type": "function",
      "constant": true
    },
    {
      "inputs": [],
      "name": "getPendingTransactionHashes",
      "outputs": [
        {
          "internalType": "bytes32[]",
          "name": "",
          "type": "bytes32[]"
        }
      ],
      "stateMutability": "view",
      "type": "function",
      "constant": true
    },
    {
      "inputs": [
        {
          "internalType": "bytes32",
          "name": "txHash",
          "type": "bytes32"
        }
      ],
      "name": "getPendingTransactionDetails",
      "outputs": [
        {
          "internalType": "uint256",
          "name": "campaignId",
          "type": "uint256"
        },
        {
          "internalType": "address",
          "name": "publisher",
          "type": "address"
        },
        {
          "internalType": "address",
          "name": "gateway",
          "type": "address"
        },
        {
          "internalType": "uint256",
          "name": "approveVotes",
          "type": "uint256"
        },
        {
          "internalType": "uint256",
          "name": "rejectVotes",
          "type": "uint256"
        },
        {
          "internalType": "uint256",
          "name": "totalVotes",
          "type": "uint256"
        },
        {
          "internalType": "uint256",
          "name": "requiredVotes",
          "type": "uint256"
        },
        {
          "internalType": "bool",
          "name": "executed",
          "type": "bool"
        },
        {
          "internalType": "bool",
          "name": "consensusReached",
          "type": "bool"
        },
        {
          "internalType": "uint256",
          "name": "proposalTime",
          "type": "uint256"
        }
      ],
      "stateMutability": "view",
      "type": "function",
      "constant": true
    },
    {
      "inputs": [
        {
          "internalType": "bytes32",
          "name": "txHash",
          "type": "bytes32"
        },
        {
          "internalType": "address",
          "name": "node",
          "type": "address"
        }
      ],
      "name": "hasNodeVoted",
      "outputs": [
        {
          "internalType": "bool",
          "name": "",
          "type": "bool"
        }
      ],
      "stateMutability": "view",
      "type": "function",
      "constant": true
    },
    {
      "inputs": [
        {
          "internalType": "bytes32",
          "name": "txHash",
          "type": "bytes32"
        },
        {
          "internalType": "address",
          "name": "node",
          "type": "address"
        }
      ],
      "name": "getNodeVote",
      "outputs": [
        {
          "internalType": "bool",
          "name": "",
          "type": "bool"
        }
      ],
      "stateMutability": "view",
      "type": "function",
      "constant": true
    },
    {
      "inputs": [
        {
          "internalType": "address",
          "name": "node",
          "type": "address"
        }
      ],
      "name": "getNodeStats",
      "outputs": [
        {
          "internalType": "bool",
          "name": "isActive",
          "type": "bool"
        },
        {
          "internalType": "uint256",
          "name": "stake",
          "type": "uint256"
        },
        {
          "internalType": "uint256",
          "name": "votesParticipated",
          "type": "uint256"
        },
        {
          "internalType": "uint256",
          "name": "correctVotes",
          "type": "uint256"
        },
        {
          "internalType": "uint256",
          "name": "accuracyPercentage",
          "type": "uint256"
        }
      ],
      "stateMutability": "view",
      "type": "function",
      "constant": true
    }
  ],
  "bytecode": "0x6080604052604360105561025860115564174876e8006012556706f05b59d3b200006013556201518060155560786016553480156200003d57600080fd5b506040516200461d3803806200461d833981016040819052620000609162000124565b6001600160a01b038116620000af5760405162461bcd60e51b8152602060048201526011602482015270151c99585cdd5c9e481c995c5d5a5c9959607a1b604482015260640160405180910390fd5b600680546001600160a01b031990811633908117909255600091825260208290526040808320805460ff19166001179055601480546001600160a01b038616931683179055519091907f8c3aa5f43a388513435861bf27dfad7829cd248696fed367c62d441f62954496908290a35062000156565b6000602082840312156200013757600080fd5b81516001600160a01b03811681146200014f57600080fd5b9392505050565b6144b780620001666000396000f3fe6080604052600436106103ad5760003560e01c806389eb494f116101e5578063b38f949b1161010c578063dc17027d116100a5578063eeed60b311610077578063eeed60b314610e17578063f0f4426014610e2d578063f6c0169c14610e4d578063f851a44014610e55578063f94c3f2314610e7557005b8063dc17027d14610d94578063de45db4f14610daa578063ea87556514610dd7578063eba41f6b14610df757005b8063bfe69d9a116100de578063bfe69d9a14610cda578063c11be1b814610d0a578063c14af16214610d54578063cf173b9014610d7457005b8063b38f949b14610bb5578063b402980b14610c92578063b51eb90314610cb2578063b9800c5914610cba57005b806399d5185e1161017e578063a698195411610150578063a698195414610b2f578063b057253c14610b4f578063b0f0a7f414610b7f578063b369359d14610b9557005b806399d5185e14610aaf5780639b5477ed14610acf578063a38ad98614610aef578063a435a35714610b0f57005b806391cbf44e116101b757806391cbf44e14610a4957806392bd38bc14610a5c57806392d59fc114610a6f57806396f9d98314610a8f57005b806389eb494f146109c95780638a339029146109e95780638dbb25f714610a095780638f5b2b2114610a2957005b80635e534494116102d45780636962cecc1161026d57806372abdce41161023f57806372abdce41461084d5780637dca77a11461086d57806380a353121461097357806385134bc614610993578063852f522e146109a957005b80636962cecc146107c85780636b51e919146107e85780636d89b3311461080a5780636ed906b91461081d57005b806361a32d18116102a657806361a32d181461073a57806361d027b31461075057806362b4a3cf14610788578063656123d8146107a857005b80635e5344941461065c5780636031df0a1461067c5780636056636214610704578063614b60901461071a57005b80633da7d2ed11610346578063480d1dd311610318578063480d1dd3146105a257806349b90557146105c257806352b391b2146105f25780635598f8cc1461063c57005b80633da7d2ed1461050257806341859ac814610522578063426233601461055257806347c9e8f61461058d57005b80631b4160d71161037f5780631b4160d71461047257806324d7806c146104925780632d345670146104c25780633213d179146104e257005b8063022a91d4146103b65780630faef430146103e1578063141961bc146104115780631634b3e71461044257005b366103b457005b005b3480156103c257600080fd5b506103cb610e95565b6040516103d89190613dae565b60405180910390f35b3480156103ed57600080fd5b506104016103fc366004613e0e565b610eed565b60405190151581526020016103d8565b34801561041d57600080fd5b5061043161042c366004613e3a565b610f8d565b6040516103d8959493929190613e53565b34801561044e57600080fd5b5061040161045d366004613e3a565b600a6020526000908152604090205460ff1681565b34801561047e57600080fd5b506103b461048d366004613f11565b611054565b34801561049e57600080fd5b506104016104ad366004613f9c565b60006020819052908152604090205460ff1681565b3480156104ce57600080fd5b506103b46104dd366004613f9c565b61127d565b3480156104ee57600080fd5b506103b46104fd366004613e3a565b6112f5565b34801561050e57600080fd5b506103b461051d366004613f9c565b6114c8565b34801561052e57600080fd5b5061040161053d366004613f9c565b60056020526000908152604090205460ff1681565b34801561055e57600080fd5b5061057f61056d366004613f9c565b60076020526000908152604090205481565b6040519081526020016103d8565b34801561059957600080fd5b506103cb611543565b3480156105ae57600080fd5b506103b46105bd366004613f9c565b611599565b3480156105ce57600080fd5b506104016105dd366004613f9c565b60026020526000908152604090205460ff1681565b3480156105fe57600080fd5b5061061261060d366004613f9c565b611614565b6040805195151586526020860194909452928401919091526060830152608082015260a0016103d8565b34801561064857600080fd5b50610431610657366004613e3a565b61168f565b34801561066857600080fd5b506103b4610677366004613fbe565b611772565b34801561068857600080fd5b506106d2610697366004613f9c565b600c6020526000908152604090208054600182015460028301546003909301546001600160a01b03831693600160a01b90930460ff16929085565b604080516001600160a01b0390961686529315156020860152928401919091526060830152608082015260a0016103d8565b34801561071057600080fd5b5061057f60135481565b34801561072657600080fd5b506103b4610735366004613f9c565b6119fa565b34801561074657600080fd5b5061057f60125481565b34801561075c57600080fd5b50601454610770906001600160a01b031681565b6040516001600160a01b0390911681526020016103d8565b34801561079457600080fd5b506103b46107a3366004613f9c565b611a75565b3480156107b457600080fd5b506103b46107c3366004614014565b611af0565b3480156107d457600080fd5b506103b46107e3366004613f9c565b611ba7565b3480156107f457600080fd5b506107fd611c25565b6040516103d89190614037565b6103b4610818366004613f9c565b611c86565b34801561082957600080fd5b50610401610838366004613f9c565b60046020526000908152604090205460ff1681565b34801561085957600080fd5b506103b4610868366004613e3a565b611eec565b34801561087957600080fd5b50610901610888366004613e3a565b600e60205260009081526040902080546001820154600283015460038401546004850154600586015460068701546007880154600889015460098a0154600a8b0154600b909b0154999a98996001600160a01b0398891699979098169795969495939492939192909160ff80831692610100900416908d565b604080519d8e5260208e019c909c526001600160a01b039a8b169b8d019b909b529890971660608b015260808a019590955260a089019390935260c088019190915260e0870152610100860152610120850152151561014084015215156101608301526101808201526101a0016103d8565b34801561097f57600080fd5b506103b461098e366004613f9c565b611f20565b34801561099f57600080fd5b5061057f60165481565b3480156109b557600080fd5b5061057f6109c4366004614078565b611f98565b3480156109d557600080fd5b5061057f6109e43660046140bf565b612345565b3480156109f557600080fd5b506103b4610a04366004613e3a565b6123ce565b348015610a1557600080fd5b506103b4610a24366004613e3a565b612402565b348015610a3557600080fd5b506103b4610a44366004613f9c565b612536565b61057f610a57366004614117565b6125ae565b6103b4610a6a366004613e3a565b6127fd565b348015610a7b57600080fd5b506103b4610a8a366004613e3a565b6128f3565b348015610a9b57600080fd5b50610770610aaa366004613e3a565b612b4b565b348015610abb57600080fd5b506103b4610aca366004613e3a565b612b75565b348015610adb57600080fd5b506103b4610aea366004613f9c565b612ba9565b348015610afb57600080fd5b506103b4610b0a366004613f9c565b612c21565b348015610b1b57600080fd5b506103b4610b2a366004613e3a565b612c99565b348015610b3b57600080fd5b5061057f610b4a366004613e3a565b612d1f565b348015610b5b57600080fd5b50610401610b6a366004613f9c565b60036020526000908152604090205460ff1681565b348015610b8b57600080fd5b5061057f60115481565b348015610ba157600080fd5b5061057f610bb0366004613e3a565b612d40565b348015610bc157600080fd5b50610c38610bd0366004613e3a565b6000908152600e602052604090206001810154600282015460038301546006840154600785015460088601546009870154600a880154600b9098015496986001600160a01b03968716989690951696939592949193909260ff80821693610100909204169190565b604080519a8b526001600160a01b03998a1660208c015297909816968901969096526060880194909452608087019290925260a086015260c0850152151560e08401521515610100830152610120820152610140016103d8565b348015610c9e57600080fd5b506103b4610cad366004613f9c565b612d50565b6103b4612dc8565b348015610cc657600080fd5b506103b4610cd5366004613e3a565b612ea3565b348015610ce657600080fd5b50610401610cf5366004613f9c565b60016020526000908152604090205460ff1681565b348015610d1657600080fd5b50610401610d25366004613e0e565b6000828152600e602090815260408083206001600160a01b0385168452600c0190915290205460ff1692915050565b348015610d6057600080fd5b506103b4610d6f366004614014565b612ed7565b348015610d8057600080fd5b506103b4610d8f366004614078565b6133ca565b348015610da057600080fd5b5061057f60155481565b348015610db657600080fd5b5061057f610dc5366004613f9c565b600b6020526000908152604090205481565b348015610de357600080fd5b506103b4610df2366004613f9c565b61340e565b348015610e0357600080fd5b506103b4610e12366004613e3a565b613489565b348015610e2357600080fd5b5061057f60105481565b348015610e3957600080fd5b506103b4610e48366004613f9c565b6134bd565b6103b461358d565b348015610e6157600080fd5b50600654610770906001600160a01b031681565b348015610e8157600080fd5b506103b4610e90366004613f9c565b61363b565b6060600f805480602002602001604051908101604052809291908181526020018280548015610ee357602002820191906000526020600020905b815481526020019060010190808311610ecf575b5050505050905090565b6000828152600e602090815260408083206001600160a01b0385168452600c0190915281205460ff16610f5c5760405162461bcd60e51b8152602060048201526012602482015271139bd919481a185cc81b9bdd081d9bdd195960721b60448201526064015b60405180910390fd5b506000828152600e602090815260408083206001600160a01b0385168452600d0190915290205460ff165b92915050565b600860205260009081526040902080546001820154600283015460038401546004850180546001600160a01b03909516959394929360ff90921692610fd19061416a565b80601f0160208091040260200160405190810160405280929190818152602001828054610ffd9061416a565b801561104a5780601f1061101f5761010080835404028352916020019161104a565b820191906000526020600020905b81548152906001019060200180831161102d57829003601f168201915b5050505050905085565b6000611064898989898989612345565b6040517f19457468657265756d205369676e6564204d6573736167653a0a3332000000006020820152603c8101829052909150600090605c0160405160208183030381529060405280519060200120905060006110f78286868080601f0160208091040260200160405190810160405280939291908181526020018383808284376000920191909152506138f392505050565b9050876001600160a01b0316816001600160a01b03161461114e5760405162461bcd60e51b8152602060048201526011602482015270496e76616c6964207369676e617475726560781b6044820152606401610f53565b6001600160a01b03881660009081526001602052604090205460ff166111ab5760405162461bcd60e51b81526020600482015260126024820152715369676e6572206e6f74206761746577617960701b6044820152606401610f53565b42871115611213576016546111c042896141ba565b111561120e5760405162461bcd60e51b815260206004820152601b60248201527f54696d657374616d7020746f6f2066617220696e2066757475726500000000006044820152606401610f53565b611262565b60155461122088426141ba565b11156112625760405162461bcd60e51b8152602060048201526011602482015270151a5b595cdd185b5c081d1bdbc81bdb19607a1b6044820152606401610f53565b61126f8b8b8b8a8a611f98565b505050505050505050505050565b3360009081526020819052604090205460ff166112ac5760405162461bcd60e51b8152600401610f53906141cd565b6001600160a01b038116600081815260208190526040808220805460ff19169055517f631ff1c4e1a02c54b480a34b810e03bcee61fe38efcb243930a7f820914923e29190a250565b3360009081526001602052604090205460ff166113245760405162461bcd60e51b8152600401610f53906141f0565b6000811180156113435750336000908152600760205260409020548111155b6113805760405162461bcd60e51b815260206004820152600e60248201526d125b9d985b1a5908185b5bdd5b9d60921b6044820152606401610f53565b3360009081526007602052604081205461139b9083906141ba565b90508015806113ac57506013548110155b6113ea5760405162461bcd60e51b815260206004820152600f60248201526e42656c6f77206d696e207374616b6560881b6044820152606401610f53565b336000818152600760205260408082208490555190919084908381818185875af1925050503d806000811461143b576040519150601f19603f3d011682016040523d82523d6000602084013e611440565b606091505b50509050806114875760405162461bcd60e51b8152602060048201526013602482015272115512081d1c985b9cd9995c8819985a5b1959606a1b6044820152606401610f53565b604080518481526020810184905233917f5a234eb1aa7640e15f81f6a544d81e5df683782173bdc5edeeeed061c42f304091015b60405180910390a2505050565b3360009081526020819052604090205460ff166114f75760405162461bcd60e51b8152600401610f53906141cd565b6001600160a01b038116600081815260208190526040808220805460ff19166001179055517fdb33970bd9bc1a413c7dac3b21e061709de094761c9396ef6d49b9ebdb7939339190a250565b60606009805480602002602001604051908101604052809291908181526020018280548015610ee35760200282019190600052602060002090815481526020019060010190808311610ecf575050505050905090565b3360009081526020819052604090205460ff166115c85760405162461bcd60e51b8152600401610f53906141cd565b6001600160a01b038116600081815260026020526040808220805460ff19166001179055517fd23bcfb31a1acf9b499949b0e6f2a060f57d2b3a445d13cc8c296a5050833a6f9190a250565b6001600160a01b0381166000908152600c60205260408120600281015482918291829182918290156116625760028201546003830154611655906064614215565b61165f919061422c565b90505b815460018301546002840154600390940154600160a01b90920460ff169a90995092975095509350915050565b6000818152600860205260408120805460018201546002830154600384015460048501805487968796879660609692956001600160a01b0390921694909360ff9092169181906116de9061416a565b80601f016020809104026020016040519081016040528092919081815260200182805461170a9061416a565b80156117575780601f1061172c57610100808354040283529160200191611757565b820191906000526020600020905b81548152906001019060200180831161173a57829003601f168201915b50505050509050955095509550955095505091939590929450565b3360009081526020819052604090205460ff168061179f57503360009081526002602052604090205460ff165b6117e25760405162461bcd60e51b81526020600482015260146024820152732737ba1030b236b4b71037b91030bab234ba37b960611b6044820152606401610f53565b6001600160a01b03831661182a5760405162461bcd60e51b815260206004820152600f60248201526e496e76616c6964206761746577617960881b6044820152606401610f53565b60008261ffff1611801561184457506127108261ffff1611155b6118835760405162461bcd60e51b815260206004820152601060248201526f427073206f7574206f662072616e676560801b6044820152606401610f53565b6001600160a01b038316600090815260076020526040902054806118d45760405162461bcd60e51b81526020600482015260086024820152674e6f207374616b6560c01b6044820152606401610f53565b60006127106118e761ffff861684614215565b6118f1919061422c565b90506118fd81836141ba565b6001600160a01b0386811660009081526007602052604080822093909355601454925190929091169083908381818185875af1925050503d8060008114611960576040519150601f19603f3d011682016040523d82523d6000602084013e611965565b606091505b50509050806119ae5760405162461bcd60e51b815260206004820152601560248201527414db185cda081d1c985b9cd9995c8819985a5b1959605a1b6044820152606401610f53565b60408051838152602081018690526001600160a01b038816917f12ca20a179e8472ecdc6a3b0c7081673a1d8f6008d5e76f92d788936ac8fed1d910160405180910390a2505050505050565b3360009081526020819052604090205460ff16611a295760405162461bcd60e51b8152600401610f53906141cd565b6001600160a01b038116600081815260056020526040808220805460ff19166001179055517f27e652e5aad588ed60e723817f4f3ce9dcdbdc2848eba670295e366ea693be549190a250565b3360009081526020819052604090205460ff16611aa45760405162461bcd60e51b8152600401610f53906141cd565b6001600160a01b038116600081815260036020526040808220805460ff19166001179055517f5464aa01119cb5a611744609bddebc20728bb18c65935f2ec97bc49238a6d7329190a250565b600082815260086020526040902080546001600160a01b0316331480611b2557503360009081526020819052604090205460ff165b611b625760405162461bcd60e51b815260206004820152600e60248201526d139bdd08185d5d1a1bdc9a5e995960921b6044820152606401610f53565b60038101805460ff191683151590811790915560405190815283907feb034104a3d72bdb4a17b6628fc9eaa19a0e4523003d2698e0fd72a430e2eb2f906020016114bb565b3360009081526020819052604090205460ff16611bd65760405162461bcd60e51b8152600401610f53906141cd565b6001600160a01b0381166000818152600160208190526040808320805460ff1916909217909155517f995f88a2fc5c12a9db3dd89063dbd465ba15e8363af32c086c6da4487248ab0d9190a250565b6060600d805480602002602001604051908101604052809291908181526020018280548015610ee357602002820191906000526020600020905b81546001600160a01b03168152600190910190602001808311611c5f575050505050905090565b3360009081526020819052604090205460ff16611cb55760405162461bcd60e51b8152600401610f53906141cd565b6001600160a01b038116611d025760405162461bcd60e51b8152602060048201526014602482015273496e76616c6964206e6f6465206164647265737360601b6044820152606401610f53565b601254341015611d495760405162461bcd60e51b8152602060048201526012602482015271496e73756666696369656e74207374616b6560701b6044820152606401610f53565b6001600160a01b0381166000908152600c6020526040902054600160a01b900460ff1615611daf5760405162461bcd60e51b81526020600482015260136024820152724e6f646520616c72656164792061637469766560681b6044820152606401610f53565b6040805160a0810182526001600160a01b03808416808352600160208085018281523486880190815260006060880181815260808901828152878352600c86528a832099518a5495511515600160a01b026001600160a81b0319909616991698909817939093178855905187850155905160028701559351600395860155600d80548084019091557fd7b6990105719101dabeb77144f2a3385c8033acd3af97e9423a695e81ad1eb50180546001600160a01b0319168417905582845293909352838220805460ff1916909317909255915190917f5464aa01119cb5a611744609bddebc20728bb18c65935f2ec97bc49238a6d73291a2806001600160a01b03167f7444d3411da8fe6fd4d0229de8e98c716472e2c384ed5a55e36a960a575859d434604051611ee191815260200190565b60405180910390a250565b3360009081526020819052604090205460ff16611f1b5760405162461bcd60e51b8152600401610f53906141cd565b601255565b3360009081526020819052604090205460ff16611f4f5760405162461bcd60e51b8152600401610f53906141cd565b6001600160a01b038116600081815260046020526040808220805460ff19169055517f3c085ec65bc65a068bf5173bdbb32e02e8fbebab26c0ffc8cfe2cd95c1c464539190a250565b3360009081526001602052604081205460ff16611fc75760405162461bcd60e51b8152600401610f53906141f0565b600d546003111561201a5760405162461bcd60e51b815260206004820152601760248201527f496e73756666696369656e742050424654206e6f6465730000000000000000006044820152606401610f53565b6000868152600e6020526040902054156120765760405162461bcd60e51b815260206004820152601c60248201527f5472616e73616374696f6e20616c72656164792070726f706f736564000000006044820152606401610f53565b6001600160a01b0384166120bd5760405162461bcd60e51b815260206004820152600e60248201526d2d32b93790383ab13634b9b432b960911b6044820152606401610f53565b6000868152600a602052604090205460ff161561210e5760405162461bcd60e51b815260206004820152600f60248201526e4475706c696361746520636c69636b60881b6044820152606401610f53565b600085815260086020526040902080546001600160a01b03166121665760405162461bcd60e51b815260206004820152601060248201526f43616d706169676e206d697373696e6760801b6044820152606401610f53565b600381015460ff16156121ad5760405162461bcd60e51b815260206004820152600f60248201526e10d85b5c185a59db881c185d5cd959608a1b6044820152606401610f53565b8060010154816002015410156121fb5760405162461bcd60e51b8152602060048201526013602482015272125b9cdd59999a58da595b9d08189d5919d95d606a1b6044820152606401610f53565b601054600d546000916064916122119190614215565b61221b919061422c565b905080600003612229575060015b6000888152600e60205260408082208a815560018082018b90556002820180546001600160a01b038c166001600160a01b0319918216811790925560038401805490911633179055600483018a9055600583018990556009830186905542600b840155600f8054928301815585527f8d1108e10bcb7c27dddfc02ed9d693a074039d026cf4ea4240b40f7d581ac8029091018c9055915190928a918c917fe4eea94acf96bbf92835e94f170c7693795cf71a25eeb3b9252df6f47beadd5391a46040805133815260208101849052428183015290516001600160a01b038916918a918c917f021af47a4c7e97e17ec5b8124a908bb7e6607b6e6e3ccaa49947f976904eedde919081900360600190a45096979650505050505050565b60408051466020808301919091526bffffffffffffffffffffffff1930606090811b8216848601526a41445f434c49434b5f563160a81b6054850152605f84019a909a52607f83019890985295881b8716609f8201529390961b90941660b383015260c782015260e7808201939093528351808203909301835261010701909252805191012090565b3360009081526020819052604090205460ff166123fd5760405162461bcd60e51b8152600401610f53906141cd565b601155565b336000908152600b602052604090205481158015906124215750808211155b61245e5760405162461bcd60e51b815260206004820152600e60248201526d125b9d985b1a5908185b5bdd5b9d60921b6044820152606401610f53565b61246882826141ba565b336000818152600b602052604080822093909355915184908381818185875af1925050503d80600081146124b8576040519150601f19603f3d011682016040523d82523d6000602084013e6124bd565b606091505b50509050806125045760405162461bcd60e51b8152602060048201526013602482015272115512081d1c985b9cd9995c8819985a5b1959606a1b6044820152606401610f53565b60405183815233907f61136c8a797391fcd52c5552ea96089e2814d10eb84c76d221f58761125c4382906020016114bb565b3360009081526020819052604090205460ff166125655760405162461bcd60e51b8152600401610f53906141cd565b6001600160a01b038116600081815260056020526040808220805460ff19169055517f8591c806c51bb1950fcd2fe84423c1ad01b03662e3c900dc21b213fd482de7c09190a250565b60008084116125f15760405162461bcd60e51b815260206004820152600f60248201526e0435043206d757374206265203e203608c1b6044820152606401610f53565b600034116126415760405162461bcd60e51b815260206004820152601760248201527f496e697469616c206275646765742072657175697265640000000000000000006044820152606401610f53565b6000858152600860205260409020546001600160a01b0316156126a65760405162461bcd60e51b815260206004820152601a60248201527f43616d706169676e20494420616c7265616479206578697374730000000000006044820152606401610f53565b6040518060a00160405280336001600160a01b0316815260200185815260200134815260200160001515815260200184848080601f016020809104026020016040519081016040528093929190818152602001838380828437600092018290525093909452505087815260086020908152604091829020845181546001600160a01b0319166001600160a01b03909116178155908401516001820155908301516002820155606083015160038201805460ff19169115159190911790556080830151909150600482019061277a90826142aa565b5050600980546001810182556000919091527f6e1540171b6c0c960b71a7020d9f60077f6af931a8bbf590da0223dacf75c7af0186905550604051339086907f2e64da7e06e88ccd84d69eccb21119ca81e40e5648611e89edfe888c8fa62597906127ec90889034908990899061436a565b60405180910390a350929392505050565b600081815260086020526040902080546001600160a01b03166128555760405162461bcd60e51b815260206004820152601060248201526f43616d706169676e206d697373696e6760801b6044820152606401610f53565b600034116128905760405162461bcd60e51b81526020600482015260086024820152674e6f2066756e647360c01b6044820152606401610f53565b348160020160008282546128a491906143a7565b9091555050600281015460405183917f42a74499fc8265a526ec8ab4b3e4a4a06e50ef92c084b2634b356f72a5ee44af916128e791348252602082015260400190565b60405180910390a25050565b6000818152600e6020526040902080546129475760405162461bcd60e51b8152602060048201526015602482015274151c985b9cd858dd1a5bdb881b9bdd08199bdd5b99605a1b6044820152606401610f53565b600a81015460ff161561299c5760405162461bcd60e51b815260206004820152601c60248201527f5472616e73616374696f6e20616c7265616479206578656375746564000000006044820152606401610f53565b60115481600b01546129ae91906143a7565b42116129fc5760405162461bcd60e51b815260206004820152601760248201527f5472616e73616374696f6e206e6f7420657870697265640000000000000000006044820152606401610f53565b600a810154610100900460ff16612a8d57600a8101805461ff0019166101001790556006810154604051839160008051602061444283398151915291612a4d91600015158252602082015260400190565b60405180910390a2600681015460408051600081526020810192909252429082015282906000805160206144628339815191529060600160405180910390a25b60005b600f54811015612b465782600f8281548110612aae57612aae6143ba565b906000526020600020015403612b3457600f8054612ace906001906141ba565b81548110612ade57612ade6143ba565b9060005260206000200154600f8281548110612afc57612afc6143ba565b600091825260209091200155600f805480612b1957612b196143d0565b60019003818190600052602060002001600090559055505050565b80612b3e816143e6565b915050612a90565b505050565b600d8181548110612b5b57600080fd5b6000918252602090912001546001600160a01b0316905081565b3360009081526020819052604090205460ff16612ba45760405162461bcd60e51b8152600401610f53906141cd565b601655565b3360009081526020819052604090205460ff16612bd85760405162461bcd60e51b8152600401610f53906141cd565b6001600160a01b038116600081815260016020526040808220805460ff19169055517f3ab01fe5356cd9e5f966e94c7294a3a850b8e1c1b8f62e7293c3ea6a402309ca9190a250565b3360009081526020819052604090205460ff16612c505760405162461bcd60e51b8152600401610f53906141cd565b6001600160a01b038116600081815260036020526040808220805460ff19169055517fc455eb35701ebc072df0edc37e290f52a605e8e9cfe5c5a56e5c1cecff608a1c9190a250565b3360009081526020819052604090205460ff16612cc85760405162461bcd60e51b8152600401610f53906141cd565b603281118015612cd9575060648111155b612d1a5760405162461bcd60e51b8152602060048201526012602482015271496e76616c69642070657263656e7461676560701b6044820152606401610f53565b601055565b600f8181548110612d2f57600080fd5b600091825260209091200154905081565b60098181548110612d2f57600080fd5b3360009081526020819052604090205460ff16612d7f5760405162461bcd60e51b8152600401610f53906141cd565b6001600160a01b038116600081815260026020526040808220805460ff19169055517feb2a2eb059f7ce22cdb9ce6710a0df23c2e8d5ca169ee77629faa99f8c788a019190a250565b3360009081526001602052604090205460ff16612df75760405162461bcd60e51b8152600401610f53906141f0565b60003411612e355760405162461bcd60e51b815260206004820152600b60248201526a139bc8115512081cd95b9d60aa1b6044820152606401610f53565b3360009081526007602052604081208054349290612e549084906143a7565b909155505033600081815260076020908152604091829020548251348152918201527f2a0a18dbee476b481250f5d3f9111f59cc104ea823d038e3ec86007e250e1429910160405180910390a2565b3360009081526020819052604090205460ff16612ed25760405162461bcd60e51b8152600401610f53906141cd565b601355565b3360009081526003602052604090205460ff16612f265760405162461bcd60e51b815260206004820152600d60248201526c4e6f742050424654206e6f646560981b6044820152606401610f53565b336000908152600c6020526040902054600160a01b900460ff16612f5c5760405162461bcd60e51b8152600401610f53906143ff565b6000828152600e602052604090208054612fb05760405162461bcd60e51b8152602060048201526015602482015274151c985b9cd858dd1a5bdb881b9bdd08199bdd5b99605a1b6044820152606401610f53565b600a81015460ff16156130055760405162461bcd60e51b815260206004820152601c60248201527f5472616e73616374696f6e20616c7265616479206578656375746564000000006044820152606401610f53565b600a810154610100900460ff161561305f5760405162461bcd60e51b815260206004820152601960248201527f436f6e73656e73757320616c72656164792072656163686564000000000000006044820152606401610f53565b336000908152600c8201602052604090205460ff16156130b15760405162461bcd60e51b815260206004820152600d60248201526c105b1c9958591e481d9bdd1959609a1b6044820152606401610f53565b60115481600b01546130c391906143a7565b42111561310a5760405162461bcd60e51b8152602060048201526015602482015274159bdd1a5b99c81c195c9a5bd908195e1c1a5c9959605a1b6044820152606401610f53565b336000908152600c8201602090815260408083208054600160ff1991821617909155600d85019092528220805490911684151517905560088201805491613150836143e6565b919050555081156131775760068101805490600061316d836143e6565b919050555061318f565b600781018054906000613189836143e6565b91905055505b336000908152600c602052604081206002018054916131ad836143e6565b90915550506040518215158152339084907fa8934b5de653d266c6e8c00e5f0c2944c8272eb5ec79ad1e248784378f290ef69060200160405180910390a3604080518315158152426020820152339185917f21b18e8f66b0e263e6fef794b8498c320d360c0c14e8cb72c23c8d20bf3171d9910160405180910390a380600901548160060154106132b657600a8101805461ff00191661010017905561325283613a38565b6006810154604080516001815260208101929092528491600080516020614442833981519152910160405180910390a260068101546040805160018152602081019290925242908201528390600080516020614462833981519152906060016114bb565b806009015481600701541061334157600a8101805461ff001916610100179055600781015460405184916000805160206144428339815191529161330591600015158252602082015260400190565b60405180910390a260078101546040805160008152602081019290925242908201528390600080516020614462833981519152906060016114bb565b600d54600882015403612b4657600a8101805461ff001916610100179055600681015460405184916000805160206144428339815191529161338e91600015158252602082015260400190565b60405180910390a260068101546040805160008152602081019290925242908201528390600080516020614462833981519152906060016114bb565b3360009081526001602052604090205460ff166133f95760405162461bcd60e51b8152600401610f53906141f0565b6134068585858585611f98565b505050505050565b3360009081526020819052604090205460ff1661343d5760405162461bcd60e51b8152600401610f53906141cd565b6001600160a01b038116600081815260046020526040808220805460ff19166001179055517fc9d594f154febcaaae355dbbe3010e76ca4c9c49fc620fbe3c06517fdeac11a09190a250565b3360009081526020819052604090205460ff166134b85760405162461bcd60e51b8152600401610f53906141cd565b601555565b3360009081526020819052604090205460ff166134ec5760405162461bcd60e51b8152600401610f53906141cd565b6001600160a01b0381166135315760405162461bcd60e51b815260206004820152600c60248201526b5a65726f206164647265737360a01b6044820152606401610f53565b6014546040516001600160a01b038084169216907f8c3aa5f43a388513435861bf27dfad7829cd248696fed367c62d441f6295449690600090a3601480546001600160a01b0319166001600160a01b0392909216919091179055565b3360009081526003602052604090205460ff166135dc5760405162461bcd60e51b815260206004820152600d60248201526c4e6f742050424654206e6f646560981b6044820152606401610f53565b336000908152600c6020526040902054600160a01b900460ff166136125760405162461bcd60e51b8152600401610f53906143ff565b336000908152600c6020526040812060010180543492906136349084906143a7565b9091555050565b3360009081526020819052604090205460ff1661366a5760405162461bcd60e51b8152600401610f53906141cd565b6001600160a01b0381166000908152600c6020526040902054600160a01b900460ff166136a95760405162461bcd60e51b8152600401610f53906143ff565b6001600160a01b0381166000818152600c60209081526040808320805460ff60a01b191690556003909152808220805460ff19169055517fc455eb35701ebc072df0edc37e290f52a605e8e9cfe5c5a56e5c1cecff608a1c9190a260005b600d5481101561380c57816001600160a01b0316600d828154811061372e5761372e6143ba565b6000918252602090912001546001600160a01b0316036137fa57600d8054613758906001906141ba565b81548110613768576137686143ba565b600091825260209091200154600d80546001600160a01b039092169183908110613794576137946143ba565b9060005260206000200160006101000a8154816001600160a01b0302191690836001600160a01b03160217905550600d8054806137d3576137d36143d0565b600082815260209020810160001990810180546001600160a01b031916905501905561380c565b80613804816143e6565b915050613707565b506001600160a01b0381166000818152600c6020526040808220600101805490839055905190929083908381818185875af1925050503d806000811461386e576040519150601f19603f3d011682016040523d82523d6000602084013e613873565b606091505b50509050806138ba5760405162461bcd60e51b815260206004820152601360248201527214dd185ad9481c99599d5b990819985a5b1959606a1b6044820152606401610f53565b6040516001600160a01b038416907f4c936f1d6ad9be801a3669e17d6a45930396095f4a955fc4264641dfa559dd3190600090a2505050565b600081516041146139465760405162461bcd60e51b815260206004820152601860248201527f496e76616c6964207369676e6174757265206c656e67746800000000000000006044820152606401610f53565b60208201516040830151606084015160001a601b81101561396f5761396c601b82614428565b90505b8060ff16601b148061398457508060ff16601c145b6139d05760405162461bcd60e51b815260206004820152601b60248201527f496e76616c6964207369676e6174757265202776272076616c756500000000006044820152606401610f53565b60408051600081526020810180835288905260ff831691810191909152606081018490526080810183905260019060a0016020604051602081039080840390855afa158015613a23573d6000803e3d6000fd5b5050604051601f190151979650505050505050565b6000818152600e60205260409020600a81015460ff1615613a8e5760405162461bcd60e51b815260206004820152601060248201526f105b1c9958591e48195e1958dd5d195960821b6044820152606401610f53565b600a810154610100900460ff16613adf5760405162461bcd60e51b815260206004820152601560248201527410dbdb9cd95b9cdd5cc81b9bdd081c995858da1959605a1b6044820152606401610f53565b806009015481600601541015613b375760405162461bcd60e51b815260206004820152601b60248201527f496e73756666696369656e7420617070726f76616c20766f74657300000000006044820152606401610f53565b600a8181018054600160ff199182168117909255835460009081526020938452604080822080549093168417909255828501548152600890935282209081015460028201805492939192909190613b8f9084906141ba565b9091555050600181015460028301546001600160a01b03166000908152600b602052604081208054909190613bc59084906143a7565b90915550600090505b600d54811015613c85576000600d8281548110613bed57613bed6143ba565b60009182526020808320909101546001600160a01b0316808352600c870190915260409091205490915060ff168015613c4057506001600160a01b0381166000908152600d8501602052604090205460ff165b15613c72576001600160a01b0381166000908152600c60205260408120600301805491613c6c836143e6565b91905055505b5080613c7d816143e6565b915050613bce565b506002820154600180840154845460038601549285015460048701546005880154604080516001600160a01b03978816815260208101949094528301919091526060820152929093169290917f15bd2785d9e0f1a4f550fd9a407c568547cef52bdfc00b65e71608b09a3fccbc9060800160405180910390a4600282015460018301546040516001600160a01b039092169185907fb1501502bdf1db3ae6ec83dc18980edaa17e48334465830f6a9502375483050290600090a460028201546001808401546003850154918401546004860154604080516001600160a01b039586168152602081019390935282015291909216919085907f37c2fc1299e25f14eabb2ab1191944fbb57cf0aadbac4022b5560ce5285768129060600160405180910390a4505050565b6020808252825182820181905260009190848201906040850190845b81811015613de657835183529284019291840191600101613dca565b50909695505050505050565b80356001600160a01b0381168114613e0957600080fd5b919050565b60008060408385031215613e2157600080fd5b82359150613e3160208401613df2565b90509250929050565b600060208284031215613e4c57600080fd5b5035919050565b60018060a01b0386168152600060208681840152856040840152841515606084015260a0608084015283518060a085015260005b81811015613ea35785810183015185820160c001528201613e87565b50600060c0828601015260c0601f19601f830116850101925050509695505050505050565b60008083601f840112613eda57600080fd5b50813567ffffffffffffffff811115613ef257600080fd5b602083019150836020828501011115613f0a57600080fd5b9250929050565b60008060008060008060008060e0898b031215613f2d57600080fd5b8835975060208901359650613f4460408a01613df2565b9550613f5260608a01613df2565b94506080890135935060a0890135925060c089013567ffffffffffffffff811115613f7c57600080fd5b613f888b828c01613ec8565b999c989b5096995094979396929594505050565b600060208284031215613fae57600080fd5b613fb782613df2565b9392505050565b600080600060608486031215613fd357600080fd5b613fdc84613df2565b9250602084013561ffff81168114613ff357600080fd5b929592945050506040919091013590565b80358015158114613e0957600080fd5b6000806040838503121561402757600080fd5b82359150613e3160208401614004565b6020808252825182820181905260009190848201906040850190845b81811015613de65783516001600160a01b031683529284019291840191600101614053565b600080600080600060a0868803121561409057600080fd5b85359450602086013593506140a760408701613df2565b94979396509394606081013594506080013592915050565b60008060008060008060c087890312156140d857600080fd5b86359550602087013594506140ef60408801613df2565b93506140fd60608801613df2565b92506080870135915060a087013590509295509295509295565b6000806000806060858703121561412d57600080fd5b8435935060208501359250604085013567ffffffffffffffff81111561415257600080fd5b61415e87828801613ec8565b95989497509550505050565b600181811c9082168061417e57607f821691505b60208210810361419e57634e487b7160e01b600052602260045260246000fd5b50919050565b634e487b7160e01b600052601160045260246000fd5b81810381811115610f8757610f876141a4565b6020808252600990820152682737ba1030b236b4b760b91b604082015260600190565b6020808252600b908201526a4e6f74206761746577617960a81b604082015260600190565b8082028115828204841417610f8757610f876141a4565b60008261424957634e487b7160e01b600052601260045260246000fd5b500490565b634e487b7160e01b600052604160045260246000fd5b601f821115612b4657600081815260208120601f850160051c8101602086101561428b5750805b601f850160051c820191505b8181101561340657828155600101614297565b815167ffffffffffffffff8111156142c4576142c461424e565b6142d8816142d2845461416a565b84614264565b602080601f83116001811461430d57600084156142f55750858301515b600019600386901b1c1916600185901b178555613406565b600085815260208120601f198616915b8281101561433c5788860151825594840194600190910190840161431d565b508582101561435a5787850151600019600388901b60f8161c191681555b5050505050600190811b01905550565b84815283602082015260606040820152816060820152818360808301376000818301608090810191909152601f909201601f191601019392505050565b80820180821115610f8757610f876141a4565b634e487b7160e01b600052603260045260246000fd5b634e487b7160e01b600052603160045260246000fd5b6000600182016143f8576143f86141a4565b5060010190565b6020808252600f908201526e4e6f6465206e6f742061637469766560881b604082015260600190565b60ff8181168382160190811115610f8757610f876141a456fef82d4ada24984256df3d568e911e67d66779debd1002ec9e94f076101d791756984b50e4b2d8c267a0ce6829f0b6338ef9e1c5d9848bd90edb7d87bced81d95aa2646970667358221220cf50171cdefd956dc05ca8e09c20d10f6a8e0af4477aa4c8f5631b96ee40681164736f6c63430008130033",
  "immutableReferences": {},
  "source": "// SPDX-License-Identifier: MIT\r\npragma solidity ^0.8.19;\r\n\r\ncontract AdFraudPBFT {\r\n    // Minimal ECDSA recovery\r\n    function recoverSigner(bytes32 ethSignedMessageHash, bytes memory signature) internal pure returns (address) {\r\n        require(signature.length == 65, \"Invalid signature length\");\r\n        bytes32 r; bytes32 s; uint8 v;\r\n        assembly {\r\n            r := mload(add(signature, 32))\r\n            s := mload(add(signature, 64))\r\n            v := byte(0, mload(add(signature, 96)))\r\n        }\r\n        if (v < 27) v += 27;\r\n        require(v == 27 || v == 28, \"Invalid signature 'v' value\");\r\n        return ecrecover(ethSignedMessageHash, v, r, s);\r\n    }\r\n\r\n    // Role mappings\r\n    mapping(address => bool) public isAdmin;\r\n    mapping(address => bool) public isGateway;\r\n    mapping(address => bool) public isAuditor;\r\n    mapping(address => bool) public isPbftNode;\r\n\r\n    // NEW: advertiser/publisher roles\r\n    mapping(address => bool) public isAdvertiser;\r\n    mapping(address => bool) public isPublisher;\r\n\r\n    address public admin;\r\n\r\n    // Role events\r\n    event AdminAssigned(address indexed account);\r\n    event AdminRevoked(address indexed account);\r\n    event GatewayAssigned(address indexed account);\r\n    event GatewayRevoked(address indexed account);\r\n    event AuditorAssigned(address indexed account);\r\n    event AuditorRevoked(address indexed account);\r\n    event PbftNodeAssigned(address indexed account);\r\n    event PbftNodeRevoked(address indexed account);\r\n    // NEW role events\r\n    event AdvertiserAssigned(address indexed account);\r\n    event AdvertiserRevoked(address indexed account);\r\n    event PublisherAssigned(address indexed account);\r\n    event PublisherRevoked(address indexed account);\r\n\r\n    // Original Events\r\n    event TreasuryChanged(address indexed oldTreasury, address indexed newTreasury);\r\n    event GatewayStaked(address indexed gateway, uint256 amount, uint256 totalStake);\r\n    event GatewayUnstaked(address indexed gateway, uint256 amount, uint256 totalStake);\r\n    event GatewaySlashed(address indexed gateway, uint256 slashAmount, bytes32 evidenceCIDHash);\r\n\r\n    event CampaignCreated(uint256 indexed campaignId, address indexed advertiser, uint256 cpcWei, uint256 initialBudget, string meta);\r\n    event CampaignFunded(uint256 indexed campaignId, uint256 amount, uint256 newBudget);\r\n    event CampaignPaused(uint256 indexed campaignId, bool paused);\r\n\r\n    event ClickRecorded(\r\n        bytes32 indexed clickHash,\r\n        uint256 indexed campaignId,\r\n        address indexed publisher,\r\n        address gateway,\r\n        uint256 cpcWei,\r\n        uint256 timestamp,\r\n        bytes32 metadataCIDHash\r\n    );\r\n\r\n    event PublisherWithdrawal(address indexed publisher, uint256 amount);\r\n\r\n    // PBFT Events\r\n    event PBFTNodeAdded(address indexed node, uint256 stake);\r\n    event PBFTNodeRemoved(address indexed node);\r\n    event TransactionProposed(bytes32 indexed txHash, uint256 indexed campaignId, address indexed publisher);\r\n    event ConsensusVote(bytes32 indexed txHash, address indexed node, bool vote);\r\n    event ConsensusReached(bytes32 indexed txHash, bool approved, uint256 voteCount);\r\n    event TransactionExecuted(bytes32 indexed txHash, uint256 indexed campaignId, address indexed publisher);\r\n\r\n    // Consensus Message\r\n    event PrePrepare(bytes32 indexed txHash, uint256 indexed campaignId, address indexed publisher, address leader, uint256 requiredVotes, uint256 proposalTime);\r\n    event Prepare(bytes32 indexed txHash, address indexed node, bool vote, uint256 blockTime);\r\n    event Commit(bytes32 indexed txHash, bool approved, uint256 voteCount, uint256 blockTime);\r\n    event Reply(bytes32 indexed txHash, uint256 indexed campaignId, address indexed publisher, address gateway, uint256 cpcWei, uint256 timestamp);\r\n\r\n    // Data structures\r\n    struct Campaign {\r\n        address advertiser;\r\n        uint256 cpcWei;\r\n        uint256 budgetWei;\r\n        bool paused;\r\n        string meta;\r\n    }\r\n\r\n    struct PBFTNode {\r\n        address nodeAddress;\r\n        bool isActive;\r\n        uint256 stake;\r\n        uint256 votesParticipated;\r\n        uint256 correctVotes;\r\n    }\r\n\r\n    struct PendingTransaction {\r\n        bytes32 txHash;\r\n        uint256 campaignId;\r\n        address publisher;\r\n        address gateway;\r\n        uint256 timestamp;\r\n        bytes32 metadataCIDHash;\r\n        uint256 approveVotes;\r\n        uint256 rejectVotes;\r\n        uint256 totalVotes;\r\n        uint256 requiredVotes;\r\n        bool executed;\r\n        bool consensusReached;\r\n        uint256 proposalTime;\r\n        mapping(address => bool) hasVoted;\r\n        mapping(address => bool) voteValue;\r\n    }\r\n\r\n    // Storage\r\n    mapping(address => uint256) public stakeOf;\r\n    mapping(uint256 => Campaign) public campaigns;\r\n    uint256[] public campaignIds;\r\n    mapping(bytes32 => bool) public usedClickHash;\r\n    mapping(address => uint256) public publisherBalance;\r\n\r\n    mapping(address => PBFTNode) public pbftNodes;\r\n    address[] public activeNodes;\r\n    mapping(bytes32 => PendingTransaction) public pendingTransactions;\r\n    bytes32[] public pendingTxHashes;\r\n\r\n    uint256 public requiredConsensusPercentage = 67;\r\n    uint256 public consensusTimeoutSeconds = 600;\r\n\r\n    // CHANGED: default min PBFT stake set to 0.0000001 ETH\r\n    uint256 public minPBFTStake = 100_000_000_000; // 1e11 wei = 0.0000001 ether\r\n\r\n    uint256 public minGatewayStakeWei = 0.5 ether;\r\n    address public treasury;\r\n    uint256 public maxClickAgeSeconds = 86400;\r\n    uint256 public maxClickFutureSeconds = 120;\r\n\r\n    // Modifiers\r\n    modifier onlyAdmin() {\r\n        require(isAdmin[msg.sender], \"Not admin\");\r\n        _;\r\n    }\r\n\r\n    modifier onlyGateway() {\r\n        require(isGateway[msg.sender], \"Not gateway\");\r\n        _;\r\n    }\r\n\r\n    modifier onlyAuditor() {\r\n        require(isAuditor[msg.sender], \"Not auditor\");\r\n        _;\r\n    }\r\n\r\n    modifier onlyPbftNode() {\r\n        require(isPbftNode[msg.sender], \"Not PBFT node\");\r\n        _;\r\n    }\r\n\r\n    modifier onlyAdminOrAuditor() {\r\n        require(isAdmin[msg.sender] || isAuditor[msg.sender], \"Not admin or auditor\");\r\n        _;\r\n    }\r\n\r\n    modifier onlyActivePbftNode() {\r\n        require(isPbftNode[msg.sender], \"Not PBFT node\");\r\n        require(pbftNodes[msg.sender].isActive, \"Node not active\");\r\n        _;\r\n    }\r\n\r\n    constructor(address _treasury) {\r\n        require(_treasury != address(0), \"Treasury required\");\r\n        admin = msg.sender;\r\n        isAdmin[admin] = true;\r\n        treasury = _treasury;\r\n        emit TreasuryChanged(address(0), _treasury);\r\n    }\r\n\r\n    // Role management\r\n    function assignAdmin(address account) external onlyAdmin {\r\n        isAdmin[account] = true;\r\n        emit AdminAssigned(account);\r\n    }\r\n\r\n    function revokeAdmin(address account) external onlyAdmin {\r\n        isAdmin[account] = false;\r\n        emit AdminRevoked(account);\r\n    }\r\n\r\n    function assignGateway(address account) external onlyAdmin {\r\n        isGateway[account] = true;\r\n        emit GatewayAssigned(account);\r\n    }\r\n\r\n    function revokeGateway(address account) external onlyAdmin {\r\n        isGateway[account] = false;\r\n        emit GatewayRevoked(account);\r\n    }\r\n\r\n    function assignAuditor(address account) external onlyAdmin {\r\n        isAuditor[account] = true;\r\n        emit AuditorAssigned(account);\r\n    }\r\n\r\n    function revokeAuditor(address account) external onlyAdmin {\r\n        isAuditor[account] = false;\r\n        emit AuditorRevoked(account);\r\n    }\r\n\r\n    function assignPbftNode(address account) external onlyAdmin {\r\n        isPbftNode[account] = true;\r\n        emit PbftNodeAssigned(account);\r\n    }\r\n\r\n    function revokePbftNode(address account) external onlyAdmin {\r\n        isPbftNode[account] = false;\r\n        emit PbftNodeRevoked(account);\r\n    }\r\n\r\n    // NEW: advertiser/publisher role management\r\n    function assignAdvertiser(address account) external onlyAdmin {\r\n        isAdvertiser[account] = true;\r\n        emit AdvertiserAssigned(account);\r\n    }\r\n\r\n    function revokeAdvertiser(address account) external onlyAdmin {\r\n        isAdvertiser[account] = false;\r\n        emit AdvertiserRevoked(account);\r\n    }\r\n\r\n    function assignPublisher(address account) external onlyAdmin {\r\n        isPublisher[account] = true;\r\n        emit PublisherAssigned(account);\r\n    }\r\n\r\n    function revokePublisher(address account) external onlyAdmin {\r\n        isPublisher[account] = false;\r\n        emit PublisherRevoked(account);\r\n    }\r\n\r\n    // Admin config\r\n    function setMinGatewayStake(uint256 newMin) external onlyAdmin {\r\n        minGatewayStakeWei = newMin;\r\n    }\r\n\r\n    function setTreasury(address newTreasury) external onlyAdmin {\r\n        require(newTreasury != address(0), \"Zero address\");\r\n        emit TreasuryChanged(treasury, newTreasury);\r\n        treasury = newTreasury;\r\n    }\r\n\r\n    function setMaxClickAgeSeconds(uint256 secs) external onlyAdmin {\r\n        maxClickAgeSeconds = secs;\r\n    }\r\n\r\n    function setMaxClickFutureSeconds(uint256 secs) external onlyAdmin {\r\n        maxClickFutureSeconds = secs;\r\n    }\r\n\r\n    // PBFT configuration\r\n    function setRequiredConsensusPercentage(uint256 percentage) external onlyAdmin {\r\n        require(percentage > 50 && percentage <= 100, \"Invalid percentage\");\r\n        requiredConsensusPercentage = percentage;\r\n    }\r\n\r\n    function setConsensusTimeout(uint256 timeoutSeconds) external onlyAdmin {\r\n        consensusTimeoutSeconds = timeoutSeconds;\r\n    }\r\n\r\n    function setMinPBFTStake(uint256 minStake) external onlyAdmin {\r\n        minPBFTStake = minStake;\r\n    }\r\n\r\n    // PBFT node management\r\n    function addPBFTNode(address node) external payable onlyAdmin {\r\n        require(node != address(0), \"Invalid node address\");\r\n        require(msg.value >= minPBFTStake, \"Insufficient stake\");\r\n        require(!pbftNodes[node].isActive, \"Node already active\");\r\n\r\n        pbftNodes[node] = PBFTNode({\r\n            nodeAddress: node,\r\n            isActive: true,\r\n            stake: msg.value,\r\n            votesParticipated: 0,\r\n            correctVotes: 0\r\n        });\r\n\r\n        activeNodes.push(node);\r\n\r\n        isPbftNode[node] = true;\r\n        emit PbftNodeAssigned(node);\r\n\r\n        emit PBFTNodeAdded(node, msg.value);\r\n    }\r\n\r\n    function removePBFTNode(address node) external onlyAdmin {\r\n        require(pbftNodes[node].isActive, \"Node not active\");\r\n\r\n        pbftNodes[node].isActive = false;\r\n        isPbftNode[node] = false;\r\n        emit PbftNodeRevoked(node);\r\n\r\n        for (uint256 i = 0; i < activeNodes.length; i++) {\r\n            if (activeNodes[i] == node) {\r\n                activeNodes[i] = activeNodes[activeNodes.length - 1];\r\n                activeNodes.pop();\r\n                break;\r\n            }\r\n        }\r\n\r\n        uint256 stake = pbftNodes[node].stake;\r\n        pbftNodes[node].stake = 0;\r\n        (bool ok, ) = payable(node).call{value: stake}(\"\");\r\n        require(ok, \"Stake refund failed\");\r\n\r\n        emit PBFTNodeRemoved(node);\r\n    }\r\n\r\n    function stakePBFTNode() external payable onlyPbftNode {\r\n        require(pbftNodes[msg.sender].isActive, \"Node not active\");\r\n        pbftNodes[msg.sender].stake += msg.value;\r\n    }\r\n\r\n    // Gateway staking\r\n    function stakeGateway() external payable onlyGateway {\r\n        require(msg.value > 0, \"No ETH sent\");\r\n        stakeOf[msg.sender] += msg.value;\r\n        emit GatewayStaked(msg.sender, msg.value, stakeOf[msg.sender]);\r\n    }\r\n\r\n    function unstakeGateway(uint256 amount) external onlyGateway {\r\n        require(amount > 0 && amount <= stakeOf[msg.sender], \"Invalid amount\");\r\n        uint256 remaining = stakeOf[msg.sender] - amount;\r\n        require(remaining == 0 || remaining >= minGatewayStakeWei, \"Below min stake\");\r\n        stakeOf[msg.sender] = remaining;\r\n        (bool ok, ) = payable(msg.sender).call{value: amount}(\"\");\r\n        require(ok, \"ETH transfer failed\");\r\n        emit GatewayUnstaked(msg.sender, amount, remaining);\r\n    }\r\n\r\n    function slashGateway(address gateway, uint16 pctBps, bytes32 evidenceCIDHash) external onlyAdminOrAuditor {\r\n        require(gateway != address(0), \"Invalid gateway\");\r\n        require(pctBps > 0 && pctBps <= 10000, \"Bps out of range\");\r\n        uint256 stake = stakeOf[gateway];\r\n        require(stake > 0, \"No stake\");\r\n        uint256 slashAmt = (stake * pctBps) / 10000;\r\n        stakeOf[gateway] = stake - slashAmt;\r\n        (bool ok, ) = payable(treasury).call{value: slashAmt}(\"\");\r\n        require(ok, \"Slash transfer failed\");\r\n        emit GatewaySlashed(gateway, slashAmt, evidenceCIDHash);\r\n    }\r\n\r\n    // Campaigns\r\n    function createCampaign(\r\n        uint256 campaignId,\r\n        uint256 cpcWei,\r\n        string calldata meta\r\n    ) external payable returns (uint256 id) {\r\n        require(cpcWei > 0, \"CPC must be > 0\");\r\n        require(msg.value > 0, \"Initial budget required\");\r\n        require(campaigns[campaignId].advertiser == address(0), \"Campaign ID already exists\");\r\n\r\n        campaigns[campaignId] = Campaign({\r\n            advertiser: msg.sender,\r\n            cpcWei: cpcWei,\r\n            budgetWei: msg.value,\r\n            paused: false,\r\n            meta: meta\r\n        });\r\n\r\n        campaignIds.push(campaignId);\r\n        emit CampaignCreated(campaignId, msg.sender, cpcWei, msg.value, meta);\r\n        return campaignId;\r\n    }\r\n\r\n    function fundCampaign(uint256 campaignId) external payable {\r\n        Campaign storage c = campaigns[campaignId];\r\n        require(c.advertiser != address(0), \"Campaign missing\");\r\n        require(msg.value > 0, \"No funds\");\r\n        c.budgetWei += msg.value;\r\n        emit CampaignFunded(campaignId, msg.value, c.budgetWei);\r\n    }\r\n\r\n    function setCampaignPaused(uint256 campaignId, bool paused) external {\r\n        Campaign storage c = campaigns[campaignId];\r\n        require(c.advertiser == msg.sender || isAdmin[msg.sender], \"Not authorized\");\r\n        c.paused = paused;\r\n        emit CampaignPaused(campaignId, paused);\r\n    }\r\n\r\n    // PBFT transaction processing\r\n    function proposeTransaction(\r\n        bytes32 clickHash,\r\n        uint256 campaignId,\r\n        address publisher,\r\n        uint256 timestamp,\r\n        bytes32 metadataCIDHash\r\n    ) public onlyGateway returns (bytes32) {\r\n        require(activeNodes.length >= 3, \"Insufficient PBFT nodes\");\r\n        require(pendingTransactions[clickHash].txHash == bytes32(0), \"Transaction already proposed\");\r\n\r\n        require(publisher != address(0), \"Zero publisher\");\r\n        require(!usedClickHash[clickHash], \"Duplicate click\");\r\n        Campaign storage c = campaigns[campaignId];\r\n        require(c.advertiser != address(0), \"Campaign missing\");\r\n        require(!c.paused, \"Campaign paused\");\r\n        require(c.budgetWei >= c.cpcWei, \"Insufficient budget\");\r\n\r\n        uint256 requiredVotes = (activeNodes.length * requiredConsensusPercentage) / 100;\r\n        if (requiredVotes == 0) requiredVotes = 1;\r\n\r\n        PendingTransaction storage pendingTx = pendingTransactions[clickHash];\r\n        pendingTx.txHash = clickHash;\r\n        pendingTx.campaignId = campaignId;\r\n        pendingTx.publisher = publisher;\r\n        pendingTx.gateway = msg.sender;\r\n        pendingTx.timestamp = timestamp;\r\n        pendingTx.metadataCIDHash = metadataCIDHash;\r\n        pendingTx.requiredVotes = requiredVotes;\r\n        pendingTx.proposalTime = block.timestamp;\r\n\r\n        pendingTxHashes.push(clickHash);\r\n\r\n        emit TransactionProposed(clickHash, campaignId, publisher);\r\n\r\n        // Consensus Message: PrePrepare\r\n        emit PrePrepare(\r\n            clickHash,\r\n            campaignId,\r\n            publisher,\r\n            msg.sender,                // leader (gateway proposing)\r\n            requiredVotes,\r\n            block.timestamp\r\n        );\r\n\r\n        return clickHash;\r\n    }\r\n\r\n    function voteOnTransaction(bytes32 txHash, bool approve) external onlyActivePbftNode {\r\n        PendingTransaction storage pendingTx = pendingTransactions[txHash];\r\n        require(pendingTx.txHash != bytes32(0), \"Transaction not found\");\r\n        require(!pendingTx.executed, \"Transaction already executed\");\r\n        require(!pendingTx.consensusReached, \"Consensus already reached\");\r\n        require(!pendingTx.hasVoted[msg.sender], \"Already voted\");\r\n        require(block.timestamp <= pendingTx.proposalTime + consensusTimeoutSeconds, \"Voting period expired\");\r\n\r\n        pendingTx.hasVoted[msg.sender] = true;\r\n        pendingTx.voteValue[msg.sender] = approve;\r\n        pendingTx.totalVotes++;\r\n\r\n        if (approve) pendingTx.approveVotes++;\r\n        else pendingTx.rejectVotes++;\r\n\r\n        pbftNodes[msg.sender].votesParticipated++;\r\n\r\n        emit ConsensusVote(txHash, msg.sender, approve);\r\n        // Consensus Message: Prepare\r\n        emit Prepare(txHash, msg.sender, approve, block.timestamp);\r\n\r\n        if (pendingTx.approveVotes >= pendingTx.requiredVotes) {\r\n            pendingTx.consensusReached = true;\r\n            _executeTransaction(txHash);\r\n\r\n            emit ConsensusReached(txHash, true, pendingTx.approveVotes);\r\n            // Consensus Message: Commit\r\n            emit Commit(txHash, true, pendingTx.approveVotes, block.timestamp);\r\n\r\n        } else if (pendingTx.rejectVotes >= pendingTx.requiredVotes) {\r\n            pendingTx.consensusReached = true;\r\n\r\n            emit ConsensusReached(txHash, false, pendingTx.rejectVotes);\r\n            // Consensus Message: Commit\r\n            emit Commit(txHash, false, pendingTx.rejectVotes, block.timestamp);\r\n\r\n        } else if (pendingTx.totalVotes == activeNodes.length) {\r\n            pendingTx.consensusReached = true;\r\n\r\n            emit ConsensusReached(txHash, false, pendingTx.approveVotes);\r\n            // Consensus Message: Commit\r\n            emit Commit(txHash, false, pendingTx.approveVotes, block.timestamp);\r\n        }\r\n    }\r\n\r\n    function _executeTransaction(bytes32 txHash) internal {\r\n        PendingTransaction storage pendingTx = pendingTransactions[txHash];\r\n        require(!pendingTx.executed, \"Already executed\");\r\n        require(pendingTx.consensusReached, \"Consensus not reached\");\r\n        require(pendingTx.approveVotes >= pendingTx.requiredVotes, \"Insufficient approval votes\");\r\n\r\n        pendingTx.executed = true;\r\n\r\n        usedClickHash[pendingTx.txHash] = true;\r\n        Campaign storage c = campaigns[pendingTx.campaignId];\r\n        c.budgetWei -= c.cpcWei;\r\n        publisherBalance[pendingTx.publisher] += c.cpcWei;\r\n\r\n        for (uint256 i = 0; i < activeNodes.length; i++) {\r\n            address node = activeNodes[i];\r\n            if (pendingTx.hasVoted[node] && pendingTx.voteValue[node]) {\r\n                pbftNodes[node].correctVotes++;\r\n            }\r\n        }\r\n\r\n        emit ClickRecorded(\r\n            pendingTx.txHash,\r\n            pendingTx.campaignId,\r\n            pendingTx.publisher,\r\n            pendingTx.gateway,\r\n            c.cpcWei,\r\n            pendingTx.timestamp,\r\n            pendingTx.metadataCIDHash\r\n        );\r\n\r\n        emit TransactionExecuted(txHash, pendingTx.campaignId, pendingTx.publisher);\r\n\r\n        // Consensus Message: Reply\r\n        emit Reply(\r\n            txHash,\r\n            pendingTx.campaignId,\r\n            pendingTx.publisher,\r\n            pendingTx.gateway,\r\n            c.cpcWei,\r\n            pendingTx.timestamp\r\n        );\r\n    }\r\n\r\n    function cleanupExpiredTransaction(bytes32 txHash) external {\r\n        PendingTransaction storage pendingTx = pendingTransactions[txHash];\r\n        require(pendingTx.txHash != bytes32(0), \"Transaction not found\");\r\n        require(!pendingTx.executed, \"Transaction already executed\");\r\n        require(block.timestamp > pendingTx.proposalTime + consensusTimeoutSeconds, \"Transaction not expired\");\r\n\r\n        if (!pendingTx.consensusReached) {\r\n            pendingTx.consensusReached = true;\r\n            emit ConsensusReached(txHash, false, pendingTx.approveVotes);\r\n            // Optional: also emit Commit(false) to reflect finalization by timeout\r\n            emit Commit(txHash, false, pendingTx.approveVotes, block.timestamp);\r\n        }\r\n\r\n        for (uint256 i = 0; i < pendingTxHashes.length; i++) {\r\n            if (pendingTxHashes[i] == txHash) {\r\n                pendingTxHashes[i] = pendingTxHashes[pendingTxHashes.length - 1];\r\n                pendingTxHashes.pop();\r\n                break;\r\n            }\r\n        }\r\n    }\r\n\r\n    function computeClickMessageHash(\r\n        bytes32 clickHash,\r\n        uint256 campaignId,\r\n        address publisher,\r\n        address gateway,\r\n        uint256 timestamp,\r\n        bytes32 metadataCIDHash\r\n    ) public view returns (bytes32) {\r\n        return keccak256(\r\n            abi.encodePacked(\r\n                block.chainid,\r\n                address(this),\r\n                \"AD_CLICK_V1\",\r\n                clickHash,\r\n                campaignId,\r\n                publisher,\r\n                gateway,\r\n                timestamp,\r\n                metadataCIDHash\r\n            )\r\n        );\r\n    }\r\n\r\n    function submitClickGatewayDirect(\r\n        bytes32 clickHash,\r\n        uint256 campaignId,\r\n        address publisher,\r\n        uint256 timestamp,\r\n        bytes32 metadataCIDHash\r\n    ) external onlyGateway {\r\n        proposeTransaction(clickHash, campaignId, publisher, timestamp, metadataCIDHash);\r\n    }\r\n\r\n    function submitClickWithSig(\r\n        bytes32 clickHash,\r\n        uint256 campaignId,\r\n        address publisher,\r\n        address gateway,\r\n        uint256 timestamp,\r\n        bytes32 metadataCIDHash,\r\n        bytes calldata signature\r\n    ) external {\r\n        bytes32 rawHash = computeClickMessageHash(\r\n            clickHash,\r\n            campaignId,\r\n            publisher,\r\n            gateway,\r\n            timestamp,\r\n            metadataCIDHash\r\n        );\r\n        bytes32 ethSigned = keccak256(abi.encodePacked(\"\\x19Ethereum Signed Message:\\n32\", rawHash));\r\n        address recovered = recoverSigner(ethSigned, signature);\r\n        require(recovered == gateway, \"Invalid signature\");\r\n        require(isGateway[gateway], \"Signer not gateway\");\r\n\r\n        if (timestamp > block.timestamp) {\r\n            require(timestamp - block.timestamp <= maxClickFutureSeconds, \"Timestamp too far in future\");\r\n        } else {\r\n            require(block.timestamp - timestamp <= maxClickAgeSeconds, \"Timestamp too old\");\r\n        }\r\n\r\n        proposeTransaction(clickHash, campaignId, publisher, timestamp, metadataCIDHash);\r\n    }\r\n\r\n    function withdrawPublisher(uint256 amount) external {\r\n        uint256 balance = publisherBalance[msg.sender];\r\n        require(amount > 0 && amount <= balance, \"Invalid amount\");\r\n        publisherBalance[msg.sender] = balance - amount;\r\n        (bool ok, ) = payable(msg.sender).call{value: amount}(\"\");\r\n        require(ok, \"ETH transfer failed\");\r\n        emit PublisherWithdrawal(msg.sender, amount);\r\n    }\r\n\r\n    // Views\r\n    function getCampaign(uint256 campaignId)\r\n        external\r\n        view\r\n        returns (address advertiser, uint256 cpcWei, uint256 budgetWei, bool paused, string memory meta)\r\n    {\r\n        Campaign storage c = campaigns[campaignId];\r\n        return (c.advertiser, c.cpcWei, c.budgetWei, c.paused, c.meta);\r\n    }\r\n\r\n    function getCampaignIds() external view returns (uint256[] memory) {\r\n        return campaignIds;\r\n    }\r\n\r\n    function getActiveNodes() external view returns (address[] memory) {\r\n        return activeNodes;\r\n    }\r\n\r\n    function getPendingTransactionHashes() external view returns (bytes32[] memory) {\r\n        return pendingTxHashes;\r\n    }\r\n\r\n    function getPendingTransactionDetails(bytes32 txHash)\r\n        external\r\n        view\r\n        returns (\r\n            uint256 campaignId,\r\n            address publisher,\r\n            address gateway,\r\n            uint256 approveVotes,\r\n            uint256 rejectVotes,\r\n            uint256 totalVotes,\r\n            uint256 requiredVotes,\r\n            bool executed,\r\n            bool consensusReached,\r\n            uint256 proposalTime\r\n        )\r\n    {\r\n        PendingTransaction storage pendingTx = pendingTransactions[txHash];\r\n        return (\r\n            pendingTx.campaignId,\r\n            pendingTx.publisher,\r\n            pendingTx.gateway,\r\n            pendingTx.approveVotes,\r\n            pendingTx.rejectVotes,\r\n            pendingTx.totalVotes,\r\n            pendingTx.requiredVotes,\r\n            pendingTx.executed,\r\n            pendingTx.consensusReached,\r\n            pendingTx.proposalTime\r\n        );\r\n    }\r\n\r\n    function hasNodeVoted(bytes32 txHash, address node) external view returns (bool) {\r\n        return pendingTransactions[txHash].hasVoted[node];\r\n    }\r\n\r\n    function getNodeVote(bytes32 txHash, address node) external view returns (bool) {\r\n        require(pendingTransactions[txHash].hasVoted[node], \"Node has not voted\");\r\n        return pendingTransactions[txHash].voteValue[node];\r\n    }\r\n\r\n    function getNodeStats(address node)\r\n        external\r\n        view\r\n        returns (bool isActive, uint256 stake, uint256 votesParticipated, uint256 correctVotes, uint256 accuracyPercentage)\r\n    {\r\n        PBFTNode storage pbftNode = pbftNodes[node];\r\n        uint256 accuracy = 0;\r\n        if (pbftNode.votesParticipated > 0) {\r\n            accuracy = (pbftNode.correctVotes * 100) / pbftNode.votesParticipated;\r\n        }\r\n        return (pbftNode.isActive, pbftNode.stake, pbftNode.votesParticipated, pbftNode.correctVotes, accuracy);\r\n    }\r\n\r\n    receive() external payable {}\r\n    fallback() external payable {}\r\n}\r\n",
  "sourcePath": "C:\\Users\\ABHINAV\\OneDrive\\Desktop\\Last\\BlockchainBased_AdFrud_Prevention\\contracts\\AdFraudPBFT.sol",
  "compiler": {
    "name": "solc",
    "version": "0.8.19+commit.7dd6d404.Emscripten.clang"
  },
  "schemaVersion": "3.4.16",
  "updatedAt": "2025-11-04T11:49:51.318Z",
  "networkType": "ethereum",
  "devdoc": {
    "kind": "dev",
    "methods": {},
    "version": 1
  },
  "userdoc": {
    "kind": "user",
    "methods": {},
    "version": 1
  }
}