{
  "contractName": "AdFraudPBFT",
  "abi": [
    {
      "inputs": [
        {
          "internalType": "address",
          "name": "_treasury",
          "type": "address"
        }
      ],
      "stateMutability": "nonpayable",
      "type": "constructor"
    },
    {
      "anonymous": false,
      "inputs": [
        {
          "indexed": true,
          "internalType": "uint256",
          "name": "campaignId",
          "type": "uint256"
        },
        {
          "indexed": true,
          "internalType": "address",
          "name": "advertiser",
          "type": "address"
        },
        {
          "indexed": false,
          "internalType": "uint256",
          "name": "cpcWei",
          "type": "uint256"
        },
        {
          "indexed": false,
          "internalType": "uint256",
          "name": "initialBudget",
          "type": "uint256"
        },
        {
          "indexed": false,
          "internalType": "string",
          "name": "meta",
          "type": "string"
        }
      ],
      "name": "CampaignCreated",
      "type": "event"
    },
    {
      "anonymous": false,
      "inputs": [
        {
          "indexed": true,
          "internalType": "uint256",
          "name": "campaignId",
          "type": "uint256"
        },
        {
          "indexed": false,
          "internalType": "uint256",
          "name": "amount",
          "type": "uint256"
        },
        {
          "indexed": false,
          "internalType": "uint256",
          "name": "newBudget",
          "type": "uint256"
        }
      ],
      "name": "CampaignFunded",
      "type": "event"
    },
    {
      "anonymous": false,
      "inputs": [
        {
          "indexed": true,
          "internalType": "uint256",
          "name": "campaignId",
          "type": "uint256"
        },
        {
          "indexed": false,
          "internalType": "bool",
          "name": "paused",
          "type": "bool"
        }
      ],
      "name": "CampaignPaused",
      "type": "event"
    },
    {
      "anonymous": false,
      "inputs": [
        {
          "indexed": true,
          "internalType": "bytes32",
          "name": "clickHash",
          "type": "bytes32"
        },
        {
          "indexed": true,
          "internalType": "uint256",
          "name": "campaignId",
          "type": "uint256"
        },
        {
          "indexed": true,
          "internalType": "address",
          "name": "publisher",
          "type": "address"
        },
        {
          "indexed": false,
          "internalType": "address",
          "name": "gateway",
          "type": "address"
        },
        {
          "indexed": false,
          "internalType": "uint256",
          "name": "cpcWei",
          "type": "uint256"
        },
        {
          "indexed": false,
          "internalType": "uint256",
          "name": "timestamp",
          "type": "uint256"
        },
        {
          "indexed": false,
          "internalType": "bytes32",
          "name": "metadataCIDHash",
          "type": "bytes32"
        }
      ],
      "name": "ClickRecorded",
      "type": "event"
    },
    {
      "anonymous": false,
      "inputs": [
        {
          "indexed": true,
          "internalType": "address",
          "name": "gateway",
          "type": "address"
        },
        {
          "indexed": false,
          "internalType": "uint256",
          "name": "slashAmount",
          "type": "uint256"
        },
        {
          "indexed": false,
          "internalType": "bytes32",
          "name": "evidenceCIDHash",
          "type": "bytes32"
        }
      ],
      "name": "GatewaySlashed",
      "type": "event"
    },
    {
      "anonymous": false,
      "inputs": [
        {
          "indexed": true,
          "internalType": "address",
          "name": "gateway",
          "type": "address"
        },
        {
          "indexed": false,
          "internalType": "uint256",
          "name": "amount",
          "type": "uint256"
        },
        {
          "indexed": false,
          "internalType": "uint256",
          "name": "totalStake",
          "type": "uint256"
        }
      ],
      "name": "GatewayStaked",
      "type": "event"
    },
    {
      "anonymous": false,
      "inputs": [
        {
          "indexed": true,
          "internalType": "address",
          "name": "gateway",
          "type": "address"
        },
        {
          "indexed": false,
          "internalType": "uint256",
          "name": "amount",
          "type": "uint256"
        },
        {
          "indexed": false,
          "internalType": "uint256",
          "name": "totalStake",
          "type": "uint256"
        }
      ],
      "name": "GatewayUnstaked",
      "type": "event"
    },
    {
      "anonymous": false,
      "inputs": [
        {
          "indexed": true,
          "internalType": "address",
          "name": "publisher",
          "type": "address"
        },
        {
          "indexed": false,
          "internalType": "uint256",
          "name": "amount",
          "type": "uint256"
        }
      ],
      "name": "PublisherWithdrawal",
      "type": "event"
    },
    {
      "anonymous": false,
      "inputs": [
        {
          "indexed": true,
          "internalType": "bytes32",
          "name": "role",
          "type": "bytes32"
        },
        {
          "indexed": true,
          "internalType": "bytes32",
          "name": "previousAdminRole",
          "type": "bytes32"
        },
        {
          "indexed": true,
          "internalType": "bytes32",
          "name": "newAdminRole",
          "type": "bytes32"
        }
      ],
      "name": "RoleAdminChanged",
      "type": "event"
    },
    {
      "anonymous": false,
      "inputs": [
        {
          "indexed": true,
          "internalType": "bytes32",
          "name": "role",
          "type": "bytes32"
        },
        {
          "indexed": true,
          "internalType": "address",
          "name": "account",
          "type": "address"
        },
        {
          "indexed": true,
          "internalType": "address",
          "name": "sender",
          "type": "address"
        }
      ],
      "name": "RoleGranted",
      "type": "event"
    },
    {
      "anonymous": false,
      "inputs": [
        {
          "indexed": true,
          "internalType": "bytes32",
          "name": "role",
          "type": "bytes32"
        },
        {
          "indexed": true,
          "internalType": "address",
          "name": "account",
          "type": "address"
        },
        {
          "indexed": true,
          "internalType": "address",
          "name": "sender",
          "type": "address"
        }
      ],
      "name": "RoleRevoked",
      "type": "event"
    },
    {
      "anonymous": false,
      "inputs": [
        {
          "indexed": true,
          "internalType": "address",
          "name": "oldTreasury",
          "type": "address"
        },
        {
          "indexed": true,
          "internalType": "address",
          "name": "newTreasury",
          "type": "address"
        }
      ],
      "name": "TreasuryChanged",
      "type": "event"
    },
    {
      "stateMutability": "payable",
      "type": "fallback",
      "payable": true
    },
    {
      "inputs": [],
      "name": "AUDITOR_ROLE",
      "outputs": [
        {
          "internalType": "bytes32",
          "name": "",
          "type": "bytes32"
        }
      ],
      "stateMutability": "view",
      "type": "function",
      "constant": true
    },
    {
      "inputs": [],
      "name": "DEFAULT_ADMIN_ROLE",
      "outputs": [
        {
          "internalType": "bytes32",
          "name": "",
          "type": "bytes32"
        }
      ],
      "stateMutability": "view",
      "type": "function",
      "constant": true
    },
    {
      "inputs": [],
      "name": "GATEWAY_ROLE",
      "outputs": [
        {
          "internalType": "bytes32",
          "name": "",
          "type": "bytes32"
        }
      ],
      "stateMutability": "view",
      "type": "function",
      "constant": true
    },
    {
      "inputs": [
        {
          "internalType": "uint256",
          "name": "",
          "type": "uint256"
        }
      ],
      "name": "campaigns",
      "outputs": [
        {
          "internalType": "address",
          "name": "advertiser",
          "type": "address"
        },
        {
          "internalType": "uint256",
          "name": "cpcWei",
          "type": "uint256"
        },
        {
          "internalType": "uint256",
          "name": "budgetWei",
          "type": "uint256"
        },
        {
          "internalType": "bool",
          "name": "paused",
          "type": "bool"
        },
        {
          "internalType": "string",
          "name": "meta",
          "type": "string"
        }
      ],
      "stateMutability": "view",
      "type": "function",
      "constant": true
    },
    {
      "inputs": [
        {
          "internalType": "bytes32",
          "name": "role",
          "type": "bytes32"
        }
      ],
      "name": "getRoleAdmin",
      "outputs": [
        {
          "internalType": "bytes32",
          "name": "",
          "type": "bytes32"
        }
      ],
      "stateMutability": "view",
      "type": "function",
      "constant": true
    },
    {
      "inputs": [
        {
          "internalType": "bytes32",
          "name": "role",
          "type": "bytes32"
        },
        {
          "internalType": "address",
          "name": "account",
          "type": "address"
        }
      ],
      "name": "grantRole",
      "outputs": [],
      "stateMutability": "nonpayable",
      "type": "function"
    },
    {
      "inputs": [
        {
          "internalType": "bytes32",
          "name": "role",
          "type": "bytes32"
        },
        {
          "internalType": "address",
          "name": "account",
          "type": "address"
        }
      ],
      "name": "hasRole",
      "outputs": [
        {
          "internalType": "bool",
          "name": "",
          "type": "bool"
        }
      ],
      "stateMutability": "view",
      "type": "function",
      "constant": true
    },
    {
      "inputs": [],
      "name": "maxClickAgeSeconds",
      "outputs": [
        {
          "internalType": "uint256",
          "name": "",
          "type": "uint256"
        }
      ],
      "stateMutability": "view",
      "type": "function",
      "constant": true
    },
    {
      "inputs": [],
      "name": "maxClickFutureSeconds",
      "outputs": [
        {
          "internalType": "uint256",
          "name": "",
          "type": "uint256"
        }
      ],
      "stateMutability": "view",
      "type": "function",
      "constant": true
    },
    {
      "inputs": [],
      "name": "minGatewayStakeWei",
      "outputs": [
        {
          "internalType": "uint256",
          "name": "",
          "type": "uint256"
        }
      ],
      "stateMutability": "view",
      "type": "function",
      "constant": true
    },
    {
      "inputs": [],
      "name": "nextCampaignId",
      "outputs": [
        {
          "internalType": "uint256",
          "name": "",
          "type": "uint256"
        }
      ],
      "stateMutability": "view",
      "type": "function",
      "constant": true
    },
    {
      "inputs": [
        {
          "internalType": "address",
          "name": "",
          "type": "address"
        }
      ],
      "name": "publisherBalance",
      "outputs": [
        {
          "internalType": "uint256",
          "name": "",
          "type": "uint256"
        }
      ],
      "stateMutability": "view",
      "type": "function",
      "constant": true
    },
    {
      "inputs": [
        {
          "internalType": "bytes32",
          "name": "role",
          "type": "bytes32"
        },
        {
          "internalType": "address",
          "name": "account",
          "type": "address"
        }
      ],
      "name": "renounceRole",
      "outputs": [],
      "stateMutability": "nonpayable",
      "type": "function"
    },
    {
      "inputs": [
        {
          "internalType": "bytes32",
          "name": "role",
          "type": "bytes32"
        },
        {
          "internalType": "address",
          "name": "account",
          "type": "address"
        }
      ],
      "name": "revokeRole",
      "outputs": [],
      "stateMutability": "nonpayable",
      "type": "function"
    },
    {
      "inputs": [
        {
          "internalType": "address",
          "name": "",
          "type": "address"
        }
      ],
      "name": "stakeOf",
      "outputs": [
        {
          "internalType": "uint256",
          "name": "",
          "type": "uint256"
        }
      ],
      "stateMutability": "view",
      "type": "function",
      "constant": true
    },
    {
      "inputs": [
        {
          "internalType": "bytes4",
          "name": "interfaceId",
          "type": "bytes4"
        }
      ],
      "name": "supportsInterface",
      "outputs": [
        {
          "internalType": "bool",
          "name": "",
          "type": "bool"
        }
      ],
      "stateMutability": "view",
      "type": "function",
      "constant": true
    },
    {
      "inputs": [],
      "name": "treasury",
      "outputs": [
        {
          "internalType": "address",
          "name": "",
          "type": "address"
        }
      ],
      "stateMutability": "view",
      "type": "function",
      "constant": true
    },
    {
      "inputs": [
        {
          "internalType": "bytes32",
          "name": "",
          "type": "bytes32"
        }
      ],
      "name": "usedClickHash",
      "outputs": [
        {
          "internalType": "bool",
          "name": "",
          "type": "bool"
        }
      ],
      "stateMutability": "view",
      "type": "function",
      "constant": true
    },
    {
      "stateMutability": "payable",
      "type": "receive",
      "payable": true
    },
    {
      "inputs": [
        {
          "internalType": "uint256",
          "name": "newMin",
          "type": "uint256"
        }
      ],
      "name": "setMinGatewayStake",
      "outputs": [],
      "stateMutability": "nonpayable",
      "type": "function"
    },
    {
      "inputs": [
        {
          "internalType": "address",
          "name": "newTreasury",
          "type": "address"
        }
      ],
      "name": "setTreasury",
      "outputs": [],
      "stateMutability": "nonpayable",
      "type": "function"
    },
    {
      "inputs": [
        {
          "internalType": "uint256",
          "name": "secs",
          "type": "uint256"
        }
      ],
      "name": "setMaxClickAgeSeconds",
      "outputs": [],
      "stateMutability": "nonpayable",
      "type": "function"
    },
    {
      "inputs": [
        {
          "internalType": "uint256",
          "name": "secs",
          "type": "uint256"
        }
      ],
      "name": "setMaxClickFutureSeconds",
      "outputs": [],
      "stateMutability": "nonpayable",
      "type": "function"
    },
    {
      "inputs": [],
      "name": "stakeGateway",
      "outputs": [],
      "stateMutability": "payable",
      "type": "function",
      "payable": true
    },
    {
      "inputs": [
        {
          "internalType": "uint256",
          "name": "amount",
          "type": "uint256"
        }
      ],
      "name": "unstakeGateway",
      "outputs": [],
      "stateMutability": "nonpayable",
      "type": "function"
    },
    {
      "inputs": [
        {
          "internalType": "address",
          "name": "gateway",
          "type": "address"
        },
        {
          "internalType": "uint16",
          "name": "pctBps",
          "type": "uint16"
        },
        {
          "internalType": "bytes32",
          "name": "evidenceCIDHash",
          "type": "bytes32"
        }
      ],
      "name": "slashGateway",
      "outputs": [],
      "stateMutability": "nonpayable",
      "type": "function"
    },
    {
      "inputs": [
        {
          "internalType": "uint256",
          "name": "cpcWei",
          "type": "uint256"
        },
        {
          "internalType": "string",
          "name": "meta",
          "type": "string"
        }
      ],
      "name": "createCampaign",
      "outputs": [
        {
          "internalType": "uint256",
          "name": "id",
          "type": "uint256"
        }
      ],
      "stateMutability": "payable",
      "type": "function",
      "payable": true
    },
    {
      "inputs": [
        {
          "internalType": "uint256",
          "name": "campaignId",
          "type": "uint256"
        }
      ],
      "name": "fundCampaign",
      "outputs": [],
      "stateMutability": "payable",
      "type": "function",
      "payable": true
    },
    {
      "inputs": [
        {
          "internalType": "uint256",
          "name": "campaignId",
          "type": "uint256"
        },
        {
          "internalType": "bool",
          "name": "paused",
          "type": "bool"
        }
      ],
      "name": "setCampaignPaused",
      "outputs": [],
      "stateMutability": "nonpayable",
      "type": "function"
    },
    {
      "inputs": [
        {
          "internalType": "bytes32",
          "name": "clickHash",
          "type": "bytes32"
        },
        {
          "internalType": "uint256",
          "name": "campaignId",
          "type": "uint256"
        },
        {
          "internalType": "address",
          "name": "publisher",
          "type": "address"
        },
        {
          "internalType": "address",
          "name": "gateway",
          "type": "address"
        },
        {
          "internalType": "uint256",
          "name": "timestamp",
          "type": "uint256"
        },
        {
          "internalType": "bytes32",
          "name": "metadataCIDHash",
          "type": "bytes32"
        }
      ],
      "name": "computeClickMessageHash",
      "outputs": [
        {
          "internalType": "bytes32",
          "name": "",
          "type": "bytes32"
        }
      ],
      "stateMutability": "view",
      "type": "function",
      "constant": true
    },
    {
      "inputs": [
        {
          "internalType": "bytes32",
          "name": "clickHash",
          "type": "bytes32"
        },
        {
          "internalType": "uint256",
          "name": "campaignId",
          "type": "uint256"
        },
        {
          "internalType": "address",
          "name": "publisher",
          "type": "address"
        },
        {
          "internalType": "uint256",
          "name": "timestamp",
          "type": "uint256"
        },
        {
          "internalType": "bytes32",
          "name": "metadataCIDHash",
          "type": "bytes32"
        }
      ],
      "name": "submitClickGatewayDirect",
      "outputs": [],
      "stateMutability": "nonpayable",
      "type": "function"
    },
    {
      "inputs": [
        {
          "internalType": "bytes32",
          "name": "clickHash",
          "type": "bytes32"
        },
        {
          "internalType": "uint256",
          "name": "campaignId",
          "type": "uint256"
        },
        {
          "internalType": "address",
          "name": "publisher",
          "type": "address"
        },
        {
          "internalType": "address",
          "name": "gateway",
          "type": "address"
        },
        {
          "internalType": "uint256",
          "name": "timestamp",
          "type": "uint256"
        },
        {
          "internalType": "bytes32",
          "name": "metadataCIDHash",
          "type": "bytes32"
        },
        {
          "internalType": "bytes",
          "name": "signature",
          "type": "bytes"
        }
      ],
      "name": "submitClickWithSig",
      "outputs": [],
      "stateMutability": "nonpayable",
      "type": "function"
    },
    {
      "inputs": [
        {
          "internalType": "uint256",
          "name": "amount",
          "type": "uint256"
        }
      ],
      "name": "withdrawPublisher",
      "outputs": [],
      "stateMutability": "nonpayable",
      "type": "function"
    },
    {
      "inputs": [
        {
          "internalType": "uint256",
          "name": "campaignId",
          "type": "uint256"
        }
      ],
      "name": "getCampaign",
      "outputs": [
        {
          "internalType": "address",
          "name": "advertiser",
          "type": "address"
        },
        {
          "internalType": "uint256",
          "name": "cpcWei",
          "type": "uint256"
        },
        {
          "internalType": "uint256",
          "name": "budgetWei",
          "type": "uint256"
        },
        {
          "internalType": "bool",
          "name": "paused",
          "type": "bool"
        },
        {
          "internalType": "string",
          "name": "meta",
          "type": "string"
        }
      ],
      "stateMutability": "view",
      "type": "function",
      "constant": true
    }
  ],
  "bytecode": "0x60806040526706f05b59d3b20000600755620151806009556078600a553480156200002957600080fd5b5060405162002762380380620027628339810160408190526200004c916200019d565b600180556001600160a01b0381166200009f5760405162461bcd60e51b8152602060048201526011602482015270151c99585cdd5c9e481c995c5d5a5c9959607a1b604482015260640160405180910390fd5b620000ac600033620000fc565b600880546001600160a01b0319166001600160a01b0383169081179091556040516000907f8c3aa5f43a388513435861bf27dfad7829cd248696fed367c62d441f62954496908290a350620001cf565b6000828152602081815260408083206001600160a01b038516845290915290205460ff1662000199576000828152602081815260408083206001600160a01b03851684529091529020805460ff19166001179055620001583390565b6001600160a01b0316816001600160a01b0316837f2f8788117e7eff1d82e926ec794901d17c78024a50270940304540a733656f0d60405160405180910390a45b5050565b600060208284031215620001b057600080fd5b81516001600160a01b0381168114620001c857600080fd5b9392505050565b61258380620001df6000396000f3fe6080604052600436106101da5760003560e01c80637903a75611610101578063b51eb9031161009a578063d547741f1161006c578063d547741f14610597578063dc17027d146105b7578063de45db4f146105cd578063eba41f6b146105fa578063f0f442601461061a57005b8063b51eb9031461052d578063b9800c5914610535578063c50d6dd914610555578063cf173b901461057757005b806391d14854116100d357806391d14854146104c557806392bd38bc146104e557806399d5185e146104f8578063a217fddf1461051857005b80637903a7561461045957806385134bc61461046f57806389eb494f146104855780638dbb25f7146104a557005b80634220d65611610173578063605663621161014557806360566362146103b757806361d027b3146103cd578063656123d8146104055780636e1d616e1461042557005b80634220d65614610337578063426233601461034a5780635598f8cc146103775780635e5344941461039757005b8063248a9ca3116101ac578063248a9ca3146102995780632f2ff15d146102d75780633213d179146102f757806336568abe1461031757005b806301ffc9a7146101e3578063141961bc146102185780631634b3e7146102495780631b4160d71461027957005b366101e157005b005b3480156101ef57600080fd5b506102036101fe366004611ed8565b61063a565b60405190151581526020015b60405180910390f35b34801561022457600080fd5b50610238610233366004611f02565b610671565b60405161020f959493929190611f6b565b34801561025557600080fd5b50610203610264366004611f02565b60056020526000908152604090205460ff1681565b34801561028557600080fd5b506101e1610294366004612009565b61073b565b3480156102a557600080fd5b506102c96102b4366004611f02565b60009081526020819052604090206001015490565b60405190815260200161020f565b3480156102e357600080fd5b506101e16102f2366004612094565b610947565b34801561030357600080fd5b506101e1610312366004611f02565b610971565b34801561032357600080fd5b506101e1610332366004612094565b610b3e565b6102c96103453660046120c0565b610bbc565b34801561035657600080fd5b506102c961036536600461210c565b60026020526000908152604090205481565b34801561038357600080fd5b50610238610392366004611f02565b610d8b565b3480156103a357600080fd5b506101e16103b2366004612127565b610e70565b3480156103c357600080fd5b506102c960075481565b3480156103d957600080fd5b506008546103ed906001600160a01b031681565b6040516001600160a01b03909116815260200161020f565b34801561041157600080fd5b506101e161042036600461216d565b611103565b34801561043157600080fd5b506102c97f59a1c48e5837ad7a7f3dcedcbe129bf3249ec4fbf651fd4f5e2600ead39fe2f581565b34801561046557600080fd5b506102c960045481565b34801561047b57600080fd5b506102c9600a5481565b34801561049157600080fd5b506102c96104a03660046121a2565b6111b9565b3480156104b157600080fd5b506101e16104c0366004611f02565b611242565b3480156104d157600080fd5b506102036104e0366004612094565b611397565b6101e16104f3366004611f02565b6113c0565b34801561050457600080fd5b506101e1610513366004611f02565b6114b6565b34801561052457600080fd5b506102c9600081565b6101e16114c7565b34801561054157600080fd5b506101e1610550366004611f02565b61158c565b34801561056157600080fd5b506102c960008051602061252e83398151915281565b34801561058357600080fd5b506101e16105923660046121fa565b61159d565b3480156105a357600080fd5b506101e16105b2366004612094565b6115cb565b3480156105c357600080fd5b506102c960095481565b3480156105d957600080fd5b506102c96105e836600461210c565b60066020526000908152604090205481565b34801561060657600080fd5b506101e1610615366004611f02565b6115f0565b34801561062657600080fd5b506101e161063536600461210c565b611601565b60006001600160e01b03198216637965db0b60e01b148061066b57506301ffc9a760e01b6001600160e01b03198316145b92915050565b6003602081905260009182526040909120805460018201546002830154938301546004840180546001600160a01b03909416959294929360ff90921692916106b890612241565b80601f01602080910402602001604051908101604052809291908181526020018280546106e490612241565b80156107315780601f1061070657610100808354040283529160200191610731565b820191906000526020600020905b81548152906001019060200180831161071457829003601f168201915b5050505050905085565b600061074b8989898989896111b9565b7f19457468657265756d205369676e6564204d6573736167653a0a3332000000006000908152601c829052603c81209192505060006107c08286868080601f0160208091040260200160405190810160405280939291908181526020018383808284376000920191909152506116ae92505050565b9050876001600160a01b0316816001600160a01b03161461081c5760405162461bcd60e51b8152602060048201526011602482015270496e76616c6964207369676e617475726560781b60448201526064015b60405180910390fd5b61083460008051602061252e83398151915289611397565b6108755760405162461bcd60e51b81526020600482015260126024820152715369676e6572206e6f74206761746577617960701b6044820152606401610813565b428711156108dd57600a5461088a4289612291565b11156108d85760405162461bcd60e51b815260206004820152601b60248201527f54696d657374616d7020746f6f2066617220696e2066757475726500000000006044820152606401610813565b61092c565b6009546108ea8842612291565b111561092c5760405162461bcd60e51b8152602060048201526011602482015270151a5b595cdd185b5c081d1bdbc81bdb19607a1b6044820152606401610813565b61093a8b8b8b8b8b8b6116d2565b5050505050505050505050565b6000828152602081905260409020600101546109628161192b565b61096c8383611935565b505050565b6109796119b9565b60008051602061252e8339815191526109918161192b565b6000821180156109b05750336000908152600260205260409020548211155b6109ed5760405162461bcd60e51b815260206004820152600e60248201526d125b9d985b1a5908185b5bdd5b9d60921b6044820152606401610813565b33600090815260026020526040812054610a08908490612291565b9050801580610a1957506007548110155b610a575760405162461bcd60e51b815260206004820152600f60248201526e42656c6f77206d696e207374616b6560881b6044820152606401610813565b336000818152600260205260408082208490555190919085908381818185875af1925050503d8060008114610aa8576040519150601f19603f3d011682016040523d82523d6000602084013e610aad565b606091505b5050905080610af45760405162461bcd60e51b8152602060048201526013602482015272115512081d1c985b9cd9995c8819985a5b1959606a1b6044820152606401610813565b604080518581526020810184905233917f5a234eb1aa7640e15f81f6a544d81e5df683782173bdc5edeeeed061c42f3040910160405180910390a2505050610b3b60018055565b50565b6001600160a01b0381163314610bae5760405162461bcd60e51b815260206004820152602f60248201527f416363657373436f6e74726f6c3a2063616e206f6e6c792072656e6f756e636560448201526e103937b632b9903337b91039b2b63360891b6064820152608401610813565b610bb88282611a12565b5050565b6000808411610bff5760405162461bcd60e51b815260206004820152600f60248201526e0435043206d757374206265203e203608c1b6044820152606401610813565b60003411610c4f5760405162461bcd60e51b815260206004820152601760248201527f496e697469616c206275646765742072657175697265640000000000000000006044820152606401610813565b60048054906000610c5f836122a4565b9190505590506040518060a00160405280336001600160a01b0316815260200185815260200134815260200160001515815260200184848080601f016020809104026020016040519081016040528093929190818152602001838380828437600092018290525093909452505083815260036020818152604092839020855181546001600160a01b0319166001600160a01b039091161781559085015160018201559184015160028301556060840151908201805460ff191691151591909117905560808301519091506004820190610d389082612319565b50905050336001600160a01b0316817f2e64da7e06e88ccd84d69eccb21119ca81e40e5648611e89edfe888c8fa6259786348787604051610d7c94939291906123d9565b60405180910390a39392505050565b600081815260036020819052604082208054600182015460028301549383015460048401805487968796879660609691956001600160a01b0390911694919360ff90911691908190610ddc90612241565b80601f0160208091040260200160405190810160405280929190818152602001828054610e0890612241565b8015610e555780601f10610e2a57610100808354040283529160200191610e55565b820191906000526020600020905b815481529060010190602001808311610e3857829003601f168201915b50505050509050955095509550955095505091939590929450565b610e7b600033611397565b80610eab5750610eab7f59a1c48e5837ad7a7f3dcedcbe129bf3249ec4fbf651fd4f5e2600ead39fe2f533611397565b610eeb5760405162461bcd60e51b81526020600482015260116024820152702737ba1030b236b4b717b0bab234ba37b960791b6044820152606401610813565b6001600160a01b038316610f335760405162461bcd60e51b815260206004820152600f60248201526e496e76616c6964206761746577617960881b6044820152606401610813565b60008261ffff16118015610f4d57506127108261ffff1611155b610f8c5760405162461bcd60e51b815260206004820152601060248201526f427073206f7574206f662072616e676560801b6044820152606401610813565b6001600160a01b03831660009081526002602052604090205480610fdd5760405162461bcd60e51b81526020600482015260086024820152674e6f207374616b6560c01b6044820152606401610813565b6000612710610ff061ffff861684612416565b610ffa919061242d565b90506110068183612291565b6001600160a01b0386811660009081526002602052604080822093909355600854925190929091169083908381818185875af1925050503d8060008114611069576040519150601f19603f3d011682016040523d82523d6000602084013e61106e565b606091505b50509050806110b75760405162461bcd60e51b815260206004820152601560248201527414db185cda081d1c985b9cd9995c8819985a5b1959605a1b6044820152606401610813565b60408051838152602081018690526001600160a01b038816917f12ca20a179e8472ecdc6a3b0c7081673a1d8f6008d5e76f92d788936ac8fed1d910160405180910390a2505050505050565b600082815260036020526040902080546001600160a01b031633148061112f575061112f600033611397565b61116c5760405162461bcd60e51b815260206004820152600e60248201526d139bdd08185d5d1a1bdc9a5e995960921b6044820152606401610813565b60038101805460ff191683151590811790915560405190815283907feb034104a3d72bdb4a17b6628fc9eaa19a0e4523003d2698e0fd72a430e2eb2f9060200160405180910390a2505050565b60408051466020808301919091526bffffffffffffffffffffffff1930606090811b8216848601526a41445f434c49434b5f563160a81b6054850152605f84019a909a52607f83019890985295881b8716609f8201529390961b90941660b383015260c782015260e7808201939093528351808203909301835261010701909252805191012090565b61124a6119b9565b6000811180156112695750336000908152600660205260409020548111155b6112a65760405162461bcd60e51b815260206004820152600e60248201526d125b9d985b1a5908185b5bdd5b9d60921b6044820152606401610813565b33600090815260066020526040812080548392906112c5908490612291565b9091555050604051600090339083908381818185875af1925050503d806000811461130c576040519150601f19603f3d011682016040523d82523d6000602084013e611311565b606091505b50509050806113585760405162461bcd60e51b8152602060048201526013602482015272115512081d1c985b9cd9995c8819985a5b1959606a1b6044820152606401610813565b60405182815233907f61136c8a797391fcd52c5552ea96089e2814d10eb84c76d221f58761125c43829060200160405180910390a250610b3b60018055565b6000918252602082815260408084206001600160a01b0393909316845291905290205460ff1690565b600081815260036020526040902080546001600160a01b03166114185760405162461bcd60e51b815260206004820152601060248201526f43616d706169676e206d697373696e6760801b6044820152606401610813565b600034116114535760405162461bcd60e51b81526020600482015260086024820152674e6f2066756e647360c01b6044820152606401610813565b34816002016000828254611467919061244f565b9091555050600281015460405183917f42a74499fc8265a526ec8ab4b3e4a4a06e50ef92c084b2634b356f72a5ee44af916114aa91348252602082015260400190565b60405180910390a25050565b60006114c18161192b565b50600a55565b60008051602061252e8339815191526114df8161192b565b6000341161151d5760405162461bcd60e51b815260206004820152600b60248201526a139bc8115512081cd95b9d60aa1b6044820152606401610813565b336000908152600260205260408120805434929061153c90849061244f565b909155505033600081815260026020908152604091829020548251348152918201527f2a0a18dbee476b481250f5d3f9111f59cc104ea823d038e3ec86007e250e1429910160405180910390a250565b60006115978161192b565b50600755565b60008051602061252e8339815191526115b58161192b565b6115c38686863387876116d2565b505050505050565b6000828152602081905260409020600101546115e68161192b565b61096c8383611a12565b60006115fb8161192b565b50600955565b600061160c8161192b565b6001600160a01b0382166116515760405162461bcd60e51b815260206004820152600c60248201526b5a65726f206164647265737360a01b6044820152606401610813565b6008546040516001600160a01b038085169216907f8c3aa5f43a388513435861bf27dfad7829cd248696fed367c62d441f6295449690600090a350600880546001600160a01b0319166001600160a01b0392909216919091179055565b60008060006116bd8585611a77565b915091506116ca81611abc565b509392505050565b6001600160a01b0384166117195760405162461bcd60e51b815260206004820152600e60248201526d2d32b93790383ab13634b9b432b960911b6044820152606401610813565b60008681526005602052604090205460ff161561176a5760405162461bcd60e51b815260206004820152600f60248201526e4475706c696361746520636c69636b60881b6044820152606401610813565b600085815260036020526040902080546001600160a01b03166117c25760405162461bcd60e51b815260206004820152601060248201526f43616d706169676e206d697373696e6760801b6044820152606401610813565b600381015460ff16156118095760405162461bcd60e51b815260206004820152600f60248201526e10d85b5c185a59db881c185d5cd959608a1b6044820152606401610813565b8060010154816002015410156118575760405162461bcd60e51b8152602060048201526013602482015272125b9cdd59999a58da595b9d08189d5919d95d606a1b6044820152606401610813565b6000878152600560205260408120805460ff191660019081179091558201546002830180549192909161188b908490612291565b909155505060018101546001600160a01b038616600090815260066020526040812080549091906118bd90849061244f565b90915550506001810154604080516001600160a01b03878116825260208201939093529081018590526060810184905290861690879089907f15bd2785d9e0f1a4f550fd9a407c568547cef52bdfc00b65e71608b09a3fccbc9060800160405180910390a450505050505050565b610b3b8133611c06565b61193f8282611397565b610bb8576000828152602081815260408083206001600160a01b03851684529091529020805460ff191660011790556119753390565b6001600160a01b0316816001600160a01b0316837f2f8788117e7eff1d82e926ec794901d17c78024a50270940304540a733656f0d60405160405180910390a45050565b600260015403611a0b5760405162461bcd60e51b815260206004820152601f60248201527f5265656e7472616e637947756172643a207265656e7472616e742063616c6c006044820152606401610813565b6002600155565b611a1c8282611397565b15610bb8576000828152602081815260408083206001600160a01b0385168085529252808320805460ff1916905551339285917ff6391f5c32d9c69d2a47ea670b442974b53935d1edc7fd64eb21e047a839171b9190a45050565b6000808251604103611aad5760208301516040840151606085015160001a611aa187828585611c5f565b94509450505050611ab5565b506000905060025b9250929050565b6000816004811115611ad057611ad0612462565b03611ad85750565b6001816004811115611aec57611aec612462565b03611b395760405162461bcd60e51b815260206004820152601860248201527f45434453413a20696e76616c6964207369676e617475726500000000000000006044820152606401610813565b6002816004811115611b4d57611b4d612462565b03611b9a5760405162461bcd60e51b815260206004820152601f60248201527f45434453413a20696e76616c6964207369676e6174757265206c656e677468006044820152606401610813565b6003816004811115611bae57611bae612462565b03610b3b5760405162461bcd60e51b815260206004820152602260248201527f45434453413a20696e76616c6964207369676e6174757265202773272076616c604482015261756560f01b6064820152608401610813565b611c108282611397565b610bb857611c1d81611d23565b611c28836020611d35565b604051602001611c39929190612478565b60408051601f198184030181529082905262461bcd60e51b8252610813916004016124ed565b6000807f7fffffffffffffffffffffffffffffff5d576e7357a4501ddfe92f46681b20a0831115611c965750600090506003611d1a565b6040805160008082526020820180845289905260ff881692820192909252606081018690526080810185905260019060a0016020604051602081039080840390855afa158015611cea573d6000803e3d6000fd5b5050604051601f1901519150506001600160a01b038116611d1357600060019250925050611d1a565b9150600090505b94509492505050565b606061066b6001600160a01b03831660145b60606000611d44836002612416565b611d4f90600261244f565b67ffffffffffffffff811115611d6757611d676122bd565b6040519080825280601f01601f191660200182016040528015611d91576020820181803683370190505b509050600360fc1b81600081518110611dac57611dac612500565b60200101906001600160f81b031916908160001a905350600f60fb1b81600181518110611ddb57611ddb612500565b60200101906001600160f81b031916908160001a9053506000611dff846002612416565b611e0a90600161244f565b90505b6001811115611e82576f181899199a1a9b1b9c1cb0b131b232b360811b85600f1660108110611e3e57611e3e612500565b1a60f81b828281518110611e5457611e54612500565b60200101906001600160f81b031916908160001a90535060049490941c93611e7b81612516565b9050611e0d565b508315611ed15760405162461bcd60e51b815260206004820181905260248201527f537472696e67733a20686578206c656e67746820696e73756666696369656e746044820152606401610813565b9392505050565b600060208284031215611eea57600080fd5b81356001600160e01b031981168114611ed157600080fd5b600060208284031215611f1457600080fd5b5035919050565b60005b83811015611f36578181015183820152602001611f1e565b50506000910152565b60008151808452611f57816020860160208601611f1b565b601f01601f19169290920160200192915050565b60018060a01b0386168152846020820152836040820152821515606082015260a060808201526000611fa060a0830184611f3f565b979650505050505050565b80356001600160a01b0381168114611fc257600080fd5b919050565b60008083601f840112611fd957600080fd5b50813567ffffffffffffffff811115611ff157600080fd5b602083019150836020828501011115611ab557600080fd5b60008060008060008060008060e0898b03121561202557600080fd5b883597506020890135965061203c60408a01611fab565b955061204a60608a01611fab565b94506080890135935060a0890135925060c089013567ffffffffffffffff81111561207457600080fd5b6120808b828c01611fc7565b999c989b5096995094979396929594505050565b600080604083850312156120a757600080fd5b823591506120b760208401611fab565b90509250929050565b6000806000604084860312156120d557600080fd5b83359250602084013567ffffffffffffffff8111156120f357600080fd5b6120ff86828701611fc7565b9497909650939450505050565b60006020828403121561211e57600080fd5b611ed182611fab565b60008060006060848603121561213c57600080fd5b61214584611fab565b9250602084013561ffff8116811461215c57600080fd5b929592945050506040919091013590565b6000806040838503121561218057600080fd5b823591506020830135801515811461219757600080fd5b809150509250929050565b60008060008060008060c087890312156121bb57600080fd5b86359550602087013594506121d260408801611fab565b93506121e060608801611fab565b92506080870135915060a087013590509295509295509295565b600080600080600060a0868803121561221257600080fd5b853594506020860135935061222960408701611fab565b94979396509394606081013594506080013592915050565b600181811c9082168061225557607f821691505b60208210810361227557634e487b7160e01b600052602260045260246000fd5b50919050565b634e487b7160e01b600052601160045260246000fd5b8181038181111561066b5761066b61227b565b6000600182016122b6576122b661227b565b5060010190565b634e487b7160e01b600052604160045260246000fd5b601f82111561096c57600081815260208120601f850160051c810160208610156122fa5750805b601f850160051c820191505b818110156115c357828155600101612306565b815167ffffffffffffffff811115612333576123336122bd565b612347816123418454612241565b846122d3565b602080601f83116001811461237c57600084156123645750858301515b600019600386901b1c1916600185901b1785556115c3565b600085815260208120601f198616915b828110156123ab5788860151825594840194600190910190840161238c565b50858210156123c95787850151600019600388901b60f8161c191681555b5050505050600190811b01905550565b84815283602082015260606040820152816060820152818360808301376000818301608090810191909152601f909201601f191601019392505050565b808202811582820484141761066b5761066b61227b565b60008261244a57634e487b7160e01b600052601260045260246000fd5b500490565b8082018082111561066b5761066b61227b565b634e487b7160e01b600052602160045260246000fd5b7f416363657373436f6e74726f6c3a206163636f756e74200000000000000000008152600083516124b0816017850160208801611f1b565b7001034b99036b4b9b9b4b733903937b6329607d1b60179184019182015283516124e1816028840160208801611f1b565b01602801949350505050565b602081526000611ed16020830184611f3f565b634e487b7160e01b600052603260045260246000fd5b6000816125255761252561227b565b50600019019056feb90e9995c6170fff8ea03e9ad6919878e483770c237f1a6f330ceaa7112b344aa2646970667358221220b7978d7d2a73bd70ada47e4b9493f3b2ce21c0b61c8c19073c9f9e8dedcbad0664736f6c63430008150033",
  "immutableReferences": {},
  "source": "// SPDX-License-Identifier: MIT\r\npragma solidity ^0.8.19;\r\n\r\n/*\r\n  AdFraudPBFT.sol\r\n  - Works on EVM (PBFT/IBFT chains or public chains)\r\n  - Two click submission flows:\r\n      1) Direct: registered Gateway calls submitClickGatewayDirect(...)\r\n      2) Signed: Gateway signs off-chain; any relayer calls submitClickWithSig(...)\r\n  - Uses OpenZeppelin v4.9.3 imports (pinned)\r\n*/\r\n\r\nimport \"@openzeppelin/contracts/access/AccessControl.sol\";\r\nimport \"@openzeppelin/contracts/security/ReentrancyGuard.sol\";\r\nimport \"@openzeppelin/contracts/utils/cryptography/ECDSA.sol\";\r\n\r\ncontract AdFraudPBFT is AccessControl, ReentrancyGuard {\r\n    using ECDSA for bytes32;\r\n\r\n    // Roles\r\n    bytes32 public constant GATEWAY_ROLE = keccak256(\"GATEWAY_ROLE\");\r\n    bytes32 public constant AUDITOR_ROLE = keccak256(\"AUDITOR_ROLE\");\r\n\r\n    // Events\r\n    event TreasuryChanged(address indexed oldTreasury, address indexed newTreasury);\r\n    event GatewayStaked(address indexed gateway, uint256 amount, uint256 totalStake);\r\n    event GatewayUnstaked(address indexed gateway, uint256 amount, uint256 totalStake);\r\n    event GatewaySlashed(address indexed gateway, uint256 slashAmount, bytes32 evidenceCIDHash);\r\n\r\n    event CampaignCreated(uint256 indexed campaignId, address indexed advertiser, uint256 cpcWei, uint256 initialBudget, string meta);\r\n    event CampaignFunded(uint256 indexed campaignId, uint256 amount, uint256 newBudget);\r\n    event CampaignPaused(uint256 indexed campaignId, bool paused);\r\n\r\n    event ClickRecorded(\r\n        bytes32 indexed clickHash,\r\n        uint256 indexed campaignId,\r\n        address indexed publisher,\r\n        address gateway,\r\n        uint256 cpcWei,\r\n        uint256 timestamp,\r\n        bytes32 metadataCIDHash\r\n    );\r\n\r\n    event PublisherWithdrawal(address indexed publisher, uint256 amount);\r\n\r\n    // Data\r\n    struct Campaign {\r\n        address advertiser;\r\n        uint256 cpcWei;\r\n        uint256 budgetWei;\r\n        bool paused;\r\n        string meta;\r\n    }\r\n\r\n    mapping(address => uint256) public stakeOf;\r\n    mapping(uint256 => Campaign) public campaigns;\r\n    uint256 public nextCampaignId;\r\n    mapping(bytes32 => bool) public usedClickHash;\r\n    mapping(address => uint256) public publisherBalance;\r\n\r\n    uint256 public minGatewayStakeWei = 0.5 ether;\r\n    address public treasury;\r\n\r\n    // timestamp replay protection\r\n    uint256 public maxClickAgeSeconds = 86400; // 1 day\r\n    uint256 public maxClickFutureSeconds = 120; // 2 minutes\r\n\r\n    modifier onlyAdminOrAuditor() {\r\n        require(hasRole(DEFAULT_ADMIN_ROLE, _msgSender()) || hasRole(AUDITOR_ROLE, _msgSender()), \"Not admin/auditor\");\r\n        _;\r\n    }\r\n\r\n    constructor(address _treasury) {\r\n        require(_treasury != address(0), \"Treasury required\");\r\n        _grantRole(DEFAULT_ADMIN_ROLE, msg.sender);\r\n        treasury = _treasury;\r\n        emit TreasuryChanged(address(0), _treasury);\r\n    }\r\n\r\n    // --- Admin setters ---\r\n    function setMinGatewayStake(uint256 newMin) external onlyRole(DEFAULT_ADMIN_ROLE) {\r\n        minGatewayStakeWei = newMin;\r\n    }\r\n\r\n    function setTreasury(address newTreasury) external onlyRole(DEFAULT_ADMIN_ROLE) {\r\n        require(newTreasury != address(0), \"Zero address\");\r\n        emit TreasuryChanged(treasury, newTreasury);\r\n        treasury = newTreasury;\r\n    }\r\n\r\n    function setMaxClickAgeSeconds(uint256 secs) external onlyRole(DEFAULT_ADMIN_ROLE) {\r\n        maxClickAgeSeconds = secs;\r\n    }\r\n    function setMaxClickFutureSeconds(uint256 secs) external onlyRole(DEFAULT_ADMIN_ROLE) {\r\n        maxClickFutureSeconds = secs;\r\n    }\r\n\r\n    // --- Gateway staking ---\r\n    function stakeGateway() external payable onlyRole(GATEWAY_ROLE) {\r\n        require(msg.value > 0, \"No ETH sent\");\r\n        stakeOf[msg.sender] += msg.value;\r\n        emit GatewayStaked(msg.sender, msg.value, stakeOf[msg.sender]);\r\n    }\r\n\r\n    function unstakeGateway(uint256 amount) external nonReentrant onlyRole(GATEWAY_ROLE) {\r\n        require(amount > 0 && amount <= stakeOf[msg.sender], \"Invalid amount\");\r\n        uint256 remaining = stakeOf[msg.sender] - amount;\r\n        // either fully unstake or keep >= minGatewayStakeWei\r\n        require(remaining == 0 || remaining >= minGatewayStakeWei, \"Below min stake\");\r\n        stakeOf[msg.sender] = remaining;\r\n        (bool ok, ) = payable(msg.sender).call{value: amount}(\"\");\r\n        require(ok, \"ETH transfer failed\");\r\n        emit GatewayUnstaked(msg.sender, amount, remaining);\r\n    }\r\n\r\n    // Slash by basis points (bps). 10000 bps = 100%\r\n    function slashGateway(address gateway, uint16 pctBps, bytes32 evidenceCIDHash) external onlyAdminOrAuditor {\r\n        require(gateway != address(0), \"Invalid gateway\");\r\n        require(pctBps > 0 && pctBps <= 10000, \"Bps out of range\");\r\n        uint256 stake = stakeOf[gateway];\r\n        require(stake > 0, \"No stake\");\r\n        uint256 slashAmt = (stake * pctBps) / 10000;\r\n        stakeOf[gateway] = stake - slashAmt;\r\n        (bool ok, ) = payable(treasury).call{value: slashAmt}(\"\");\r\n        require(ok, \"Slash transfer failed\");\r\n        emit GatewaySlashed(gateway, slashAmt, evidenceCIDHash);\r\n    }\r\n\r\n    // --- Campaigns ---\r\n    function createCampaign(uint256 cpcWei, string calldata meta) external payable returns (uint256 id) {\r\n        require(cpcWei > 0, \"CPC must be > 0\");\r\n        require(msg.value > 0, \"Initial budget required\");\r\n        id = nextCampaignId++;\r\n        campaigns[id] = Campaign({\r\n            advertiser: msg.sender,\r\n            cpcWei: cpcWei,\r\n            budgetWei: msg.value,\r\n            paused: false,\r\n            meta: meta\r\n        });\r\n        emit CampaignCreated(id, msg.sender, cpcWei, msg.value, meta);\r\n    }\r\n\r\n    function fundCampaign(uint256 campaignId) external payable {\r\n        Campaign storage c = campaigns[campaignId];\r\n        require(c.advertiser != address(0), \"Campaign missing\");\r\n        require(msg.value > 0, \"No funds\");\r\n        c.budgetWei += msg.value;\r\n        emit CampaignFunded(campaignId, msg.value, c.budgetWei);\r\n    }\r\n\r\n    function setCampaignPaused(uint256 campaignId, bool paused) external {\r\n        Campaign storage c = campaigns[campaignId];\r\n        require(c.advertiser == msg.sender || hasRole(DEFAULT_ADMIN_ROLE, msg.sender), \"Not authorized\");\r\n        c.paused = paused;\r\n        emit CampaignPaused(campaignId, paused);\r\n    }\r\n\r\n    // --- Click submission helpers ---\r\n    // Include chainId + contract address in hash to avoid cross-contract replay\r\n    function computeClickMessageHash(\r\n        bytes32 clickHash,\r\n        uint256 campaignId,\r\n        address publisher,\r\n        address gateway,\r\n        uint256 timestamp,\r\n        bytes32 metadataCIDHash\r\n    ) public view returns (bytes32) {\r\n        return keccak256(abi.encodePacked(block.chainid, address(this), \"AD_CLICK_V1\", clickHash, campaignId, publisher, gateway, timestamp, metadataCIDHash));\r\n    }\r\n\r\n    // Direct gateway submission (gateway sends tx)\r\n    function submitClickGatewayDirect(\r\n        bytes32 clickHash,\r\n        uint256 campaignId,\r\n        address publisher,\r\n        uint256 timestamp,\r\n        bytes32 metadataCIDHash\r\n    ) external onlyRole(GATEWAY_ROLE) {\r\n        _submitClickCore(clickHash, campaignId, publisher, msg.sender, timestamp, metadataCIDHash);\r\n    }\r\n\r\n    // Signed submission: gateway signs the computeClickMessageHash(...) off-chain.\r\n    // Any relayer can call this with the signature.\r\n    function submitClickWithSig(\r\n        bytes32 clickHash,\r\n        uint256 campaignId,\r\n        address publisher,\r\n        address gateway,\r\n        uint256 timestamp,\r\n        bytes32 metadataCIDHash,\r\n        bytes calldata signature\r\n    ) external {\r\n        bytes32 rawHash = computeClickMessageHash(clickHash, campaignId, publisher, gateway, timestamp, metadataCIDHash);\r\n        bytes32 ethSigned = ECDSA.toEthSignedMessageHash(rawHash); // v4.9.3 supports bytes32 overload\r\n        address recovered = ECDSA.recover(ethSigned, signature);\r\n        require(recovered == gateway, \"Invalid signature\");\r\n        require(hasRole(GATEWAY_ROLE, gateway), \"Signer not gateway\");\r\n\r\n        // timestamp replay protection\r\n        if (timestamp > block.timestamp) {\r\n            require(timestamp - block.timestamp <= maxClickFutureSeconds, \"Timestamp too far in future\");\r\n        } else {\r\n            require(block.timestamp - timestamp <= maxClickAgeSeconds, \"Timestamp too old\");\r\n        }\r\n\r\n        _submitClickCore(clickHash, campaignId, publisher, gateway, timestamp, metadataCIDHash);\r\n    }\r\n\r\n    // core shared logic\r\n    function _submitClickCore(\r\n        bytes32 clickHash,\r\n        uint256 campaignId,\r\n        address publisher,\r\n        address gateway,\r\n        uint256 timestamp,\r\n        bytes32 metadataCIDHash\r\n    ) internal {\r\n        require(publisher != address(0), \"Zero publisher\");\r\n        require(!usedClickHash[clickHash], \"Duplicate click\");\r\n        Campaign storage c = campaigns[campaignId];\r\n        require(c.advertiser != address(0), \"Campaign missing\");\r\n        require(!c.paused, \"Campaign paused\");\r\n        require(c.budgetWei >= c.cpcWei, \"Insufficient budget\");\r\n\r\n        usedClickHash[clickHash] = true; // effects before interactions\r\n        c.budgetWei -= c.cpcWei;\r\n        publisherBalance[publisher] += c.cpcWei;\r\n\r\n        emit ClickRecorded(clickHash, campaignId, publisher, gateway, c.cpcWei, timestamp, metadataCIDHash);\r\n    }\r\n\r\n    // Publisher withdraw\r\n    function withdrawPublisher(uint256 amount) external nonReentrant {\r\n        require(amount > 0 && amount <= publisherBalance[msg.sender], \"Invalid amount\");\r\n        publisherBalance[msg.sender] -= amount;\r\n        (bool ok, ) = payable(msg.sender).call{value: amount}(\"\");\r\n        require(ok, \"ETH transfer failed\");\r\n        emit PublisherWithdrawal(msg.sender, amount);\r\n    }\r\n\r\n    // Views\r\n    function getCampaign(uint256 campaignId) external view returns (\r\n        address advertiser,\r\n        uint256 cpcWei,\r\n        uint256 budgetWei,\r\n        bool paused,\r\n        string memory meta\r\n    ) {\r\n        Campaign storage c = campaigns[campaignId];\r\n        return (c.advertiser, c.cpcWei, c.budgetWei, c.paused, c.meta);\r\n    }\r\n\r\n    // allow receiving ETH (for funding)\r\n    receive() external payable {}\r\n    fallback() external payable {}\r\n}\r\n",
  "sourcePath": "C:\\Users\\ABHINAV\\OneDrive\\Desktop\\blockchain\\contracts\\AdFraudPBFT.sol",
  "compiler": {
    "name": "solc",
    "version": "0.8.21+commit.d9974bed.Emscripten.clang"
  },
  "schemaVersion": "3.4.16",
  "updatedAt": "2025-09-08T10:51:09.680Z",
  "networkType": "ethereum",
  "devdoc": {
    "events": {
      "RoleAdminChanged(bytes32,bytes32,bytes32)": {
        "details": "Emitted when `newAdminRole` is set as ``role``'s admin role, replacing `previousAdminRole` `DEFAULT_ADMIN_ROLE` is the starting admin for all roles, despite {RoleAdminChanged} not being emitted signaling this. _Available since v3.1._"
      },
      "RoleGranted(bytes32,address,address)": {
        "details": "Emitted when `account` is granted `role`. `sender` is the account that originated the contract call, an admin role bearer except when using {AccessControl-_setupRole}."
      },
      "RoleRevoked(bytes32,address,address)": {
        "details": "Emitted when `account` is revoked `role`. `sender` is the account that originated the contract call:   - if using `revokeRole`, it is the admin role bearer   - if using `renounceRole`, it is the role bearer (i.e. `account`)"
      }
    },
    "kind": "dev",
    "methods": {
      "getRoleAdmin(bytes32)": {
        "details": "Returns the admin role that controls `role`. See {grantRole} and {revokeRole}. To change a role's admin, use {_setRoleAdmin}."
      },
      "grantRole(bytes32,address)": {
        "details": "Grants `role` to `account`. If `account` had not been already granted `role`, emits a {RoleGranted} event. Requirements: - the caller must have ``role``'s admin role. May emit a {RoleGranted} event."
      },
      "hasRole(bytes32,address)": {
        "details": "Returns `true` if `account` has been granted `role`."
      },
      "renounceRole(bytes32,address)": {
        "details": "Revokes `role` from the calling account. Roles are often managed via {grantRole} and {revokeRole}: this function's purpose is to provide a mechanism for accounts to lose their privileges if they are compromised (such as when a trusted device is misplaced). If the calling account had been revoked `role`, emits a {RoleRevoked} event. Requirements: - the caller must be `account`. May emit a {RoleRevoked} event."
      },
      "revokeRole(bytes32,address)": {
        "details": "Revokes `role` from `account`. If `account` had been granted `role`, emits a {RoleRevoked} event. Requirements: - the caller must have ``role``'s admin role. May emit a {RoleRevoked} event."
      },
      "supportsInterface(bytes4)": {
        "details": "See {IERC165-supportsInterface}."
      }
    },
    "version": 1
  },
  "userdoc": {
    "kind": "user",
    "methods": {},
    "version": 1
  }
}