{
  "contractName": "AdFraudPBFT",
  "abi": [
    {
      "inputs": [
        {
          "internalType": "address",
          "name": "_treasury",
          "type": "address"
        }
      ],
      "stateMutability": "nonpayable",
      "type": "constructor"
    },
    {
      "anonymous": false,
      "inputs": [
        {
          "indexed": true,
          "internalType": "uint256",
          "name": "campaignId",
          "type": "uint256"
        },
        {
          "indexed": true,
          "internalType": "address",
          "name": "advertiser",
          "type": "address"
        },
        {
          "indexed": false,
          "internalType": "uint256",
          "name": "cpcWei",
          "type": "uint256"
        },
        {
          "indexed": false,
          "internalType": "uint256",
          "name": "initialBudget",
          "type": "uint256"
        },
        {
          "indexed": false,
          "internalType": "string",
          "name": "meta",
          "type": "string"
        }
      ],
      "name": "CampaignCreated",
      "type": "event"
    },
    {
      "anonymous": false,
      "inputs": [
        {
          "indexed": true,
          "internalType": "uint256",
          "name": "campaignId",
          "type": "uint256"
        },
        {
          "indexed": false,
          "internalType": "uint256",
          "name": "amount",
          "type": "uint256"
        },
        {
          "indexed": false,
          "internalType": "uint256",
          "name": "newBudget",
          "type": "uint256"
        }
      ],
      "name": "CampaignFunded",
      "type": "event"
    },
    {
      "anonymous": false,
      "inputs": [
        {
          "indexed": true,
          "internalType": "uint256",
          "name": "campaignId",
          "type": "uint256"
        },
        {
          "indexed": false,
          "internalType": "bool",
          "name": "paused",
          "type": "bool"
        }
      ],
      "name": "CampaignPaused",
      "type": "event"
    },
    {
      "anonymous": false,
      "inputs": [
        {
          "indexed": true,
          "internalType": "bytes32",
          "name": "clickHash",
          "type": "bytes32"
        },
        {
          "indexed": true,
          "internalType": "uint256",
          "name": "campaignId",
          "type": "uint256"
        },
        {
          "indexed": true,
          "internalType": "address",
          "name": "publisher",
          "type": "address"
        },
        {
          "indexed": false,
          "internalType": "address",
          "name": "gateway",
          "type": "address"
        },
        {
          "indexed": false,
          "internalType": "uint256",
          "name": "cpcWei",
          "type": "uint256"
        },
        {
          "indexed": false,
          "internalType": "uint256",
          "name": "timestamp",
          "type": "uint256"
        },
        {
          "indexed": false,
          "internalType": "bytes32",
          "name": "metadataCIDHash",
          "type": "bytes32"
        }
      ],
      "name": "ClickRecorded",
      "type": "event"
    },
    {
      "anonymous": false,
      "inputs": [
        {
          "indexed": true,
          "internalType": "bytes32",
          "name": "txHash",
          "type": "bytes32"
        },
        {
          "indexed": false,
          "internalType": "bool",
          "name": "approved",
          "type": "bool"
        },
        {
          "indexed": false,
          "internalType": "uint256",
          "name": "voteCount",
          "type": "uint256"
        }
      ],
      "name": "ConsensusReached",
      "type": "event"
    },
    {
      "anonymous": false,
      "inputs": [
        {
          "indexed": true,
          "internalType": "bytes32",
          "name": "txHash",
          "type": "bytes32"
        },
        {
          "indexed": true,
          "internalType": "address",
          "name": "node",
          "type": "address"
        },
        {
          "indexed": false,
          "internalType": "bool",
          "name": "vote",
          "type": "bool"
        }
      ],
      "name": "ConsensusVote",
      "type": "event"
    },
    {
      "anonymous": false,
      "inputs": [
        {
          "indexed": true,
          "internalType": "address",
          "name": "gateway",
          "type": "address"
        },
        {
          "indexed": false,
          "internalType": "uint256",
          "name": "slashAmount",
          "type": "uint256"
        },
        {
          "indexed": false,
          "internalType": "bytes32",
          "name": "evidenceCIDHash",
          "type": "bytes32"
        }
      ],
      "name": "GatewaySlashed",
      "type": "event"
    },
    {
      "anonymous": false,
      "inputs": [
        {
          "indexed": true,
          "internalType": "address",
          "name": "gateway",
          "type": "address"
        },
        {
          "indexed": false,
          "internalType": "uint256",
          "name": "amount",
          "type": "uint256"
        },
        {
          "indexed": false,
          "internalType": "uint256",
          "name": "totalStake",
          "type": "uint256"
        }
      ],
      "name": "GatewayStaked",
      "type": "event"
    },
    {
      "anonymous": false,
      "inputs": [
        {
          "indexed": true,
          "internalType": "address",
          "name": "gateway",
          "type": "address"
        },
        {
          "indexed": false,
          "internalType": "uint256",
          "name": "amount",
          "type": "uint256"
        },
        {
          "indexed": false,
          "internalType": "uint256",
          "name": "totalStake",
          "type": "uint256"
        }
      ],
      "name": "GatewayUnstaked",
      "type": "event"
    },
    {
      "anonymous": false,
      "inputs": [
        {
          "indexed": true,
          "internalType": "address",
          "name": "node",
          "type": "address"
        },
        {
          "indexed": false,
          "internalType": "uint256",
          "name": "stake",
          "type": "uint256"
        }
      ],
      "name": "PBFTNodeAdded",
      "type": "event"
    },
    {
      "anonymous": false,
      "inputs": [
        {
          "indexed": true,
          "internalType": "address",
          "name": "node",
          "type": "address"
        }
      ],
      "name": "PBFTNodeRemoved",
      "type": "event"
    },
    {
      "anonymous": false,
      "inputs": [
        {
          "indexed": true,
          "internalType": "address",
          "name": "publisher",
          "type": "address"
        },
        {
          "indexed": false,
          "internalType": "uint256",
          "name": "amount",
          "type": "uint256"
        }
      ],
      "name": "PublisherWithdrawal",
      "type": "event"
    },
    {
      "anonymous": false,
      "inputs": [
        {
          "indexed": true,
          "internalType": "bytes32",
          "name": "role",
          "type": "bytes32"
        },
        {
          "indexed": true,
          "internalType": "bytes32",
          "name": "previousAdminRole",
          "type": "bytes32"
        },
        {
          "indexed": true,
          "internalType": "bytes32",
          "name": "newAdminRole",
          "type": "bytes32"
        }
      ],
      "name": "RoleAdminChanged",
      "type": "event"
    },
    {
      "anonymous": false,
      "inputs": [
        {
          "indexed": true,
          "internalType": "bytes32",
          "name": "role",
          "type": "bytes32"
        },
        {
          "indexed": true,
          "internalType": "address",
          "name": "account",
          "type": "address"
        },
        {
          "indexed": true,
          "internalType": "address",
          "name": "sender",
          "type": "address"
        }
      ],
      "name": "RoleGranted",
      "type": "event"
    },
    {
      "anonymous": false,
      "inputs": [
        {
          "indexed": true,
          "internalType": "bytes32",
          "name": "role",
          "type": "bytes32"
        },
        {
          "indexed": true,
          "internalType": "address",
          "name": "account",
          "type": "address"
        },
        {
          "indexed": true,
          "internalType": "address",
          "name": "sender",
          "type": "address"
        }
      ],
      "name": "RoleRevoked",
      "type": "event"
    },
    {
      "anonymous": false,
      "inputs": [
        {
          "indexed": true,
          "internalType": "bytes32",
          "name": "txHash",
          "type": "bytes32"
        },
        {
          "indexed": true,
          "internalType": "uint256",
          "name": "campaignId",
          "type": "uint256"
        },
        {
          "indexed": true,
          "internalType": "address",
          "name": "publisher",
          "type": "address"
        }
      ],
      "name": "TransactionExecuted",
      "type": "event"
    },
    {
      "anonymous": false,
      "inputs": [
        {
          "indexed": true,
          "internalType": "bytes32",
          "name": "txHash",
          "type": "bytes32"
        },
        {
          "indexed": true,
          "internalType": "uint256",
          "name": "campaignId",
          "type": "uint256"
        },
        {
          "indexed": true,
          "internalType": "address",
          "name": "publisher",
          "type": "address"
        }
      ],
      "name": "TransactionProposed",
      "type": "event"
    },
    {
      "anonymous": false,
      "inputs": [
        {
          "indexed": true,
          "internalType": "address",
          "name": "oldTreasury",
          "type": "address"
        },
        {
          "indexed": true,
          "internalType": "address",
          "name": "newTreasury",
          "type": "address"
        }
      ],
      "name": "TreasuryChanged",
      "type": "event"
    },
    {
      "stateMutability": "payable",
      "type": "fallback",
      "payable": true
    },
    {
      "inputs": [],
      "name": "AUDITOR_ROLE",
      "outputs": [
        {
          "internalType": "bytes32",
          "name": "",
          "type": "bytes32"
        }
      ],
      "stateMutability": "view",
      "type": "function",
      "constant": true
    },
    {
      "inputs": [],
      "name": "DEFAULT_ADMIN_ROLE",
      "outputs": [
        {
          "internalType": "bytes32",
          "name": "",
          "type": "bytes32"
        }
      ],
      "stateMutability": "view",
      "type": "function",
      "constant": true
    },
    {
      "inputs": [],
      "name": "GATEWAY_ROLE",
      "outputs": [
        {
          "internalType": "bytes32",
          "name": "",
          "type": "bytes32"
        }
      ],
      "stateMutability": "view",
      "type": "function",
      "constant": true
    },
    {
      "inputs": [],
      "name": "PBFT_NODE_ROLE",
      "outputs": [
        {
          "internalType": "bytes32",
          "name": "",
          "type": "bytes32"
        }
      ],
      "stateMutability": "view",
      "type": "function",
      "constant": true
    },
    {
      "inputs": [
        {
          "internalType": "uint256",
          "name": "",
          "type": "uint256"
        }
      ],
      "name": "activeNodes",
      "outputs": [
        {
          "internalType": "address",
          "name": "",
          "type": "address"
        }
      ],
      "stateMutability": "view",
      "type": "function",
      "constant": true
    },
    {
      "inputs": [
        {
          "internalType": "uint256",
          "name": "",
          "type": "uint256"
        }
      ],
      "name": "campaignIds",
      "outputs": [
        {
          "internalType": "uint256",
          "name": "",
          "type": "uint256"
        }
      ],
      "stateMutability": "view",
      "type": "function",
      "constant": true
    },
    {
      "inputs": [
        {
          "internalType": "uint256",
          "name": "",
          "type": "uint256"
        }
      ],
      "name": "campaigns",
      "outputs": [
        {
          "internalType": "address",
          "name": "advertiser",
          "type": "address"
        },
        {
          "internalType": "uint256",
          "name": "cpcWei",
          "type": "uint256"
        },
        {
          "internalType": "uint256",
          "name": "budgetWei",
          "type": "uint256"
        },
        {
          "internalType": "bool",
          "name": "paused",
          "type": "bool"
        },
        {
          "internalType": "string",
          "name": "meta",
          "type": "string"
        }
      ],
      "stateMutability": "view",
      "type": "function",
      "constant": true
    },
    {
      "inputs": [],
      "name": "consensusTimeoutSeconds",
      "outputs": [
        {
          "internalType": "uint256",
          "name": "",
          "type": "uint256"
        }
      ],
      "stateMutability": "view",
      "type": "function",
      "constant": true
    },
    {
      "inputs": [
        {
          "internalType": "bytes32",
          "name": "role",
          "type": "bytes32"
        }
      ],
      "name": "getRoleAdmin",
      "outputs": [
        {
          "internalType": "bytes32",
          "name": "",
          "type": "bytes32"
        }
      ],
      "stateMutability": "view",
      "type": "function",
      "constant": true
    },
    {
      "inputs": [
        {
          "internalType": "bytes32",
          "name": "role",
          "type": "bytes32"
        },
        {
          "internalType": "address",
          "name": "account",
          "type": "address"
        }
      ],
      "name": "grantRole",
      "outputs": [],
      "stateMutability": "nonpayable",
      "type": "function"
    },
    {
      "inputs": [
        {
          "internalType": "bytes32",
          "name": "role",
          "type": "bytes32"
        },
        {
          "internalType": "address",
          "name": "account",
          "type": "address"
        }
      ],
      "name": "hasRole",
      "outputs": [
        {
          "internalType": "bool",
          "name": "",
          "type": "bool"
        }
      ],
      "stateMutability": "view",
      "type": "function",
      "constant": true
    },
    {
      "inputs": [],
      "name": "maxClickAgeSeconds",
      "outputs": [
        {
          "internalType": "uint256",
          "name": "",
          "type": "uint256"
        }
      ],
      "stateMutability": "view",
      "type": "function",
      "constant": true
    },
    {
      "inputs": [],
      "name": "maxClickFutureSeconds",
      "outputs": [
        {
          "internalType": "uint256",
          "name": "",
          "type": "uint256"
        }
      ],
      "stateMutability": "view",
      "type": "function",
      "constant": true
    },
    {
      "inputs": [],
      "name": "minGatewayStakeWei",
      "outputs": [
        {
          "internalType": "uint256",
          "name": "",
          "type": "uint256"
        }
      ],
      "stateMutability": "view",
      "type": "function",
      "constant": true
    },
    {
      "inputs": [],
      "name": "minPBFTStake",
      "outputs": [
        {
          "internalType": "uint256",
          "name": "",
          "type": "uint256"
        }
      ],
      "stateMutability": "view",
      "type": "function",
      "constant": true
    },
    {
      "inputs": [
        {
          "internalType": "address",
          "name": "",
          "type": "address"
        }
      ],
      "name": "pbftNodes",
      "outputs": [
        {
          "internalType": "address",
          "name": "nodeAddress",
          "type": "address"
        },
        {
          "internalType": "bool",
          "name": "isActive",
          "type": "bool"
        },
        {
          "internalType": "uint256",
          "name": "stake",
          "type": "uint256"
        },
        {
          "internalType": "uint256",
          "name": "votesParticipated",
          "type": "uint256"
        },
        {
          "internalType": "uint256",
          "name": "correctVotes",
          "type": "uint256"
        }
      ],
      "stateMutability": "view",
      "type": "function",
      "constant": true
    },
    {
      "inputs": [
        {
          "internalType": "bytes32",
          "name": "",
          "type": "bytes32"
        }
      ],
      "name": "pendingTransactions",
      "outputs": [
        {
          "internalType": "bytes32",
          "name": "txHash",
          "type": "bytes32"
        },
        {
          "internalType": "uint256",
          "name": "campaignId",
          "type": "uint256"
        },
        {
          "internalType": "address",
          "name": "publisher",
          "type": "address"
        },
        {
          "internalType": "address",
          "name": "gateway",
          "type": "address"
        },
        {
          "internalType": "uint256",
          "name": "timestamp",
          "type": "uint256"
        },
        {
          "internalType": "bytes32",
          "name": "metadataCIDHash",
          "type": "bytes32"
        },
        {
          "internalType": "uint256",
          "name": "approveVotes",
          "type": "uint256"
        },
        {
          "internalType": "uint256",
          "name": "rejectVotes",
          "type": "uint256"
        },
        {
          "internalType": "uint256",
          "name": "totalVotes",
          "type": "uint256"
        },
        {
          "internalType": "uint256",
          "name": "requiredVotes",
          "type": "uint256"
        },
        {
          "internalType": "bool",
          "name": "executed",
          "type": "bool"
        },
        {
          "internalType": "bool",
          "name": "consensusReached",
          "type": "bool"
        },
        {
          "internalType": "uint256",
          "name": "proposalTime",
          "type": "uint256"
        }
      ],
      "stateMutability": "view",
      "type": "function",
      "constant": true
    },
    {
      "inputs": [
        {
          "internalType": "uint256",
          "name": "",
          "type": "uint256"
        }
      ],
      "name": "pendingTxHashes",
      "outputs": [
        {
          "internalType": "bytes32",
          "name": "",
          "type": "bytes32"
        }
      ],
      "stateMutability": "view",
      "type": "function",
      "constant": true
    },
    {
      "inputs": [
        {
          "internalType": "address",
          "name": "",
          "type": "address"
        }
      ],
      "name": "publisherBalance",
      "outputs": [
        {
          "internalType": "uint256",
          "name": "",
          "type": "uint256"
        }
      ],
      "stateMutability": "view",
      "type": "function",
      "constant": true
    },
    {
      "inputs": [
        {
          "internalType": "bytes32",
          "name": "role",
          "type": "bytes32"
        },
        {
          "internalType": "address",
          "name": "account",
          "type": "address"
        }
      ],
      "name": "renounceRole",
      "outputs": [],
      "stateMutability": "nonpayable",
      "type": "function"
    },
    {
      "inputs": [],
      "name": "requiredConsensusPercentage",
      "outputs": [
        {
          "internalType": "uint256",
          "name": "",
          "type": "uint256"
        }
      ],
      "stateMutability": "view",
      "type": "function",
      "constant": true
    },
    {
      "inputs": [
        {
          "internalType": "bytes32",
          "name": "role",
          "type": "bytes32"
        },
        {
          "internalType": "address",
          "name": "account",
          "type": "address"
        }
      ],
      "name": "revokeRole",
      "outputs": [],
      "stateMutability": "nonpayable",
      "type": "function"
    },
    {
      "inputs": [
        {
          "internalType": "address",
          "name": "",
          "type": "address"
        }
      ],
      "name": "stakeOf",
      "outputs": [
        {
          "internalType": "uint256",
          "name": "",
          "type": "uint256"
        }
      ],
      "stateMutability": "view",
      "type": "function",
      "constant": true
    },
    {
      "inputs": [
        {
          "internalType": "bytes4",
          "name": "interfaceId",
          "type": "bytes4"
        }
      ],
      "name": "supportsInterface",
      "outputs": [
        {
          "internalType": "bool",
          "name": "",
          "type": "bool"
        }
      ],
      "stateMutability": "view",
      "type": "function",
      "constant": true
    },
    {
      "inputs": [],
      "name": "treasury",
      "outputs": [
        {
          "internalType": "address",
          "name": "",
          "type": "address"
        }
      ],
      "stateMutability": "view",
      "type": "function",
      "constant": true
    },
    {
      "inputs": [
        {
          "internalType": "bytes32",
          "name": "",
          "type": "bytes32"
        }
      ],
      "name": "usedClickHash",
      "outputs": [
        {
          "internalType": "bool",
          "name": "",
          "type": "bool"
        }
      ],
      "stateMutability": "view",
      "type": "function",
      "constant": true
    },
    {
      "stateMutability": "payable",
      "type": "receive",
      "payable": true
    },
    {
      "inputs": [
        {
          "internalType": "uint256",
          "name": "newMin",
          "type": "uint256"
        }
      ],
      "name": "setMinGatewayStake",
      "outputs": [],
      "stateMutability": "nonpayable",
      "type": "function"
    },
    {
      "inputs": [
        {
          "internalType": "address",
          "name": "newTreasury",
          "type": "address"
        }
      ],
      "name": "setTreasury",
      "outputs": [],
      "stateMutability": "nonpayable",
      "type": "function"
    },
    {
      "inputs": [
        {
          "internalType": "uint256",
          "name": "secs",
          "type": "uint256"
        }
      ],
      "name": "setMaxClickAgeSeconds",
      "outputs": [],
      "stateMutability": "nonpayable",
      "type": "function"
    },
    {
      "inputs": [
        {
          "internalType": "uint256",
          "name": "secs",
          "type": "uint256"
        }
      ],
      "name": "setMaxClickFutureSeconds",
      "outputs": [],
      "stateMutability": "nonpayable",
      "type": "function"
    },
    {
      "inputs": [
        {
          "internalType": "uint256",
          "name": "percentage",
          "type": "uint256"
        }
      ],
      "name": "setRequiredConsensusPercentage",
      "outputs": [],
      "stateMutability": "nonpayable",
      "type": "function"
    },
    {
      "inputs": [
        {
          "internalType": "uint256",
          "name": "timeoutSeconds",
          "type": "uint256"
        }
      ],
      "name": "setConsensusTimeout",
      "outputs": [],
      "stateMutability": "nonpayable",
      "type": "function"
    },
    {
      "inputs": [
        {
          "internalType": "uint256",
          "name": "minStake",
          "type": "uint256"
        }
      ],
      "name": "setMinPBFTStake",
      "outputs": [],
      "stateMutability": "nonpayable",
      "type": "function"
    },
    {
      "inputs": [
        {
          "internalType": "address",
          "name": "node",
          "type": "address"
        }
      ],
      "name": "addPBFTNode",
      "outputs": [],
      "stateMutability": "payable",
      "type": "function",
      "payable": true
    },
    {
      "inputs": [
        {
          "internalType": "address",
          "name": "node",
          "type": "address"
        }
      ],
      "name": "removePBFTNode",
      "outputs": [],
      "stateMutability": "nonpayable",
      "type": "function"
    },
    {
      "inputs": [],
      "name": "stakePBFTNode",
      "outputs": [],
      "stateMutability": "payable",
      "type": "function",
      "payable": true
    },
    {
      "inputs": [],
      "name": "stakeGateway",
      "outputs": [],
      "stateMutability": "payable",
      "type": "function",
      "payable": true
    },
    {
      "inputs": [
        {
          "internalType": "uint256",
          "name": "amount",
          "type": "uint256"
        }
      ],
      "name": "unstakeGateway",
      "outputs": [],
      "stateMutability": "nonpayable",
      "type": "function"
    },
    {
      "inputs": [
        {
          "internalType": "address",
          "name": "gateway",
          "type": "address"
        },
        {
          "internalType": "uint16",
          "name": "pctBps",
          "type": "uint16"
        },
        {
          "internalType": "bytes32",
          "name": "evidenceCIDHash",
          "type": "bytes32"
        }
      ],
      "name": "slashGateway",
      "outputs": [],
      "stateMutability": "nonpayable",
      "type": "function"
    },
    {
      "inputs": [
        {
          "internalType": "uint256",
          "name": "campaignId",
          "type": "uint256"
        },
        {
          "internalType": "uint256",
          "name": "cpcWei",
          "type": "uint256"
        },
        {
          "internalType": "string",
          "name": "meta",
          "type": "string"
        }
      ],
      "name": "createCampaign",
      "outputs": [
        {
          "internalType": "uint256",
          "name": "id",
          "type": "uint256"
        }
      ],
      "stateMutability": "payable",
      "type": "function",
      "payable": true
    },
    {
      "inputs": [
        {
          "internalType": "uint256",
          "name": "campaignId",
          "type": "uint256"
        }
      ],
      "name": "fundCampaign",
      "outputs": [],
      "stateMutability": "payable",
      "type": "function",
      "payable": true
    },
    {
      "inputs": [
        {
          "internalType": "uint256",
          "name": "campaignId",
          "type": "uint256"
        },
        {
          "internalType": "bool",
          "name": "paused",
          "type": "bool"
        }
      ],
      "name": "setCampaignPaused",
      "outputs": [],
      "stateMutability": "nonpayable",
      "type": "function"
    },
    {
      "inputs": [
        {
          "internalType": "bytes32",
          "name": "clickHash",
          "type": "bytes32"
        },
        {
          "internalType": "uint256",
          "name": "campaignId",
          "type": "uint256"
        },
        {
          "internalType": "address",
          "name": "publisher",
          "type": "address"
        },
        {
          "internalType": "uint256",
          "name": "timestamp",
          "type": "uint256"
        },
        {
          "internalType": "bytes32",
          "name": "metadataCIDHash",
          "type": "bytes32"
        }
      ],
      "name": "proposeTransaction",
      "outputs": [
        {
          "internalType": "bytes32",
          "name": "",
          "type": "bytes32"
        }
      ],
      "stateMutability": "nonpayable",
      "type": "function"
    },
    {
      "inputs": [
        {
          "internalType": "bytes32",
          "name": "txHash",
          "type": "bytes32"
        },
        {
          "internalType": "bool",
          "name": "approve",
          "type": "bool"
        }
      ],
      "name": "voteOnTransaction",
      "outputs": [],
      "stateMutability": "nonpayable",
      "type": "function"
    },
    {
      "inputs": [
        {
          "internalType": "bytes32",
          "name": "txHash",
          "type": "bytes32"
        }
      ],
      "name": "cleanupExpiredTransaction",
      "outputs": [],
      "stateMutability": "nonpayable",
      "type": "function"
    },
    {
      "inputs": [
        {
          "internalType": "bytes32",
          "name": "clickHash",
          "type": "bytes32"
        },
        {
          "internalType": "uint256",
          "name": "campaignId",
          "type": "uint256"
        },
        {
          "internalType": "address",
          "name": "publisher",
          "type": "address"
        },
        {
          "internalType": "address",
          "name": "gateway",
          "type": "address"
        },
        {
          "internalType": "uint256",
          "name": "timestamp",
          "type": "uint256"
        },
        {
          "internalType": "bytes32",
          "name": "metadataCIDHash",
          "type": "bytes32"
        }
      ],
      "name": "computeClickMessageHash",
      "outputs": [
        {
          "internalType": "bytes32",
          "name": "",
          "type": "bytes32"
        }
      ],
      "stateMutability": "view",
      "type": "function",
      "constant": true
    },
    {
      "inputs": [
        {
          "internalType": "bytes32",
          "name": "clickHash",
          "type": "bytes32"
        },
        {
          "internalType": "uint256",
          "name": "campaignId",
          "type": "uint256"
        },
        {
          "internalType": "address",
          "name": "publisher",
          "type": "address"
        },
        {
          "internalType": "uint256",
          "name": "timestamp",
          "type": "uint256"
        },
        {
          "internalType": "bytes32",
          "name": "metadataCIDHash",
          "type": "bytes32"
        }
      ],
      "name": "submitClickGatewayDirect",
      "outputs": [],
      "stateMutability": "nonpayable",
      "type": "function"
    },
    {
      "inputs": [
        {
          "internalType": "bytes32",
          "name": "clickHash",
          "type": "bytes32"
        },
        {
          "internalType": "uint256",
          "name": "campaignId",
          "type": "uint256"
        },
        {
          "internalType": "address",
          "name": "publisher",
          "type": "address"
        },
        {
          "internalType": "address",
          "name": "gateway",
          "type": "address"
        },
        {
          "internalType": "uint256",
          "name": "timestamp",
          "type": "uint256"
        },
        {
          "internalType": "bytes32",
          "name": "metadataCIDHash",
          "type": "bytes32"
        },
        {
          "internalType": "bytes",
          "name": "signature",
          "type": "bytes"
        }
      ],
      "name": "submitClickWithSig",
      "outputs": [],
      "stateMutability": "nonpayable",
      "type": "function"
    },
    {
      "inputs": [
        {
          "internalType": "uint256",
          "name": "amount",
          "type": "uint256"
        }
      ],
      "name": "withdrawPublisher",
      "outputs": [],
      "stateMutability": "nonpayable",
      "type": "function"
    },
    {
      "inputs": [
        {
          "internalType": "uint256",
          "name": "campaignId",
          "type": "uint256"
        }
      ],
      "name": "getCampaign",
      "outputs": [
        {
          "internalType": "address",
          "name": "advertiser",
          "type": "address"
        },
        {
          "internalType": "uint256",
          "name": "cpcWei",
          "type": "uint256"
        },
        {
          "internalType": "uint256",
          "name": "budgetWei",
          "type": "uint256"
        },
        {
          "internalType": "bool",
          "name": "paused",
          "type": "bool"
        },
        {
          "internalType": "string",
          "name": "meta",
          "type": "string"
        }
      ],
      "stateMutability": "view",
      "type": "function",
      "constant": true
    },
    {
      "inputs": [],
      "name": "getCampaignIds",
      "outputs": [
        {
          "internalType": "uint256[]",
          "name": "",
          "type": "uint256[]"
        }
      ],
      "stateMutability": "view",
      "type": "function",
      "constant": true
    },
    {
      "inputs": [],
      "name": "getActiveNodes",
      "outputs": [
        {
          "internalType": "address[]",
          "name": "",
          "type": "address[]"
        }
      ],
      "stateMutability": "view",
      "type": "function",
      "constant": true
    },
    {
      "inputs": [],
      "name": "getPendingTransactionHashes",
      "outputs": [
        {
          "internalType": "bytes32[]",
          "name": "",
          "type": "bytes32[]"
        }
      ],
      "stateMutability": "view",
      "type": "function",
      "constant": true
    },
    {
      "inputs": [
        {
          "internalType": "bytes32",
          "name": "txHash",
          "type": "bytes32"
        }
      ],
      "name": "getPendingTransactionDetails",
      "outputs": [
        {
          "internalType": "uint256",
          "name": "campaignId",
          "type": "uint256"
        },
        {
          "internalType": "address",
          "name": "publisher",
          "type": "address"
        },
        {
          "internalType": "address",
          "name": "gateway",
          "type": "address"
        },
        {
          "internalType": "uint256",
          "name": "approveVotes",
          "type": "uint256"
        },
        {
          "internalType": "uint256",
          "name": "rejectVotes",
          "type": "uint256"
        },
        {
          "internalType": "uint256",
          "name": "totalVotes",
          "type": "uint256"
        },
        {
          "internalType": "uint256",
          "name": "requiredVotes",
          "type": "uint256"
        },
        {
          "internalType": "bool",
          "name": "executed",
          "type": "bool"
        },
        {
          "internalType": "bool",
          "name": "consensusReached",
          "type": "bool"
        },
        {
          "internalType": "uint256",
          "name": "proposalTime",
          "type": "uint256"
        }
      ],
      "stateMutability": "view",
      "type": "function",
      "constant": true
    },
    {
      "inputs": [
        {
          "internalType": "bytes32",
          "name": "txHash",
          "type": "bytes32"
        },
        {
          "internalType": "address",
          "name": "node",
          "type": "address"
        }
      ],
      "name": "hasNodeVoted",
      "outputs": [
        {
          "internalType": "bool",
          "name": "",
          "type": "bool"
        }
      ],
      "stateMutability": "view",
      "type": "function",
      "constant": true
    },
    {
      "inputs": [
        {
          "internalType": "bytes32",
          "name": "txHash",
          "type": "bytes32"
        },
        {
          "internalType": "address",
          "name": "node",
          "type": "address"
        }
      ],
      "name": "getNodeVote",
      "outputs": [
        {
          "internalType": "bool",
          "name": "",
          "type": "bool"
        }
      ],
      "stateMutability": "view",
      "type": "function",
      "constant": true
    },
    {
      "inputs": [
        {
          "internalType": "address",
          "name": "node",
          "type": "address"
        }
      ],
      "name": "getNodeStats",
      "outputs": [
        {
          "internalType": "bool",
          "name": "isActive",
          "type": "bool"
        },
        {
          "internalType": "uint256",
          "name": "stake",
          "type": "uint256"
        },
        {
          "internalType": "uint256",
          "name": "votesParticipated",
          "type": "uint256"
        },
        {
          "internalType": "uint256",
          "name": "correctVotes",
          "type": "uint256"
        },
        {
          "internalType": "uint256",
          "name": "accuracyPercentage",
          "type": "uint256"
        }
      ],
      "stateMutability": "view",
      "type": "function",
      "constant": true
    }
  ],
  "bytecode": "0x60806040526043600b55610258600c55670de0b6b3a7640000600d556706f05b59d3b20000600e556201518060105560786011553480156200004057600080fd5b5060405162004206380380620042068339810160408190526200006391620001b4565b600180556001600160a01b038116620000b65760405162461bcd60e51b8152602060048201526011602482015270151c99585cdd5c9e481c995c5d5a5c9959607a1b604482015260640160405180910390fd5b620000c360003362000113565b600f80546001600160a01b0319166001600160a01b0383169081179091556040516000907f8c3aa5f43a388513435861bf27dfad7829cd248696fed367c62d441f62954496908290a350620001e6565b6000828152602081815260408083206001600160a01b038516845290915290205460ff16620001b0576000828152602081815260408083206001600160a01b03851684529091529020805460ff191660011790556200016f3390565b6001600160a01b0316816001600160a01b0316837f2f8788117e7eff1d82e926ec794901d17c78024a50270940304540a733656f0d60405160405180910390a45b5050565b600060208284031215620001c757600080fd5b81516001600160a01b0381168114620001df57600080fd5b9392505050565b61401080620001f66000396000f3fe60806040526004361061034a5760003560e01c80638a339029116101b9578063b38f949b116100f6578063d547741f1161009a578063eeed60b31161006c578063eeed60b314610c6f578063f0f4426014610c85578063f6c0169c14610ca5578063f94c3f2314610cad57005b8063d547741f14610bec578063dc17027d14610c0c578063de45db4f14610c22578063eba41f6b14610c4f57005b8063c11be1b8116100d3578063c11be1b814610b40578063c14af16214610b8a578063c50d6dd914610baa578063cf173b9014610bcc57005b8063b38f949b14610a3b578063b51eb90314610b18578063b9800c5914610b2057005b806399d5185e1161015d578063a69819541161013a578063a6981954146109c3578063b0f0a7f4146109e3578063b2f5fcaf146109f9578063b369359d14610a1b57005b806399d5185e1461096e578063a217fddf1461098e578063a435a357146109a357005b806391d148541161019657806391d14854146108fb57806392bd38bc1461091b57806392d59fc11461092e57806396f9d9831461094e57005b80638a339029146108a85780638dbb25f7146108c857806391cbf44e146108e857005b80635e534494116102875780636d89b3311161022b5780637dca77a1116102085780637dca77a11461074a57806385134bc614610852578063852f522e1461086857806389eb494f1461088857005b80636d89b331146106e35780636e1d616e146106f657806372abdce41461072a57005b806361a32d181161026457806361a32d181461065357806361d027b314610669578063656123d8146106a15780636b51e919146106c157005b80635e534494146105955780636031df0a146105b5578063605663621461063d57005b80632f2ff15d116102ee57806342623360116102cb57806342623360146104e957806347c9e8f61461051657806352b391b21461052b5780635598f8cc1461057557005b80632f2ff15d146104895780633213d179146104a957806336568abe146104c957005b8063141961bc11610327578063141961bc146103ca5780631634b3e7146103fb5780631b4160d71461042b578063248a9ca31461044b57005b806301ffc9a714610353578063022a91d4146103885780630faef430146103aa57005b3661035157005b005b34801561035f57600080fd5b5061037361036e366004613854565b610ccd565b60405190151581526020015b60405180910390f35b34801561039457600080fd5b5061039d610d04565b60405161037f919061387e565b3480156103b657600080fd5b506103736103c53660046138de565b610d5c565b3480156103d657600080fd5b506103ea6103e536600461390a565b610dfb565b60405161037f959493929190613973565b34801561040757600080fd5b5061037361041636600461390a565b60056020526000908152604090205460ff1681565b34801561043757600080fd5b506103516104463660046139f5565b610ec5565b34801561045757600080fd5b5061047b61046636600461390a565b60009081526020819052604090206001015490565b60405190815260200161037f565b34801561049557600080fd5b506103516104a43660046138de565b6110cc565b3480156104b557600080fd5b506103516104c436600461390a565b6110f6565b3480156104d557600080fd5b506103516104e43660046138de565b6112c3565b3480156104f557600080fd5b5061047b610504366004613a80565b60026020526000908152604090205481565b34801561052257600080fd5b5061039d611341565b34801561053757600080fd5b5061054b610546366004613a80565b611397565b6040805195151586526020860194909452928401919091526060830152608082015260a00161037f565b34801561058157600080fd5b506103ea61059036600461390a565b611412565b3480156105a157600080fd5b506103516105b0366004613a9b565b6114f7565b3480156105c157600080fd5b5061060b6105d0366004613a80565b60076020526000908152604090208054600182015460028301546003909301546001600160a01b03831693600160a01b90930460ff16929085565b604080516001600160a01b0390961686529315156020860152928401919091526060830152608082015260a00161037f565b34801561064957600080fd5b5061047b600e5481565b34801561065f57600080fd5b5061047b600d5481565b34801561067557600080fd5b50600f54610689906001600160a01b031681565b6040516001600160a01b03909116815260200161037f565b3480156106ad57600080fd5b506103516106bc366004613af1565b61178a565b3480156106cd57600080fd5b506106d6611841565b60405161037f9190613b14565b6103516106f1366004613a80565b6118a2565b34801561070257600080fd5b5061047b7f59a1c48e5837ad7a7f3dcedcbe129bf3249ec4fbf651fd4f5e2600ead39fe2f581565b34801561073657600080fd5b5061035161074536600461390a565b611ac7565b34801561075657600080fd5b506107e061076536600461390a565b600960208190526000918252604090912080546001820154600283015460038401546004850154600586015460068701546007880154600889015499890154600a8a0154600b909a0154989a97996001600160a01b0397881699979096169794969395929491939192909160ff80831692610100900416908d565b604080519d8e5260208e019c909c526001600160a01b039a8b169b8d019b909b529890971660608b015260808a019590955260a089019390935260c088019190915260e0870152610100860152610120850152151561014084015215156101608301526101808201526101a00161037f565b34801561085e57600080fd5b5061047b60115481565b34801561087457600080fd5b5061047b610883366004613b55565b611ad8565b34801561089457600080fd5b5061047b6108a3366004613b9c565b611e21565b3480156108b457600080fd5b506103516108c336600461390a565b611eaa565b3480156108d457600080fd5b506103516108e336600461390a565b611ebb565b61047b6108f6366004613bf4565b612010565b34801561090757600080fd5b506103736109163660046138de565b61225e565b61035161092936600461390a565b612287565b34801561093a57600080fd5b5061035161094936600461390a565b612371565b34801561095a57600080fd5b5061068961096936600461390a565b61258d565b34801561097a57600080fd5b5061035161098936600461390a565b6125b7565b34801561099a57600080fd5b5061047b600081565b3480156109af57600080fd5b506103516109be36600461390a565b6125c8565b3480156109cf57600080fd5b5061047b6109de36600461390a565b61262b565b3480156109ef57600080fd5b5061047b600c5481565b348015610a0557600080fd5b5061047b600080516020613f9b83398151915281565b348015610a2757600080fd5b5061047b610a3636600461390a565b61264c565b348015610a4757600080fd5b50610abe610a5636600461390a565b600090815260096020819052604090912060018101546002820154600383015460068401546007850154600886015496860154600a870154600b9097015495986001600160a01b039586169895909416969295919493909260ff808216936101009092041691565b604080519a8b526001600160a01b03998a1660208c015297909816968901969096526060880194909452608087019290925260a086015260c0850152151560e084015215156101008301526101208201526101400161037f565b61035161265c565b348015610b2c57600080fd5b50610351610b3b36600461390a565b612721565b348015610b4c57600080fd5b50610373610b5b3660046138de565b60008281526009602090815260408083206001600160a01b0385168452600c0190915290205460ff1692915050565b348015610b9657600080fd5b50610351610ba5366004613af1565b612732565b348015610bb657600080fd5b5061047b600080516020613fbb83398151915281565b348015610bd857600080fd5b50610351610be7366004613b55565b612b3d565b348015610bf857600080fd5b50610351610c073660046138de565b612b6b565b348015610c1857600080fd5b5061047b60105481565b348015610c2e57600080fd5b5061047b610c3d366004613a80565b60066020526000908152604090205481565b348015610c5b57600080fd5b50610351610c6a36600461390a565b612b90565b348015610c7b57600080fd5b5061047b600b5481565b348015610c9157600080fd5b50610351610ca0366004613a80565b612ba1565b610351612c4e565b348015610cb957600080fd5b50610351610cc8366004613a80565b612d04565b60006001600160e01b03198216637965db0b60e01b1480610cfe57506301ffc9a760e01b6001600160e01b03198316145b92915050565b6060600a805480602002602001604051908101604052809291908181526020018280548015610d5257602002820191906000526020600020905b815481526020019060010190808311610d3e575b5050505050905090565b60008281526009602090815260408083206001600160a01b0385168452600c0190915281205460ff16610dcb5760405162461bcd60e51b8152602060048201526012602482015271139bd919481a185cc81b9bdd081d9bdd195960721b60448201526064015b60405180910390fd5b5060008281526009602090815260408083206001600160a01b0385168452600d0190915290205460ff1692915050565b6003602081905260009182526040909120805460018201546002830154938301546004840180546001600160a01b03909416959294929360ff9092169291610e4290613c47565b80601f0160208091040260200160405190810160405280929190818152602001828054610e6e90613c47565b8015610ebb5780601f10610e9057610100808354040283529160200191610ebb565b820191906000526020600020905b815481529060010190602001808311610e9e57829003601f168201915b5050505050905085565b6000610ed5898989898989611e21565b7f19457468657265756d205369676e6564204d6573736167653a0a3332000000006000908152601c829052603c8120919250506000610f4a8286868080601f016020809104026020016040519081016040528093929190818152602001838380828437600092019190915250612f7992505050565b9050876001600160a01b0316816001600160a01b031614610fa15760405162461bcd60e51b8152602060048201526011602482015270496e76616c6964207369676e617475726560781b6044820152606401610dc2565b610fb9600080516020613fbb8339815191528961225e565b610ffa5760405162461bcd60e51b81526020600482015260126024820152715369676e6572206e6f74206761746577617960701b6044820152606401610dc2565b428711156110625760115461100f4289613c97565b111561105d5760405162461bcd60e51b815260206004820152601b60248201527f54696d657374616d7020746f6f2066617220696e2066757475726500000000006044820152606401610dc2565b6110b1565b60105461106f8842613c97565b11156110b15760405162461bcd60e51b8152602060048201526011602482015270151a5b595cdd185b5c081d1bdbc81bdb19607a1b6044820152606401610dc2565b6110be8b8b8b8a8a611ad8565b505050505050505050505050565b6000828152602081905260409020600101546110e781612f9d565b6110f18383612fa7565b505050565b6110fe61302b565b600080516020613fbb83398151915261111681612f9d565b6000821180156111355750336000908152600260205260409020548211155b6111725760405162461bcd60e51b815260206004820152600e60248201526d125b9d985b1a5908185b5bdd5b9d60921b6044820152606401610dc2565b3360009081526002602052604081205461118d908490613c97565b905080158061119e5750600e548110155b6111dc5760405162461bcd60e51b815260206004820152600f60248201526e42656c6f77206d696e207374616b6560881b6044820152606401610dc2565b336000818152600260205260408082208490555190919085908381818185875af1925050503d806000811461122d576040519150601f19603f3d011682016040523d82523d6000602084013e611232565b606091505b50509050806112795760405162461bcd60e51b8152602060048201526013602482015272115512081d1c985b9cd9995c8819985a5b1959606a1b6044820152606401610dc2565b604080518581526020810184905233917f5a234eb1aa7640e15f81f6a544d81e5df683782173bdc5edeeeed061c42f3040910160405180910390a25050506112c060018055565b50565b6001600160a01b03811633146113335760405162461bcd60e51b815260206004820152602f60248201527f416363657373436f6e74726f6c3a2063616e206f6e6c792072656e6f756e636560448201526e103937b632b9903337b91039b2b63360891b6064820152608401610dc2565b61133d8282613084565b5050565b60606004805480602002602001604051908101604052809291908181526020018280548015610d525760200282019190600052602060002090815481526020019060010190808311610d3e575050505050905090565b6001600160a01b0381166000908152600760205260408120600281015482918291829182918290156113e557600282015460038301546113d8906064613caa565b6113e29190613cc1565b90505b815460018301546002840154600390940154600160a01b90920460ff169a90995092975095509350915050565b600081815260036020819052604082208054600182015460028301549383015460048401805487968796879660609691956001600160a01b0390911694919360ff9091169190819061146390613c47565b80601f016020809104026020016040519081016040528092919081815260200182805461148f90613c47565b80156114dc5780601f106114b1576101008083540402835291602001916114dc565b820191906000526020600020905b8154815290600101906020018083116114bf57829003601f168201915b50505050509050955095509550955095505091939590929450565b61150260003361225e565b8061153257506115327f59a1c48e5837ad7a7f3dcedcbe129bf3249ec4fbf651fd4f5e2600ead39fe2f53361225e565b6115725760405162461bcd60e51b81526020600482015260116024820152702737ba1030b236b4b717b0bab234ba37b960791b6044820152606401610dc2565b6001600160a01b0383166115ba5760405162461bcd60e51b815260206004820152600f60248201526e496e76616c6964206761746577617960881b6044820152606401610dc2565b60008261ffff161180156115d457506127108261ffff1611155b6116135760405162461bcd60e51b815260206004820152601060248201526f427073206f7574206f662072616e676560801b6044820152606401610dc2565b6001600160a01b038316600090815260026020526040902054806116645760405162461bcd60e51b81526020600482015260086024820152674e6f207374616b6560c01b6044820152606401610dc2565b600061271061167761ffff861684613caa565b6116819190613cc1565b905061168d8183613c97565b6001600160a01b0386811660009081526002602052604080822093909355600f54925190929091169083908381818185875af1925050503d80600081146116f0576040519150601f19603f3d011682016040523d82523d6000602084013e6116f5565b606091505b505090508061173e5760405162461bcd60e51b815260206004820152601560248201527414db185cda081d1c985b9cd9995c8819985a5b1959605a1b6044820152606401610dc2565b60408051838152602081018690526001600160a01b038816917f12ca20a179e8472ecdc6a3b0c7081673a1d8f6008d5e76f92d788936ac8fed1d910160405180910390a2505050505050565b600082815260036020526040902080546001600160a01b03163314806117b657506117b660003361225e565b6117f35760405162461bcd60e51b815260206004820152600e60248201526d139bdd08185d5d1a1bdc9a5e995960921b6044820152606401610dc2565b60038101805460ff191683151590811790915560405190815283907feb034104a3d72bdb4a17b6628fc9eaa19a0e4523003d2698e0fd72a430e2eb2f906020015b60405180910390a2505050565b60606008805480602002602001604051908101604052809291908181526020018280548015610d5257602002820191906000526020600020905b81546001600160a01b0316815260019091019060200180831161187b575050505050905090565b60006118ad81612f9d565b6001600160a01b0382166118fa5760405162461bcd60e51b8152602060048201526014602482015273496e76616c6964206e6f6465206164647265737360601b6044820152606401610dc2565b600d543410156119415760405162461bcd60e51b8152602060048201526012602482015271496e73756666696369656e74207374616b6560701b6044820152606401610dc2565b6001600160a01b038216600090815260076020526040902054600160a01b900460ff16156119a75760405162461bcd60e51b81526020600482015260136024820152724e6f646520616c72656164792061637469766560681b6044820152606401610dc2565b6040805160a0810182526001600160a01b0380851680835260016020808501828152348688019081526000606088018181526080890182815287835260079095529881209751885493511515600160a01b026001600160a81b0319909416971696909617919091178655518583015594516002850155935160039093019290925560088054938401815590527ff3f7a9fe364faab93b216da50a3214154f22a0a2b415b23a84c8169e8b636ee390910180546001600160a01b0319169091179055611a80600080516020613f9b83398151915283612fa7565b816001600160a01b03167f7444d3411da8fe6fd4d0229de8e98c716472e2c384ed5a55e36a960a575859d434604051611abb91815260200190565b60405180910390a25050565b6000611ad281612f9d565b50600d55565b6000600080516020613fbb833981519152611af281612f9d565b60085460031115611b455760405162461bcd60e51b815260206004820152601760248201527f496e73756666696369656e742050424654206e6f6465730000000000000000006044820152606401610dc2565b60008781526009602052604090205415611ba15760405162461bcd60e51b815260206004820152601c60248201527f5472616e73616374696f6e20616c72656164792070726f706f736564000000006044820152606401610dc2565b6001600160a01b038516611be85760405162461bcd60e51b815260206004820152600e60248201526d2d32b93790383ab13634b9b432b960911b6044820152606401610dc2565b60008781526005602052604090205460ff1615611c395760405162461bcd60e51b815260206004820152600f60248201526e4475706c696361746520636c69636b60881b6044820152606401610dc2565b600086815260036020526040902080546001600160a01b0316611c915760405162461bcd60e51b815260206004820152601060248201526f43616d706169676e206d697373696e6760801b6044820152606401610dc2565b600381015460ff1615611cd85760405162461bcd60e51b815260206004820152600f60248201526e10d85b5c185a59db881c185d5cd959608a1b6044820152606401610dc2565b806001015481600201541015611d265760405162461bcd60e51b8152602060048201526013602482015272125b9cdd59999a58da595b9d08189d5919d95d606a1b6044820152606401610dc2565b600b54600854600091606491611d3c9190613caa565b611d469190613cc1565b905080600003611d54575060015b60008981526009602081905260408083208c815560018082018d90556002820180546001600160a01b038e166001600160a01b0319918216811790925560038401805490911633179055600483018c9055600583018b905593820186905542600b830155600a8054918201815585527fc65a7bb8d6351c1cf70c95a316cc6a92839c986682d98bc35f958f4883f9d2a8018d9055905190928b918d917fe4eea94acf96bbf92835e94f170c7693795cf71a25eeb3b9252df6f47beadd5391a4509798975050505050505050565b60408051466020808301919091526bffffffffffffffffffffffff1930606090811b8216848601526a41445f434c49434b5f563160a81b6054850152605f84019a909a52607f83019890985295881b8716609f8201529390961b90941660b383015260c782015260e7808201939093528351808203909301835261010701909252805191012090565b6000611eb581612f9d565b50600c55565b611ec361302b565b600081118015611ee25750336000908152600660205260409020548111155b611f1f5760405162461bcd60e51b815260206004820152600e60248201526d125b9d985b1a5908185b5bdd5b9d60921b6044820152606401610dc2565b3360009081526006602052604081208054839290611f3e908490613c97565b9091555050604051600090339083908381818185875af1925050503d8060008114611f85576040519150601f19603f3d011682016040523d82523d6000602084013e611f8a565b606091505b5050905080611fd15760405162461bcd60e51b8152602060048201526013602482015272115512081d1c985b9cd9995c8819985a5b1959606a1b6044820152606401610dc2565b60405182815233907f61136c8a797391fcd52c5552ea96089e2814d10eb84c76d221f58761125c43829060200160405180910390a2506112c060018055565b60008084116120535760405162461bcd60e51b815260206004820152600f60248201526e0435043206d757374206265203e203608c1b6044820152606401610dc2565b600034116120a35760405162461bcd60e51b815260206004820152601760248201527f496e697469616c206275646765742072657175697265640000000000000000006044820152606401610dc2565b6000858152600360205260409020546001600160a01b0316156121085760405162461bcd60e51b815260206004820152601a60248201527f43616d706169676e20494420616c7265616479206578697374730000000000006044820152606401610dc2565b6040518060a00160405280336001600160a01b0316815260200185815260200134815260200160001515815260200184848080601f016020809104026020016040519081016040528093929190818152602001838380828437600092018290525093909452505087815260036020818152604092839020855181546001600160a01b0319166001600160a01b039091161781559085015160018201559184015160028301556060840151908201805460ff1916911515919091179055608083015190915060048201906121db9082613d47565b5050600480546001810182556000919091527f8a35acfbc15ff81a39ae7d344fd709f28e8600b4aa8c65c6b64bfe7fe36bd19b0186905550604051339086907f2e64da7e06e88ccd84d69eccb21119ca81e40e5648611e89edfe888c8fa625979061224d908890349089908990613e07565b60405180910390a350929392505050565b6000918252602082815260408084206001600160a01b0393909316845291905290205460ff1690565b600081815260036020526040902080546001600160a01b03166122df5760405162461bcd60e51b815260206004820152601060248201526f43616d706169676e206d697373696e6760801b6044820152606401610dc2565b6000341161231a5760405162461bcd60e51b81526020600482015260086024820152674e6f2066756e647360c01b6044820152606401610dc2565b3481600201600082825461232e9190613e44565b9091555050600281015460405183917f42a74499fc8265a526ec8ab4b3e4a4a06e50ef92c084b2634b356f72a5ee44af91611abb91348252602082015260400190565b600081815260096020526040902080546123c55760405162461bcd60e51b8152602060048201526015602482015274151c985b9cd858dd1a5bdb881b9bdd08199bdd5b99605a1b6044820152606401610dc2565b600a81015460ff161561241a5760405162461bcd60e51b815260206004820152601c60248201527f5472616e73616374696f6e20616c7265616479206578656375746564000000006044820152606401610dc2565b600c5481600b015461242c9190613e44565b421161247a5760405162461bcd60e51b815260206004820152601760248201527f5472616e73616374696f6e206e6f7420657870697265640000000000000000006044820152606401610dc2565b600a810154610100900460ff166124d457600a8101805461ff00191661010017905560068101546040518391600080516020613f7b833981519152916124cb91600015158252602082015260400190565b60405180910390a25b60005b600a548110156110f15782600a82815481106124f5576124f5613e57565b90600052602060002001540361257b57600a805461251590600190613c97565b8154811061252557612525613e57565b9060005260206000200154600a828154811061254357612543613e57565b600091825260209091200155600a80548061256057612560613e6d565b60019003818190600052602060002001600090559055505050565b8061258581613e83565b9150506124d7565b6008818154811061259d57600080fd5b6000918252602090912001546001600160a01b0316905081565b60006125c281612f9d565b50601155565b60006125d381612f9d565b6032821180156125e4575060648211155b6126255760405162461bcd60e51b8152602060048201526012602482015271496e76616c69642070657263656e7461676560701b6044820152606401610dc2565b50600b55565b600a818154811061263b57600080fd5b600091825260209091200154905081565b6004818154811061263b57600080fd5b600080516020613fbb83398151915261267481612f9d565b600034116126b25760405162461bcd60e51b815260206004820152600b60248201526a139bc8115512081cd95b9d60aa1b6044820152606401610dc2565b33600090815260026020526040812080543492906126d1908490613e44565b909155505033600081815260026020908152604091829020548251348152918201527f2a0a18dbee476b481250f5d3f9111f59cc104ea823d038e3ec86007e250e1429910160405180910390a250565b600061272c81612f9d565b50600e55565b61274a600080516020613f9b8339815191523361225e565b6127865760405162461bcd60e51b815260206004820152600d60248201526c4e6f742050424654206e6f646560981b6044820152606401610dc2565b33600090815260076020526040902054600160a01b900460ff166127bc5760405162461bcd60e51b8152600401610dc290613e9c565b600082815260096020526040902080546128105760405162461bcd60e51b8152602060048201526015602482015274151c985b9cd858dd1a5bdb881b9bdd08199bdd5b99605a1b6044820152606401610dc2565b600a81015460ff16156128655760405162461bcd60e51b815260206004820152601c60248201527f5472616e73616374696f6e20616c7265616479206578656375746564000000006044820152606401610dc2565b600a810154610100900460ff16156128bf5760405162461bcd60e51b815260206004820152601960248201527f436f6e73656e73757320616c72656164792072656163686564000000000000006044820152606401610dc2565b336000908152600c8201602052604090205460ff16156129115760405162461bcd60e51b815260206004820152600d60248201526c105b1c9958591e481d9bdd1959609a1b6044820152606401610dc2565b600c5481600b01546129239190613e44565b42111561296a5760405162461bcd60e51b8152602060048201526015602482015274159bdd1a5b99c81c195c9a5bd908195e1c1a5c9959605a1b6044820152606401610dc2565b336000908152600c8201602090815260408083208054600160ff1991821617909155600d850190925282208054909116841515179055600882018054916129b083613e83565b919050555081156129d7576006810180549060006129cd83613e83565b91905055506129ef565b6007810180549060006129e983613e83565b91905055505b336000908152600760205260408120600201805491612a0d83613e83565b90915550506040518215158152339084907fa8934b5de653d266c6e8c00e5f0c2944c8272eb5ec79ad1e248784378f290ef69060200160405180910390a38060090154816006015410612aa157600a8101805461ff001916610100179055612a74836130e9565b6006810154604080516001815260208101929092528491600080516020613f7b8339815191529101611834565b8060090154816007015410612af057600a8101805461ff00191661010017905560078101546040518491600080516020613f7b8339815191529161183491600015158252602082015260400190565b6008805490820154036110f157600a8101805461ff00191661010017905560068101546040518491600080516020613f7b8339815191529161183491600015158252602082015260400190565b600080516020613fbb833981519152612b5581612f9d565b612b628686868686611ad8565b50505050505050565b600082815260208190526040902060010154612b8681612f9d565b6110f18383613084565b6000612b9b81612f9d565b50601055565b6000612bac81612f9d565b6001600160a01b038216612bf15760405162461bcd60e51b815260206004820152600c60248201526b5a65726f206164647265737360a01b6044820152606401610dc2565b600f546040516001600160a01b038085169216907f8c3aa5f43a388513435861bf27dfad7829cd248696fed367c62d441f6295449690600090a350600f80546001600160a01b0319166001600160a01b0392909216919091179055565b600080516020613f9b833981519152612c6681612f9d565b60003411612ca45760405162461bcd60e51b815260206004820152600b60248201526a139bc8115512081cd95b9d60aa1b6044820152606401610dc2565b33600090815260076020526040902054600160a01b900460ff16612cda5760405162461bcd60e51b8152600401610dc290613e9c565b3360009081526007602052604081206001018054349290612cfc908490613e44565b909155505050565b6000612d0f81612f9d565b6001600160a01b038216600090815260076020526040902054600160a01b900460ff16612d4e5760405162461bcd60e51b8152600401610dc290613e9c565b6001600160a01b0382166000908152600760205260409020805460ff60a01b19169055612d89600080516020613f9b83398151915283613084565b60005b600854811015612e9157826001600160a01b031660088281548110612db357612db3613e57565b6000918252602090912001546001600160a01b031603612e7f5760088054612ddd90600190613c97565b81548110612ded57612ded613e57565b600091825260209091200154600880546001600160a01b039092169183908110612e1957612e19613e57565b9060005260206000200160006101000a8154816001600160a01b0302191690836001600160a01b031602179055506008805480612e5857612e58613e6d565b600082815260209020810160001990810180546001600160a01b0319169055019055612e91565b80612e8981613e83565b915050612d8c565b506001600160a01b038216600081815260076020526040808220600101805490839055905190929083908381818185875af1925050503d8060008114612ef3576040519150601f19603f3d011682016040523d82523d6000602084013e612ef8565b606091505b5050905080612f3f5760405162461bcd60e51b815260206004820152601360248201527214dd185ad9481c99599d5b990819985a5b1959606a1b6044820152606401610dc2565b6040516001600160a01b038516907f4c936f1d6ad9be801a3669e17d6a45930396095f4a955fc4264641dfa559dd3190600090a250505050565b6000806000612f8885856133f3565b91509150612f9581613438565b509392505050565b6112c08133613582565b612fb1828261225e565b61133d576000828152602081815260408083206001600160a01b03851684529091529020805460ff19166001179055612fe73390565b6001600160a01b0316816001600160a01b0316837f2f8788117e7eff1d82e926ec794901d17c78024a50270940304540a733656f0d60405160405180910390a45050565b60026001540361307d5760405162461bcd60e51b815260206004820152601f60248201527f5265656e7472616e637947756172643a207265656e7472616e742063616c6c006044820152606401610dc2565b6002600155565b61308e828261225e565b1561133d576000828152602081815260408083206001600160a01b0385168085529252808320805460ff1916905551339285917ff6391f5c32d9c69d2a47ea670b442974b53935d1edc7fd64eb21e047a839171b9190a45050565b6000818152600960205260409020600a81015460ff161561313f5760405162461bcd60e51b815260206004820152601060248201526f105b1c9958591e48195e1958dd5d195960821b6044820152606401610dc2565b600a810154610100900460ff166131905760405162461bcd60e51b815260206004820152601560248201527410dbdb9cd95b9cdd5cc81b9bdd081c995858da1959605a1b6044820152606401610dc2565b8060090154816006015410156131e85760405162461bcd60e51b815260206004820152601b60248201527f496e73756666696369656e7420617070726f76616c20766f74657300000000006044820152606401610dc2565b600a81018054600160ff199182168117909255825460009081526005602090815260408083208054909416851790935583850154825260039052908120918201546002830180549192909161323e908490613c97565b9091555050600181015460028301546001600160a01b031660009081526006602052604081208054909190613274908490613e44565b90915550600090505b6008548110156133345760006008828154811061329c5761329c613e57565b60009182526020808320909101546001600160a01b0316808352600c870190915260409091205490915060ff1680156132ef57506001600160a01b0381166000908152600d8501602052604090205460ff165b15613321576001600160a01b038116600090815260076020526040812060030180549161331b83613e83565b91905055505b508061332c81613e83565b91505061327d565b506002820154600180840154845460038601549285015460048701546005880154604080516001600160a01b03978816815260208101949094528301919091526060820152929093169290917f15bd2785d9e0f1a4f550fd9a407c568547cef52bdfc00b65e71608b09a3fccbc9060800160405180910390a4600282015460018301546040516001600160a01b039092169185907fb1501502bdf1db3ae6ec83dc18980edaa17e48334465830f6a9502375483050290600090a4505050565b60008082516041036134295760208301516040840151606085015160001a61341d878285856135db565b94509450505050613431565b506000905060025b9250929050565b600081600481111561344c5761344c613ec5565b036134545750565b600181600481111561346857613468613ec5565b036134b55760405162461bcd60e51b815260206004820152601860248201527f45434453413a20696e76616c6964207369676e617475726500000000000000006044820152606401610dc2565b60028160048111156134c9576134c9613ec5565b036135165760405162461bcd60e51b815260206004820152601f60248201527f45434453413a20696e76616c6964207369676e6174757265206c656e677468006044820152606401610dc2565b600381600481111561352a5761352a613ec5565b036112c05760405162461bcd60e51b815260206004820152602260248201527f45434453413a20696e76616c6964207369676e6174757265202773272076616c604482015261756560f01b6064820152608401610dc2565b61358c828261225e565b61133d576135998161369f565b6135a48360206136b1565b6040516020016135b5929190613edb565b60408051601f198184030181529082905262461bcd60e51b8252610dc291600401613f50565b6000807f7fffffffffffffffffffffffffffffff5d576e7357a4501ddfe92f46681b20a08311156136125750600090506003613696565b6040805160008082526020820180845289905260ff881692820192909252606081018690526080810185905260019060a0016020604051602081039080840390855afa158015613666573d6000803e3d6000fd5b5050604051601f1901519150506001600160a01b03811661368f57600060019250925050613696565b9150600090505b94509492505050565b6060610cfe6001600160a01b03831660145b606060006136c0836002613caa565b6136cb906002613e44565b67ffffffffffffffff8111156136e3576136e3613ce3565b6040519080825280601f01601f19166020018201604052801561370d576020820181803683370190505b509050600360fc1b8160008151811061372857613728613e57565b60200101906001600160f81b031916908160001a905350600f60fb1b8160018151811061375757613757613e57565b60200101906001600160f81b031916908160001a905350600061377b846002613caa565b613786906001613e44565b90505b60018111156137fe576f181899199a1a9b1b9c1cb0b131b232b360811b85600f16601081106137ba576137ba613e57565b1a60f81b8282815181106137d0576137d0613e57565b60200101906001600160f81b031916908160001a90535060049490941c936137f781613f63565b9050613789565b50831561384d5760405162461bcd60e51b815260206004820181905260248201527f537472696e67733a20686578206c656e67746820696e73756666696369656e746044820152606401610dc2565b9392505050565b60006020828403121561386657600080fd5b81356001600160e01b03198116811461384d57600080fd5b6020808252825182820181905260009190848201906040850190845b818110156138b65783518352928401929184019160010161389a565b50909695505050505050565b80356001600160a01b03811681146138d957600080fd5b919050565b600080604083850312156138f157600080fd5b82359150613901602084016138c2565b90509250929050565b60006020828403121561391c57600080fd5b5035919050565b60005b8381101561393e578181015183820152602001613926565b50506000910152565b6000815180845261395f816020860160208601613923565b601f01601f19169290920160200192915050565b60018060a01b0386168152846020820152836040820152821515606082015260a0608082015260006139a860a0830184613947565b979650505050505050565b60008083601f8401126139c557600080fd5b50813567ffffffffffffffff8111156139dd57600080fd5b60208301915083602082850101111561343157600080fd5b60008060008060008060008060e0898b031215613a1157600080fd5b8835975060208901359650613a2860408a016138c2565b9550613a3660608a016138c2565b94506080890135935060a0890135925060c089013567ffffffffffffffff811115613a6057600080fd5b613a6c8b828c016139b3565b999c989b5096995094979396929594505050565b600060208284031215613a9257600080fd5b61384d826138c2565b600080600060608486031215613ab057600080fd5b613ab9846138c2565b9250602084013561ffff81168114613ad057600080fd5b929592945050506040919091013590565b803580151581146138d957600080fd5b60008060408385031215613b0457600080fd5b8235915061390160208401613ae1565b6020808252825182820181905260009190848201906040850190845b818110156138b65783516001600160a01b031683529284019291840191600101613b30565b600080600080600060a08688031215613b6d57600080fd5b8535945060208601359350613b84604087016138c2565b94979396509394606081013594506080013592915050565b60008060008060008060c08789031215613bb557600080fd5b8635955060208701359450613bcc604088016138c2565b9350613bda606088016138c2565b92506080870135915060a087013590509295509295509295565b60008060008060608587031215613c0a57600080fd5b8435935060208501359250604085013567ffffffffffffffff811115613c2f57600080fd5b613c3b878288016139b3565b95989497509550505050565b600181811c90821680613c5b57607f821691505b602082108103613c7b57634e487b7160e01b600052602260045260246000fd5b50919050565b634e487b7160e01b600052601160045260246000fd5b81810381811115610cfe57610cfe613c81565b8082028115828204841417610cfe57610cfe613c81565b600082613cde57634e487b7160e01b600052601260045260246000fd5b500490565b634e487b7160e01b600052604160045260246000fd5b601f8211156110f157600081815260208120601f850160051c81016020861015613d205750805b601f850160051c820191505b81811015613d3f57828155600101613d2c565b505050505050565b815167ffffffffffffffff811115613d6157613d61613ce3565b613d7581613d6f8454613c47565b84613cf9565b602080601f831160018114613daa5760008415613d925750858301515b600019600386901b1c1916600185901b178555613d3f565b600085815260208120601f198616915b82811015613dd957888601518255948401946001909101908401613dba565b5085821015613df75787850151600019600388901b60f8161c191681555b5050505050600190811b01905550565b84815283602082015260606040820152816060820152818360808301376000818301608090810191909152601f909201601f191601019392505050565b80820180821115610cfe57610cfe613c81565b634e487b7160e01b600052603260045260246000fd5b634e487b7160e01b600052603160045260246000fd5b600060018201613e9557613e95613c81565b5060010190565b6020808252600f908201526e4e6f6465206e6f742061637469766560881b604082015260600190565b634e487b7160e01b600052602160045260246000fd5b7f416363657373436f6e74726f6c3a206163636f756e7420000000000000000000815260008351613f13816017850160208801613923565b7001034b99036b4b9b9b4b733903937b6329607d1b6017918401918201528351613f44816028840160208801613923565b01602801949350505050565b60208152600061384d6020830184613947565b600081613f7257613f72613c81565b50600019019056fef82d4ada24984256df3d568e911e67d66779debd1002ec9e94f076101d7917565c0cd77a00a4e631c7072557065a604e2d7bd1e0132e2f10852aa1f82c51ca80b90e9995c6170fff8ea03e9ad6919878e483770c237f1a6f330ceaa7112b344aa264697066735822122006284e8192eadf3c59d22e7bef9516e9df16926f86808e614917ed58f073e9e864736f6c63430008150033",
  "immutableReferences": {},
  "source": "// SPDX-License-Identifier: MIT\r\npragma solidity ^0.8.19;\r\n\r\nimport \"@openzeppelin/contracts/access/AccessControl.sol\";\r\nimport \"@openzeppelin/contracts/security/ReentrancyGuard.sol\";\r\nimport \"@openzeppelin/contracts/utils/cryptography/ECDSA.sol\";\r\n\r\ncontract AdFraudPBFT is AccessControl, ReentrancyGuard {\r\n    using ECDSA for bytes32;\r\n\r\n    // Roles\r\n    bytes32 public constant GATEWAY_ROLE = keccak256(\"GATEWAY_ROLE\");\r\n    bytes32 public constant AUDITOR_ROLE = keccak256(\"AUDITOR_ROLE\");\r\n    bytes32 public constant PBFT_NODE_ROLE = keccak256(\"PBFT_NODE_ROLE\");\r\n\r\n    // Original Events\r\n    event TreasuryChanged(address indexed oldTreasury, address indexed newTreasury);\r\n    event GatewayStaked(address indexed gateway, uint256 amount, uint256 totalStake);\r\n    event GatewayUnstaked(address indexed gateway, uint256 amount, uint256 totalStake);\r\n    event GatewaySlashed(address indexed gateway, uint256 slashAmount, bytes32 evidenceCIDHash);\r\n\r\n    event CampaignCreated(uint256 indexed campaignId, address indexed advertiser, uint256 cpcWei, uint256 initialBudget, string meta);\r\n    event CampaignFunded(uint256 indexed campaignId, uint256 amount, uint256 newBudget);\r\n    event CampaignPaused(uint256 indexed campaignId, bool paused);\r\n\r\n    event ClickRecorded(\r\n        bytes32 indexed clickHash,\r\n        uint256 indexed campaignId,\r\n        address indexed publisher,\r\n        address gateway,\r\n        uint256 cpcWei,\r\n        uint256 timestamp,\r\n        bytes32 metadataCIDHash\r\n    );\r\n\r\n    event PublisherWithdrawal(address indexed publisher, uint256 amount);\r\n\r\n    // PBFT Events\r\n    event PBFTNodeAdded(address indexed node, uint256 stake);\r\n    event PBFTNodeRemoved(address indexed node);\r\n    event TransactionProposed(bytes32 indexed txHash, uint256 indexed campaignId, address indexed publisher);\r\n    event ConsensusVote(bytes32 indexed txHash, address indexed node, bool vote);\r\n    event ConsensusReached(bytes32 indexed txHash, bool approved, uint256 voteCount);\r\n    event TransactionExecuted(bytes32 indexed txHash, uint256 indexed campaignId, address indexed publisher);\r\n\r\n    // Original Data Structures\r\n    struct Campaign {\r\n        address advertiser;\r\n        uint256 cpcWei;\r\n        uint256 budgetWei;\r\n        bool paused;\r\n        string meta;\r\n    }\r\n\r\n    // PBFT Data Structures\r\n    struct PBFTNode {\r\n        address nodeAddress;\r\n        bool isActive;\r\n        uint256 stake;\r\n        uint256 votesParticipated;\r\n        uint256 correctVotes;\r\n    }\r\n\r\n    struct PendingTransaction {\r\n        bytes32 txHash;\r\n        uint256 campaignId;\r\n        address publisher;\r\n        address gateway;\r\n        uint256 timestamp;\r\n        bytes32 metadataCIDHash;\r\n        uint256 approveVotes;\r\n        uint256 rejectVotes;\r\n        uint256 totalVotes;\r\n        uint256 requiredVotes;\r\n        bool executed;\r\n        bool consensusReached;\r\n        uint256 proposalTime;\r\n        mapping(address => bool) hasVoted;\r\n        mapping(address => bool) voteValue; // true = approve, false = reject\r\n    }\r\n\r\n    // Original Storage\r\n    mapping(address => uint256) public stakeOf;\r\n    mapping(uint256 => Campaign) public campaigns;\r\n    uint256[] public campaignIds;\r\n    mapping(bytes32 => bool) public usedClickHash;\r\n    mapping(address => uint256) public publisherBalance;\r\n\r\n    // PBFT Storage\r\n    mapping(address => PBFTNode) public pbftNodes;\r\n    address[] public activeNodes;\r\n    mapping(bytes32 => PendingTransaction) public pendingTransactions;\r\n    bytes32[] public pendingTxHashes;\r\n    uint256 public requiredConsensusPercentage = 67; // 67% required for consensus\r\n    uint256 public consensusTimeoutSeconds = 600; // 10 minutes timeout\r\n    uint256 public minPBFTStake = 1 ether;\r\n\r\n    // Original Configuration\r\n    uint256 public minGatewayStakeWei = 0.5 ether;\r\n    address public treasury;\r\n    uint256 public maxClickAgeSeconds = 86400; // 1 day\r\n    uint256 public maxClickFutureSeconds = 120; // 2 minutes\r\n\r\n    modifier onlyAdminOrAuditor() {\r\n        require(\r\n            hasRole(DEFAULT_ADMIN_ROLE, _msgSender()) || hasRole(AUDITOR_ROLE, _msgSender()),\r\n            \"Not admin/auditor\"\r\n        );\r\n        _;\r\n    }\r\n\r\n    modifier onlyActivePBFTNode() {\r\n        require(hasRole(PBFT_NODE_ROLE, msg.sender), \"Not PBFT node\");\r\n        require(pbftNodes[msg.sender].isActive, \"Node not active\");\r\n        _;\r\n    }\r\n\r\n    constructor(address _treasury) {\r\n        require(_treasury != address(0), \"Treasury required\");\r\n        _grantRole(DEFAULT_ADMIN_ROLE, msg.sender);\r\n        treasury = _treasury;\r\n        emit TreasuryChanged(address(0), _treasury);\r\n    }\r\n\r\n    // --- Original Admin Functions ---\r\n    function setMinGatewayStake(uint256 newMin) external onlyRole(DEFAULT_ADMIN_ROLE) {\r\n        minGatewayStakeWei = newMin;\r\n    }\r\n\r\n    function setTreasury(address newTreasury) external onlyRole(DEFAULT_ADMIN_ROLE) {\r\n        require(newTreasury != address(0), \"Zero address\");\r\n        emit TreasuryChanged(treasury, newTreasury);\r\n        treasury = newTreasury;\r\n    }\r\n\r\n    function setMaxClickAgeSeconds(uint256 secs) external onlyRole(DEFAULT_ADMIN_ROLE) {\r\n        maxClickAgeSeconds = secs;\r\n    }\r\n\r\n    function setMaxClickFutureSeconds(uint256 secs) external onlyRole(DEFAULT_ADMIN_ROLE) {\r\n        maxClickFutureSeconds = secs;\r\n    }\r\n\r\n    // --- PBFT Configuration Functions ---\r\n    function setRequiredConsensusPercentage(uint256 percentage) external onlyRole(DEFAULT_ADMIN_ROLE) {\r\n        require(percentage > 50 && percentage <= 100, \"Invalid percentage\");\r\n        requiredConsensusPercentage = percentage;\r\n    }\r\n\r\n    function setConsensusTimeout(uint256 timeoutSeconds) external onlyRole(DEFAULT_ADMIN_ROLE) {\r\n        consensusTimeoutSeconds = timeoutSeconds;\r\n    }\r\n\r\n    function setMinPBFTStake(uint256 minStake) external onlyRole(DEFAULT_ADMIN_ROLE) {\r\n        minPBFTStake = minStake;\r\n    }\r\n\r\n    // --- PBFT Node Management ---\r\n    function addPBFTNode(address node) \r\n        external \r\n        payable \r\n        onlyRole(DEFAULT_ADMIN_ROLE) \r\n    {\r\n        require(node != address(0), \"Invalid node address\");\r\n        require(msg.value >= minPBFTStake, \"Insufficient stake\");\r\n        require(!pbftNodes[node].isActive, \"Node already active\");\r\n        \r\n        pbftNodes[node] = PBFTNode({\r\n            nodeAddress: node,\r\n            isActive: true,\r\n            stake: msg.value,\r\n            votesParticipated: 0,\r\n            correctVotes: 0\r\n        });\r\n        \r\n        activeNodes.push(node);\r\n        _grantRole(PBFT_NODE_ROLE, node);\r\n        \r\n        emit PBFTNodeAdded(node, msg.value);\r\n    }\r\n\r\n    function removePBFTNode(address node) external onlyRole(DEFAULT_ADMIN_ROLE) {\r\n        require(pbftNodes[node].isActive, \"Node not active\");\r\n        \r\n        pbftNodes[node].isActive = false;\r\n        _revokeRole(PBFT_NODE_ROLE, node);\r\n        \r\n        // Remove from active nodes array\r\n        for (uint256 i = 0; i < activeNodes.length; i++) {\r\n            if (activeNodes[i] == node) {\r\n                activeNodes[i] = activeNodes[activeNodes.length - 1];\r\n                activeNodes.pop();\r\n                break;\r\n            }\r\n        }\r\n        \r\n        // Refund stake\r\n        uint256 stake = pbftNodes[node].stake;\r\n        pbftNodes[node].stake = 0;\r\n        (bool ok, ) = payable(node).call{value: stake}(\"\");\r\n        require(ok, \"Stake refund failed\");\r\n        \r\n        emit PBFTNodeRemoved(node);\r\n    }\r\n\r\n    function stakePBFTNode() external payable onlyRole(PBFT_NODE_ROLE) {\r\n        require(msg.value > 0, \"No ETH sent\");\r\n        require(pbftNodes[msg.sender].isActive, \"Node not active\");\r\n        pbftNodes[msg.sender].stake += msg.value;\r\n    }\r\n\r\n    // --- Original Gateway Functions ---\r\n    function stakeGateway() external payable onlyRole(GATEWAY_ROLE) {\r\n        require(msg.value > 0, \"No ETH sent\");\r\n        stakeOf[msg.sender] += msg.value;\r\n        emit GatewayStaked(msg.sender, msg.value, stakeOf[msg.sender]);\r\n    }\r\n\r\n    function unstakeGateway(uint256 amount) external nonReentrant onlyRole(GATEWAY_ROLE) {\r\n        require(amount > 0 && amount <= stakeOf[msg.sender], \"Invalid amount\");\r\n        uint256 remaining = stakeOf[msg.sender] - amount;\r\n        require(remaining == 0 || remaining >= minGatewayStakeWei, \"Below min stake\");\r\n        stakeOf[msg.sender] = remaining;\r\n        (bool ok, ) = payable(msg.sender).call{value: amount}(\"\");\r\n        require(ok, \"ETH transfer failed\");\r\n        emit GatewayUnstaked(msg.sender, amount, remaining);\r\n    }\r\n\r\n    function slashGateway(address gateway, uint16 pctBps, bytes32 evidenceCIDHash) external onlyAdminOrAuditor {\r\n        require(gateway != address(0), \"Invalid gateway\");\r\n        require(pctBps > 0 && pctBps <= 10000, \"Bps out of range\");\r\n        uint256 stake = stakeOf[gateway];\r\n        require(stake > 0, \"No stake\");\r\n        uint256 slashAmt = (stake * pctBps) / 10000;\r\n        stakeOf[gateway] = stake - slashAmt;\r\n        (bool ok, ) = payable(treasury).call{value: slashAmt}(\"\");\r\n        require(ok, \"Slash transfer failed\");\r\n        emit GatewaySlashed(gateway, slashAmt, evidenceCIDHash);\r\n    }\r\n\r\n    // --- Original Campaign Functions ---\r\n    function createCampaign(\r\n        uint256 campaignId,\r\n        uint256 cpcWei,\r\n        string calldata meta\r\n    ) external payable returns (uint256 id) {\r\n        require(cpcWei > 0, \"CPC must be > 0\");\r\n        require(msg.value > 0, \"Initial budget required\");\r\n        require(campaigns[campaignId].advertiser == address(0), \"Campaign ID already exists\");\r\n\r\n        campaigns[campaignId] = Campaign({\r\n            advertiser: msg.sender,\r\n            cpcWei: cpcWei,\r\n            budgetWei: msg.value,\r\n            paused: false,\r\n            meta: meta\r\n        });\r\n\r\n        campaignIds.push(campaignId);\r\n        emit CampaignCreated(campaignId, msg.sender, cpcWei, msg.value, meta);\r\n        return campaignId;\r\n    }\r\n\r\n    function fundCampaign(uint256 campaignId) external payable {\r\n        Campaign storage c = campaigns[campaignId];\r\n        require(c.advertiser != address(0), \"Campaign missing\");\r\n        require(msg.value > 0, \"No funds\");\r\n        c.budgetWei += msg.value;\r\n        emit CampaignFunded(campaignId, msg.value, c.budgetWei);\r\n    }\r\n\r\n    function setCampaignPaused(uint256 campaignId, bool paused) external {\r\n        Campaign storage c = campaigns[campaignId];\r\n        require(\r\n            c.advertiser == msg.sender || hasRole(DEFAULT_ADMIN_ROLE, msg.sender),\r\n            \"Not authorized\"\r\n        );\r\n        c.paused = paused;\r\n        emit CampaignPaused(campaignId, paused);\r\n    }\r\n\r\n    // --- PBFT Transaction Processing ---\r\n    function proposeTransaction(\r\n        bytes32 clickHash,\r\n        uint256 campaignId,\r\n        address publisher,\r\n        uint256 timestamp,\r\n        bytes32 metadataCIDHash\r\n    ) public onlyRole(GATEWAY_ROLE) returns (bytes32) {\r\n        require(activeNodes.length >= 3, \"Insufficient PBFT nodes\");\r\n        require(pendingTransactions[clickHash].txHash == bytes32(0), \"Transaction already proposed\");\r\n        \r\n        // Validate transaction basics\r\n        require(publisher != address(0), \"Zero publisher\");\r\n        require(!usedClickHash[clickHash], \"Duplicate click\");\r\n        Campaign storage c = campaigns[campaignId];\r\n        require(c.advertiser != address(0), \"Campaign missing\");\r\n        require(!c.paused, \"Campaign paused\");\r\n        require(c.budgetWei >= c.cpcWei, \"Insufficient budget\");\r\n        \r\n        // Calculate required votes (percentage of active nodes)\r\n        uint256 requiredVotes = (activeNodes.length * requiredConsensusPercentage) / 100;\r\n        if (requiredVotes == 0) requiredVotes = 1;\r\n        \r\n        // Create pending transaction\r\n        PendingTransaction storage pendingTx = pendingTransactions[clickHash];\r\n        pendingTx.txHash = clickHash;\r\n        pendingTx.campaignId = campaignId;\r\n        pendingTx.publisher = publisher;\r\n        pendingTx.gateway = msg.sender;\r\n        pendingTx.timestamp = timestamp;\r\n        pendingTx.metadataCIDHash = metadataCIDHash;\r\n        pendingTx.requiredVotes = requiredVotes;\r\n        pendingTx.proposalTime = block.timestamp;\r\n        \r\n        pendingTxHashes.push(clickHash);\r\n        \r\n        emit TransactionProposed(clickHash, campaignId, publisher);\r\n        return clickHash;\r\n    }\r\n\r\n    function voteOnTransaction(bytes32 txHash, bool approve) \r\n        external \r\n        onlyActivePBFTNode \r\n    {\r\n        PendingTransaction storage pendingTx = pendingTransactions[txHash];\r\n        require(pendingTx.txHash != bytes32(0), \"Transaction not found\");\r\n        require(!pendingTx.executed, \"Transaction already executed\");\r\n        require(!pendingTx.consensusReached, \"Consensus already reached\");\r\n        require(!pendingTx.hasVoted[msg.sender], \"Already voted\");\r\n        require(\r\n            block.timestamp <= pendingTx.proposalTime + consensusTimeoutSeconds,\r\n            \"Voting period expired\"\r\n        );\r\n        \r\n        pendingTx.hasVoted[msg.sender] = true;\r\n        pendingTx.voteValue[msg.sender] = approve;\r\n        pendingTx.totalVotes++;\r\n        \r\n        if (approve) {\r\n            pendingTx.approveVotes++;\r\n        } else {\r\n            pendingTx.rejectVotes++;\r\n        }\r\n        \r\n        // Update node statistics\r\n        pbftNodes[msg.sender].votesParticipated++;\r\n        \r\n        emit ConsensusVote(txHash, msg.sender, approve);\r\n        \r\n        // Check if consensus reached\r\n        if (pendingTx.approveVotes >= pendingTx.requiredVotes) {\r\n            pendingTx.consensusReached = true;\r\n            _executeTransaction(txHash);\r\n            emit ConsensusReached(txHash, true, pendingTx.approveVotes);\r\n        } else if (pendingTx.rejectVotes >= pendingTx.requiredVotes) {\r\n            pendingTx.consensusReached = true;\r\n            emit ConsensusReached(txHash, false, pendingTx.rejectVotes);\r\n        } else if (pendingTx.totalVotes == activeNodes.length) {\r\n            // All nodes voted but no consensus reached\r\n            pendingTx.consensusReached = true;\r\n            emit ConsensusReached(txHash, false, pendingTx.approveVotes);\r\n        }\r\n    }\r\n\r\n    function _executeTransaction(bytes32 txHash) internal {\r\n        PendingTransaction storage pendingTx = pendingTransactions[txHash];\r\n        require(!pendingTx.executed, \"Already executed\");\r\n        require(pendingTx.consensusReached, \"Consensus not reached\");\r\n        require(pendingTx.approveVotes >= pendingTx.requiredVotes, \"Insufficient approval votes\");\r\n        \r\n        pendingTx.executed = true;\r\n        \r\n        // Execute the click transaction\r\n        usedClickHash[pendingTx.txHash] = true;\r\n        Campaign storage c = campaigns[pendingTx.campaignId];\r\n        c.budgetWei -= c.cpcWei;\r\n        publisherBalance[pendingTx.publisher] += c.cpcWei;\r\n        \r\n        // Update correct vote statistics for nodes that voted to approve\r\n        for (uint256 i = 0; i < activeNodes.length; i++) {\r\n            address node = activeNodes[i];\r\n            if (pendingTx.hasVoted[node] && pendingTx.voteValue[node]) {\r\n                pbftNodes[node].correctVotes++;\r\n            }\r\n        }\r\n        \r\n        emit ClickRecorded(\r\n            pendingTx.txHash, \r\n            pendingTx.campaignId, \r\n            pendingTx.publisher, \r\n            pendingTx.gateway, \r\n            c.cpcWei, \r\n            pendingTx.timestamp, \r\n            pendingTx.metadataCIDHash\r\n        );\r\n        \r\n        emit TransactionExecuted(txHash, pendingTx.campaignId, pendingTx.publisher);\r\n    }\r\n\r\n    // --- Timeout and Cleanup Functions ---\r\n    function cleanupExpiredTransaction(bytes32 txHash) external {\r\n        PendingTransaction storage pendingTx = pendingTransactions[txHash];\r\n        require(pendingTx.txHash != bytes32(0), \"Transaction not found\");\r\n        require(!pendingTx.executed, \"Transaction already executed\");\r\n        require(\r\n            block.timestamp > pendingTx.proposalTime + consensusTimeoutSeconds,\r\n            \"Transaction not expired\"\r\n        );\r\n        \r\n        if (!pendingTx.consensusReached) {\r\n            pendingTx.consensusReached = true;\r\n            emit ConsensusReached(txHash, false, pendingTx.approveVotes);\r\n        }\r\n        \r\n        // Remove from pending array\r\n        for (uint256 i = 0; i < pendingTxHashes.length; i++) {\r\n            if (pendingTxHashes[i] == txHash) {\r\n                pendingTxHashes[i] = pendingTxHashes[pendingTxHashes.length - 1];\r\n                pendingTxHashes.pop();\r\n                break;\r\n            }\r\n        }\r\n    }\r\n\r\n    // --- Original Helper Functions ---\r\n    function computeClickMessageHash(\r\n        bytes32 clickHash,\r\n        uint256 campaignId,\r\n        address publisher,\r\n        address gateway,\r\n        uint256 timestamp,\r\n        bytes32 metadataCIDHash\r\n    ) public view returns (bytes32) {\r\n        return keccak256(\r\n            abi.encodePacked(\r\n                block.chainid,\r\n                address(this),\r\n                \"AD_CLICK_V1\",\r\n                clickHash,\r\n                campaignId,\r\n                publisher,\r\n                gateway,\r\n                timestamp,\r\n                metadataCIDHash\r\n            )\r\n        );\r\n    }\r\n\r\n    // --- Legacy Direct Submission (for backwards compatibility) ---\r\n    function submitClickGatewayDirect(\r\n        bytes32 clickHash,\r\n        uint256 campaignId,\r\n        address publisher,\r\n        uint256 timestamp,\r\n        bytes32 metadataCIDHash\r\n    ) external onlyRole(GATEWAY_ROLE) {\r\n        // For backwards compatibility, directly propose to PBFT\r\n        proposeTransaction(clickHash, campaignId, publisher, timestamp, metadataCIDHash);\r\n    }\r\n\r\n    function submitClickWithSig(\r\n        bytes32 clickHash,\r\n        uint256 campaignId,\r\n        address publisher,\r\n        address gateway,\r\n        uint256 timestamp,\r\n        bytes32 metadataCIDHash,\r\n        bytes calldata signature\r\n    ) external {\r\n        bytes32 rawHash = computeClickMessageHash(\r\n            clickHash,\r\n            campaignId,\r\n            publisher,\r\n            gateway,\r\n            timestamp,\r\n            metadataCIDHash\r\n        );\r\n        bytes32 ethSigned = ECDSA.toEthSignedMessageHash(rawHash);\r\n        address recovered = ECDSA.recover(ethSigned, signature);\r\n        require(recovered == gateway, \"Invalid signature\");\r\n        require(hasRole(GATEWAY_ROLE, gateway), \"Signer not gateway\");\r\n\r\n        if (timestamp > block.timestamp) {\r\n            require(timestamp - block.timestamp <= maxClickFutureSeconds, \"Timestamp too far in future\");\r\n        } else {\r\n            require(block.timestamp - timestamp <= maxClickAgeSeconds, \"Timestamp too old\");\r\n        }\r\n\r\n        // Propose to PBFT instead of direct execution\r\n        proposeTransaction(clickHash, campaignId, publisher, timestamp, metadataCIDHash);\r\n    }\r\n\r\n    // --- Publisher Functions ---\r\n    function withdrawPublisher(uint256 amount) external nonReentrant {\r\n        require(amount > 0 && amount <= publisherBalance[msg.sender], \"Invalid amount\");\r\n        publisherBalance[msg.sender] -= amount;\r\n        (bool ok, ) = payable(msg.sender).call{value: amount}(\"\");\r\n        require(ok, \"ETH transfer failed\");\r\n        emit PublisherWithdrawal(msg.sender, amount);\r\n    }\r\n\r\n    // --- View Functions ---\r\n    function getCampaign(uint256 campaignId)\r\n        external\r\n        view\r\n        returns (\r\n            address advertiser,\r\n            uint256 cpcWei,\r\n            uint256 budgetWei,\r\n            bool paused,\r\n            string memory meta\r\n        )\r\n    {\r\n        Campaign storage c = campaigns[campaignId];\r\n        return (c.advertiser, c.cpcWei, c.budgetWei, c.paused, c.meta);\r\n    }\r\n\r\n    function getCampaignIds() external view returns (uint256[] memory) {\r\n        return campaignIds;\r\n    }\r\n\r\n    function getActiveNodes() external view returns (address[] memory) {\r\n        return activeNodes;\r\n    }\r\n\r\n    function getPendingTransactionHashes() external view returns (bytes32[] memory) {\r\n        return pendingTxHashes;\r\n    }\r\n\r\n    function getPendingTransactionDetails(bytes32 txHash) \r\n        external \r\n        view \r\n        returns (\r\n            uint256 campaignId,\r\n            address publisher,\r\n            address gateway,\r\n            uint256 approveVotes,\r\n            uint256 rejectVotes,\r\n            uint256 totalVotes,\r\n            uint256 requiredVotes,\r\n            bool executed,\r\n            bool consensusReached,\r\n            uint256 proposalTime\r\n        ) \r\n    {\r\n        PendingTransaction storage pendingTx = pendingTransactions[txHash];\r\n        return (\r\n            pendingTx.campaignId,\r\n            pendingTx.publisher,\r\n            pendingTx.gateway,\r\n            pendingTx.approveVotes,\r\n            pendingTx.rejectVotes,\r\n            pendingTx.totalVotes,\r\n            pendingTx.requiredVotes,\r\n            pendingTx.executed,\r\n            pendingTx.consensusReached,\r\n            pendingTx.proposalTime\r\n        );\r\n    }\r\n\r\n    function hasNodeVoted(bytes32 txHash, address node) external view returns (bool) {\r\n        return pendingTransactions[txHash].hasVoted[node];\r\n    }\r\n\r\n    function getNodeVote(bytes32 txHash, address node) external view returns (bool) {\r\n        require(pendingTransactions[txHash].hasVoted[node], \"Node has not voted\");\r\n        return pendingTransactions[txHash].voteValue[node];\r\n    }\r\n\r\n    function getNodeStats(address node) \r\n        external \r\n        view \r\n        returns (\r\n            bool isActive,\r\n            uint256 stake,\r\n            uint256 votesParticipated,\r\n            uint256 correctVotes,\r\n            uint256 accuracyPercentage\r\n        ) \r\n    {\r\n        PBFTNode storage pbftNode = pbftNodes[node];\r\n        uint256 accuracy = 0;\r\n        if (pbftNode.votesParticipated > 0) {\r\n            accuracy = (pbftNode.correctVotes * 100) / pbftNode.votesParticipated;\r\n        }\r\n        \r\n        return (\r\n            pbftNode.isActive,\r\n            pbftNode.stake,\r\n            pbftNode.votesParticipated,\r\n            pbftNode.correctVotes,\r\n            accuracy\r\n        );\r\n    }\r\n\r\n    receive() external payable {}\r\n    fallback() external payable {}\r\n}\r\n",
  "sourcePath": "C:\\Users\\ABHINAV\\OneDrive\\Desktop\\Local\\BlockchainBased_AdFrud_Prevention\\contracts\\AdFraudPBFT.sol",
  "compiler": {
    "name": "solc",
    "version": "0.8.21+commit.d9974bed.Emscripten.clang"
  },
  "schemaVersion": "3.4.16",
  "updatedAt": "2025-09-24T17:34:03.291Z",
  "networkType": "ethereum",
  "devdoc": {
    "events": {
      "RoleAdminChanged(bytes32,bytes32,bytes32)": {
        "details": "Emitted when `newAdminRole` is set as ``role``'s admin role, replacing `previousAdminRole` `DEFAULT_ADMIN_ROLE` is the starting admin for all roles, despite {RoleAdminChanged} not being emitted signaling this. _Available since v3.1._"
      },
      "RoleGranted(bytes32,address,address)": {
        "details": "Emitted when `account` is granted `role`. `sender` is the account that originated the contract call, an admin role bearer except when using {AccessControl-_setupRole}."
      },
      "RoleRevoked(bytes32,address,address)": {
        "details": "Emitted when `account` is revoked `role`. `sender` is the account that originated the contract call:   - if using `revokeRole`, it is the admin role bearer   - if using `renounceRole`, it is the role bearer (i.e. `account`)"
      }
    },
    "kind": "dev",
    "methods": {
      "getRoleAdmin(bytes32)": {
        "details": "Returns the admin role that controls `role`. See {grantRole} and {revokeRole}. To change a role's admin, use {_setRoleAdmin}."
      },
      "grantRole(bytes32,address)": {
        "details": "Grants `role` to `account`. If `account` had not been already granted `role`, emits a {RoleGranted} event. Requirements: - the caller must have ``role``'s admin role. May emit a {RoleGranted} event."
      },
      "hasRole(bytes32,address)": {
        "details": "Returns `true` if `account` has been granted `role`."
      },
      "renounceRole(bytes32,address)": {
        "details": "Revokes `role` from the calling account. Roles are often managed via {grantRole} and {revokeRole}: this function's purpose is to provide a mechanism for accounts to lose their privileges if they are compromised (such as when a trusted device is misplaced). If the calling account had been revoked `role`, emits a {RoleRevoked} event. Requirements: - the caller must be `account`. May emit a {RoleRevoked} event."
      },
      "revokeRole(bytes32,address)": {
        "details": "Revokes `role` from `account`. If `account` had been granted `role`, emits a {RoleRevoked} event. Requirements: - the caller must have ``role``'s admin role. May emit a {RoleRevoked} event."
      },
      "supportsInterface(bytes4)": {
        "details": "See {IERC165-supportsInterface}."
      }
    },
    "version": 1
  },
  "userdoc": {
    "kind": "user",
    "methods": {},
    "version": 1
  }
}