{
  "contractName": "AdFraudPBFT",
  "abi": [
    {
      "inputs": [
        {
          "internalType": "address",
          "name": "_treasury",
          "type": "address"
        }
      ],
      "stateMutability": "nonpayable",
      "type": "constructor"
    },
    {
      "anonymous": false,
      "inputs": [
        {
          "indexed": true,
          "internalType": "address",
          "name": "account",
          "type": "address"
        }
      ],
      "name": "AdminAssigned",
      "type": "event"
    },
    {
      "anonymous": false,
      "inputs": [
        {
          "indexed": true,
          "internalType": "address",
          "name": "account",
          "type": "address"
        }
      ],
      "name": "AdminRevoked",
      "type": "event"
    },
    {
      "anonymous": false,
      "inputs": [
        {
          "indexed": true,
          "internalType": "address",
          "name": "account",
          "type": "address"
        }
      ],
      "name": "AdvertiserAssigned",
      "type": "event"
    },
    {
      "anonymous": false,
      "inputs": [
        {
          "indexed": true,
          "internalType": "address",
          "name": "account",
          "type": "address"
        }
      ],
      "name": "AdvertiserRevoked",
      "type": "event"
    },
    {
      "anonymous": false,
      "inputs": [
        {
          "indexed": true,
          "internalType": "address",
          "name": "account",
          "type": "address"
        }
      ],
      "name": "AuditorAssigned",
      "type": "event"
    },
    {
      "anonymous": false,
      "inputs": [
        {
          "indexed": true,
          "internalType": "address",
          "name": "account",
          "type": "address"
        }
      ],
      "name": "AuditorRevoked",
      "type": "event"
    },
    {
      "anonymous": false,
      "inputs": [
        {
          "indexed": true,
          "internalType": "uint256",
          "name": "campaignId",
          "type": "uint256"
        },
        {
          "indexed": true,
          "internalType": "address",
          "name": "advertiser",
          "type": "address"
        },
        {
          "indexed": false,
          "internalType": "uint256",
          "name": "cpcWei",
          "type": "uint256"
        },
        {
          "indexed": false,
          "internalType": "uint256",
          "name": "initialBudget",
          "type": "uint256"
        },
        {
          "indexed": false,
          "internalType": "string",
          "name": "meta",
          "type": "string"
        }
      ],
      "name": "CampaignCreated",
      "type": "event"
    },
    {
      "anonymous": false,
      "inputs": [
        {
          "indexed": true,
          "internalType": "uint256",
          "name": "campaignId",
          "type": "uint256"
        },
        {
          "indexed": false,
          "internalType": "uint256",
          "name": "amount",
          "type": "uint256"
        },
        {
          "indexed": false,
          "internalType": "uint256",
          "name": "newBudget",
          "type": "uint256"
        }
      ],
      "name": "CampaignFunded",
      "type": "event"
    },
    {
      "anonymous": false,
      "inputs": [
        {
          "indexed": true,
          "internalType": "uint256",
          "name": "campaignId",
          "type": "uint256"
        },
        {
          "indexed": false,
          "internalType": "bool",
          "name": "paused",
          "type": "bool"
        }
      ],
      "name": "CampaignPaused",
      "type": "event"
    },
    {
      "anonymous": false,
      "inputs": [
        {
          "indexed": true,
          "internalType": "bytes32",
          "name": "clickHash",
          "type": "bytes32"
        },
        {
          "indexed": true,
          "internalType": "uint256",
          "name": "campaignId",
          "type": "uint256"
        },
        {
          "indexed": true,
          "internalType": "address",
          "name": "publisher",
          "type": "address"
        },
        {
          "indexed": false,
          "internalType": "address",
          "name": "gateway",
          "type": "address"
        },
        {
          "indexed": false,
          "internalType": "uint256",
          "name": "cpcWei",
          "type": "uint256"
        },
        {
          "indexed": false,
          "internalType": "uint256",
          "name": "timestamp",
          "type": "uint256"
        },
        {
          "indexed": false,
          "internalType": "bytes32",
          "name": "metadataCIDHash",
          "type": "bytes32"
        }
      ],
      "name": "ClickRecorded",
      "type": "event"
    },
    {
      "anonymous": false,
      "inputs": [
        {
          "indexed": true,
          "internalType": "bytes32",
          "name": "txHash",
          "type": "bytes32"
        },
        {
          "indexed": false,
          "internalType": "bool",
          "name": "approved",
          "type": "bool"
        },
        {
          "indexed": false,
          "internalType": "uint256",
          "name": "voteCount",
          "type": "uint256"
        }
      ],
      "name": "ConsensusReached",
      "type": "event"
    },
    {
      "anonymous": false,
      "inputs": [
        {
          "indexed": true,
          "internalType": "bytes32",
          "name": "txHash",
          "type": "bytes32"
        },
        {
          "indexed": true,
          "internalType": "address",
          "name": "node",
          "type": "address"
        },
        {
          "indexed": false,
          "internalType": "bool",
          "name": "vote",
          "type": "bool"
        }
      ],
      "name": "ConsensusVote",
      "type": "event"
    },
    {
      "anonymous": false,
      "inputs": [
        {
          "indexed": true,
          "internalType": "address",
          "name": "account",
          "type": "address"
        }
      ],
      "name": "GatewayAssigned",
      "type": "event"
    },
    {
      "anonymous": false,
      "inputs": [
        {
          "indexed": true,
          "internalType": "address",
          "name": "account",
          "type": "address"
        }
      ],
      "name": "GatewayRevoked",
      "type": "event"
    },
    {
      "anonymous": false,
      "inputs": [
        {
          "indexed": true,
          "internalType": "address",
          "name": "gateway",
          "type": "address"
        },
        {
          "indexed": false,
          "internalType": "uint256",
          "name": "slashAmount",
          "type": "uint256"
        },
        {
          "indexed": false,
          "internalType": "bytes32",
          "name": "evidenceCIDHash",
          "type": "bytes32"
        }
      ],
      "name": "GatewaySlashed",
      "type": "event"
    },
    {
      "anonymous": false,
      "inputs": [
        {
          "indexed": true,
          "internalType": "address",
          "name": "gateway",
          "type": "address"
        },
        {
          "indexed": false,
          "internalType": "uint256",
          "name": "amount",
          "type": "uint256"
        },
        {
          "indexed": false,
          "internalType": "uint256",
          "name": "totalStake",
          "type": "uint256"
        }
      ],
      "name": "GatewayStaked",
      "type": "event"
    },
    {
      "anonymous": false,
      "inputs": [
        {
          "indexed": true,
          "internalType": "address",
          "name": "gateway",
          "type": "address"
        },
        {
          "indexed": false,
          "internalType": "uint256",
          "name": "amount",
          "type": "uint256"
        },
        {
          "indexed": false,
          "internalType": "uint256",
          "name": "totalStake",
          "type": "uint256"
        }
      ],
      "name": "GatewayUnstaked",
      "type": "event"
    },
    {
      "anonymous": false,
      "inputs": [
        {
          "indexed": true,
          "internalType": "address",
          "name": "node",
          "type": "address"
        },
        {
          "indexed": false,
          "internalType": "uint256",
          "name": "stake",
          "type": "uint256"
        }
      ],
      "name": "PBFTNodeAdded",
      "type": "event"
    },
    {
      "anonymous": false,
      "inputs": [
        {
          "indexed": true,
          "internalType": "address",
          "name": "node",
          "type": "address"
        }
      ],
      "name": "PBFTNodeRemoved",
      "type": "event"
    },
    {
      "anonymous": false,
      "inputs": [
        {
          "indexed": true,
          "internalType": "address",
          "name": "account",
          "type": "address"
        }
      ],
      "name": "PbftNodeAssigned",
      "type": "event"
    },
    {
      "anonymous": false,
      "inputs": [
        {
          "indexed": true,
          "internalType": "address",
          "name": "account",
          "type": "address"
        }
      ],
      "name": "PbftNodeRevoked",
      "type": "event"
    },
    {
      "anonymous": false,
      "inputs": [
        {
          "indexed": true,
          "internalType": "address",
          "name": "account",
          "type": "address"
        }
      ],
      "name": "PublisherAssigned",
      "type": "event"
    },
    {
      "anonymous": false,
      "inputs": [
        {
          "indexed": true,
          "internalType": "address",
          "name": "account",
          "type": "address"
        }
      ],
      "name": "PublisherRevoked",
      "type": "event"
    },
    {
      "anonymous": false,
      "inputs": [
        {
          "indexed": true,
          "internalType": "address",
          "name": "publisher",
          "type": "address"
        },
        {
          "indexed": false,
          "internalType": "uint256",
          "name": "amount",
          "type": "uint256"
        }
      ],
      "name": "PublisherWithdrawal",
      "type": "event"
    },
    {
      "anonymous": false,
      "inputs": [
        {
          "indexed": true,
          "internalType": "bytes32",
          "name": "txHash",
          "type": "bytes32"
        },
        {
          "indexed": true,
          "internalType": "uint256",
          "name": "campaignId",
          "type": "uint256"
        },
        {
          "indexed": true,
          "internalType": "address",
          "name": "publisher",
          "type": "address"
        }
      ],
      "name": "TransactionExecuted",
      "type": "event"
    },
    {
      "anonymous": false,
      "inputs": [
        {
          "indexed": true,
          "internalType": "bytes32",
          "name": "txHash",
          "type": "bytes32"
        },
        {
          "indexed": true,
          "internalType": "uint256",
          "name": "campaignId",
          "type": "uint256"
        },
        {
          "indexed": true,
          "internalType": "address",
          "name": "publisher",
          "type": "address"
        }
      ],
      "name": "TransactionProposed",
      "type": "event"
    },
    {
      "anonymous": false,
      "inputs": [
        {
          "indexed": true,
          "internalType": "address",
          "name": "oldTreasury",
          "type": "address"
        },
        {
          "indexed": true,
          "internalType": "address",
          "name": "newTreasury",
          "type": "address"
        }
      ],
      "name": "TreasuryChanged",
      "type": "event"
    },
    {
      "stateMutability": "payable",
      "type": "fallback",
      "payable": true
    },
    {
      "inputs": [
        {
          "internalType": "uint256",
          "name": "",
          "type": "uint256"
        }
      ],
      "name": "activeNodes",
      "outputs": [
        {
          "internalType": "address",
          "name": "",
          "type": "address"
        }
      ],
      "stateMutability": "view",
      "type": "function",
      "constant": true
    },
    {
      "inputs": [],
      "name": "admin",
      "outputs": [
        {
          "internalType": "address",
          "name": "",
          "type": "address"
        }
      ],
      "stateMutability": "view",
      "type": "function",
      "constant": true
    },
    {
      "inputs": [
        {
          "internalType": "uint256",
          "name": "",
          "type": "uint256"
        }
      ],
      "name": "campaignIds",
      "outputs": [
        {
          "internalType": "uint256",
          "name": "",
          "type": "uint256"
        }
      ],
      "stateMutability": "view",
      "type": "function",
      "constant": true
    },
    {
      "inputs": [
        {
          "internalType": "uint256",
          "name": "",
          "type": "uint256"
        }
      ],
      "name": "campaigns",
      "outputs": [
        {
          "internalType": "address",
          "name": "advertiser",
          "type": "address"
        },
        {
          "internalType": "uint256",
          "name": "cpcWei",
          "type": "uint256"
        },
        {
          "internalType": "uint256",
          "name": "budgetWei",
          "type": "uint256"
        },
        {
          "internalType": "bool",
          "name": "paused",
          "type": "bool"
        },
        {
          "internalType": "string",
          "name": "meta",
          "type": "string"
        }
      ],
      "stateMutability": "view",
      "type": "function",
      "constant": true
    },
    {
      "inputs": [],
      "name": "consensusTimeoutSeconds",
      "outputs": [
        {
          "internalType": "uint256",
          "name": "",
          "type": "uint256"
        }
      ],
      "stateMutability": "view",
      "type": "function",
      "constant": true
    },
    {
      "inputs": [
        {
          "internalType": "address",
          "name": "",
          "type": "address"
        }
      ],
      "name": "isAdmin",
      "outputs": [
        {
          "internalType": "bool",
          "name": "",
          "type": "bool"
        }
      ],
      "stateMutability": "view",
      "type": "function",
      "constant": true
    },
    {
      "inputs": [
        {
          "internalType": "address",
          "name": "",
          "type": "address"
        }
      ],
      "name": "isAdvertiser",
      "outputs": [
        {
          "internalType": "bool",
          "name": "",
          "type": "bool"
        }
      ],
      "stateMutability": "view",
      "type": "function",
      "constant": true
    },
    {
      "inputs": [
        {
          "internalType": "address",
          "name": "",
          "type": "address"
        }
      ],
      "name": "isAuditor",
      "outputs": [
        {
          "internalType": "bool",
          "name": "",
          "type": "bool"
        }
      ],
      "stateMutability": "view",
      "type": "function",
      "constant": true
    },
    {
      "inputs": [
        {
          "internalType": "address",
          "name": "",
          "type": "address"
        }
      ],
      "name": "isGateway",
      "outputs": [
        {
          "internalType": "bool",
          "name": "",
          "type": "bool"
        }
      ],
      "stateMutability": "view",
      "type": "function",
      "constant": true
    },
    {
      "inputs": [
        {
          "internalType": "address",
          "name": "",
          "type": "address"
        }
      ],
      "name": "isPbftNode",
      "outputs": [
        {
          "internalType": "bool",
          "name": "",
          "type": "bool"
        }
      ],
      "stateMutability": "view",
      "type": "function",
      "constant": true
    },
    {
      "inputs": [
        {
          "internalType": "address",
          "name": "",
          "type": "address"
        }
      ],
      "name": "isPublisher",
      "outputs": [
        {
          "internalType": "bool",
          "name": "",
          "type": "bool"
        }
      ],
      "stateMutability": "view",
      "type": "function",
      "constant": true
    },
    {
      "inputs": [],
      "name": "maxClickAgeSeconds",
      "outputs": [
        {
          "internalType": "uint256",
          "name": "",
          "type": "uint256"
        }
      ],
      "stateMutability": "view",
      "type": "function",
      "constant": true
    },
    {
      "inputs": [],
      "name": "maxClickFutureSeconds",
      "outputs": [
        {
          "internalType": "uint256",
          "name": "",
          "type": "uint256"
        }
      ],
      "stateMutability": "view",
      "type": "function",
      "constant": true
    },
    {
      "inputs": [],
      "name": "minGatewayStakeWei",
      "outputs": [
        {
          "internalType": "uint256",
          "name": "",
          "type": "uint256"
        }
      ],
      "stateMutability": "view",
      "type": "function",
      "constant": true
    },
    {
      "inputs": [],
      "name": "minPBFTStake",
      "outputs": [
        {
          "internalType": "uint256",
          "name": "",
          "type": "uint256"
        }
      ],
      "stateMutability": "view",
      "type": "function",
      "constant": true
    },
    {
      "inputs": [
        {
          "internalType": "address",
          "name": "",
          "type": "address"
        }
      ],
      "name": "pbftNodes",
      "outputs": [
        {
          "internalType": "address",
          "name": "nodeAddress",
          "type": "address"
        },
        {
          "internalType": "bool",
          "name": "isActive",
          "type": "bool"
        },
        {
          "internalType": "uint256",
          "name": "stake",
          "type": "uint256"
        },
        {
          "internalType": "uint256",
          "name": "votesParticipated",
          "type": "uint256"
        },
        {
          "internalType": "uint256",
          "name": "correctVotes",
          "type": "uint256"
        }
      ],
      "stateMutability": "view",
      "type": "function",
      "constant": true
    },
    {
      "inputs": [
        {
          "internalType": "bytes32",
          "name": "",
          "type": "bytes32"
        }
      ],
      "name": "pendingTransactions",
      "outputs": [
        {
          "internalType": "bytes32",
          "name": "txHash",
          "type": "bytes32"
        },
        {
          "internalType": "uint256",
          "name": "campaignId",
          "type": "uint256"
        },
        {
          "internalType": "address",
          "name": "publisher",
          "type": "address"
        },
        {
          "internalType": "address",
          "name": "gateway",
          "type": "address"
        },
        {
          "internalType": "uint256",
          "name": "timestamp",
          "type": "uint256"
        },
        {
          "internalType": "bytes32",
          "name": "metadataCIDHash",
          "type": "bytes32"
        },
        {
          "internalType": "uint256",
          "name": "approveVotes",
          "type": "uint256"
        },
        {
          "internalType": "uint256",
          "name": "rejectVotes",
          "type": "uint256"
        },
        {
          "internalType": "uint256",
          "name": "totalVotes",
          "type": "uint256"
        },
        {
          "internalType": "uint256",
          "name": "requiredVotes",
          "type": "uint256"
        },
        {
          "internalType": "bool",
          "name": "executed",
          "type": "bool"
        },
        {
          "internalType": "bool",
          "name": "consensusReached",
          "type": "bool"
        },
        {
          "internalType": "uint256",
          "name": "proposalTime",
          "type": "uint256"
        }
      ],
      "stateMutability": "view",
      "type": "function",
      "constant": true
    },
    {
      "inputs": [
        {
          "internalType": "uint256",
          "name": "",
          "type": "uint256"
        }
      ],
      "name": "pendingTxHashes",
      "outputs": [
        {
          "internalType": "bytes32",
          "name": "",
          "type": "bytes32"
        }
      ],
      "stateMutability": "view",
      "type": "function",
      "constant": true
    },
    {
      "inputs": [
        {
          "internalType": "address",
          "name": "",
          "type": "address"
        }
      ],
      "name": "publisherBalance",
      "outputs": [
        {
          "internalType": "uint256",
          "name": "",
          "type": "uint256"
        }
      ],
      "stateMutability": "view",
      "type": "function",
      "constant": true
    },
    {
      "inputs": [],
      "name": "requiredConsensusPercentage",
      "outputs": [
        {
          "internalType": "uint256",
          "name": "",
          "type": "uint256"
        }
      ],
      "stateMutability": "view",
      "type": "function",
      "constant": true
    },
    {
      "inputs": [
        {
          "internalType": "address",
          "name": "",
          "type": "address"
        }
      ],
      "name": "stakeOf",
      "outputs": [
        {
          "internalType": "uint256",
          "name": "",
          "type": "uint256"
        }
      ],
      "stateMutability": "view",
      "type": "function",
      "constant": true
    },
    {
      "inputs": [],
      "name": "treasury",
      "outputs": [
        {
          "internalType": "address",
          "name": "",
          "type": "address"
        }
      ],
      "stateMutability": "view",
      "type": "function",
      "constant": true
    },
    {
      "inputs": [
        {
          "internalType": "bytes32",
          "name": "",
          "type": "bytes32"
        }
      ],
      "name": "usedClickHash",
      "outputs": [
        {
          "internalType": "bool",
          "name": "",
          "type": "bool"
        }
      ],
      "stateMutability": "view",
      "type": "function",
      "constant": true
    },
    {
      "stateMutability": "payable",
      "type": "receive",
      "payable": true
    },
    {
      "inputs": [
        {
          "internalType": "address",
          "name": "account",
          "type": "address"
        }
      ],
      "name": "assignAdmin",
      "outputs": [],
      "stateMutability": "nonpayable",
      "type": "function"
    },
    {
      "inputs": [
        {
          "internalType": "address",
          "name": "account",
          "type": "address"
        }
      ],
      "name": "revokeAdmin",
      "outputs": [],
      "stateMutability": "nonpayable",
      "type": "function"
    },
    {
      "inputs": [
        {
          "internalType": "address",
          "name": "account",
          "type": "address"
        }
      ],
      "name": "assignGateway",
      "outputs": [],
      "stateMutability": "nonpayable",
      "type": "function"
    },
    {
      "inputs": [
        {
          "internalType": "address",
          "name": "account",
          "type": "address"
        }
      ],
      "name": "revokeGateway",
      "outputs": [],
      "stateMutability": "nonpayable",
      "type": "function"
    },
    {
      "inputs": [
        {
          "internalType": "address",
          "name": "account",
          "type": "address"
        }
      ],
      "name": "assignAuditor",
      "outputs": [],
      "stateMutability": "nonpayable",
      "type": "function"
    },
    {
      "inputs": [
        {
          "internalType": "address",
          "name": "account",
          "type": "address"
        }
      ],
      "name": "revokeAuditor",
      "outputs": [],
      "stateMutability": "nonpayable",
      "type": "function"
    },
    {
      "inputs": [
        {
          "internalType": "address",
          "name": "account",
          "type": "address"
        }
      ],
      "name": "assignPbftNode",
      "outputs": [],
      "stateMutability": "nonpayable",
      "type": "function"
    },
    {
      "inputs": [
        {
          "internalType": "address",
          "name": "account",
          "type": "address"
        }
      ],
      "name": "revokePbftNode",
      "outputs": [],
      "stateMutability": "nonpayable",
      "type": "function"
    },
    {
      "inputs": [
        {
          "internalType": "address",
          "name": "account",
          "type": "address"
        }
      ],
      "name": "assignAdvertiser",
      "outputs": [],
      "stateMutability": "nonpayable",
      "type": "function"
    },
    {
      "inputs": [
        {
          "internalType": "address",
          "name": "account",
          "type": "address"
        }
      ],
      "name": "revokeAdvertiser",
      "outputs": [],
      "stateMutability": "nonpayable",
      "type": "function"
    },
    {
      "inputs": [
        {
          "internalType": "address",
          "name": "account",
          "type": "address"
        }
      ],
      "name": "assignPublisher",
      "outputs": [],
      "stateMutability": "nonpayable",
      "type": "function"
    },
    {
      "inputs": [
        {
          "internalType": "address",
          "name": "account",
          "type": "address"
        }
      ],
      "name": "revokePublisher",
      "outputs": [],
      "stateMutability": "nonpayable",
      "type": "function"
    },
    {
      "inputs": [
        {
          "internalType": "uint256",
          "name": "newMin",
          "type": "uint256"
        }
      ],
      "name": "setMinGatewayStake",
      "outputs": [],
      "stateMutability": "nonpayable",
      "type": "function"
    },
    {
      "inputs": [
        {
          "internalType": "address",
          "name": "newTreasury",
          "type": "address"
        }
      ],
      "name": "setTreasury",
      "outputs": [],
      "stateMutability": "nonpayable",
      "type": "function"
    },
    {
      "inputs": [
        {
          "internalType": "uint256",
          "name": "secs",
          "type": "uint256"
        }
      ],
      "name": "setMaxClickAgeSeconds",
      "outputs": [],
      "stateMutability": "nonpayable",
      "type": "function"
    },
    {
      "inputs": [
        {
          "internalType": "uint256",
          "name": "secs",
          "type": "uint256"
        }
      ],
      "name": "setMaxClickFutureSeconds",
      "outputs": [],
      "stateMutability": "nonpayable",
      "type": "function"
    },
    {
      "inputs": [
        {
          "internalType": "uint256",
          "name": "percentage",
          "type": "uint256"
        }
      ],
      "name": "setRequiredConsensusPercentage",
      "outputs": [],
      "stateMutability": "nonpayable",
      "type": "function"
    },
    {
      "inputs": [
        {
          "internalType": "uint256",
          "name": "timeoutSeconds",
          "type": "uint256"
        }
      ],
      "name": "setConsensusTimeout",
      "outputs": [],
      "stateMutability": "nonpayable",
      "type": "function"
    },
    {
      "inputs": [
        {
          "internalType": "uint256",
          "name": "minStake",
          "type": "uint256"
        }
      ],
      "name": "setMinPBFTStake",
      "outputs": [],
      "stateMutability": "nonpayable",
      "type": "function"
    },
    {
      "inputs": [
        {
          "internalType": "address",
          "name": "node",
          "type": "address"
        }
      ],
      "name": "addPBFTNode",
      "outputs": [],
      "stateMutability": "payable",
      "type": "function",
      "payable": true
    },
    {
      "inputs": [
        {
          "internalType": "address",
          "name": "node",
          "type": "address"
        }
      ],
      "name": "removePBFTNode",
      "outputs": [],
      "stateMutability": "nonpayable",
      "type": "function"
    },
    {
      "inputs": [],
      "name": "stakePBFTNode",
      "outputs": [],
      "stateMutability": "payable",
      "type": "function",
      "payable": true
    },
    {
      "inputs": [],
      "name": "stakeGateway",
      "outputs": [],
      "stateMutability": "payable",
      "type": "function",
      "payable": true
    },
    {
      "inputs": [
        {
          "internalType": "uint256",
          "name": "amount",
          "type": "uint256"
        }
      ],
      "name": "unstakeGateway",
      "outputs": [],
      "stateMutability": "nonpayable",
      "type": "function"
    },
    {
      "inputs": [
        {
          "internalType": "address",
          "name": "gateway",
          "type": "address"
        },
        {
          "internalType": "uint16",
          "name": "pctBps",
          "type": "uint16"
        },
        {
          "internalType": "bytes32",
          "name": "evidenceCIDHash",
          "type": "bytes32"
        }
      ],
      "name": "slashGateway",
      "outputs": [],
      "stateMutability": "nonpayable",
      "type": "function"
    },
    {
      "inputs": [
        {
          "internalType": "uint256",
          "name": "campaignId",
          "type": "uint256"
        },
        {
          "internalType": "uint256",
          "name": "cpcWei",
          "type": "uint256"
        },
        {
          "internalType": "string",
          "name": "meta",
          "type": "string"
        }
      ],
      "name": "createCampaign",
      "outputs": [
        {
          "internalType": "uint256",
          "name": "id",
          "type": "uint256"
        }
      ],
      "stateMutability": "payable",
      "type": "function",
      "payable": true
    },
    {
      "inputs": [
        {
          "internalType": "uint256",
          "name": "campaignId",
          "type": "uint256"
        }
      ],
      "name": "fundCampaign",
      "outputs": [],
      "stateMutability": "payable",
      "type": "function",
      "payable": true
    },
    {
      "inputs": [
        {
          "internalType": "uint256",
          "name": "campaignId",
          "type": "uint256"
        },
        {
          "internalType": "bool",
          "name": "paused",
          "type": "bool"
        }
      ],
      "name": "setCampaignPaused",
      "outputs": [],
      "stateMutability": "nonpayable",
      "type": "function"
    },
    {
      "inputs": [
        {
          "internalType": "bytes32",
          "name": "clickHash",
          "type": "bytes32"
        },
        {
          "internalType": "uint256",
          "name": "campaignId",
          "type": "uint256"
        },
        {
          "internalType": "address",
          "name": "publisher",
          "type": "address"
        },
        {
          "internalType": "uint256",
          "name": "timestamp",
          "type": "uint256"
        },
        {
          "internalType": "bytes32",
          "name": "metadataCIDHash",
          "type": "bytes32"
        }
      ],
      "name": "proposeTransaction",
      "outputs": [
        {
          "internalType": "bytes32",
          "name": "",
          "type": "bytes32"
        }
      ],
      "stateMutability": "nonpayable",
      "type": "function"
    },
    {
      "inputs": [
        {
          "internalType": "bytes32",
          "name": "txHash",
          "type": "bytes32"
        },
        {
          "internalType": "bool",
          "name": "approve",
          "type": "bool"
        }
      ],
      "name": "voteOnTransaction",
      "outputs": [],
      "stateMutability": "nonpayable",
      "type": "function"
    },
    {
      "inputs": [
        {
          "internalType": "bytes32",
          "name": "txHash",
          "type": "bytes32"
        }
      ],
      "name": "cleanupExpiredTransaction",
      "outputs": [],
      "stateMutability": "nonpayable",
      "type": "function"
    },
    {
      "inputs": [
        {
          "internalType": "bytes32",
          "name": "clickHash",
          "type": "bytes32"
        },
        {
          "internalType": "uint256",
          "name": "campaignId",
          "type": "uint256"
        },
        {
          "internalType": "address",
          "name": "publisher",
          "type": "address"
        },
        {
          "internalType": "address",
          "name": "gateway",
          "type": "address"
        },
        {
          "internalType": "uint256",
          "name": "timestamp",
          "type": "uint256"
        },
        {
          "internalType": "bytes32",
          "name": "metadataCIDHash",
          "type": "bytes32"
        }
      ],
      "name": "computeClickMessageHash",
      "outputs": [
        {
          "internalType": "bytes32",
          "name": "",
          "type": "bytes32"
        }
      ],
      "stateMutability": "view",
      "type": "function",
      "constant": true
    },
    {
      "inputs": [
        {
          "internalType": "bytes32",
          "name": "clickHash",
          "type": "bytes32"
        },
        {
          "internalType": "uint256",
          "name": "campaignId",
          "type": "uint256"
        },
        {
          "internalType": "address",
          "name": "publisher",
          "type": "address"
        },
        {
          "internalType": "uint256",
          "name": "timestamp",
          "type": "uint256"
        },
        {
          "internalType": "bytes32",
          "name": "metadataCIDHash",
          "type": "bytes32"
        }
      ],
      "name": "submitClickGatewayDirect",
      "outputs": [],
      "stateMutability": "nonpayable",
      "type": "function"
    },
    {
      "inputs": [
        {
          "internalType": "bytes32",
          "name": "clickHash",
          "type": "bytes32"
        },
        {
          "internalType": "uint256",
          "name": "campaignId",
          "type": "uint256"
        },
        {
          "internalType": "address",
          "name": "publisher",
          "type": "address"
        },
        {
          "internalType": "address",
          "name": "gateway",
          "type": "address"
        },
        {
          "internalType": "uint256",
          "name": "timestamp",
          "type": "uint256"
        },
        {
          "internalType": "bytes32",
          "name": "metadataCIDHash",
          "type": "bytes32"
        },
        {
          "internalType": "bytes",
          "name": "signature",
          "type": "bytes"
        }
      ],
      "name": "submitClickWithSig",
      "outputs": [],
      "stateMutability": "nonpayable",
      "type": "function"
    },
    {
      "inputs": [
        {
          "internalType": "uint256",
          "name": "amount",
          "type": "uint256"
        }
      ],
      "name": "withdrawPublisher",
      "outputs": [],
      "stateMutability": "nonpayable",
      "type": "function"
    },
    {
      "inputs": [
        {
          "internalType": "uint256",
          "name": "campaignId",
          "type": "uint256"
        }
      ],
      "name": "getCampaign",
      "outputs": [
        {
          "internalType": "address",
          "name": "advertiser",
          "type": "address"
        },
        {
          "internalType": "uint256",
          "name": "cpcWei",
          "type": "uint256"
        },
        {
          "internalType": "uint256",
          "name": "budgetWei",
          "type": "uint256"
        },
        {
          "internalType": "bool",
          "name": "paused",
          "type": "bool"
        },
        {
          "internalType": "string",
          "name": "meta",
          "type": "string"
        }
      ],
      "stateMutability": "view",
      "type": "function",
      "constant": true
    },
    {
      "inputs": [],
      "name": "getCampaignIds",
      "outputs": [
        {
          "internalType": "uint256[]",
          "name": "",
          "type": "uint256[]"
        }
      ],
      "stateMutability": "view",
      "type": "function",
      "constant": true
    },
    {
      "inputs": [],
      "name": "getActiveNodes",
      "outputs": [
        {
          "internalType": "address[]",
          "name": "",
          "type": "address[]"
        }
      ],
      "stateMutability": "view",
      "type": "function",
      "constant": true
    },
    {
      "inputs": [],
      "name": "getPendingTransactionHashes",
      "outputs": [
        {
          "internalType": "bytes32[]",
          "name": "",
          "type": "bytes32[]"
        }
      ],
      "stateMutability": "view",
      "type": "function",
      "constant": true
    },
    {
      "inputs": [
        {
          "internalType": "bytes32",
          "name": "txHash",
          "type": "bytes32"
        }
      ],
      "name": "getPendingTransactionDetails",
      "outputs": [
        {
          "internalType": "uint256",
          "name": "campaignId",
          "type": "uint256"
        },
        {
          "internalType": "address",
          "name": "publisher",
          "type": "address"
        },
        {
          "internalType": "address",
          "name": "gateway",
          "type": "address"
        },
        {
          "internalType": "uint256",
          "name": "approveVotes",
          "type": "uint256"
        },
        {
          "internalType": "uint256",
          "name": "rejectVotes",
          "type": "uint256"
        },
        {
          "internalType": "uint256",
          "name": "totalVotes",
          "type": "uint256"
        },
        {
          "internalType": "uint256",
          "name": "requiredVotes",
          "type": "uint256"
        },
        {
          "internalType": "bool",
          "name": "executed",
          "type": "bool"
        },
        {
          "internalType": "bool",
          "name": "consensusReached",
          "type": "bool"
        },
        {
          "internalType": "uint256",
          "name": "proposalTime",
          "type": "uint256"
        }
      ],
      "stateMutability": "view",
      "type": "function",
      "constant": true
    },
    {
      "inputs": [
        {
          "internalType": "bytes32",
          "name": "txHash",
          "type": "bytes32"
        },
        {
          "internalType": "address",
          "name": "node",
          "type": "address"
        }
      ],
      "name": "hasNodeVoted",
      "outputs": [
        {
          "internalType": "bool",
          "name": "",
          "type": "bool"
        }
      ],
      "stateMutability": "view",
      "type": "function",
      "constant": true
    },
    {
      "inputs": [
        {
          "internalType": "bytes32",
          "name": "txHash",
          "type": "bytes32"
        },
        {
          "internalType": "address",
          "name": "node",
          "type": "address"
        }
      ],
      "name": "getNodeVote",
      "outputs": [
        {
          "internalType": "bool",
          "name": "",
          "type": "bool"
        }
      ],
      "stateMutability": "view",
      "type": "function",
      "constant": true
    },
    {
      "inputs": [
        {
          "internalType": "address",
          "name": "node",
          "type": "address"
        }
      ],
      "name": "getNodeStats",
      "outputs": [
        {
          "internalType": "bool",
          "name": "isActive",
          "type": "bool"
        },
        {
          "internalType": "uint256",
          "name": "stake",
          "type": "uint256"
        },
        {
          "internalType": "uint256",
          "name": "votesParticipated",
          "type": "uint256"
        },
        {
          "internalType": "uint256",
          "name": "correctVotes",
          "type": "uint256"
        },
        {
          "internalType": "uint256",
          "name": "accuracyPercentage",
          "type": "uint256"
        }
      ],
      "stateMutability": "view",
      "type": "function",
      "constant": true
    }
  ],
  "bytecode": "0x6080346200012c57601f62003ce938819003918201601f19168301916001600160401b0383118484101762000131578084926020946040528339810103126200012c57516001600160a01b038116908190036200012c57604360105561025860115564174876e8006012556706f05b59d3b200006013556201518060155560786016558015620000f35760018060a01b03199033826006541617600655806000923384528360205260408420600160ff198254161790556014541617601455604051917f8c3aa5f43a388513435861bf27dfad7829cd248696fed367c62d441f629544968180a3613ba19081620001488239f35b60405162461bcd60e51b8152602060048201526011602482015270151c99585cdd5c9e481c995c5d5a5c9959607a1b6044820152606490fd5b600080fd5b634e487b7160e01b600052604160045260246000fdfe60806040526004361015610018575b361561001657005b005b60003560e01c8063022a91d4146104335780630faef4301461042e578063141961bc146103ed5780631634b3e7146104295780631b4160d71461042457806324d7806c1461041f5780632d3456701461041a5780633213d179146104155780633da7d2ed1461041057806341859ac81461040b578063426233601461040657806347c9e8f614610401578063480d1dd3146103fc57806349b90557146103f757806352b391b2146103f25780635598f8cc146103ed5780635e534494146103e85780636031df0a146103e357806360566362146103de578063614b6090146103d957806361a32d18146103d457806361d027b3146103cf57806362b4a3cf146103ca578063656123d8146103c55780636962cecc146103c05780636b51e919146103bb5780636d89b331146103b65780636ed906b9146103b157806372abdce4146103ac5780637dca77a1146103a757806380a35312146103a257806385134bc61461039d578063852f522e1461039857806389eb494f146103935780638a3390291461038e5780638dbb25f7146103895780638f5b2b211461038457806391cbf44e1461037f57806392bd38bc1461037a57806392d59fc11461037557806396f9d9831461037057806399d5185e1461036b5780639b5477ed14610366578063a38ad98614610361578063a435a3571461035c578063a698195414610357578063b057253c14610352578063b0f0a7f41461034d578063b369359d14610348578063b38f949b14610343578063b402980b1461033e578063b51eb90314610339578063b9800c5914610334578063bfe69d9a1461032f578063c11be1b81461032a578063c14af16214610325578063cf173b9014610320578063dc17027d1461031b578063de45db4f14610316578063ea87556514610311578063eba41f6b1461030c578063eeed60b314610307578063f0f4426014610302578063f6c0169c146102fd578063f851a440146102f85763f94c3f230361000e57612514565b6124eb565b61248b565b6123c4565b6123a6565b612373565b6122f9565b6122bf565b6122a1565b612272565b61202d565b611fea565b611fab565b611f78565b611ec6565b611e4f565b611d9c565b611d5d565b611d3f565b611d00565b611cc1565b611c3a565b611bd5565b611b5e565b611b2b565b611ae2565b61196b565b6118ba565b61177f565b611708565b61166a565b611637565b6115fd565b6115d9565b611589565b611512565b611423565b6113f0565b6113b1565b611295565b6111ec565b611170565b6110af565b611038565b61100f565b610ff1565b610f77565b610f59565b610eef565b610e4b565b61070a565b610da1565b610d62565b610ce8565b610c83565b610c49565b610c0a565b610b90565b610aac565b610a35565b6109f6565b610858565b6107fa565b610554565b610473565b6020908160408183019282815285518094520193019160005b82811061045f575050505090565b835185529381019392810192600101610451565b346104eb576000806003193601126104e857604051600f8054808352908352602080830193600080516020613b4c83398151915292915b8282106104d1576104cd856104c181890382610676565b60405191829182610438565b0390f35b8354865294850194600193840193909101906104aa565b80fd5b600080fd5b6001600160a01b031690565b602435906001600160a01b03821682036104eb57565b604435906001600160a01b03821682036104eb57565b606435906001600160a01b03821682036104eb57565b600435906001600160a01b03821682036104eb57565b346104eb5760403660031901126104eb576004356105706104fc565b81600052600e60205260ff61058c82600c6040600020016109df565b5416156105cc576105b36105ba916104cd93600052600e602052600d6040600020016109df565b5460ff1690565b60405190151581529081906020820190565b60405162461bcd60e51b8152602060048201526012602482015271139bd919481a185cc81b9bdd081d9bdd195960721b6044820152606490fd5b6000526008602052604060002090565b600052600e602052604060002090565b90600182811c92168015610656575b602083101461064057565b634e487b7160e01b600052602260045260246000fd5b91607f1691610635565b634e487b7160e01b600052604160045260246000fd5b601f909101601f19168101906001600160401b0382119082101761069957604052565b610660565b93919594929060018060a01b031684526020958685015260408401521515606083015260a060808301528051908160a084015260005b8281106106f657505060c09293506000838284010152601f8019910116010190565b81810186015184820160c0015285016106d4565b346104eb576020806003193601126104eb576000906004358252600881526040822060018060a01b03815416906001908181015493600282015490600460ff6003850154169301604051948882549261076284610626565b808952938381169081156107d6575060011461079b575b505050505061078f836104cd9596970384610676565b6040519586958661069e565b9080949a50528883205b8284106107c35750505083019095019461078f836104cd3880610779565b80548785018b01529289019281016107a5565b60ff19168987015250505050151560051b840101955061078f836104cd3880610779565b346104eb5760203660031901126104eb57600435600052600a602052602060ff604060002054166040519015158152f35b9181601f840112156104eb578235916001600160401b0383116104eb57602083818601950101116104eb57565b346104eb5760e03660031901126104eb57602435600435610877610512565b91610880610528565b9260a43592608435929060c4356001600160401b0381116104eb576109516105b3886109376109248761091e886108d26100169f8f908f908f6108ca6109569e369060040161082b565b9890966137cb565b6040517b0ca2ba3432b932bab69029b4b3b732b21026b2b9b9b0b3b29d05199960211b60208201908152603c80830193909352918152610913605c82610676565b519020923691612dc9565b906139c0565b6001600160a01b0383811691161461384d565b6001600160a01b0316600090815260016020526040902090565b61388d565b4284111561097a5761097561096b42866128f6565b601654101561390e565b61300c565b61097561098785426128f6565b60155410156138ce565b6001600160a01b0316600090815260076020526040902090565b6001600160a01b03166000908152600c6020526040902090565b6001600160a01b0316600090815260036020526040902090565b9060018060a01b0316600052602052604060002090565b346104eb5760203660031901126104eb576001600160a01b03610a1761053e565b166000526000602052602060ff604060002054166040519015158152f35b346104eb5760203660031901126104eb57610a4e61053e565b60009033825281602052610a6860ff6040842054166126a7565b6001600160a01b0316808252602082905260408220805460ff191690557f631ff1c4e1a02c54b480a34b810e03bcee61fe38efcb243930a7f820914923e28280a280f35b346104eb5760203660031901126104eb576004356000903382526001602052610adb60ff604084205416612a36565b80151580610b7a575b610aed90612a81565b7f5a234eb1aa7640e15f81f6a544d81e5df683782173bdc5edeeeed061c42f3040610b68610b2483610b1e33610991565b546128f6565b80158015610b6e575b610b3690612abe565b80610b4033610991565b55610b5a8580808088335af1610b5461297b565b50612afc565b604051918291339583612a70565b0390a280f35b50601354811015610b2d565b5033825260076020526040822054811115610ae4565b346104eb5760203660031901126104eb57610ba961053e565b60009033825281602052610bc360ff6040842054166126a7565b6001600160a01b0316808252602082905260408220805460ff191660011790557fdb33970bd9bc1a413c7dac3b21e061709de094761c9396ef6d49b9ebdb7939338280a280f35b346104eb5760203660031901126104eb576001600160a01b03610c2b61053e565b166000526005602052602060ff604060002054166040519015158152f35b346104eb5760203660031901126104eb576001600160a01b03610c6a61053e565b1660005260076020526020604060002054604051908152f35b346104eb576000806003193601126104e85760405160098054808352908352602080830193600080516020613b2c83398151915292915b828210610cd1576104cd856104c181890382610676565b835486529485019460019384019390910190610cba565b346104eb5760203660031901126104eb57610d0161053e565b60009033825281602052610d1b60ff6040842054166126a7565b6001600160a01b0316808252600260205260408220805460ff191660011790557fd23bcfb31a1acf9b499949b0e6f2a060f57d2b3a445d13cc8c296a5050833a6f8280a280f35b346104eb5760203660031901126104eb576001600160a01b03610d8361053e565b166000526002602052602060ff604060002054166040519015158152f35b346104eb5760203660031901126104eb576001600160a01b03610dc261053e565b16600052600c6020526040600020600060028201549081610e19575b825460018401546003909401546040805160ff60a094851c161515815260208101969096528501939093526060840192909252608083015290f35b506003820154606481029080820460641490151715610e4657610e3f826104cd92612bc7565b9050610dde565b6128c2565b346104eb5760603660031901126104eb57610e6461053e565b60243561ffff811681036104eb576000913383528260205260ff6040842054168015610edc575b15610ea057610e9d9160443591612c2b565b80f35b60405162461bcd60e51b81526020600482015260146024820152732737ba1030b236b4b71037b91030bab234ba37b960611b6044820152606490fd5b50600260205260ff604084205416610e8b565b346104eb5760203660031901126104eb5760a06001600160a01b0380610f1361053e565b16600052600c6020526040600020805490600181015460ff60036002840154930154936040519581168652861c1615156020850152604084015260608301526080820152f35b346104eb5760003660031901126104eb576020601354604051908152f35b346104eb5760203660031901126104eb57610f9061053e565b60009033825281602052610faa60ff6040842054166126a7565b6001600160a01b0316808252600560205260408220805460ff191660011790557f27e652e5aad588ed60e723817f4f3ce9dcdbdc2848eba670295e366ea693be548280a280f35b346104eb5760003660031901126104eb576020601254604051908152f35b346104eb5760003660031901126104eb576014546040516001600160a01b039091168152602090f35b346104eb5760203660031901126104eb5761105161053e565b6000903382528160205261106b60ff6040842054166126a7565b6001600160a01b0316808252600360205260408220805460ff19166001179055600080516020613b0c8339815191528280a280f35b6024359081151582036104eb57565b346104eb5760403660031901126104eb576004356110cb6110a0565b9060009181835260086020526040832060018060a01b038154163314801561115b575b1561112557816105ba7feb034104a3d72bdb4a17b6628fc9eaa19a0e4523003d2698e0fd72a430e2eb2f936003610b6894016126df565b60405162461bcd60e51b815260206004820152600e60248201526d139bdd08185d5d1a1bdc9a5e995960921b6044820152606490fd5b503384528360205260ff6040852054166110ee565b346104eb5760203660031901126104eb5761118961053e565b600090338252816020526111a360ff6040842054166126a7565b6001600160a01b03168082526001602081905260408320805460ff191690911790557f995f88a2fc5c12a9db3dd89063dbd465ba15e8363af32c086c6da4487248ab0d8280a280f35b346104eb576000806003193601126104e8576040518091600d549081835260208093018092600d835284832090835b8181106112785750505084611231910385610676565b60405193838594850191818652518092526040850193925b82811061125857505050500390f35b83516001600160a01b031685528695509381019392810192600101611249565b82546001600160a01b03168452928601926001928301920161121b565b60203660031901126104eb576112a961053e565b600090338252816020526112c360ff6040842054166126a7565b6001600160a01b0381169061136d90611360906112e184151561270f565b6112ef601254341015612752565b61131461130f61130b611301846109ab565b5460a01c60ff1690565b1590565b612793565b61135261131f6127d5565b6001600160a01b03831681526001602082015234604082015286606082015286608082015261134d836109ab565b6127f4565b61135b81612845565b6109c5565b805460ff19166001179055565b7f7444d3411da8fe6fd4d0229de8e98c716472e2c384ed5a55e36a960a575859d460405182600080516020613b0c8339815191528580a23481528060208101610b68565b346104eb5760203660031901126104eb576001600160a01b036113d261053e565b166000526004602052602060ff604060002054166040519015158152f35b346104eb5760203660031901126104eb5733600052600060205261141b60ff604060002054166126a7565b600435601255005b346104eb5760203660031901126104eb57600435600052600e602052604060002080546104cd60018301549160018060a01b036002850154169361146a60038201546104f0565b91600482015460058301546006840154600785015490600886015492600987015494600b600a890154980154986040519c8d9c8d9960ff808d60081c169c169a9996936101809b9895929e9d9c999693919e6101a08c019f8c5260208c015260018060a01b0380921660408c01521660608a0152608089015260a088015260c087015260e0860152610100850152610120840152151561014083015215156101608201520152565b346104eb5760203660031901126104eb5761152b61053e565b6000903382528160205261154560ff6040842054166126a7565b6001600160a01b0316808252600460205260408220805460ff191690557f3c085ec65bc65a068bf5173bdbb32e02e8fbebab26c0ffc8cfe2cd95c1c464538280a280f35b346104eb5760003660031901126104eb576020601654604051908152f35b60a09060031901126104eb5760043590602435906044356001600160a01b03811681036104eb57906064359060843590565b346104eb5760206115f56115ec366115a7565b9392909261300c565b604051908152f35b346104eb5760c03660031901126104eb5760206115f561161b610512565b611623610528565b9060a43591608435916024356004356137cb565b346104eb5760203660031901126104eb5733600052600060205261166260ff604060002054166126a7565b600435601155005b346104eb5760203660031901126104eb57600435600090338252600b6020526040822054811515806116fe575b6116a090612a81565b818103908111610e4657338352600b60205260408320556116ca8280808085335af1610b5461297b565b60405190815233907f61136c8a797391fcd52c5552ea96089e2814d10eb84c76d221f58761125c4382908060208101610b68565b5080821115611697565b346104eb5760203660031901126104eb5761172161053e565b6000903382528160205261173b60ff6040842054166126a7565b6001600160a01b0316808252600560205260408220805460ff191690557f8591c806c51bb1950fcd2fe84423c1ad01b03662e3c900dc21b213fd482de7c08280a280f35b60603660031901126104eb576024356004356044356001600160401b0381116104eb576117b090369060040161082b565b83919315611883577f2e64da7e06e88ccd84d69eccb21119ca81e40e5648611e89edfe888c8fa6259783916104cd956117ea341515612d3a565b6118156001600160a01b0361180e61180187610606565b546001600160a01b031690565b1615612d80565b6118546118206127d5565b33815286602082015234604082015260006060820152611841368585612dc9565b608082015261184f86610606565b612e54565b61185d84612f64565b6118706040519283923397349085612f9a565b0390a36040519081529081906020820190565b60405162461bcd60e51b815260206004820152600f60248201526e0435043206d757374206265203e203608c1b6044820152606490fd5b60203660031901126104eb57600435600081815260086020526040902080546118ed906001600160a01b03161515612fcd565b341561193b5761193660027f42a74499fc8265a526ec8ab4b3e4a4a06e50ef92c084b2634b356f72a5ee44af9201611926348254612a29565b8091556040519182913483612a70565b0390a2005b60405162461bcd60e51b81526020600482015260086024820152674e6f2066756e647360c01b6044820152606490fd5b346104eb5760203660031901126104eb576004358061198981610616565b61199581541515613332565b600a81019060ff82546119aa82821615613376565b6119c56119be600b85015460115490612a29565b4211613759565b60081c1615611a4e575b50505060005b600f548082101561001657826119f76119ed84611aa7565b90549060031b1c90565b14611a0b5750611a06906128d8565b6119d5565b611a469250611a276119ed611a22611a2d936128e7565b611aa7565b91611aa7565b90919082549060031b91821b91600019901b1916179055565b61001661379f565b6006611a8691611a6c600080516020613acc83398151915294613489565b015460405191829182919060206040840193600081520152565b0390a28038806119cf565b634e487b7160e01b600052603260045260246000fd5b600f54811015611ac257600f60005260206000200190600090565b611a91565b600d54811015611ac257600d60005260206000200190600090565b346104eb5760203660031901126104eb57600435600d548110156104eb57600d600052600080516020613aec83398151915201546040516001600160a01b039091168152602090f35b346104eb5760203660031901126104eb57336000526000602052611b5660ff604060002054166126a7565b600435601655005b346104eb5760203660031901126104eb57611b7761053e565b60009033825281602052611b9160ff6040842054166126a7565b6001600160a01b0316808252600160205260408220805460ff191690557f3ab01fe5356cd9e5f966e94c7294a3a850b8e1c1b8f62e7293c3ea6a402309ca8280a280f35b346104eb5760203660031901126104eb57611bee61053e565b60009033825281602052611c0860ff6040842054166126a7565b6001600160a01b0316808252600360205260408220805460ff19169055600080516020613aac8339815191528280a280f35b346104eb5760203660031901126104eb57600435336000526000602052611c6860ff604060002054166126a7565b6032811180611cb6575b15611c7c57601055005b60405162461bcd60e51b8152602060048201526012602482015271496e76616c69642070657263656e7461676560701b6044820152606490fd5b506064811115611c72565b346104eb5760203660031901126104eb57600435600f548110156104eb57600f600052600080516020613b4c8339815191520154604051908152602090f35b346104eb5760203660031901126104eb576001600160a01b03611d2161053e565b166000526003602052602060ff604060002054166040519015158152f35b346104eb5760003660031901126104eb576020601154604051908152f35b346104eb5760203660031901126104eb576004356009548110156104eb576009600052600080516020613b2c8339815191520154604051908152602090f35b346104eb5760203660031901126104eb576004356000908152600e6020908152604091829020600181015460028201546003830154600684015460078501546008808701546009880154600a890154600b909901548b519889526001600160a01b039788169a89019a909a5295909416988601989098526060850191909152608084015260a083015260c082015260ff808316151560e08301529190931c16151561010083015261012082015261014090f35b346104eb5760203660031901126104eb57611e6861053e565b60009033825281602052611e8260ff6040842054166126a7565b6001600160a01b0316808252600260205260408220805460ff191690557feb2a2eb059f7ce22cdb9ce6710a0df23c2e8d5ca169ee77629faa99f8c788a018280a280f35b6000806003193601126104e8573381526001602052611eeb60ff604083205416612a36565b3415611f4557338152600760205260408120611f08348254612a29565b9055611f1333610991565b547f2a0a18dbee476b481250f5d3f9111f59cc104ea823d038e3ec86007e250e142960405180610b6833943483612a70565b60405162461bcd60e51b815260206004820152600b60248201526a139bc8115512081cd95b9d60aa1b6044820152606490fd5b346104eb5760203660031901126104eb57336000526000602052611fa360ff604060002054166126a7565b600435601355005b346104eb5760203660031901126104eb576001600160a01b03611fcc61053e565b166000526001602052602060ff604060002054166040519015158152f35b346104eb5760403660031901126104eb57602060ff61202161200a6104fc565b600435600052600e8452600c6040600020016109df565b54166040519015158152f35b346104eb576040806003193601126104eb5760043561204a6110a0565b91600092338452600360205261206560ff83862054166129ed565b338452600c60205261207f60ff8386205460a01c16612884565b61208883610616565b61209481541515613332565b600a8101906120b660ff83546120ac82821615613376565b60081c16156133c1565b6120fb611360600c83016120d86120d361130b6105b333856109df565b613409565b6120f46120ec600b86015460115490612a29565b421115613445565b33906109df565b6121118361210c33600d85016109df565b6126df565b600881019261212084546128d8565b8455801561225d576006820161213681546128d8565b90555b6002612144336109ab565b0161214f81546128d8565b905584519015158152339086907fa8934b5de653d266c6e8c00e5f0c2944c8272eb5ec79ad1e248784378f290ef690602090a360068101928354916009810154809310156000146121db5750505091610b68916121ba600080516020613acc83398151915294613489565b6121c385613565565b54905191829182919060206040840193600181520152565b60070180549094921161221f57505091610b6891612207600080516020613acc83398151915294613489565b54905191829182919060206040840193600081520152565b909391925054600d5414612235575b5050505080f35b600080516020613acc8339815191529261220761225193613489565b0390a23880808061222e565b6007820161226b81546128d8565b9055612139565b346104eb57610016612283366115a7565b9392909233600052600160205261097560ff60406000205416612a36565b346104eb5760003660031901126104eb576020601554604051908152f35b346104eb5760203660031901126104eb576001600160a01b036122e061053e565b16600052600b6020526020604060002054604051908152f35b346104eb5760203660031901126104eb5761231261053e565b6000903382528160205261232c60ff6040842054166126a7565b6001600160a01b0316808252600460205260408220805460ff191660011790557fc9d594f154febcaaae355dbbe3010e76ca4c9c49fc620fbe3c06517fdeac11a08280a280f35b346104eb5760203660031901126104eb5733600052600060205261239e60ff604060002054166126a7565b600435601555005b346104eb5760003660031901126104eb576020601054604051908152f35b346104eb5760203660031901126104eb576123dd61053e565b600090338252816020526123f760ff6040842054166126a7565b6001600160a01b0390808216801561245757610e9d92601454167f8c3aa5f43a388513435861bf27dfad7829cd248696fed367c62d441f629544968580a3601480546001600160a01b0319166001600160a01b0392909216919091179055565b60405162461bcd60e51b815260206004820152600c60248201526b5a65726f206164647265737360a01b6044820152606490fd5b6000806003193601126104e85733815260036020526124b060ff6040832054166129ed565b338152600c6020526124cb60ff604083205460a01c16612884565b338152600c60205260016040822001805490348201809211610e46575580f35b346104eb5760003660031901126104eb576006546040516001600160a01b039091168152602090f35b346104eb5760203660031901126104eb5761252d61053e565b6000903382528160205261254760ff6040842054166126a7565b61255b612556611301836109ab565b612884565b612574612567826109ab565b805460ff60a01b19169055565b61258a612580826109c5565b805460ff19169055565b6001600160a01b03908082169081600080516020613aac8339815191528580a2835b84600d54808310156126955784866125db6125c686611ac7565b905460039190911b1c6001600160a01b031690565b16146125f15750506125ec906128d8565b6125ac565b61266e949550819361263b839461261c6126166125c661261188976128e7565b611ac7565b91611ac7565b90919082549060031b9160018060a01b03809116831b921b1916179055565b612643612919565b81600161265b81612653856109ab565b0154936109ab565b0155865af161266861297b565b506129ab565b7f4c936f1d6ad9be801a3669e17d6a45930396095f4a955fc4264641dfa559dd318280a280f35b5061266e939450808093819350612643565b156126ae57565b60405162461bcd60e51b81526020600482015260096024820152682737ba1030b236b4b760b91b6044820152606490fd5b9060ff801983541691151516179055565b80546001600160a01b0319166001600160a01b03909216919091179055565b1561271657565b60405162461bcd60e51b8152602060048201526014602482015273496e76616c6964206e6f6465206164647265737360601b6044820152606490fd5b1561275957565b60405162461bcd60e51b8152602060048201526012602482015271496e73756666696369656e74207374616b6560701b6044820152606490fd5b1561279a57565b60405162461bcd60e51b81526020600482015260136024820152724e6f646520616c72656164792061637469766560681b6044820152606490fd5b6040519060a082016001600160401b0381118382101761069957604052565b90608060039161280d60018060a01b03825116856126f0565b6020810151845460ff60a01b191690151560a01b60ff60a01b1617845560408101516001850155606081015160028501550151910155565b600d5490600160401b821015610699576001820180600d55821015611ac257600d60005261288291600080516020613aec833981519152016126f0565b565b1561288b57565b60405162461bcd60e51b815260206004820152600f60248201526e4e6f6465206e6f742061637469766560881b6044820152606490fd5b634e487b7160e01b600052601160045260246000fd5b6000198114610e465760010190565b600019810191908211610e4657565b91908203918211610e4657565b634e487b7160e01b600052603160045260246000fd5b600d54801561295b576000198181019180831015611ac257600d60008190529101600080516020613aec8339815191520180546001600160a01b031916905555565b612903565b6001600160401b03811161069957601f01601f191660200190565b3d156129a6573d9061298c82612960565b9161299a6040519384610676565b82523d6000602084013e565b606090565b156129b257565b60405162461bcd60e51b815260206004820152601360248201527214dd185ad9481c99599d5b990819985a5b1959606a1b6044820152606490fd5b156129f457565b60405162461bcd60e51b815260206004820152600d60248201526c4e6f742050424654206e6f646560981b6044820152606490fd5b91908201809211610e4657565b15612a3d57565b60405162461bcd60e51b815260206004820152600b60248201526a4e6f74206761746577617960a81b6044820152606490fd5b908152602081019190915260400190565b15612a8857565b60405162461bcd60e51b815260206004820152600e60248201526d125b9d985b1a5908185b5bdd5b9d60921b6044820152606490fd5b15612ac557565b60405162461bcd60e51b815260206004820152600f60248201526e42656c6f77206d696e207374616b6560881b6044820152606490fd5b15612b0357565b60405162461bcd60e51b8152602060048201526013602482015272115512081d1c985b9cd9995c8819985a5b1959606a1b6044820152606490fd5b15612b4557565b60405162461bcd60e51b815260206004820152601060248201526f427073206f7574206f662072616e676560801b6044820152606490fd5b15612b8457565b60405162461bcd60e51b81526020600482015260086024820152674e6f207374616b6560c01b6044820152606490fd5b81810292918115918404141715610e4657565b8115612bd1570490565b634e487b7160e01b600052601260045260246000fd5b15612bee57565b60405162461bcd60e51b815260206004820152601560248201527414db185cda081d1c985b9cd9995c8819985a5b1959605a1b6044820152606490fd5b6001600160a01b03811692908315612d035761ffff7f12ca20a179e8472ecdc6a3b0c7081673a1d8f6008d5e76f92d788936ac8fed1d93169081151580612cf7575b612c7690612b3e565b612cb3612cad612ca6612c9e612c8b85610991565b5495612c98871515612b7d565b86612bb4565b612710900490565b80946128f6565b91610991565b55612ce3600080808085612cd3612cce612cce6014546104f0565b6104f0565b5af1612cdd61297b565b50612be7565b612cf260405192839283612a70565b0390a2565b50612710821115612c6d565b60405162461bcd60e51b815260206004820152600f60248201526e496e76616c6964206761746577617960881b6044820152606490fd5b15612d4157565b60405162461bcd60e51b8152602060048201526017602482015276125b9a5d1a585b08189d5919d95d081c995c5d5a5c9959604a1b6044820152606490fd5b15612d8757565b60405162461bcd60e51b815260206004820152601a60248201527943616d706169676e20494420616c72656164792065786973747360301b6044820152606490fd5b929192612dd582612960565b91612de36040519384610676565b8294818452818301116104eb578281602093846000960137010152565b90601f8111612e0e57505050565b600091825260208220906020601f850160051c83019410612e4a575b601f0160051c01915b828110612e3f57505050565b818155600101612e33565b9092508290612e2a565b8151612e69906001600160a01b0316826126f0565b60206080600482850151936001948582015560408601516002820155612e9860608701511515600383016126df565b019301519081519160018060401b03831161069957612ec183612ebb8754610626565b87612e00565b81601f8411600114612efa5750928293918392600094612eef575b50501b916000199060031b1c1916179055565b015192503880612edc565b919083601f198116612f1188600052602060002090565b946000905b88838310612f4a5750505010612f31575b505050811b019055565b015160001960f88460031b161c19169055388080612f27565b858701518855909601959485019487935090810190612f16565b600954600160401b811015610699576001810180600955811015611ac2576009600052600080516020613b2c8339815191520155565b928492608095928552602085015260606040850152816060850152848401376000828201840152601f01601f1916010190565b15612fd457565b60405162461bcd60e51b815260206004820152601060248201526f43616d706169676e206d697373696e6760801b6044820152606490fd5b939291909133600052600160205261302b60ff60406000205416612a36565b600d549361303c6003861015613170565b61304f61304887610616565b54156131b6565b6001600160a01b038316946130ec906130e59061306d881515613201565b61308f61308a61130b6105b38c600052600a602052604060002090565b61323e565b6130dc61309b88610606565b6130b26130ab612cce83546104f0565b1515612fcd565b6130cb6130c661130b600384015460ff1690565b61327c565b6001600282015491015411156132ba565b60105490612bb4565b6064900490565b918215613167575b61311361310088610616565b94888655866001870155600286016126f0565b61312033600386016126f0565b600484015560058301556009820155600b4291015561313e836132fc565b827fe4eea94acf96bbf92835e94f170c7693795cf71a25eeb3b9252df6f47beadd53600080a490565b600192506130f4565b1561317757565b60405162461bcd60e51b8152602060048201526017602482015276496e73756666696369656e742050424654206e6f64657360481b6044820152606490fd5b156131bd57565b60405162461bcd60e51b815260206004820152601c60248201527b151c985b9cd858dd1a5bdb88185b1c9958591e481c1c9bdc1bdcd95960221b6044820152606490fd5b1561320857565b60405162461bcd60e51b815260206004820152600e60248201526d2d32b93790383ab13634b9b432b960911b6044820152606490fd5b1561324557565b60405162461bcd60e51b815260206004820152600f60248201526e4475706c696361746520636c69636b60881b6044820152606490fd5b1561328357565b60405162461bcd60e51b815260206004820152600f60248201526e10d85b5c185a59db881c185d5cd959608a1b6044820152606490fd5b156132c157565b60405162461bcd60e51b8152602060048201526013602482015272125b9cdd59999a58da595b9d08189d5919d95d606a1b6044820152606490fd5b600f54600160401b811015610699576001810180600f55811015611ac257600f600052600080516020613b4c8339815191520155565b1561333957565b60405162461bcd60e51b8152602060048201526015602482015274151c985b9cd858dd1a5bdb881b9bdd08199bdd5b99605a1b6044820152606490fd5b1561337d57565b60405162461bcd60e51b815260206004820152601c60248201527b151c985b9cd858dd1a5bdb88185b1c9958591e48195e1958dd5d195960221b6044820152606490fd5b156133c857565b60405162461bcd60e51b815260206004820152601960248201527810dbdb9cd95b9cdd5cc8185b1c9958591e481c995858da1959603a1b6044820152606490fd5b1561341057565b60405162461bcd60e51b815260206004820152600d60248201526c105b1c9958591e481d9bdd1959609a1b6044820152606490fd5b1561344c57565b60405162461bcd60e51b8152602060048201526015602482015274159bdd1a5b99c81c195c9a5bd908195e1c1a5c9959605a1b6044820152606490fd5b805461ff001916610100179055565b1561349f57565b60405162461bcd60e51b815260206004820152601060248201526f105b1c9958591e48195e1958dd5d195960821b6044820152606490fd5b156134de57565b60405162461bcd60e51b815260206004820152601560248201527410dbdb9cd95b9cdd5cc81b9bdd081c995858da1959605a1b6044820152606490fd5b1561352257565b60405162461bcd60e51b815260206004820152601b60248201527a496e73756666696369656e7420617070726f76616c20766f74657360281b6044820152606490fd5b9061356f82610616565b916135a7600a840161359360ff825461358a82821615613498565b60081c166134d7565b61136060068601546009870154111561351b565b6135bf6113608454600052600a602052604060002090565b600190818401936135d08554610606565b838101936002855492016135e58382546128f6565b9055600283019161361e6136166135fc85546104f0565b6001600160a01b03166000908152600b6020526040902090565b918254612a29565b9055600c83016000825b6136d8575b5050506136649394957f15bd2785d9e0f1a4f550fd9a407c568547cef52bdfc00b65e71608b09a3fccbc83549154958693546104f0565b9661367260038601546104f0565b90546004860154600590960154604080516001600160a01b0394851681526020810193909352820196909652606081019590955296909616958693608090a47fb1501502bdf1db3ae6ec83dc18980edaa17e48334465830f6a95023754830502600080a4565b600d80548210156137535790613717916136f46125c683611ac7565b90816137036105b382886109df565b918261373b575b505061371d575b506128d8565b82613628565b6137286003916109ab565b0161373381546128d8565b905538613711565b61374c9250906105b3918a016109df565b813861370a565b5061362d565b1561376057565b60405162461bcd60e51b8152602060048201526017602482015276151c985b9cd858dd1a5bdb881b9bdd08195e1c1a5c9959604a1b6044820152606490fd5b600f54801561295b57600019818101919081831015611ac257600091600f835260208320010155600f55565b9492939190936040519460208601964688523060601b60408801526a41445f434c49434b5f563160a81b6054880152605f870152607f86015260018060601b0319809260601b16609f86015260601b1660b384015260c783015260e782015260e78152610120810181811060018060401b038211176106995760405251902090565b1561385457565b60405162461bcd60e51b8152602060048201526011602482015270496e76616c6964207369676e617475726560781b6044820152606490fd5b1561389457565b60405162461bcd60e51b81526020600482015260126024820152715369676e6572206e6f74206761746577617960701b6044820152606490fd5b156138d557565b60405162461bcd60e51b8152602060048201526011602482015270151a5b595cdd185b5c081d1bdbc81bdb19607a1b6044820152606490fd5b1561391557565b60405162461bcd60e51b815260206004820152601b60248201527a54696d657374616d7020746f6f2066617220696e2066757475726560281b6044820152606490fd5b60ff601b9116019060ff8211610e4657565b1561397157565b60405162461bcd60e51b815260206004820152601b60248201527a496e76616c6964207369676e6174757265202776272076616c756560281b6044820152606490fd5b6040513d6000823e3d90fd5b6041825103613a6b576020916000918291848101519260606040830151920151901a92601b8410613a54575b90613a3091613a0a60ff8616601b8114908115613a49575b5061396a565b604051948594859094939260ff6060936080840197845216602083015260408201520152565b838052039060015afa15613a445760005190565b6139b4565b601c91501438613a04565b9290613a62613a3092613958565b939091506139ec565b60405162461bcd60e51b8152602060048201526018602482015277092dcecc2d8d2c840e6d2cedcc2e8eae4ca40d8cadccee8d60431b6044820152606490fdfec455eb35701ebc072df0edc37e290f52a605e8e9cfe5c5a56e5c1cecff608a1cf82d4ada24984256df3d568e911e67d66779debd1002ec9e94f076101d791756d7b6990105719101dabeb77144f2a3385c8033acd3af97e9423a695e81ad1eb55464aa01119cb5a611744609bddebc20728bb18c65935f2ec97bc49238a6d7326e1540171b6c0c960b71a7020d9f60077f6af931a8bbf590da0223dacf75c7af8d1108e10bcb7c27dddfc02ed9d693a074039d026cf4ea4240b40f7d581ac802a26469706673582212206ae36c11a393df60a1509af50cef1fbf48cfff9829436596864367e5ead73c0264736f6c63430008130033",
  "immutableReferences": {},
  "source": "// SPDX-License-Identifier: MIT\r\npragma solidity ^0.8.19;\r\n\r\ncontract AdFraudPBFT {\r\n    // Minimal ECDSA recovery\r\n    function recoverSigner(bytes32 ethSignedMessageHash, bytes memory signature) internal pure returns (address) {\r\n        require(signature.length == 65, \"Invalid signature length\");\r\n        bytes32 r; bytes32 s; uint8 v;\r\n        assembly {\r\n            r := mload(add(signature, 32))\r\n            s := mload(add(signature, 64))\r\n            v := byte(0, mload(add(signature, 96)))\r\n        }\r\n        if (v < 27) v += 27;\r\n        require(v == 27 || v == 28, \"Invalid signature 'v' value\");\r\n        return ecrecover(ethSignedMessageHash, v, r, s);\r\n    }\r\n\r\n    // Role mappings\r\n    mapping(address => bool) public isAdmin;\r\n    mapping(address => bool) public isGateway;\r\n    mapping(address => bool) public isAuditor;\r\n    mapping(address => bool) public isPbftNode;\r\n\r\n    // NEW: advertiser/publisher roles\r\n    mapping(address => bool) public isAdvertiser;\r\n    mapping(address => bool) public isPublisher;\r\n\r\n    address public admin;\r\n\r\n    // Role events\r\n    event AdminAssigned(address indexed account);\r\n    event AdminRevoked(address indexed account);\r\n    event GatewayAssigned(address indexed account);\r\n    event GatewayRevoked(address indexed account);\r\n    event AuditorAssigned(address indexed account);\r\n    event AuditorRevoked(address indexed account);\r\n    event PbftNodeAssigned(address indexed account);\r\n    event PbftNodeRevoked(address indexed account);\r\n    // NEW role events\r\n    event AdvertiserAssigned(address indexed account);\r\n    event AdvertiserRevoked(address indexed account);\r\n    event PublisherAssigned(address indexed account);\r\n    event PublisherRevoked(address indexed account);\r\n\r\n    // Original Events\r\n    event TreasuryChanged(address indexed oldTreasury, address indexed newTreasury);\r\n    event GatewayStaked(address indexed gateway, uint256 amount, uint256 totalStake);\r\n    event GatewayUnstaked(address indexed gateway, uint256 amount, uint256 totalStake);\r\n    event GatewaySlashed(address indexed gateway, uint256 slashAmount, bytes32 evidenceCIDHash);\r\n\r\n    event CampaignCreated(uint256 indexed campaignId, address indexed advertiser, uint256 cpcWei, uint256 initialBudget, string meta);\r\n    event CampaignFunded(uint256 indexed campaignId, uint256 amount, uint256 newBudget);\r\n    event CampaignPaused(uint256 indexed campaignId, bool paused);\r\n\r\n    event ClickRecorded(\r\n        bytes32 indexed clickHash,\r\n        uint256 indexed campaignId,\r\n        address indexed publisher,\r\n        address gateway,\r\n        uint256 cpcWei,\r\n        uint256 timestamp,\r\n        bytes32 metadataCIDHash\r\n    );\r\n\r\n    event PublisherWithdrawal(address indexed publisher, uint256 amount);\r\n\r\n    // PBFT Events\r\n    event PBFTNodeAdded(address indexed node, uint256 stake);\r\n    event PBFTNodeRemoved(address indexed node);\r\n    event TransactionProposed(bytes32 indexed txHash, uint256 indexed campaignId, address indexed publisher);\r\n    event ConsensusVote(bytes32 indexed txHash, address indexed node, bool vote);\r\n    event ConsensusReached(bytes32 indexed txHash, bool approved, uint256 voteCount);\r\n    event TransactionExecuted(bytes32 indexed txHash, uint256 indexed campaignId, address indexed publisher);\r\n\r\n    // Data structures\r\n    struct Campaign {\r\n        address advertiser;\r\n        uint256 cpcWei;\r\n        uint256 budgetWei;\r\n        bool paused;\r\n        string meta;\r\n    }\r\n\r\n    struct PBFTNode {\r\n        address nodeAddress;\r\n        bool isActive;\r\n        uint256 stake;\r\n        uint256 votesParticipated;\r\n        uint256 correctVotes;\r\n    }\r\n\r\n    struct PendingTransaction {\r\n        bytes32 txHash;\r\n        uint256 campaignId;\r\n        address publisher;\r\n        address gateway;\r\n        uint256 timestamp;\r\n        bytes32 metadataCIDHash;\r\n        uint256 approveVotes;\r\n        uint256 rejectVotes;\r\n        uint256 totalVotes;\r\n        uint256 requiredVotes;\r\n        bool executed;\r\n        bool consensusReached;\r\n        uint256 proposalTime;\r\n        mapping(address => bool) hasVoted;\r\n        mapping(address => bool) voteValue;\r\n    }\r\n\r\n    // Storage\r\n    mapping(address => uint256) public stakeOf;\r\n    mapping(uint256 => Campaign) public campaigns;\r\n    uint256[] public campaignIds;\r\n    mapping(bytes32 => bool) public usedClickHash;\r\n    mapping(address => uint256) public publisherBalance;\r\n\r\n    mapping(address => PBFTNode) public pbftNodes;\r\n    address[] public activeNodes;\r\n    mapping(bytes32 => PendingTransaction) public pendingTransactions;\r\n    bytes32[] public pendingTxHashes;\r\n\r\n    uint256 public requiredConsensusPercentage = 67;\r\n    uint256 public consensusTimeoutSeconds = 600;\r\n\r\n    // CHANGED: default min PBFT stake set to 0.0000001 ETH\r\n    uint256 public minPBFTStake = 100_000_000_000; // 1e11 wei = 0.0000001 ether\r\n\r\n    uint256 public minGatewayStakeWei = 0.5 ether;\r\n    address public treasury;\r\n    uint256 public maxClickAgeSeconds = 86400;\r\n    uint256 public maxClickFutureSeconds = 120;\r\n\r\n    // Modifiers\r\n    modifier onlyAdmin() {\r\n        require(isAdmin[msg.sender], \"Not admin\");\r\n        _;\r\n    }\r\n\r\n    modifier onlyGateway() {\r\n        require(isGateway[msg.sender], \"Not gateway\");\r\n        _;\r\n    }\r\n\r\n    modifier onlyAuditor() {\r\n        require(isAuditor[msg.sender], \"Not auditor\");\r\n        _;\r\n    }\r\n\r\n    modifier onlyPbftNode() {\r\n        require(isPbftNode[msg.sender], \"Not PBFT node\");\r\n        _;\r\n    }\r\n\r\n    modifier onlyAdminOrAuditor() {\r\n        require(isAdmin[msg.sender] || isAuditor[msg.sender], \"Not admin or auditor\");\r\n        _;\r\n    }\r\n\r\n    modifier onlyActivePbftNode() {\r\n        require(isPbftNode[msg.sender], \"Not PBFT node\");\r\n        require(pbftNodes[msg.sender].isActive, \"Node not active\");\r\n        _;\r\n    }\r\n\r\n    constructor(address _treasury) {\r\n        require(_treasury != address(0), \"Treasury required\");\r\n        admin = msg.sender;\r\n        isAdmin[admin] = true;\r\n        treasury = _treasury;\r\n        emit TreasuryChanged(address(0), _treasury);\r\n    }\r\n\r\n    // Role management\r\n    function assignAdmin(address account) external onlyAdmin {\r\n        isAdmin[account] = true;\r\n        emit AdminAssigned(account);\r\n    }\r\n\r\n    function revokeAdmin(address account) external onlyAdmin {\r\n        isAdmin[account] = false;\r\n        emit AdminRevoked(account);\r\n    }\r\n\r\n    function assignGateway(address account) external onlyAdmin {\r\n        isGateway[account] = true;\r\n        emit GatewayAssigned(account);\r\n    }\r\n\r\n    function revokeGateway(address account) external onlyAdmin {\r\n        isGateway[account] = false;\r\n        emit GatewayRevoked(account);\r\n    }\r\n\r\n    function assignAuditor(address account) external onlyAdmin {\r\n        isAuditor[account] = true;\r\n        emit AuditorAssigned(account);\r\n    }\r\n\r\n    function revokeAuditor(address account) external onlyAdmin {\r\n        isAuditor[account] = false;\r\n        emit AuditorRevoked(account);\r\n    }\r\n\r\n    function assignPbftNode(address account) external onlyAdmin {\r\n        isPbftNode[account] = true;\r\n        emit PbftNodeAssigned(account);\r\n    }\r\n\r\n    function revokePbftNode(address account) external onlyAdmin {\r\n        isPbftNode[account] = false;\r\n        emit PbftNodeRevoked(account);\r\n    }\r\n\r\n    // NEW: advertiser/publisher role management\r\n    function assignAdvertiser(address account) external onlyAdmin {\r\n        isAdvertiser[account] = true;\r\n        emit AdvertiserAssigned(account);\r\n    }\r\n\r\n    function revokeAdvertiser(address account) external onlyAdmin {\r\n        isAdvertiser[account] = false;\r\n        emit AdvertiserRevoked(account);\r\n    }\r\n\r\n    function assignPublisher(address account) external onlyAdmin {\r\n        isPublisher[account] = true;\r\n        emit PublisherAssigned(account);\r\n    }\r\n\r\n    function revokePublisher(address account) external onlyAdmin {\r\n        isPublisher[account] = false;\r\n        emit PublisherRevoked(account);\r\n    }\r\n\r\n    // Admin config\r\n    function setMinGatewayStake(uint256 newMin) external onlyAdmin {\r\n        minGatewayStakeWei = newMin;\r\n    }\r\n\r\n    function setTreasury(address newTreasury) external onlyAdmin {\r\n        require(newTreasury != address(0), \"Zero address\");\r\n        emit TreasuryChanged(treasury, newTreasury);\r\n        treasury = newTreasury;\r\n    }\r\n\r\n    function setMaxClickAgeSeconds(uint256 secs) external onlyAdmin {\r\n        maxClickAgeSeconds = secs;\r\n    }\r\n\r\n    function setMaxClickFutureSeconds(uint256 secs) external onlyAdmin {\r\n        maxClickFutureSeconds = secs;\r\n    }\r\n\r\n    // PBFT configuration\r\n    function setRequiredConsensusPercentage(uint256 percentage) external onlyAdmin {\r\n        require(percentage > 50 && percentage <= 100, \"Invalid percentage\");\r\n        requiredConsensusPercentage = percentage;\r\n    }\r\n\r\n    function setConsensusTimeout(uint256 timeoutSeconds) external onlyAdmin {\r\n        consensusTimeoutSeconds = timeoutSeconds;\r\n    }\r\n\r\n    function setMinPBFTStake(uint256 minStake) external onlyAdmin {\r\n        minPBFTStake = minStake;\r\n    }\r\n\r\n    // PBFT node management\r\n    function addPBFTNode(address node) external payable onlyAdmin {\r\n        require(node != address(0), \"Invalid node address\");\r\n        require(msg.value >= minPBFTStake, \"Insufficient stake\");\r\n        require(!pbftNodes[node].isActive, \"Node already active\");\r\n\r\n        pbftNodes[node] = PBFTNode({\r\n            nodeAddress: node,\r\n            isActive: true,\r\n            stake: msg.value,\r\n            votesParticipated: 0,\r\n            correctVotes: 0\r\n        });\r\n\r\n        activeNodes.push(node);\r\n\r\n        isPbftNode[node] = true;\r\n        emit PbftNodeAssigned(node);\r\n\r\n        emit PBFTNodeAdded(node, msg.value);\r\n    }\r\n\r\n    function removePBFTNode(address node) external onlyAdmin {\r\n        require(pbftNodes[node].isActive, \"Node not active\");\r\n\r\n        pbftNodes[node].isActive = false;\r\n        isPbftNode[node] = false;\r\n        emit PbftNodeRevoked(node);\r\n\r\n        for (uint256 i = 0; i < activeNodes.length; i++) {\r\n            if (activeNodes[i] == node) {\r\n                activeNodes[i] = activeNodes[activeNodes.length - 1];\r\n                activeNodes.pop();\r\n                break;\r\n            }\r\n        }\r\n\r\n        uint256 stake = pbftNodes[node].stake;\r\n        pbftNodes[node].stake = 0;\r\n        (bool ok, ) = payable(node).call{value: stake}(\"\");\r\n        require(ok, \"Stake refund failed\");\r\n\r\n        emit PBFTNodeRemoved(node);\r\n    }\r\n\r\n    function stakePBFTNode() external payable onlyPbftNode {\r\n        require(pbftNodes[msg.sender].isActive, \"Node not active\");\r\n        pbftNodes[msg.sender].stake += msg.value;\r\n    }\r\n\r\n    // Gateway staking\r\n    function stakeGateway() external payable onlyGateway {\r\n        require(msg.value > 0, \"No ETH sent\");\r\n        stakeOf[msg.sender] += msg.value;\r\n        emit GatewayStaked(msg.sender, msg.value, stakeOf[msg.sender]);\r\n    }\r\n\r\n    function unstakeGateway(uint256 amount) external onlyGateway {\r\n        require(amount > 0 && amount <= stakeOf[msg.sender], \"Invalid amount\");\r\n        uint256 remaining = stakeOf[msg.sender] - amount;\r\n        require(remaining == 0 || remaining >= minGatewayStakeWei, \"Below min stake\");\r\n        stakeOf[msg.sender] = remaining;\r\n        (bool ok, ) = payable(msg.sender).call{value: amount}(\"\");\r\n        require(ok, \"ETH transfer failed\");\r\n        emit GatewayUnstaked(msg.sender, amount, remaining);\r\n    }\r\n\r\n    function slashGateway(address gateway, uint16 pctBps, bytes32 evidenceCIDHash) external onlyAdminOrAuditor {\r\n        require(gateway != address(0), \"Invalid gateway\");\r\n        require(pctBps > 0 && pctBps <= 10000, \"Bps out of range\");\r\n        uint256 stake = stakeOf[gateway];\r\n        require(stake > 0, \"No stake\");\r\n        uint256 slashAmt = (stake * pctBps) / 10000;\r\n        stakeOf[gateway] = stake - slashAmt;\r\n        (bool ok, ) = payable(treasury).call{value: slashAmt}(\"\");\r\n        require(ok, \"Slash transfer failed\");\r\n        emit GatewaySlashed(gateway, slashAmt, evidenceCIDHash);\r\n    }\r\n\r\n    // Campaigns\r\n    function createCampaign(\r\n        uint256 campaignId,\r\n        uint256 cpcWei,\r\n        string calldata meta\r\n    ) external payable returns (uint256 id) {\r\n        require(cpcWei > 0, \"CPC must be > 0\");\r\n        require(msg.value > 0, \"Initial budget required\");\r\n        require(campaigns[campaignId].advertiser == address(0), \"Campaign ID already exists\");\r\n\r\n        campaigns[campaignId] = Campaign({\r\n            advertiser: msg.sender,\r\n            cpcWei: cpcWei,\r\n            budgetWei: msg.value,\r\n            paused: false,\r\n            meta: meta\r\n        });\r\n\r\n        campaignIds.push(campaignId);\r\n        emit CampaignCreated(campaignId, msg.sender, cpcWei, msg.value, meta);\r\n        return campaignId;\r\n    }\r\n\r\n    function fundCampaign(uint256 campaignId) external payable {\r\n        Campaign storage c = campaigns[campaignId];\r\n        require(c.advertiser != address(0), \"Campaign missing\");\r\n        require(msg.value > 0, \"No funds\");\r\n        c.budgetWei += msg.value;\r\n        emit CampaignFunded(campaignId, msg.value, c.budgetWei);\r\n    }\r\n\r\n    function setCampaignPaused(uint256 campaignId, bool paused) external {\r\n        Campaign storage c = campaigns[campaignId];\r\n        require(c.advertiser == msg.sender || isAdmin[msg.sender], \"Not authorized\");\r\n        c.paused = paused;\r\n        emit CampaignPaused(campaignId, paused);\r\n    }\r\n\r\n    // PBFT transaction processing\r\n    function proposeTransaction(\r\n        bytes32 clickHash,\r\n        uint256 campaignId,\r\n        address publisher,\r\n        uint256 timestamp,\r\n        bytes32 metadataCIDHash\r\n    ) public onlyGateway returns (bytes32) {\r\n        require(activeNodes.length >= 3, \"Insufficient PBFT nodes\");\r\n        require(pendingTransactions[clickHash].txHash == bytes32(0), \"Transaction already proposed\");\r\n\r\n        require(publisher != address(0), \"Zero publisher\");\r\n        require(!usedClickHash[clickHash], \"Duplicate click\");\r\n        Campaign storage c = campaigns[campaignId];\r\n        require(c.advertiser != address(0), \"Campaign missing\");\r\n        require(!c.paused, \"Campaign paused\");\r\n        require(c.budgetWei >= c.cpcWei, \"Insufficient budget\");\r\n\r\n        uint256 requiredVotes = (activeNodes.length * requiredConsensusPercentage) / 100;\r\n        if (requiredVotes == 0) requiredVotes = 1;\r\n\r\n        PendingTransaction storage pendingTx = pendingTransactions[clickHash];\r\n        pendingTx.txHash = clickHash;\r\n        pendingTx.campaignId = campaignId;\r\n        pendingTx.publisher = publisher;\r\n        pendingTx.gateway = msg.sender;\r\n        pendingTx.timestamp = timestamp;\r\n        pendingTx.metadataCIDHash = metadataCIDHash;\r\n        pendingTx.requiredVotes = requiredVotes;\r\n        pendingTx.proposalTime = block.timestamp;\r\n\r\n        pendingTxHashes.push(clickHash);\r\n\r\n        emit TransactionProposed(clickHash, campaignId, publisher);\r\n        return clickHash;\r\n    }\r\n\r\n    function voteOnTransaction(bytes32 txHash, bool approve) external onlyActivePbftNode {\r\n        PendingTransaction storage pendingTx = pendingTransactions[txHash];\r\n        require(pendingTx.txHash != bytes32(0), \"Transaction not found\");\r\n        require(!pendingTx.executed, \"Transaction already executed\");\r\n        require(!pendingTx.consensusReached, \"Consensus already reached\");\r\n        require(!pendingTx.hasVoted[msg.sender], \"Already voted\");\r\n        require(block.timestamp <= pendingTx.proposalTime + consensusTimeoutSeconds, \"Voting period expired\");\r\n\r\n        pendingTx.hasVoted[msg.sender] = true;\r\n        pendingTx.voteValue[msg.sender] = approve;\r\n        pendingTx.totalVotes++;\r\n\r\n        if (approve) pendingTx.approveVotes++;\r\n        else pendingTx.rejectVotes++;\r\n\r\n        pbftNodes[msg.sender].votesParticipated++;\r\n\r\n        emit ConsensusVote(txHash, msg.sender, approve);\r\n\r\n        if (pendingTx.approveVotes >= pendingTx.requiredVotes) {\r\n            pendingTx.consensusReached = true;\r\n            _executeTransaction(txHash);\r\n            emit ConsensusReached(txHash, true, pendingTx.approveVotes);\r\n        } else if (pendingTx.rejectVotes >= pendingTx.requiredVotes) {\r\n            pendingTx.consensusReached = true;\r\n            emit ConsensusReached(txHash, false, pendingTx.rejectVotes);\r\n        } else if (pendingTx.totalVotes == activeNodes.length) {\r\n            pendingTx.consensusReached = true;\r\n            emit ConsensusReached(txHash, false, pendingTx.approveVotes);\r\n        }\r\n    }\r\n\r\n    function _executeTransaction(bytes32 txHash) internal {\r\n        PendingTransaction storage pendingTx = pendingTransactions[txHash];\r\n        require(!pendingTx.executed, \"Already executed\");\r\n        require(pendingTx.consensusReached, \"Consensus not reached\");\r\n        require(pendingTx.approveVotes >= pendingTx.requiredVotes, \"Insufficient approval votes\");\r\n\r\n        pendingTx.executed = true;\r\n\r\n        usedClickHash[pendingTx.txHash] = true;\r\n        Campaign storage c = campaigns[pendingTx.campaignId];\r\n        c.budgetWei -= c.cpcWei;\r\n        publisherBalance[pendingTx.publisher] += c.cpcWei;\r\n\r\n        for (uint256 i = 0; i < activeNodes.length; i++) {\r\n            address node = activeNodes[i];\r\n            if (pendingTx.hasVoted[node] && pendingTx.voteValue[node]) {\r\n                pbftNodes[node].correctVotes++;\r\n            }\r\n        }\r\n\r\n        emit ClickRecorded(\r\n            pendingTx.txHash,\r\n            pendingTx.campaignId,\r\n            pendingTx.publisher,\r\n            pendingTx.gateway,\r\n            c.cpcWei,\r\n            pendingTx.timestamp,\r\n            pendingTx.metadataCIDHash\r\n        );\r\n\r\n        emit TransactionExecuted(txHash, pendingTx.campaignId, pendingTx.publisher);\r\n    }\r\n\r\n    function cleanupExpiredTransaction(bytes32 txHash) external {\r\n        PendingTransaction storage pendingTx = pendingTransactions[txHash];\r\n        require(pendingTx.txHash != bytes32(0), \"Transaction not found\");\r\n        require(!pendingTx.executed, \"Transaction already executed\");\r\n        require(block.timestamp > pendingTx.proposalTime + consensusTimeoutSeconds, \"Transaction not expired\");\r\n\r\n        if (!pendingTx.consensusReached) {\r\n            pendingTx.consensusReached = true;\r\n            emit ConsensusReached(txHash, false, pendingTx.approveVotes);\r\n        }\r\n\r\n        for (uint256 i = 0; i < pendingTxHashes.length; i++) {\r\n            if (pendingTxHashes[i] == txHash) {\r\n                pendingTxHashes[i] = pendingTxHashes[pendingTxHashes.length - 1];\r\n                pendingTxHashes.pop();\r\n                break;\r\n            }\r\n        }\r\n    }\r\n\r\n    function computeClickMessageHash(\r\n        bytes32 clickHash,\r\n        uint256 campaignId,\r\n        address publisher,\r\n        address gateway,\r\n        uint256 timestamp,\r\n        bytes32 metadataCIDHash\r\n    ) public view returns (bytes32) {\r\n        return keccak256(\r\n            abi.encodePacked(\r\n                block.chainid,\r\n                address(this),\r\n                \"AD_CLICK_V1\",\r\n                clickHash,\r\n                campaignId,\r\n                publisher,\r\n                gateway,\r\n                timestamp,\r\n                metadataCIDHash\r\n            )\r\n        );\r\n    }\r\n\r\n    function submitClickGatewayDirect(\r\n        bytes32 clickHash,\r\n        uint256 campaignId,\r\n        address publisher,\r\n        uint256 timestamp,\r\n        bytes32 metadataCIDHash\r\n    ) external onlyGateway {\r\n        proposeTransaction(clickHash, campaignId, publisher, timestamp, metadataCIDHash);\r\n    }\r\n\r\n    function submitClickWithSig(\r\n        bytes32 clickHash,\r\n        uint256 campaignId,\r\n        address publisher,\r\n        address gateway,\r\n        uint256 timestamp,\r\n        bytes32 metadataCIDHash,\r\n        bytes calldata signature\r\n    ) external {\r\n        bytes32 rawHash = computeClickMessageHash(\r\n            clickHash,\r\n            campaignId,\r\n            publisher,\r\n            gateway,\r\n            timestamp,\r\n            metadataCIDHash\r\n        );\r\n        bytes32 ethSigned = keccak256(abi.encodePacked(\"\\x19Ethereum Signed Message:\\n32\", rawHash));\r\n        address recovered = recoverSigner(ethSigned, signature);\r\n        require(recovered == gateway, \"Invalid signature\");\r\n        require(isGateway[gateway], \"Signer not gateway\");\r\n\r\n        if (timestamp > block.timestamp) {\r\n            require(timestamp - block.timestamp <= maxClickFutureSeconds, \"Timestamp too far in future\");\r\n        } else {\r\n            require(block.timestamp - timestamp <= maxClickAgeSeconds, \"Timestamp too old\");\r\n        }\r\n\r\n        proposeTransaction(clickHash, campaignId, publisher, timestamp, metadataCIDHash);\r\n    }\r\n\r\n    function withdrawPublisher(uint256 amount) external {\r\n        uint256 balance = publisherBalance[msg.sender];\r\n        require(amount > 0 && amount <= balance, \"Invalid amount\");\r\n        publisherBalance[msg.sender] = balance - amount;\r\n        (bool ok, ) = payable(msg.sender).call{value: amount}(\"\");\r\n        require(ok, \"ETH transfer failed\");\r\n        emit PublisherWithdrawal(msg.sender, amount);\r\n    }\r\n\r\n    // Views\r\n    function getCampaign(uint256 campaignId)\r\n        external\r\n        view\r\n        returns (address advertiser, uint256 cpcWei, uint256 budgetWei, bool paused, string memory meta)\r\n    {\r\n        Campaign storage c = campaigns[campaignId];\r\n        return (c.advertiser, c.cpcWei, c.budgetWei, c.paused, c.meta);\r\n    }\r\n\r\n    function getCampaignIds() external view returns (uint256[] memory) {\r\n        return campaignIds;\r\n    }\r\n\r\n    function getActiveNodes() external view returns (address[] memory) {\r\n        return activeNodes;\r\n    }\r\n\r\n    function getPendingTransactionHashes() external view returns (bytes32[] memory) {\r\n        return pendingTxHashes;\r\n    }\r\n\r\n    function getPendingTransactionDetails(bytes32 txHash)\r\n        external\r\n        view\r\n        returns (\r\n            uint256 campaignId,\r\n            address publisher,\r\n            address gateway,\r\n            uint256 approveVotes,\r\n            uint256 rejectVotes,\r\n            uint256 totalVotes,\r\n            uint256 requiredVotes,\r\n            bool executed,\r\n            bool consensusReached,\r\n            uint256 proposalTime\r\n        )\r\n    {\r\n        PendingTransaction storage pendingTx = pendingTransactions[txHash];\r\n        return (\r\n            pendingTx.campaignId,\r\n            pendingTx.publisher,\r\n            pendingTx.gateway,\r\n            pendingTx.approveVotes,\r\n            pendingTx.rejectVotes,\r\n            pendingTx.totalVotes,\r\n            pendingTx.requiredVotes,\r\n            pendingTx.executed,\r\n            pendingTx.consensusReached,\r\n            pendingTx.proposalTime\r\n        );\r\n    }\r\n\r\n    function hasNodeVoted(bytes32 txHash, address node) external view returns (bool) {\r\n        return pendingTransactions[txHash].hasVoted[node];\r\n    }\r\n\r\n    function getNodeVote(bytes32 txHash, address node) external view returns (bool) {\r\n        require(pendingTransactions[txHash].hasVoted[node], \"Node has not voted\");\r\n        return pendingTransactions[txHash].voteValue[node];\r\n    }\r\n\r\n    function getNodeStats(address node)\r\n        external\r\n        view\r\n        returns (bool isActive, uint256 stake, uint256 votesParticipated, uint256 correctVotes, uint256 accuracyPercentage)\r\n    {\r\n        PBFTNode storage pbftNode = pbftNodes[node];\r\n        uint256 accuracy = 0;\r\n        if (pbftNode.votesParticipated > 0) {\r\n            accuracy = (pbftNode.correctVotes * 100) / pbftNode.votesParticipated;\r\n        }\r\n        return (pbftNode.isActive, pbftNode.stake, pbftNode.votesParticipated, pbftNode.correctVotes, accuracy);\r\n    }\r\n\r\n    receive() external payable {}\r\n    fallback() external payable {}\r\n}\r\n",
  "sourcePath": "C:\\Users\\ABHINAV\\OneDrive\\Desktop\\BlockchainBased_AdFrud_Prevention\\contracts\\AdFraudPBFT.sol",
  "compiler": {
    "name": "solc",
    "version": "0.8.19+commit.7dd6d404.Emscripten.clang"
  },
  "schemaVersion": "3.4.16",
  "updatedAt": "2025-11-02T15:50:15.768Z",
  "networkType": "ethereum",
  "devdoc": {
    "kind": "dev",
    "methods": {},
    "version": 1
  },
  "userdoc": {
    "kind": "user",
    "methods": {},
    "version": 1
  }
}